:020000040800F2
:1000000000000320390E0008C92B0008CB2B000884
:10001000CD2B0008CF2B0008D12B000800000000DA
:1000200000000000000000000000000081890008BE
:10003000D32B000800000000118A00089F820008EE
:10004000890E0008890E0008890E0008890E000834
:10005000890E0008890E0008890E0008890E000824
:10006000890E0008890E0008890E0008890E000814
:10007000890E0008890E0008890E0008890E000804
:10008000890E0008890E0008D52B0008890E00088B
:10009000890E0008890E0008890E0008890E0008E4
:1000A000890E0008890E0008890E0008890E0008D4
:1000B000890E0008890E0008890E0008890E0008C4
:1000C000890E0008890E0008890E0008890E0008B4
:1000D000890E0008890E0008890E0008890E0008A4
:1000E000890E0008890E0008890E0008890E000894
:1000F000890E0008890E0008890E0008890E000884
:10010000890E0008890E0008890E0008890E000873
:10011000890E0008890E0008F12B0008890E0008DE
:10012000890E0008890E0008890E0008890E000853
:10013000890E0008890E0008890E0008890E000843
:10014000890E0008890E0008890E0008890E000833
:10015000890E0008890E0008890E0008890E000823
:10016000890E0008890E0008890E0008890E000813
:10017000890E0008890E0008890E000800000000A2
:10018000890E0008890E0008890E0008890E0008F3
:10019000890E0008890E0008890E0008890E0008E3
:0C01A000FD2B0008890E0008092C000847
:1001B00010B5054C237833B9044B13B10448AFF3A1
:1001C00000800123237010BD800300200000000088
:1001D0002866020808B5034B1BB103490348AFF377
:1001E000008008BD0000000084030020286602088B
:1001F000034613F8012B002AFBD1181A0138704767
:1002000001F0FF01102A2BDB10F0070F08D010F8C7
:10021000013B013A8B422DD010F0070F42B3F6D1CB
:10022000F0B441EA012141EA014122F007047FF0E4
:1002300000070023F0E80256083C85EA010586EA3B
:10024000010685FA47F5A3FA87F586FA47F6A5FA77
:1002500087F68EB9EED1F0BC01F0FF0102F0070283
:1002600032B110F8013B013A83EA010313B1F8D12E
:100270000020704701387047002D06BF354603380F
:10028000073815F0010F07D1013015F4807F02BF48
:10029000013015F4C03F0130F0BC0138704700BF99
:1002A00070B54FF0FF0C4CF4E06C1CEA11541DBF0C
:1002B0001CEA135594EA0C0F95EA0C0F00F0DEF8D7
:1002C0002C4481EA030621EA4C5123EA4C5350EABC
:1002D000013518BF52EA033541F4801143F480130D
:1002E00038D0A0FB02CE4FF00005E1FB02E506F09E
:1002F0000042E0FB03E54FF00006E1FB03569CF0F3
:10030000000F18BF4EF0010EA4F1FF04B6F5007FF8
:1003100064F5407404D25FEA4E0E6D4146EB06066A
:1003200042EAC62141EA55514FEAC52040EA5E50F3
:100330004FEACE2EB4F1FD0C88BFBCF5E06F1ED89D
:10034000BEF1004F08BF5FEA500E50F1000041EBD4
:10035000045170BD06F0004646EA010140EA020081
:1003600081EA0301B4EB5C04C2BFD4EB0C0541EAA3
:10037000045170BD41F480114FF0000E013C00F3B8
:10038000AB8014F1360FDEBF002001F0004170BDDC
:10039000C4F10004203C35DA0C341BDC04F11404F5
:1003A000C4F1200500FA05F320FA04F001FA05F281
:1003B00040EA020001F0004221F0004110EBD3704E
:1003C00021FA04F642EB06015EEA430E08BF20EA7A
:1003D000D37070BDC4F10C04C4F1200500FA04F31D
:1003E00020FA05F001FA04F240EA020001F00041AF
:1003F00010EBD37041F100015EEA430E08BF20EA22
:10040000D37070BDC4F1200500FA05F24EEA020E69
:1004100020FA04F301FA05F243EA020321FA04F098
:1004200001F0004121FA04F220EA020000EBD3704F
:100430005EEA430E08BF20EAD37070BD94F0000F4F
:100440000FD101F00046400041EB010111F4801F83
:1004500008BF013CF7D041EA060195F0000F18BF34
:10046000704703F00046520043EB030313F4801F70
:1004700008BF013DF7D043EA0603704794EA0C0F2A
:100480000CEA135518BF95EA0C0F0CD050EA410640
:1004900018BF52EA4306D1D181EA030101F00041BD
:1004A0004FF0000070BD50EA410606BF10461946E5
:1004B00052EA430619D094EA0C0F02D150EA0136F1
:1004C00013D195EA0C0F05D152EA03361CBF104632
:1004D00019460AD181EA030101F0004141F0FE41D1
:1004E00041F470014FF0000070BD41F0FE4141F455
:1004F000780170BD81F0004102E000BF83F000434D
:1005000030B54FEA41044FEA430594EA050F08BFAE
:1005100090EA020F1FBF54EA000C55EA020C7FEA72
:10052000645C7FEA655C00F0E2804FEA5454D4EBEF
:100530005555B8BF6D420CDD2C4480EA020281EAB9
:10054000030382EA000083EA010180EA020281EAF1
:100550000303362D88BF30BD11F0004F4FEA013143
:100560004FF4801C4CEA113102D0404261EB410152
:1005700013F0004F4FEA03334CEA133302D05242D8
:1005800063EB430394EA050F00F0A780A4F1010494
:10059000D5F1200E0DDB02FA0EFC22FA05F28018CE
:1005A00041F1000103FA0EF2801843FA05F35941B4
:1005B0000EE0A5F120050EF1200E012A03FA0EFC33
:1005C00028BF4CF0020C43FA05F3C01851EBE3715D
:1005D00001F0004507D54FF0000EDCF1000C7EEB7A
:1005E00000006EEB0101B1F5801F1BD3B1F5001FB8
:1005F0000CD349085FEA30004FEA3C0C04F10104D7
:100600004FEA445212F5800F80F09A80BCF1004FFF
:1006100008BF5FEA500C50F1000041EB045141EA81
:10062000050130BD5FEA4C0C404141EB0101013C4A
:1006300028BFB1F5801FE9D291F0000F04BF014639
:100640000020B1FA81F308BF2033A3F10B03B3F10B
:1006500020020CDA0C3208DD02F1140CC2F10C029B
:1006600001FA0CF021FA02F10CE002F11402D8BFF9
:10067000C2F1200C01FA02F120FA0CFCDCBF41EAC5
:100680000C019040E41AA2BF01EB0451294330BD94
:100690006FEA04041F3C1CDA0C340EDC04F1140471
:1006A000C4F1200220FA04F001FA02F340EA030048
:1006B00021FA04F345EA030130BDC4F10C04C4F18E
:1006C000200220FA02F001FA04F340EA030029466E
:1006D00030BD21FA04F0294630BD94F0000F83F4B8
:1006E000801306BF81F480110134013D4EE77FEA9B
:1006F000645C18BF7FEA655C29D094EA050F08BFE7
:1007000090EA020F05D054EA000C04BF19461046C7
:1007100030BD91EA030F1EBF0021002030BD5FEA0B
:10072000545C05D14000494128BF41F0004130BD33
:1007300014F580043CBF01F5801130BD01F0004587
:1007400045F0FE4141F470014FF0000030BD7FEAFA
:10075000645C1ABF194610467FEA655C1CBF0B46F5
:10076000024650EA013406BF52EA033591EA030F0C
:1007700041F4002130BD00BF90F0000F04BF002104
:10078000704730B54FF4806404F132044FF0000537
:100790004FF0000150E700BF90F0000F04BF0021B0
:1007A000704730B54FF4806404F1320410F0004516
:1007B00048BF40424FF000013EE700BF42004FEA11
:1007C000E2014FEA31014FEA02701FBF12F07F438E
:1007D00093F07F4F81F06051704732F07F4208BF45
:1007E000704793F07F4F04BF41F40021704730B54C
:1007F0004FF4607401F0004521F000411CE700BF98
:1008000050EA010208BF704730B54FF000050AE01A
:1008100050EA010208BF704730B511F0004502D51B
:10082000404261EB41014FF4806404F132045FEA1D
:10083000915C3FF4D8AE4FF003025FEADC0C18BFC6
:1008400003325FEADC0C18BF033202EBDC02C2F1B8
:10085000200300FA03FC20FA02F001FA03FE40EA4A
:100860000E0021FA02F11444BDE600BF4FF0FF3C38
:1008700006E000BF4FF0010C02E000BF4FF0010C9A
:100880004DF804CD4FEA410C7FEA6C5C4FEA430C13
:1008900018BF7FEA6C5C1BD001B050EA410C0CBF62
:1008A00052EA430C91EA030F02BF90EA020F0020C4
:1008B000704710F1000F91EA030F58BF994208BF2B
:1008C00090422CBFD8176FEAE37040F001007047E8
:1008D0004FEA410C7FEA6C5C02D150EA013C07D13F
:1008E0004FEA430C7FEA6C5CD6D152EA033CD3D08A
:1008F0005DF8040B704700BF8446104662468C4684
:100900001946634600E000BF01B5FFF7B7FF0028B6
:1009100048BF10F1000F01BD4DF808EDFFF7F4FFDF
:100920000CBF012000205DF808FB00BF4DF808ED6A
:10093000FFF7EAFF34BF012000205DF808FB00BF8D
:100940004DF808EDFFF7E0FF94BF012000205DF8AF
:1009500008FB00BF4DF808EDFFF7CEFF94BF012064
:1009600000205DF808FB00BF4DF808EDFFF7C4FF5D
:1009700034BF012000205DF808FB00BF4FEA4102B0
:1009800012F5001215D211D56FF47873B3EB6252E1
:1009900012D94FEAC12343F0004343EA505311F008
:1009A000004F23FA02F018BF404270474FF000009A
:1009B000704750EA013005D111F0004008BF6FF0D8
:1009C000004070474FF00000704700BF4FEA4102FF
:1009D000B2F1E04324BFB3F5001CDCF1FE5C0DD99D
:1009E00001F0004C4FEAC0024CEA5070B2F1004FE7
:1009F00040EB830008BF20F00100704711F0804FEA
:100A000021D113F13872BCBF01F00040704741F4AE
:100A100080114FEA5252C2F11802C2F1200C10FAB2
:100A20000CF320FA02F018BF40F001004FEAC12396
:100A30004FEAD32303FA0CFC40EA0C0023FA02F33A
:100A40004FEA4303CCE77FEA625307D150EA013310
:100A50001EBF4FF0FE4040F44000704701F00040E0
:100A600040F0FE4040F40000704700BF7BB972B90F
:100A70000029BEBF00204FF0004106E008BF00285B
:100A80001CBF6FF000414FF0FF3000F0D3B9ADF163
:100A9000080C6DE904CE002909DB002B1ADB00F0FD
:100AA0004DF8DDF804E0DDE9022304B07047404270
:100AB00061EB4101002B1BDB00F040F8DDF804E0A6
:100AC000DDE9022304B0404261EB4101524263EB95
:100AD00043037047524263EB430300F02FF8DDF805
:100AE00004E0DDE9022304B0404261EB41017047BC
:100AF000524263EB430300F021F8DDF804E0DDE946
:100B0000022304B0524263EB4303704753B94AB91E
:100B1000002908BF00281CBF4FF0FF314FF0FF3005
:100B200000F088B9ADF1080C6DE904CE00F006F8CC
:100B3000DDF804E0DDE9022304B070472DE9F04759
:100B4000089D8E4604468846002B4AD18A421746A5
:100B500062D9B2FA82F64EB1C6F1200301FA06F864
:100B600020FA03F3B74043EA0808B4404FEA174EAF
:100B70001FFA87FCB8FBFEF1230C0EFB118843EA39
:100B8000084301FB0CF29A4209D9FB1801F1FF302E
:100B900080F0EA809A4240F2E78002393B449A1A98
:100BA000A3B2B2FBFEF00EFB102243EA024300FBAD
:100BB0000CFC9C4509D9FB1800F1FF3280F0D6806F
:100BC0009C4540F2D3803B44023840EA0140A3EB0D
:100BD0000C0300211DB1F3400022C5E90032BDE83D
:100BE000F0878B4205D90DB1C5E900010021084607
:100BF000F5E7B3FA83F1002946D1734502D3824267
:100C000000F20581841A6EEB030201209046002D4C
:100C1000E5D0C5E90048E2E7002A00F09080B2FA8A
:100C200082F6002E40F0A4808A1A030C4FEA174E79
:100C300080B2BCB20121B2FBFEFC0EFB1C2243EAD7
:100C4000024304FB0CF29A4207D9FB180CF1FF385F
:100C500002D29A4200F2E080C4469B1AB3FBFEF235
:100C60000EFB123340EA034302FB04F49C4207D913
:100C7000FB1802F1FF3002D29C4200F2CA80024609
:100C80001B1B42EA0C40A5E7C1F120068B4022FA6B
:100C900006F71F430EFA01F420FA06F32EFA06FEB9
:100CA0004FEA1749234300FA01F81FFA87FCBEFBFD
:100CB000F9F01C0C09FB10EE44EA0E4400FB0CFE9C
:100CC000A64502FA01F209D93C1900F1FF3A80F079
:100CD0009C80A64540F2998002383C44A4EB0E0467
:100CE0001FFA83FEB4FBF9F309FB13444EEA0444F4
:100CF00003FB0CFCA44508D93C1903F1FF3E80F02E
:100D00008280A4457FD9023B3C4443EA0040A4EBE7
:100D10000C04A0FB02EC64457346E14662D35FD04D
:100D20005DB1B8EB030264EB090404FA06F622FA9B
:100D300001F31E43CC40C5E9006400214FE7B1FB3D
:100D4000F2FC010C41EA0E4180B240EA01423B460E
:100D500038463C46B846BE462026B1FBF7F1A2EB2A
:100D6000080241EA0C4166E7014618E710462CE705
:100D7000C6F120022EFA02F3B740B14020FA02F287
:100D80004FEA174E0A43B3FBFEF8BCB20EFB183312
:100D9000110C41EA034108FB04F9B04089454FEAD0
:100DA000104380B23ED9791808F1FF3C01D2894541
:100DB0001FD8A1EB0901B1FBFEF909FB04F80EFBFA
:100DC000191192B242EA0142424529D2BA1809F1F8
:100DD000FF31C4D24245C2D2A9F102013A44BEE772
:100DE000F0459DD2BEEB02036CEB070C0138E146E7
:100DF00096E7A7EB09094944A8F1020CB1FBFEF9FB
:100E000009FB04F8DBE773467FE7504666E70846D0
:100E1000FDE63B44023A33E7ACF1020C3B441CE7ED
:100E200049469CE7A1EB0901C446B1FBFEF909FB69
:100E300004F8C4E7704700BFDFF834D0002103E0B6
:100E40000C4B5B58435004310B480C4B42189A42F0
:100E5000F6D30B4A02E0002342F8043B094B9A42C6
:100E6000F9D304F08FFB24F0E3FC01F061F8704744
:100E700000000320685D12080000002064010020CB
:100E800080030020E03A0120FEE7704708B500F03B
:100E9000B9FDBDE8084000F03DBD00F0B5BD7047AC
:100EA00010B50421044622F0A7F9204610BD000029
:100EB00038B50C4B0C4C18800C4B822019806368A1
:100EC000984740F6110398420AD1094D23682C60D7
:100ED000822098472B688220DB689847002038BD25
:100EE0000120FCE7A60300204C000020A403002002
:100EF000A80300204FF4A071F020FFF7D9BF000035
:100F0000F7B5394D2B6804461B698220984720802D
:100F100000284ED02B680DF106025B6901A98220E2
:100F20009847324B1B78002B4BD0BDF8062040F67B
:100F300074639A423FD9ADF80630BDF806209B1A7B
:100F40009BB20A2B42D90B22B3FBF2F3284A128838
:100F5000934201D9013A93B2BDF80420254840F6E6
:100F6000B8318A4234D8C2F571620E32016892B249
:100F70000F25B2FBF5F2204D2D88AA4284BF05F162
:100F8000FF35AAB28A4215468EB22AD9921B91B277
:100F90001A4E3768BB42BAB28CBF9A1AD21A92B2B2
:100FA00011440529C4BF056033600368638033685A
:100FB000A38003B0F0BDB32A9CBFB422ADF80620D5
:100FC000BBE7BDF80630A3F5B473B9E70023C3E768
:100FD000C2F56D62083292B20E2A0168C8D80025A7
:100FE0002A46891A89B2D3E7A80300207C1C002076
:100FF000A4030020A0030020A60300209C030020DF
:1010000037B568460D461446FFF77AFFBDF8000075
:1010100030B1BDF802302B60BDF8043023600120F0
:1010200003B030BD032821D8DFE800F0020B12190D
:101030000F4B1A68B2FA82F2520904210D4804F0EB
:10104000F9BF0B4B5A68B2FA82F252090821F5E750
:10105000074B9A68B2FA82F252091021EEE7044B6C
:10106000DA68B2FA82F252092021E7E7704700BF3E
:10107000AC03002000100240032821D8DFE800F074
:10108000020B12190F4B1A68003A18BF01220421F3
:101090000D4804F0CFBF0B4B5A68003A18BF01222D
:1010A0000821F5E7074B9A68003A18BF0122102182
:1010B000EEE7044BDA68003A18BF01222021E7E787
:1010C000704700BFAC0300200010024003280DD879
:1010D000DFE800F00206080A0421054804F0AFBF6B
:1010E0000821FAE71021F8E72021F6E7704700BF52
:1010F0000010024008B5032811D8DFE800F0020A0A
:101100000C0E0421074804F08FFF431E584258413B
:1011100008BD0821F6E71021F4E72021F2E70020BE
:10112000F3E700BF0010024070B5084D002401260F
:10113000E0B2FFF7DFFF18B12B68012B18BF2E605C
:101140000134052C05F10405F2D170BDAC0300207B
:10115000012380F8781080F87930704770470020BC
:1011600070470000034B4164003918BF012119701A
:10117000704700BF9B2D0120704700207047836B94
:101180000BB10846184770474FF6FF70704740682C
:1011900003689B69184770477047704770477047EE
:1011A00010B5044600F046FD23680349D3F890309B
:1011B0002046BDE810401847000000D008B503687D
:1011C0000446D3F88430984723682046DB6F98475D
:1011D00000F0ECF8236820465B6F9847292001F067
:1011E0007DF900F0E3F8236820465B6F9847F8E745
:1011F00010B504460AF0BCF923682046D3F8BC3089
:10120000BDE81040184700F0F9BC00F0FDBC00F04C
:101210002FBD00F0CFBC00F03FBD00F047BD00F097
:10122000D3BC09F0D3BB10B58421044621F0E4FF00
:10123000204610BD10B590F8341090F878400C4B53
:101240008C421A7809D03AB90A4A0B49148808889E
:1012500010800C8001221A7010BD002AFCD0054AB3
:1012600005491488088810800C800022F3E700BF2D
:10127000942D0120902D0120922D012070B50D4656
:10128000194635B9094B0A4A0A4840F2FF2123F0B2
:10129000CFFFC0E90F52084B003A18BF01221A7065
:1012A0000368BDE87040D3F890301847E066020844
:1012B00018670208666702089A2D012008B5094BD5
:1012C0001B888B4203D8084B1B88934205D9074BD8
:1012D000074A0848A32123F0ABFF074B1980074BAF
:1012E0001A8008BD902D0120922D0120AB670208C5
:1012F0000E68020866670208962D0120982D0120CD
:10130000034690F87A0018B1586803681B681847BC
:1013100070470000012108B50022084607F048F890
:101320000A4B186028B90A4B0A4A28210A4823F0B8
:101330007FFF00220421012007F0D9F8074B186035
:1013400018B9074B034A2C21F0E708BDC003002061
:10135000516802089A680208C9680208BC030020A4
:1013600014690208024B4FF0FF31186807F06AB8A1
:10137000C0030020014B186807F090B8C00300209C
:10138000024B0021186807F05DB800BFC0030020C1
:10139000FFF7F0BF03480449006800231A4607F02E
:1013A000E1B800BFBC0300200400002013B5084CC6
:1013B00000231A4601A9206807F005F920684FF0BC
:1013C000FF33002201A907F0FEF802B010BD00BFF4
:1013D000BC03002003685B6C18470120704703685A
:1013E0009B6A1847FEE740F2EF307047054B0360F9
:1013F000054B4FF08062C3F88820BFF34F8FBFF3D7
:101400006F8F70470C75020800E100E010B50446CC
:101410004FF45A61FFF7EAFF204621F0EDFE204627
:1014200010BD000082B0002301930E4B1A6B42F4F2
:1014300000021A631A6B02F400020192019A1A69FF
:1014400042F400021A611A6922F400021A61064B82
:10145000064A1A61064A5A61064B4FF080629A604A
:1014600002B0704700380240581E0020C516000820
:10147000E513000800E100E008B50A2809D8DFE814
:1014800000F006100E0808080810101010000220C6
:1014900008BD054B054A0648902123F0C9FE0020EF
:1014A000F6E70120F4E700BF5669020871690208F7
:1014B000BC69020838B50C46887FFFF7DDFFA58AB6
:1014C000E28A164B2169586342EA05425A64628BEC
:1014D000D963521B1A642568082D0ED19A611A61CE
:1014E0005862207F0E4A42EA0062DA61E2681A62BC
:1014F0000C4A5961D9601A6038BD0022D8611A615E
:10150000E1680A0A480902F4784200F4FC600243E8
:10151000C1F3C4010A439A63034AECE700B00240F6
:1015200009000100012302000123030008B50B2874
:101530000BD8DFE800F00612100A0A0A0A080808A9
:101540000808022008BD0520FCE7054B054A0648AF
:101550006F2123F06DFE0020F4E70120F2E700BFC9
:1015600056690208056A0208BC6902082DE9F041C3
:1015700091F81D800C464046FFF7D8FFA77F05462F
:101580003846FFF7D3FF06463846FFF775FFA18AB6
:10159000628B444B521A1A649A61228B521A1A6156
:1015A000E28A586342EA01425A6421696268D96357
:1015B000DA602068802828D0227F0FD8202867D0C2
:1015C000402865D004281AD0364B45EA026545F418
:1015D0000035B845DD6161D0334A44E0B0F5807F25
:1015E00004D0B0F5007FEFD1304800E0304840EA49
:1015F0000262DA61E2681A625E62596132E045EACB
:10160000026242F40032DA61F6E7A068021DDA6293
:10161000227F45EA026545F40035DD615E6259616D
:10162000017841B1012921D0224B234A23484FF4AC
:101630008D7123F0FDFDDA69418822F47F42013982
:1016400022F0100242EA0122DA610121154BDA6927
:1016500042F02002DA61DA699206FCD410229A6024
:101660000029B9D0164A1A60BDE8F081B2F1FF0135
:10167000DA69408822F47F4200F1FF3022F0100244
:1016800042EA002242F0100218BF0121DA61DDE7D0
:1016900045EA0262034B42F40032B4E742F20132FF
:1016A000E1E700BF00B00240012301000900020091
:1016B0000A0002004F6A0208696A0208BC6902084F
:1016C00001230200024B1B68586803685B691847D6
:1016D0009C2D012070B5044625460A4B0C3000268F
:1016E00060602672667245F8203B602229460AF047
:1016F00095F804F55A63EE6024359D42FBD12046EF
:1017000070BD00BF0C750208034B1A68D207FCD4E9
:1017100023229A60704700BF00B00240704700006B
:1017200030B50F4C2568ED07FCD423250904A560CE
:1017300041F001010225FF2B65636164E0630AD07B
:101740000849656241EA0363E361074B2262606115
:10175000E060236030BDE561039BA363034BF8E7C2
:1017600000B0024009000100010002000100030076
:1017700030B50E4C2568ED07FCD423251204A56076
:1017800042F001020225FF2B65636264E063E160C1
:1017900008D01B0643F00213E361054B65626061EC
:1017A000236030BD034BE3610123F9E700B0024041
:1017B00001000200020002FF30B50B4C2568ED0766
:1017C000FCD4232512041B06A56043F40033022534
:1017D00042F0010265636264E063E160E361034B30
:1017E00065626061236030BD00B00240010002000C
:1017F000012070471020704700EB0110083070473F
:1018000000EB0110083070470120704740F26C7007
:10181000704740F26C7303FB01000830704740F2E0
:101820006C7303FB010008307047012070471020E3
:10183000704700EB01100830704700EB01100830D2
:101840007047084601F00EBD10B5034B0360044617
:1018500008F011FE204610BDC475020810B50446FC
:10186000FFF7F2FF2046182121F0C6FC204610BDEC
:1018700010B5034B0360044608F0FDFD204610BD83
:101880009075020810B50446FFF7F2FF204640F2BB
:10189000747121F0B1FC204610BD000010B5034B5F
:1018A0000360044608F0E7FD204610BD5C750208A1
:1018B00010B50446FFF7F2FF2046182121F09CFCEA
:1018C000204610BD10B5084B0360044600F5F460D7
:1018D000FFF7BAFF04F12C00FFF7CAFF04F1140070
:1018E000FFF7DCFF204610BDF875020808B5024876
:1018F000FFF7E8FF08BD00BF9C12002010B50446AA
:10190000FFF7E0FF204640F6181121F075FC204655
:1019100010BD00002DE9F34101F0EAF9054601F0A0
:10192000EBF900240146234628462246009412F093
:10193000B1FB274B274A1A60204602F073F9264D67
:10194000264B274A27489A6012F00CFB2B68BFF3FE
:101950005B8FDB0735D4284621F050FC88B3224C3E
:10196000224B236004F2BC7604F1140004F12C082D
:1019700004F5F4676060C4F80880E760266108F049
:101980007BFD1B4B6361404608F076FD194BE3621B
:10199000384608F071FD184BC4F8A03704F5F7601D
:1019A00002F0C4F9224604F5F761304602F0B4F9BA
:1019B000304601F057FC114823F058FC284621F02E
:1019C00029FC0F4802B0BDE8F041FFF7E9BB00BFBA
:1019D000002E0120480400209812002068040020F6
:1019E0004C040020080000209C120020F87502081A
:1019F0005C75020890750208C4750208ED180008AD
:101A0000C4030020704700000148FFF7D7BB00BFA8
:101A1000C403002070B5264E264C274D274B23606B
:101A20003046FFF757FE284617F03AFC244810F0DE
:101A300005F8244B2448DC6000224FF48071C3E990
:101A4000121222491A86C3E91A12214983F8582032
:101A5000C3E91E011F49C3F880101F491F480B60CE
:101A6000F021C3E90422C3E90622C3E90822C3E93D
:101A70000A22C3E90E22C3E91022C3E91422C3E9F2
:101A800017225A6683F870205A67C3E901650180FE
:101A90001348018013484FF4A0710180124801805F
:101AA00012490A70012283F83420114A1A6070BD6D
:101AB000F40400209412002068040020D06602087C
:101AC0004C040020C40300200000010101000001BB
:101AD000000450001A0014009C2D0120902D0120BC
:101AE000962D0120922D0120982D0120942D01206A
:101AF000207402080148FFF779BC00BFF4040020FD
:101B00000020704781807047C18070470181704715
:101B1000418170477047704770477047704710B4F5
:101B2000C4880368121B84885B6D091B12B25DF8C0
:101B3000044B09B218474FF6FF7383814FF0FF3310
:101B400003621368C36110607047002070478B8880
:101B5000838001207047704780F82610704790F806
:101B60002600704710B50022B1F90840B1F90A10FB
:101B7000028042808480C18010BD002202804280A9
:101B80008280C28070470177704780ED080A7047F5
:101B900080F82410704780F82510704701207047A6
:101BA000983070478C30704784307047704770476A
:101BB00070470000034B902283F85A2383F8582380
:101BC000704700BF00E100E0094A0A49D3680A48AB
:101BD000C3F30A03013B9BB20B801169C1F30A01F5
:101BE000013901801364536B43F001035363704761
:101BF00000680140B61B0020B41B0020014BD3F845
:101C0000AC00704700680140024B0122C3F8AC10E1
:101C10005A6270470068014010B52C21044621F03B
:101C2000EBFA204610BD10B5BC21044621F0E4FAC1
:101C3000204610BD70B5044608F01DFF23689D6E58
:101C40000EF06CFC01462046A8472368054AD3F8ED
:101C50008C502046AC460023BDE87040A2F51631FA
:101C6000604700BF00B004D008F0ECBE08F0F6BE3C
:101C700008F0B2BE09F021B890F8252012B103682F
:101C80005B691847704790F825201AB190F8242016
:101C900002B1186070470000034B4FF080629A60F9
:101CA0004FF080729A60704700E100E0084B4FF0FF
:101CB0008062C3F88820BFF34F8FBFF36F8F4FF060
:101CC0008072C3F88820BFF34F8FBFF36F8F7047C8
:101CD00000E100E070B50023124E8380124B0360D8
:101CE000336893F8582005460AB1D86C00B9986853
:101CF0000368DB6A98473368B0FA80F4D86C6409EB
:101D000030B10368DB6A9847002808BF44F001043B
:101D10002CB9064B064A07482C2123F089FA28469D
:101D200070BD00BF9C2D01200C760208A76A020836
:101D3000056B02083E6B020870B5254E3568BFF38F
:101D40005B8F15F0010540D1304621F057FA00288D
:101D50003BD0204C204B256104F13400C4E9003510
:101D6000C4E90255E584A562A58510F04CF904F19B
:101D700058000BF009FA194BA3652046184B40F8A0
:101D8000843BFFF7A7FF174BC4F884302433C4F813
:101D90008C304FF4C803C4E928350023C4F8AC30B4
:101DA000C4F8B030C4F8B430C4F8B8300E480F4BA3
:101DB000C4F89050C4F89C50C4F8A850C4F89830A7
:101DC00023F054FA304621F025FA024870BD00BFD6
:101DD000B81B0020BC1B0020DC7C02082C7602080B
:101DE000A4760208907C0208B11B0008707C0208EF
:101DF00038B5184C23685BB3174B184A1B6C118815
:101E00008B4216D1164B198804F01CFF236893F8F7
:101E10006A200025013283F86A2083F87C50FFF79E
:101E2000B9FA206809F0A4FB2846BDE83840FFF75E
:101E3000F9B804F007FF2468236820461B6A984716
:101E4000012384F87C300020BDE83840FFF714B946
:101E500038BD00BF9C2D012000680140B61B00204A
:101E6000B41B002007B5064BADF806001B680548FB
:101E700001220DF1060105F095FC03B05DF804FBAD
:101E80000C000020041D002008B5642006F084FA30
:101E9000FBE7000030B595B0102200210AA823F01E
:101EA0001EFC1422002103A823F019FC00241E4B61
:101EB00001941A6C42F080521A641B6C03F0805338
:101EC0000193019B194B02941A6842F440421A6034
:101ED0001B6803F4404302930122029B4FF48033BA
:101EE000CDE9082302254FF480030821CDE90E53E4
:101EF0004FF4B473CDE9101308A80423139312957B
:101F000004F0F8FE04F0BCFE0F23CDE903354FF4D6
:101F1000A0504FF48053CDE90603052103A8059492
:101F200005F0C4F815B030BD003802400070004024
:101F30002DE980489BB003F033FBFFF7ABFF142281
:101F400000210DA823F0CBFB0024C84B00941A6B92
:101F5000C74842F010021A631A6B02F01002009296
:101F6000009A01941A6B42F020021A631A6B02F075
:101F700020020192019A02941A6B42F080021A63C5
:101F80001A6B02F080020292029A03941A6B42F0DA
:101F900004021A631A6B02F004020392039A049477
:101FA0001A6B42F001021A631A6B02F001020492EA
:101FB000049A05941A6B42F002021A631A6B02F03B
:101FC00002020592059A06941A6B42F040021A63C7
:101FD0001A6B02F040020692069A07941A6B42F0BE
:101FE00008021A631B6B03F00803224607933C2187
:101FF000079B04F01FF89F480122022104F01AF801
:1020000022469C48042104F015F822469A484FF4D1
:10201000405104F00FF801263C23032594480F9407
:102020000DA9CDE90D36109503F01AFF062391484E
:102030000DA9CDE90D364FF01008CDE90F4403F09E
:102040000FFF8C480F940DA90227CDE90D8503F0F1
:1020500007FF0DA94FF4405387480F94CDE90D3683
:10206000109703F0FDFE8548854B864D036003F015
:10207000EDFDDFF838C2844B2C62C5E900C3284669
:102080004FF48043C5E90434C5E90244C5E9064478
:1020900004F0DEF94146284604F022FC2146284699
:1020A00004F03DFC794DDFF808E2AC624FF4827336
:1020B000C5E900E34FF400781823C5E906832846F4
:1020C0000A23C5E90244C5E90444C5E90844EB62B2
:1020D00005F00CFB8F232246394666488DF82430E4
:1020E0008DF8344003F0A6FF32464FF47A7309A905
:1020F000284605F057FB4FF47A7332460DA928465F
:1021000005F0FCFC324639465A48614D03F092FF17
:102110009DF83430D32B04BF5E4B1E705E4B0126FE
:10212000C5E90036102740230024C5E904734FF4A5
:10213000C073C5E906344FF40063C5E908344FF4B1
:1021400000534FF002094FF0040AAB624FF0030B4B
:1021500007230DA92846CDE90D93CDE90FA34FF034
:102160000808C5E9024ACDE911B9CDF84C9005F04F
:10217000A1F94FF6FF7209A92846CDE90A8608940D
:1021800009960C9405F0B6F9304603F035FA4FF68F
:10219000FF7209A92846CDE90998CDE90B6405F03D
:1021A000A9F94FF6FF7209A92846CDE909B8CDE98A
:1021B0000BA405F09FF94FF40C730893089B0C9344
:1021C0004FF6FF7209A92846CDE909A80B9605F03C
:1021D00091F940F26A51284605F0AAF934222146C5
:1021E0000DEB020023F07BFA2C4D2D4B2C61C5E941
:1021F00000340923C5E905361D23C5E9073B40F234
:102200000D1240F24313C5E9092340F2171140F2C1
:1022100047132846C5E90B13C5E90244AC8685F887
:10222000364004F017FCFF21F022CDE912144FF0E4
:1022300005084FF480614FF4A073CDE90E24CDE979
:102240001418CDE916420DA922462846CDE91039C9
:10225000144D18930D94ADF864408DF8664004F069
:10226000C4FC114B2B601B68984723E000380240E8
:102270000010024000080240000C0240981E00209E
:1022800000300240041E0020A0860100041D002032
:10229000881C00207C1C0020400100A05C1D002048
:1022A00000680140781C002014000020005C004001
:1022B000005001402B683E4DDB6898473D4B284657
:1022C000C5E90034C5E90294C5E90A49C5E90C44E9
:1022D00003F0CCFC3146284603F07EFD364D3748EE
:1022E000DFF8049104614FF4E133C0E900530C239B
:1022F000334DC461C0E90534C0E9024405F0BAFEBB
:102300003A4621460DA823F0EAF92E4BAC604FF473
:10231000803A2846C5E9003A2C612C7685F82040A1
:10232000EC62C5F82890EC60EE6185F830406E6193
:1023300003F076F90D230DA92846CDE90D36224D7F
:102340000F9403F093FB3A4621460DA823F0C7F9FA
:102350001E4BAC602846C5E9003AC5E90A942C61D9
:102360002C7685F82040EC60EE6185F830406E6197
:1023700003F056F90DA92846CDE90D860F9403F018
:1023800075FBFEF783FDFEF780FD05F095FF104A13
:102390001048214605F0BCFF0F4B104A186021463B
:1023A0000F4805F0B5FF0F4B186005F097FFFEE7EB
:1023B000581E002000B0024000100140BC1C00204C
:1023C000E81E002000200140A01E00200021014046
:1023D0000C770208891E0008841C0020E876020899
:1023E0009B0E0008801C00200100000F7047704702
:1023F0007FB5094B8DF817201B6802930DF117026A
:102400000123009201930A460146044804F0C8F8EB
:1024100007B05DF804FB00BF10000020041E002080
:102420007FB500238DF81730084B1B6802930A46CE
:1024300001230DF11701009101930146044804F0B6
:102440003FF99DF8170007B05DF804FB100000206D
:10245000041E00201FB5084C24680092CDE9013409
:102460000A4601230146054804F02AF9003818BF3E
:10247000012004B010BD00BF10000020041E002089
:1024800003F0BAB810B5064C00222046042103F030
:10249000D1FD20460122BDE81040042103F0CABD51
:1024A0000008024038B50B4D044601220A484FF49B
:1024B000005103F0BFFD00220421284603F0BAFDBD
:1024C0002046FFF7CFFC28460122BDE83840042112
:1024D00003F0B0BD00080240000C024038B50B4DBF
:1024E000044600220A484FF4005103F0A3FD0022E5
:1024F0000421284603F09EFD2046FFF7B3FC284642
:102500000122BDE83840042103F094BD00080240D8
:10251000000C0240F7B5144E144F05460C463046E9
:102520000022042103F086FD00224FF400513846BA
:1025300003F080FD2846FFF795FC0D4B0D481B6806
:10254000224601A905F0DAFA384601224FF400517B
:10255000019C03F06FFD30460122042103F06AFD67
:10256000204603B0F0BD00BF00080240000C02404E
:102570000C000020041D002003F03EB80268034B4D
:102580009A4201D103F026B8704700BF0010004006
:102590007047000082B00E4B00220092596C41F44B
:1025A00080415964596C01F4804100910099019275
:1025B000196C41F0805119641B6C03F08053019336
:1025C000019B0F216FF0010002B003F0FFBA00BFC2
:1025D0000038024010B514228AB0044600210DEBE9
:1025E000020023F07CF82368254A934227D1254B2B
:1025F0002548002401945A6C42F480725A645A6C43
:1026000002F480720192019A02941A6B42F0040261
:102610001A631B6B03F0040302930821029B03233C
:10262000CDE9051305A903F01BFC12202246052164
:1026300003F0CCFA122003F0FBFA0AB010BD134AE3
:102640009342FAD10F4B1248002403945A6C42F47F
:1026500000725A645A6C02F400720392039A049452
:102660001A6B42F001021A631B6B03F0010304931F
:10267000049B20220323CDE9052305A9D3E700BF4E
:1026800000200140003802400008024000210140C3
:10269000000002400268094B9A4282B00BD100232D
:1026A0000193074B1A6B42F480521A631B6B03F4BD
:1026B00080530193019B02B0704700BF003002407D
:1026C0000038024007B50F4B02689A4216D100222B
:1026D000A3F5F0430192196B41F4000119631B6BE0
:1026E00003F40003019305215A20019B03F06EFAC5
:1026F0005A2003B05DF804EB03F09ABA03B05DF81A
:1027000004FB00BF00B002402DE9F043044689B04D
:102710001422002103A822F0E2FF2268244B9A42EF
:1027200043D1244C244800250095236B43F0040337
:102730002363236B03F004030093009B0195236B39
:1027400043F001032363236B03F001030193019B17
:102750004FF012094FF400734FF0010803270426CD
:1027600003A9CDE90339CDE90587079603F078FB86
:102770004FF480731148079603A9CDE90339CDE9D9
:10278000058703F06DFB0295236C43F4000323647B
:10279000236C03F400030293029B236A43F40003B7
:1027A0002362236A23F40003236209B0BDE8F083A7
:1027B000005C004000380240000802400000024077
:1027C000F0B599B004461422002107A822F087FF33
:1027D00030220DEB0200002122F081FF22685E4BC7
:1027E0009A4240F0B78008230C93C023109304232F
:1027F00012930CA84FF40033159304F02FFD08B189
:10280000FFF7C6FE554B5648002400945A6C42F020
:1028100080625A645A6C02F080620092009A0194BD
:102820001A6B42F020021A631A6B02F02002019226
:10283000019A02941A6B42F001021A631A6B02F0B9
:1028400001020292029A03941A6B42F002021A6386
:102850001A6B02F002020392039A04941A6B42F07C
:1028600040021A631A6B02F040020492049A059423
:102870001A6B42F004021A631A6B02F0040205920A
:10288000059A06941A6B42F008021A631B6B03F058
:102890000803069302250E26069B0B964FF48063D1
:1028A00007A9CDE90735CDE9094503F0D9FA41F685
:1028B00058032C480B9607A9CDE907350927CDE920
:1028C000094503F0CDFA032327480B9707A9CDE963
:1028D0000735CDE9094503F0C3FA4FF47063224888
:1028E0000B9607A9CDE90735CDE9094503F0B8FAFC
:1028F0004FF40C631D480B9607A9CDE90735CDE9C8
:10290000094503F0ADFAC02319480B9607A9CDE994
:102910000735CDE9094503F0A3FA082315480B96BE
:1029200007A9CDE90735CDE9094503F099FA4FF438
:10293000A0530E480B9707A9CDE90735CDE9094506
:1029400003F08EFA58202246052103F03FF9582063
:1029500003F06EF919B0F0BD006801400038024084
:10296000001402400000024000040240001802402F
:1029700000080240000C024010B5044688B0142242
:10298000002103A822F0ABFE2268144B9A4223D107
:1029900003F56843002101915A6C114842F48012FA
:1029A0005A645A6C02F480120192019A02911A6BD5
:1029B00042F020021A631B6B03F020030293029B78
:1029C0004FF4607202230321CDE903230523CDE9EF
:1029D000061303A903F044FA08B010BD00500140EB
:1029E0000014024010B5044688B01422002103A848
:1029F00022F075FE2268144B9A4223D103F59433DA
:102A0000002101915A6C114842F010025A645A6C2C
:102A100002F010020192019A02911A6B42F0010237
:102A20001A631B6B03F001030293029B4FF4C06215
:102A300002230321CDE903230723CDE9061303A9CC
:102A400003F00EFA08B010BD001001400000024073
:102A50002DE9F04186B0002303932B4B1C68002C1A
:102A60004FD14FF00108C3F80080284B00949A6BB7
:102A7000274842EA08029A639B6B03EA0803009323
:102A8000022703260C25009B01A94FF63F03CDE941
:102A90000137CDE9046503F0E3F91E48059501A966
:102AA000CDE90187CDE9034603F0DAF948F23313A3
:102AB0001948059501A9CDE90137CDE9034603F091
:102AC000CFF94FF683731548059501A9CDE9013774
:102AD000CDE9034603F0C4F94CF2037310480595A1
:102AE00001A9CDE90137CDE9034603F0B9F9602327
:102AF0000C48059501A9CDE90137CDE9034603F05E
:102B0000AFF906B0BDE8F081301F00200038024068
:102B10000014024000080240001802400010024069
:102B2000000C02400004024070B588B000230293FC
:102B3000204B1A6C42F010021A641B6C03F0100355
:102B40000293054601A903A8029B04F069FB069BBA
:102B50004BBB04F045FB184E184B336040F2E73393
:102B6000F360174BB0FBF3F3013B73603046002377
:102B70003361B360B36105F091F9044680B9304622
:102B800005F062F8044658B9362003F051F80F2DCD
:102B90000DD822462946362003F018F8094B1D604F
:102BA000204608B070BD04F01BFB4000D3E70124B1
:102BB000F6E700BF00380240341F0020001000403C
:102BC00040420F007C0000207047FEE7FEE7FEE772
:102BD000FEE7704708B5044802F0BAFEBDE80840B9
:102BE000024802F0B5BE00BFE81E0020A01E002073
:102BF000014805F067B800BF341F0020014803F00A
:102C000097BF00BF5C1D0020014803F05BB800BF08
:102C1000581E00200120704708B522F003FE16233D
:102C200003604FF0FF3008BD08B522F0FBFD16230E
:102C30000360FEE770B50D4614460E46731B9C42BA
:102C400001DC204670BDAFF3008006F8010BF5E70C
:102C500070B50D4614460E46731B9C4201DC20469F
:102C600070BD16F8010BAFF30080F5E74FF0FF30B1
:102C700070474FF400534B600020704701207047AD
:102C8000002070470A4A116808B5034609B9094986
:102C900011601068694603448B4206D922F0C2FDD8
:102CA0000C2303604FF0FF3008BD1360FCE700BF4A
:102CB0007C1F0020E03A0120704710B50421044633
:102CC00020F09AFA204610BD012908B506D0022945
:102CD00008D059B900F0F2FF006808BD00F0EEFF1F
:102CE0004068FAE700F0EAFF8068F6E70020F4E7C2
:102CF00000487047447702080A20704713B5002443
:102D000051B1036801948DF8034001AA9C680DF14C
:102D10000303A04702B010BD0846FBE7C089704717
:102D2000008A7047C088704780887047807A00F0BA
:102D30007F007047807AC00970470020704700000C
:102D40009FED010A704700BF00000000704710B5FA
:102D50000821044620F050FA204610BD7047704705
:102D600000F598730868496803C370477047704757
:102D70004160704770477047064BC0F84C310023E4
:102D8000C0F8503100F5A273C0F84801C0F84031D6
:102D9000704700BF993000080123037270477047E5
:102DA000704738B5054640680368DB6998470446B4
:102DB00004B938BDA188AB89C91A236820461B6BAA
:102DC00009B29847A469F3E710B4C2684168541087
:102DD000034601EB6200D20748BF0A599B685DF8C1
:102DE000044B48BFD35818470346406830B19A682F
:102DF0001AB9D86800F0010070470120704710B57B
:102E00000C21044620F0F8F9204610BD10B5102121
:102E1000044620F0F1F9204610BD10B510210446FB
:102E200020F0EAF9204610BD10B54FF4AE7104460B
:102E300020F0E2F9204610BD10B50DF06FFB0368DD
:102E4000BDE81040DB6B184710B50DF067FB036859
:102E5000BDE810405B6B184737B50546807A6B7A42
:102E60000130C0B29842A87205D901232B72002309
:102E7000AB7203B030BDB5F90C20B5F90E4000219E
:102E80000FF04CFDC30707D500284FF6FF73C8BFEE
:102E9000012313FA80F000B2AB7AE881041B012B06
:102EA000A4B206D1174B1B781BB10DF037FB0DF008
:102EB0003BFB154A00231288ADF80230EB891A4417
:102EC0005B42ADF80430114BADF800201B88ADF823
:102ED00006300DF023FB036802AA12E906001B6C02
:102EE000984768680368DB6998470546002DC0D09D
:102EF000A9882B68214428461B6B09B29847AD6905
:102F0000F4E700BF9A2D0120902D0120922D012081
:102F100010B50446D0F8400158B10368DB68984703
:102F200038B1D4F8400103689B6898470023C4F87F
:102F3000403110BD2DE9F14FD0E9556A0746B06820
:102F400003681B6A984740F26B73984205D8494B57
:102F5000494AA321494822F06BF9706803681B6A4B
:102F600098470F2803D8464B434AA421F2E7F0685C
:102F700003681B6A98470F2803D8424B3E4AA52195
:102F8000E8E70DF0CBFADFF8089104300DF013FB01
:102F9000D9F8000010B10368DB689847D9F8000041
:102FA00010B103681B689847DFF8E880D8F8000084
:102FB00010B103685B699847D7F83C0110B103680A
:102FC0005B689847D8F8000010B103681B68984701
:102FD000D7F83C0110B103689B689847F068036814
:102FE00000215B6A9847284B03604FF4A05303818C
:102FF000264B1B884FF0000B80F80AB05B4204465A
:10300000C0F804B0A0F80EB08381B06803685946D8
:103010005B6A9847054600F047FF706803685946A9
:103020005B6A98472946064600F0CEFE331DC7F876
:103030003C61C9F80040C8F80050CAF800302B685D
:10304000C6F808A02846DB68EE6398473368304628
:103050001B689847214628460FF05AFC23682046F3
:103060001B69984723685B69204601B0BDE8F04FB3
:10307000184700BFB56B0208436C0208286D0208B0
:103080006F6D0208126E0208B4780208902D0120BC
:10309000E42D0120E02D01202DE9F14FD0E9556A02
:1030A0000746B06803681B6A9847B0F58E7F05D263
:1030B000444B454AA321454822F0BAF8706803689A
:1030C0001B6A98470F2803D8414B3F4AA421F2E7D7
:1030D000F06803681B6A98470B2803D83D4B3A4AAF
:1030E000A521E8E70DF01AFADFF8F09004300DF0B2
:1030F00062FAD9F8000010B10368DB689847D9F884
:10310000000010B103681B689847DFF8D480D8F836
:10311000000010B103685B699847D7F83C0110B113
:1031200003685B689847D8F8000010B103681B6813
:103130009847D7F83C0110B103689B689847F0683E
:10314000036800215B6A98474FF0000B224BC0F8E0
:1031500004B0044680F808B00360B06803685946BC
:103160005B6A9847054600F015FE7068036859468B
:103170005B6A98472946064600F0EAFD331DC7F80A
:103180003C61C9F80040C8F80050CAF800302B680C
:10319000C6F808A02846DB68EE63984733683046D7
:1031A0001B689847214628460FF0B2FB236820464B
:1031B0001B69984723685B69204601B0BDE8F04F62
:1031C000184700BFB56B0208B56E0208286D0208EB
:1031D0006F6D0208126E020890780208E42D01203B
:1031E000E02D0120044B1B6893F858200AB1D86CDD
:1031F00000B99868704700BF9C2D0120F8B51746AC
:1032000004460E460DF074FA124B1C60124B2360FC
:10321000124B0025C4E95135114BC4E953551868C8
:10322000036801219B68C4E94F55C4E95576984766
:10323000284600F0F7FCFFF7D5FF17F0DAFEFFF79E
:10324000D1FF17F051FFFFF7CDFF17F059FF2046D0
:10325000F8BD00BFF02D01203C7802082478020858
:103260009C2D0120064BC0F84C310023C0F8503192
:1032700000F5A273C0F84801C0F84031704700BFA4
:1032800099300008064BC0F84C310023C0F850318B
:1032900000F5A273C0F84801C0F84031704700BF84
:1032A000352F0008406A7047806A704770478A88E7
:1032B0000B8810B5D20A4C88C1699BB251F8220024
:1032C00043EA0443184410BD10B50446BAB1107B5C
:1032D00068B1537BD27A1B0203F4E0631A43236A7A
:1032E00003EB82031A888A4202D193F9020010BDCF
:1032F00005D8013880B204330028F3D1F7E7002065
:10330000F5E710B52C2104461FF076FF204610BDCE
:1033100030B58BB00446BDF860500895BDF85C50E0
:1033200007959DF8505006959DF84C5005959DF8D1
:10333000485004959DF8445003959DF840500295DF
:103340009DF83C500195BDF8385000950EF018FFDF
:10335000064B2360159BE361169B2362199B6362F6
:103360001A9BA36220460BB030BD00BFD87802087C
:103370007047704770477047704770477047704795
:1033800030B4C26844685510034604EB6200D207AB
:1033900048BF62599B6830BC48BFD35818470346A2
:1033A000406830B19A681AB9D86800F001007047D7
:1033B0000120704710B5102104461FF01DFF204664
:1033C00010BD10B54FF48E7104461FF015FF204656
:1033D00010BDC430884208B505D10DF09FF8BDE896
:1033E0000840FFF74FBF08BD70B5036804461B6B6C
:1033F000154698472368294620465B6BBDE8704018
:10340000184770B504461D46BDF91060FFF7ECFF84
:103410002368294620469B6B9847236831462046FF
:10342000DB6BBDE870401847094A02604FF48071B9
:1034300000228184FF21C0E90122C0E90322C0E902
:103440000522C0E9072280F826108262704700BF7B
:10345000147E0208F8B5194B018F1B888B42064673
:103460002AD9174B1B682BB9164B174A17486C21E2
:1034700021F0DEFE13F81120154B1B6853F8225083
:10348000144B186800F00AFC2B6807469B6B284613
:1034900098472B6804469B6C3946284698472B680A
:1034A00014FB00F45B6A394628469847A4B22318F7
:1034B0001BB2A6F84630F8BD0023FAE7F82D01202C
:1034C000F42D0120876F0208C96F020804700208FA
:1034D000FC2D0120002E01202DE9F04F044685B07F
:1034E000274600250FF068F8454BE56347F8403B59
:1034F00004F16C0A3846FFF797FF5046FFF794FF38
:103500004FF480724FF6FF7304F19809A4F8BC20C1
:103510003C4AC4F8982004F1C406A4F8BE3084F8EC
:10352000C03003A94846C4E92755C4E92955C4E970
:103530002B55C4E92D55ADF80C300AF0F0FA3046A1
:103540000AF024FC304BC4E94334304B4FF4A07BE9
:10355000C4E945352A4629463846CDF800B0F0235F
:10356000FFF74FFF04F104084FF07F43A36639468D
:10357000404606F095FF2A4629465046CDF800B051
:10358000F023FFF73EFF224BC4F8943051464046EB
:1035900006F086FF172248461821FFF725FF09236A
:1035A00003A94846ADF80C300AF0B9FA494640463E
:1035B00006F076FF3046EA224121FFF715FF03AA05
:1035C00002A901233046ADF80C30ADF808500AF0DE
:1035D00074F90523A4F8FC303046FFF73BFF4FF0A9
:1035E000FF33C4E9403304F586734046C4F8EC3039
:1035F000314606F055FF204605B0BDE8F08F00BF0C
:10360000587902087C7E020840790208D33300080A
:1036100011AD2EFF30B5036885B06D460181D3F83A
:103620008430014604462846984795E807003C3414
:1036300084E8070005B030BD30B5036885B06D463D
:103640004181D3F88430014604462846984795E8DE
:1036500007003C3484E8070005B030BD002202803A
:1036600042808280C280704780F83610704770B503
:10367000036804461B6B1546984723682946204675
:103680005B6EBDE87040184700207047806C704743
:1036900070477047704710B54C2104461FF0ACFDD1
:1036A000204610BD10B54FF4D47104461FF0A4FDA0
:1036B000204610BD08B5FEF7DFFA08BD036870B5F7
:1036C0005E6B124B1B6804468DB22BB9104B114A2E
:1036D0006C21114821F0ACFD1049828D098891427E
:1036E00003D80F4B0B4A6D21F3E713F812200D4B53
:1036F0001B6853F8220003681B6B9847291A33464E
:10370000204609B2BDE87040184700BFF42D0120E3
:10371000876F0208C96F020804700208F82D0120A3
:103720004B700208FC2D012000224FF0FF31C0E950
:103730000021826070470000074A02600022C0E951
:103740000122C0E90322C0E90522C0E907224FF4A3
:1037500080728284704700BFC07F02082DE9F04F5D
:1037600004468BB0A04600250EF026FF894BE5638A
:1037700048F8403B26222946404621F0B0FF40460B
:10378000FFF7DAFF844B236404F16C0AFF2384F80B
:10379000663004F198094FF6FF7608A9A5665046F1
:1037A00004F1C407ADF8206009F056FD08A94846A9
:1037B000ADF8206009F050FD26222946384621F058
:1037C0008EFF3846FFF7B8FF744BC4F8EC304FF467
:1037D0007F03C4F8F830724BC4F8C43004F5887B1A
:1037E0004FF0FF33C4E94135A4F8F060C4F8F45059
:1037F000A4F8FC50C4F80051C4F80C515846FFF727
:103800009BFF684EC4F8106104F59E731846C4F817
:1038100038510393FFF790FF04F5B473C4F83C618B
:103820001846C4F864510293FFF786FF4FF4A07363
:103830002A46C4F868614046C4F89051294600936E
:10384000F023FFF7DEFD261D4FF07F434146A366C0
:10385000304606F025FE022308A95046ADF8203078
:103860000AF05DF9282340F2171200935A213C23F5
:103870005046FFF7C6FD2946504609F0A8FC5146C0
:10388000304606F00DFE062308A94846ADF8203064
:103890000AF045F924230093EF2266214846FFF7FA
:1038A000B0FD2946484609F092FC4946304606F0EC
:1038B000F7FD2A464A213846FFF796FD4FF0FF33C1
:1038C000C4F8F430D4F8C430A4F8F8500DF110085E
:1038D0004046D3F884303946984798E8070004F505
:1038E000807383E80700304B1B6804F5CA782BB956
:1038F0002E4B2F4A60212F4821F09AFC2E4B1B881B
:103900001BB92E4B2A4A6121F5E72D4B2946186831
:1039100000F0C4F92B4A03460A21404610F014FB7C
:103920003846C4F80C8109F04BFF1C4B089308A9DA
:1039300004233846ADF8243009F062FF394630469A
:1039400006F0AEFD50230093EF22F023294658469F
:10395000FFF757FD5946304606F0A2FDD7230398DE
:1039600000931822F0232946FFF74BFD03993046B8
:1039700006F096FD1823029800932A46F023294664
:10398000FFF73FFD3046029906F08AFD20460BB056
:10399000BDE8F08F1C7A0208147E02081478020831
:1039A0008C790208B07B0208F42D0120876F020891
:1039B0008970020804700208F82D01204B7002087B
:1039C000002E0120D47002087047000030B5164D5B
:1039D0002C6814F001048FB0BFF35B8F20D1284610
:1039E0001FF00CFCE0B13F230993104B0893104BE0
:1039F000104911480A940122CDE906430423CDE978
:103A000003320A230093CDE90B44CDE90144059428
:103A1000FFF77EFC094821F029FC28461FF0FAFB3D
:103A200005480FB030BD00BF801F0020C09E0208B7
:103A3000D09E0208D09C0208841F0020C9390008CB
:103A40007047000030B5174D2C6814F001048FB09A
:103A5000BFF35B8F22D128461FF0D0FBF0B13F238C
:103A60000993114B0893114B114912480A94CDE95F
:103A7000064301220423CDE90332142300931922C3
:103A80001823CDE90B44CDE901440594FFF740FC30
:103A9000094821F0EBFB28461FF0BCFB05480FB09E
:103AA00030BD00BFB01F0020C49E0208D49E020893
:103AB000E09C0208B41F0020413A00087047000053
:103AC00030B5174D2C6814F001048FB0BFF35B8F35
:103AD00022D128461FF092FBF0B13F230993114BEE
:103AE0000893114B114912480A94CDE9064301226B
:103AF0000423CDE903322823009309222923CDE9A9
:103B00000B44CDE901440594FFF702FC094821F07C
:103B1000ADFB28461FF07EFB05480FB030BD00BF4F
:103B2000E01F0020C89E0208D89E0208409E02089E
:103B3000E41F0020BD3A00080020704700207047B5
:103B40000EB403B503AB002153F8042B01930DF021
:103B500095FD02B05DF804EB03B070470CB407B5F7
:103B600004AB53F8042B01930DF088FD03B05DF80E
:103B700004EB02B070470000436C10B5044673B309
:103B8000038F2BB9184B194AC521194821F050FB56
:103B9000C38E00EB43035B8C0BB30FF02CFC238F25
:103BA000012B03D8134B144ACB21EEE7E28E531CB2
:103BB0009BB2092B194688BFA3F10A0104EB41010E
:103BC00040F63F10498C814209D10A2B04EB420296
:103BD00028BF002304EB4303508C588451842046B3
:103BE000BDE810400FF00ABBD7700208E070020871
:103BF0008B710208D5710208E37102080FF0C5BA93
:103C000010B586B002AC84E806001A460AAB0593EC
:103C10000193099B00932146089B0CF001F806B024
:103C200010BD000038B518BB124B13481C6813496F
:103C3000B4B1226822440260626822440A60A26829
:103C400014440F4B00221A8000F038F8054600F0AB
:103C500033F80C4B1C600C4B1D600C4B188007E0BC
:103C60000B4B03600B4B0B600B4B1C68002CE8D11B
:103C700038BD00BF1C200020142000201020002090
:103C800018200020F42D0120FC2D0120F82D01200A
:103C9000F49E0208DC9E0208549F0208044B1B6835
:103CA00053F82100034B1B6803EB4000704700BF33
:103CB0001020002014200020062070470048704784
:103CC0002020002010B5FFF7BDFE044C2060FFF758
:103CD000F7FE6060FFF77AFEA06010BD2020002094
:103CE00010B5002404600C6014601C6010BD7047A7
:103CF00010B54FF4AE7104461FF07EFA204610BD99
:103D000010B50446D0F8580100F013F82046BDE87D
:103D100010400CF0ADBC000010B50446FFF76EFA81
:103D2000014B2360204610BD507A02080022026039
:103D300070477047704704387047704710B51021BE
:103D400004461FF059FA204610BDA0F10400F5E723
:103D500000228260024A026018324260C1607047ED
:103D6000A47A02087047000010B5034B03600446B4
:103D7000FFF704FB204610BDCC7A020810B50446BC
:103D8000FFF7F2FF20464FF48E711FF035FA204600
:103D900010BD000010B50446FFF79EFB014B2360E9
:103DA000204610BDCC7A0208FFF7E9BA7047043804
:103DB0007047704710B5102104461FF01DFA2046C9
:103DC00010BDA0F10400F5E700228260024A026003
:103DD00018324260C1607047007B020838B5094B59
:103DE0000360044640F2C465B5F5CE7F05D0635943
:103DF00060191B6898472C3DF6E72046FFF749FC01
:103E0000204638BD287B020810B50446FFF7E6FFC0
:103E1000204640F26C711FF0EFF9204610BDF8B556
:103E2000074614200C461FF0F8F9064605460FCC4D
:103E30000FC523682B603E60F8BD012A08B5034614
:103E400002D10A681A6005E0022A05D0032A07D0C9
:103E5000002AF7D0002008BD0968FFF7E0FFF9E766
:103E600000680028F6D014211FF0C6F9F2E7000020
:103E7000002310B5C0E90133C0E90333C0E90733BB
:103E8000C0E905334FF480738384064B03600B88CD
:103E9000C384FF23044680F8283009F040FE204602
:103EA00010BD00BF7C7E02082DE9F3410446FFF7F8
:103EB00055FC244B236004F5E47504F5DE684FF6E9
:103EC000FF7605F58477284601A92C35ADF8046006
:103ED000FFF7CEFFBD42F6D14545F2D10025C4F82B
:103EE000F056C4F8085784F8255701A904F5E56091
:103EF000ADF80460FFF7BCFF04F25C730022C4F865
:103F0000545784F858571A6004F5EC631A6084F823
:103F10006457C4F86857234604F11E0283F8A85179
:103F200083F8A95183F8AA5183F8AB5183F8AC51B7
:103F300083F8AD5106339342F0D1204602B0BDE87C
:103F4000F08100BF287B02082DE9F84300F5D47505
:103F500000264FF064092C464FF00008052714F89E
:103F6000013B6BB123785BB101F040FB4044B0FBF7
:103F7000F9F309FB13001D289CBF14F8013C2370C2
:103F8000013FB044EBD10136032E05F10605E2D125
:103F9000BDE8F883F8B500F11E010446034600228F
:103FA00083F8A82183F8A92183F8AA2183F8AB21FB
:103FB00083F8AC2183F8AD2106338B42F0D101F0B8
:103FC00015FB04F2A71100F127074FF0050C0D4671
:103FD000024600F12A06B2FBFCF303EB8303D31A7B
:103FE00007320133B24205F8013FF4D10D30B84237
:103FF00001F10601EBD12046BDE8F840FFF7A4BF70
:104000002DE9F04F87B0B0F940310293B0F9423159
:104010000393064600F2A7190027039AC7EB47133C
:1040200013441BB201934FF4847317F0010F03FB89
:10403000076B029B14BF122400241C44A4B2CA467E
:104040004FF000081AF8012F22B3013A0BF5E4757E
:10405000042A0DD8DFE802F003353A3F4400DBF8CC
:10406000C821126E0621ADF81410284605A9904704
:10407000019A21B22846FFF7B7F9DBF8C8212021C1
:10408000926B28469047DBF8C8212021D26B284646
:104090009047012208F101082434B8F1060F8BF88B
:1040A000ED21A4B20BF12C0BCCD10137052F09F176
:1040B0000609B2D106F59E7007B0BDE8F04F0DF0CD
:1040C00007BCDBF8C8210321126ECCE7DBF8C8215E
:1040D0000421126EC7E7DBF8C8210721126EC2E780
:1040E000DBF8C8210521126EBDE738B50446052569
:1040F00001F07CFA04F2A712642104F2AD14B0FBC3
:10410000F1F301FB1303452B9FBFB0FBF5F303EB6A
:104110008303C31A013394BFDBB2002302F8013FCB
:10412000A24200F11700EAD138BD10B500F5D471F4
:104130000446182200F5D77021F0B7FA2046FFF7A1
:10414000D4FF2046BDE81040FFF75ABF37B5002323
:1041500000F1980480F8BD30054620460DF0B8FB0C
:1041600001F044FA0522B0FBF2F303EB8303C31A18
:104170000133DBB285F81237023B032B03D8DFE8AB
:1041800003F007091A1C0623ADF8043001A906E064
:104190000323F9E70423ADF804300DEB03012046B7
:1041A00009F0BDFC0123204685F8BD3003B0BDE811
:1041B00030400DF08DBB0723E6E7ADF80420E5E7BE
:1041C000D0F808370133042B10B50446C0F808377F
:1041D00004DDFFF7AAFF0023C4F808372046BDE836
:1041E0001040FFF7B3BF000038B5D0F8F0360A46EC
:1041F0000A21044601FB023300F5CA75C0F8F03607
:10420000054A28460FF0A0FEC4F80C5104F1C40082
:10421000BDE838400DF05CBBF8720208034600F5BB
:10422000A561002283F8ED2183F8192283F8452245
:1042300083F8712283F89D2283F8C92203F58473E1
:104240009942EFD11E22002100F5D47021F047BA27
:1042500030B585B000230446CDE902330091012337
:104260006946019301F002FC204601F07FFA6421C7
:10427000204601F014FB204601F064FB0546204671
:1042800001F0F2FA284605B030BD002380F8BD30B9
:1042900098300DF01DBB10B50446FFF7F6FF204621
:1042A000BDE81040FFF7BABF70B5002390B0C0F86A
:1042B000543780F858370D4B01AA03F138061546DC
:1042C00018685968144603C40833B3422246F7D12C
:1042D0001B7823702846FBF78BFF642382B22946A4
:1042E000034803F0F6FE10B070BD00BFB5720208BF
:1042F000BC1C0020B0F910379FED2C7A07EE903AE5
:10430000F8EEE77A2DE9F04167EE877A9FED287A9B
:10431000C7EE877A04462DED028B17EE900AFCF764
:104320004DFA41EC180BB0EE480AF0EE680A1EF0A8
:10433000FFFF57EC106BB0EE480AF0EE680A1EF073
:10434000A3FF1C4BB4F9728051EC100B0022FBF759
:10435000A7FFFCF713FBB4F9A230B4F97050A8EB37
:10436000000803EBD373A8EB6308B4F9743003EBD4
:10437000D373002205EB630530460E4B3946FBF73D
:104380008FFFFCF7FBFAB4F9A030291803EBD373C5
:10439000A1EB63010FFA88F8424609B204F19800D4
:1043A000FDF7BDFBBDEC028BBDE8F081D00F4940AD
:1043B000000034430080464010B5B4B0044601F01C
:1043C00015F9184A1368C31AB3F5967F27D904F272
:1043D0005C7494ED007A1060F2EE047A67EE277A4E
:1043E0000A22FDEEE77A02A817EE903A93FBF2F16B
:1043F00002FB1133002BFDEEC77AB8BF5B420A4ABD
:104400000093C82117EE903A21F0D6F802A8FBF7E6
:10441000EFFE642382B202A9044803F05AFE34B0CE
:1044200010BD00BF30200020EE720208BC1C00202E
:1044300007EE901A07EE102AF8EEE77A00F21473EE
:10444000B8EEC77A73B5C3ED007A00F5E36383ED88
:10445000007A00F21C7383ED000ABDEEC77A00F506
:10446000E463C3ED000AB0F9323717EE102AFDEE0F
:10447000E77A03EBD373A2EB6302B0F9303717EEA0
:10448000901A03EBD373A1EB63010446012600F5F8
:10449000E56580F8246712B209B22846FEF7A4FF4A
:1044A00084F84D6728460DF013FA94F81237013B53
:1044B000042B13D8DFE803F003080A1416000623C0
:1044C000ADF8043001A906E00323F9E70423ADF8B1
:1044D00004300DEB0301284609F021FB02B070BD4A
:1044E0000723EDE70523EBE72DE9F8430446002316
:1044F0002DED048B983080F825300DF0E9F9B4F9F2
:1045000010379FED307A07EE903AF8EEE77AB2EE88
:10451000049A67EE877A9FED2C7AC7EE877A17EEBA
:10452000900AFCF74BF941EC180BB0EE480AF0EE9C
:10453000680A1EF0FDFE57EC106BB0EE480AF0EE74
:10454000680A1EF0A1FE59EC108B49464046FCF764
:104550003DFA394608EE900A3046FCF737FA1B4B15
:10456000B4F97250002208EE100A49464046FBF7A3
:1045700097FEFCF703FAB4F97430A5EB0008B4F920
:10458000705003EBD37305EB630500220F4B3046ED
:104590003946FBF785FEFCF7F1F968EEC98A28EE8B
:1045A000098A2918F0EE680A2046B0EE480A424609
:1045B000FFF73EFFBDEC048B2046BDE8F843FFF754
:1045C000FFBD00BFD00F494000003443008046408B
:1045D00090F8242710B500F5E5642AB300F5E362EE
:1045E000D2ED007AB0F93217B0F93037FDEEE77A44
:1045F00001EBD17117EE902AA2EB610200F2147167
:10460000D1ED007AFDEEE77A03EBD37317EE901A43
:10461000A1EB630112B209B22046FDF780FA2046F1
:10462000BDE810400DF054B980F84D27F7E7042994
:1046300004D8052A8CBF0020012070470020704755
:104640002DE9F0411346044600F5D4750021A2F18E
:1046500003081A462046FFF7EAFF08B1EA5CDAB120
:104660005E1E5F1C32462046FFF7E1FF08B1AA5DDF
:1046700092B13A462046FFF7DAFF08B1EA5D5AB137
:10468000013E464507F10107ECD10131052905F14D
:104690000605DED14FF0FF310846BDE8F0812DE977
:1046A000F84306460F461346FFF7C1FF30B1062216
:1046B00002FB01621A4492F8A8211AB3062505FBF1
:1046C00007655C1E03F10108A3F1060905F5D47521
:1046D0002246394630462346FFF7A9FF08B12A5D36
:1046E00082B14246394630464346FFF7A0FF10B13B
:1046F00015F8082032B1013C4C4508F10108E7D11A
:104700004FF0FF331846BDE8F883000000F25C73F9
:10471000D3ED006A9FED237A00F5EC6393ED006A18
:1047200076EEC67A10B5F4EEC77AF1EE10FA0446CA
:104730002CDD9FED1D7A77EEC77ABDEEE77AF6EEB7
:10474000005A17EE102A002AB8BF524207EE102A6C
:10475000B8EEC77AB4EEE57AF1EE10FA5EBF9FEDDF
:10476000137AF0EE466AE7EE876A16EE900AC3ED1A
:10477000006AFCF723F841EC100B1EF0DBFE51EC55
:10478000100BFCF7FBF8A4F8100710BD9FED087A9A
:10479000F4EEC77AF1EE10FA44BF9FED037A77EE9C
:1047A000877ACAE7000034430000B4439A99193E5F
:1047B000000034C307EE102A084691B107EE901AA4
:1047C000B8EEC77AF8EEE77AC7EE876A66EEA67AA1
:1047D00067EEA67A67EE877AFDEEE77A17EE903AF3
:1047E00018B2704770B50D2192B004463548FFF7F6
:1047F0002FFD052106463348FFF72AFD94F8583768
:104800000546BBB933B202B20121A4F85437A4F86B
:10481000562784F8581702A8402100922A4A20F00F
:10482000CBFE02A8FBF7E4FC642382B202A927486E
:1048300003F04FFCB4F85437F11AB4F85637244E4D
:1048400009B2ED1A81EAE173A3EBE1732DB29BB2D9
:10485000632B85EAE573A3EBE5739BB298BF002158
:10486000632B98BF0025B1F5487FA8BF4FF448716E
:10487000B1424FF44872B8BF31462046FFF79AFF65
:1048800095422946A8BF1146B142B8BF3146A4F8A7
:104890000C072046FFF78EFF0421A4F80E070D48F1
:1048A00001F0C2FB00280CBF0125002505D194F8BA
:1048B000253713B92046FFF717FE84F8255712B0A5
:1048C00070BD00BFE81E0020FB720208BC1C002067
:1048D000E0FCFFFF0008024010B50446FFF782FF2E
:1048E00000F084FEB4F90C1781EAE173A3EBE173E5
:1048F0009BB2C82BB4F90E3706D883EAE372A2EB59
:10490000E37292B2C82A37D907EE903AF8EEE70A76
:1049100007EE901A0122B8EEE70A84F86427C4F87B
:104920006807F1EE600A1EF057FDDFED1A7A9FED81
:104930001A7A20EE270AC0EE077A9FED187AF4EE75
:10494000C77AF1EE10FA14D49FED157AF4EE477A97
:10495000F1EE10FAC8BFF0EE477A04F25C73C3EDD3
:10496000007A2046FFF7D2FE2046BDE81040FFF750
:10497000C1BCF0EE477AF0E794F86437002BF0D032
:10498000D4F86837C01AC82884BF002384F8643775
:10499000E7E700BF00003443D00F49400000A0C249
:1049A0000000A04207B5CDE9002182680AB91EF0D7
:1049B0004BFCC3686A4601A9984703B05DF804FB45
:1049C0002DE9F043062707FB0103134497B093F842
:1049D000A83101930EAB05468846914600211E2260
:1049E000184620F07CFE05AE01AB0024CDE9090598
:1049F0000B9309A902AB30460C930594CDE9024410
:104A0000C6E9014404940D960894FFF708FA194B7F
:104A100008934A46184B079330464146FFF7C2FFBA
:104A2000DDE90230C21A102A0BD9984218D1284663
:104A3000FFF7E6FADDE90231C91AC9102846FFF787
:104A4000D3FB079B1BB1032231463046984702989F
:104A500018B10499091A1EF0CFFB17B0BDE8F08316
:104A6000D3E9002107FB02520A44083382F8A84127
:104A7000DBE700BFA54E00083B3E000870B50529E6
:104A8000A8BF052121EAE1754319044693F8A861FE
:104A900096B990F8122783F8A821FFF7B1FA1349C5
:104AA00013486423162203F014FB2A46314620469D
:104AB000BDE87040FFF784BF00F2A713002513F88C
:104AC000016F46B9631994F8122783F8A82120468C
:104AD000FFF796FAE9E70135062DF0D1BDE8704001
:104AE0000449034864231B2203F0F3BA1473020839
:104AF000BC1C00202B730208F0B593B004460D4691
:104B00001646FFF794FD28B9052AA8BF052626EA10
:104B1000E6760546062303FB0543334493F8A831A4
:104B200063B3294632462046FFF78AFD411C0546FD
:104B300014D0014632462046FFF7B1FD07467B1CE4
:104B40000CD03A4629462046FFF771FD30B10623C6
:104B500003FB05433B4493F8A8219AB13146204614
:104B6000FFF78CFF002304F5E56084F8243784F810
:104B70004D3713B0BDE8F0400CF0AABE6A1CEDD072
:104B80003746DCE794F8122783F8A8212046FFF780
:104B900037FA94F812370B4ACDE9007340212B46BF
:104BA00002A820F009FD02A8FBF722FB02A982B2AD
:104BB0006423054803F08DFA3A4629462046FFF75C
:104BC000FFFECFE747730208BC1C002090F8243793
:104BD0002DE9F0410446002B79D000F2147393EDD7
:104BE000007AB0F942E100F5E36393ED006AF3EE79
:104BF000007A77EE276A76EE277AFDEEE66AFDEE1A
:104C0000E77A00F2A71200254FF02408C5EB451300
:104C100017EE900A7344103305F00101C31A09011D
:104C200003FB03F0944600261CF8013FEBB1B4F9F6
:104C3000403108FB063316EE907A0B441033FB1A12
:104C400003FB0303B3F5807F0FDC002384F82437D4
:104C500084F84D3704F5E5600CF03AFE32462946FB
:104C60002046BDE8F041FFF747BF0136062EDBD1F5
:104C70000135052D02F10602C8D107EE90EAF8EEE3
:104C8000E77AB4EEE76AF1EE10FA20D8B4F94031D1
:104C9000DFED106A07EE903AF8EEE77A002637EE7D
:104CA000677A84F82467C7EE267A84F84D6704F59E
:104CB000E560FDEEE77A17EE905A052DA8BF0525B1
:104CC00025EAE5750CF004FE2A463146C8E7BDE842
:104CD000F08100BF0000104290F8243770B5044600
:104CE000A3B300F2147300F21C72D2ED007A93EDBC
:104CF000007A37EE877A00F5E36083ED007A04F5F9
:104D0000E461D0ED006A91ED006AB5EEC07A76EE0E
:104D1000866AF1EE10FAC0ED006A18D80021F1EEB3
:104D2000677A1960C2ED007A2046FFF74FFF94F8CA
:104D300024371E4DB3B32046FFF74AFC94F82437BE
:104D400083B32B6883B900F051FC286070BDDFEDA0
:104D5000186A37EE267ADFED176AB4EEE67AF1EEDE
:104D600010FAE1DB1449DAE700F040FC2B68C01AC6
:104D700041F28833984211D9002604F5E56084F8A1
:104D8000246784F84D670CF0A3FD2E600B490C4896
:104D9000BDE870406423142203F09BB994F82437D3
:104DA000002BD3D100232B60D0E700BF2C200020A4
:104DB000000000420000F0430000E0436673020878
:104DC000BC1C002010B50446FFF786FD2046FFF707
:104DD00083FF2046BDE81040FFF7EEBA2DE9F74FFC
:104DE000D0E9008993469A46A9EB08026FF0704318
:104DF000B3EBE20F06460F464FEAE20402D1284821
:104E00001EF01FFAC14514BF22460122A418A1EBCF
:104E1000080235D2B4B39C4228BF1C46E000019280
:104E20001EF0FBF9019A0546DBF80030AB50A918DB
:104E3000DAF800304B60AC4643469F420CF1080C58
:104E400003F1080220D1A2EB08022A449C4617462F
:104E50004B4507F108071DD1A3EB0C03D718B8F198
:104E6000000F05D0B1684046A1EB08011EF0C4F95F
:104E7000C6E9005705EBC405B56003B0BDE8F08F87
:104E80001C46CBE72546CFE793E8030013460CE921
:104E90000300D2E793E80300083307E90300D7E7EC
:104EA0007B7302082DE9F04FD1F800801768D0F825
:104EB000009095B0B8F1040FCDE9008750D8052FC8
:104EC0004ED8D9F80020062101FB08F10A44D35D31
:104ED000002B45D1D9F804300B443B4493F8A8117A
:104EE000D9F808301B6899423AD1D9F80C0001234F
:104EF000D355D0E90113994235D0C1E90087083173
:104F000041601D4C0FCC02AD0FC594E8030004F1C5
:104F1000080685E803000FCE08AD0FC596E803002C
:104F2000203485E803000FCC0EAD0FC594E80300D4
:104F300002AE85E8030000240DF1200A0DF1380BC4
:104F400008F0010556F8241041448DB95AF8242080
:104F5000D9F810003A440134FFF724FD062CF1D1B2
:104F600015B0BDE8F08F01AB6A46FFF737FFC8E721
:104F70005BF82420ECE700BF406602082DE9F74308
:104F80000446FEF787FB2046FFF78EF994F8C03001
:104F90001BB104F19800FCF76FFE0026354604F5BE
:104FA0009E79A7194FF0000887F8ED5107F5E471D5
:104FB000484608F1010805F073FAB8F1060F07F149
:104FC0002C07F1D106F58476B6F5A56FE9D1204618
:104FD000C4F80857A4F81057FEF7DCFF2046FFF787
:104FE0000FF82046FFF7B2F800212046C4F8F0562B
:104FF000FFF7FAF804F5E5662046FFF77BF903238F
:1050000001A93046ADF8043008F089FD00221146B0
:105010003046FEF7E9F93146201D84F84D5705F07A
:105020003FFA04F25C720023136004F5EC62136033
:10503000A4F8105784F8645700F0D8FAC4F8680749
:1050400003B0BDE8F083F02070474FF4A0707047C4
:105050002920FDF743BA2820FDF740BA08B5FDF72F
:1050600011FACA20FDF73AFAC320FDF71BFA08200F
:10507000FDF718FA5020FDF715FACF20FDF72EFAAC
:105080000020FDF70FFAC120FDF70CFA3020FDF7E4
:1050900009FAED20FDF722FA6420FDF703FA032058
:1050A000FDF700FA1220FDF7FDF98120FDF7FAF96E
:1050B000E820FDF713FA8520FDF7F4F90020FDF74D
:1050C000F1F97820FDF7EEF9CB20FDF707FA39204A
:1050D000FDF7E8F92C20FDF7E5F90020FDF7E2F9EE
:1050E0003420FDF7DFF90220FDF7DCF9F720FDF7AA
:1050F000F5F92020FDF7D6F9EA20FDF7EFF90020B9
:10510000FDF7D0F90020FDF7CDF9B120FDF7E6F964
:105110000020FDF7C7F91B20FDF7C4F9B620FDF705
:10512000DDF90A20FDF7BEF9A220FDF7BBF9C0208A
:10513000FDF7D4F91020FDF7B5F9C120FDF7CEF940
:105140001020FDF7AFF9C520FDF7C8F94520FDF7A0
:10515000A9F91520FDF7A6F9C720FDF7BFF99020A2
:10516000FDF7A0F93620FDF7B9F9C820FDF79AF947
:10517000F220FDF7B3F90020FDF794F9B020FDF718
:10518000ADF9C220FDF78EF9B620FDF7A7F90A2088
:10519000FDF788F9A720FDF785F92720FDF782F9AB
:1051A0000420FDF77FF92A20FDF798F90020FDF78C
:1051B00079F90020FDF776F90020FDF773F9EF206B
:1051C000FDF770F92B20FDF789F90020FDF76AF94A
:1051D0000020FDF767F90120FDF764F93F20FDF796
:1051E00061F9F620FDF77AF90120FDF75BF900205F
:1051F000FDF758F90620FDF755F92C20FDF76EF95B
:10520000C820FDF7B9F92620FDF768F90120FDF760
:1052100049F9E020FDF762F90F20FDF743F9292055
:10522000FDF740F92420FDF73DF90C20FDF73AF990
:105230000E20FDF737F90920FDF734F94E20FDF770
:1052400031F97820FDF72EF93C20FDF72BF90920E4
:10525000FDF728F91320FDF725F90520FDF722F9C0
:105260001720FDF71FF91120FDF71CF90020FDF7AD
:1052700019F9E120FDF732F90020FDF713F91620A6
:10528000FDF710F91B20FDF70DF90420FDF70AF9D1
:105290001120FDF707F90720FDF704F93120FDF78C
:1052A00001F93320FDF7FEF84220FDF7FBF8052059
:1052B000FDF7F8F80C20FDF7F5F80A20FDF7F2F8F5
:1052C0002820FDF7EFF82F20FDF7ECF80F20FDF771
:1052D000E9F81120FDF702F9C820FDF74DF9292062
:1052E000FDF7FCF8BDE808402C20FDF7F7B808B53D
:1052F000FDF7C8F80321D320FDF70CF980B208BDF3
:1053000010B5C4B2022203212046FDF771F80A202D
:10531000FDF7B6F8204600220321FDF769F8BDE845
:1053200010400220FDF7ACB838B50446E4B2FDF7F2
:105330005DF800212046FDF773F80121054620465F
:10534000FDF76EF840EA052080B238BD10B5C4B252
:1053500040212046FDF764F8030607D54C2120467E
:10536000FDF75EF8003818BF012010BD01224B2167
:105370002046FDF73DF8204600224B21FDF738F886
:105380000020F2E773B50423C4B20E461546D721B8
:105390000DEB03022046FDF75DF8019B1BBA1A0DC9
:1053A000C3F30B23328020462B8001224B21FDF7D3
:1053B0001FF800224B212046FDF71AF802B070BDFD
:1053C00010B50A4A1378984204460DD051788842A5
:1053D0000AD00BB141B90123D454FDF707F8204698
:1053E000BDE81040FFF78CBF10BD00BF3420002087
:1053F00010B5C4B209212046FDF712F840F00102B1
:10540000D2B220460921BDE81040FCF7F1BF10B52B
:10541000C4B209212046FDF703F8092100F0FE027D
:105420002046BDE81040FCF7E3BF38B5C4B20D46D6
:1054300020460A21FCF7F4FF40EA0502D2B22046DA
:105440000A21BDE83840FCF7D3BF10B50446FCF78D
:10545000CEFF20461F21FFF7E8FF2046BDE81040A1
:10546000FFF7C6BF38B5C4B20D4620460A21FCF787
:10547000D7FF20EA0502D2B220460A21BDE8384013
:10548000FCF7B6BF10B50446FFF7C1FF20461F2149
:10549000BDE81040FFF7E6BF10B5C0B20C460B21C7
:1054A000FCF7BEFF204010BD1F21FFF7F5BF0A46E5
:1054B000C0B20B21FCF79CBF1F21FFF7F8BF38B526
:1054C000C4B20D4620461721FCF7AAFF20EA0502C8
:1054D000D2B220461721BDE83840FCF789BF70B52D
:1054E000C4B2064604212046FCF79AFF042100F0CE
:1054F000FB0205462046FCF77BFF3046F021FFF714
:10550000DEFF05F0F80220460421FCF771FF492276
:1055100020212046FCF76CFF0220FCF7B1FF20465B
:1055200001222121FCF764FF20469A224121FCF749
:105530005FFF204601224A21FCF75AFF2046012244
:105540004B21FCF755FF204600224B21FCF750FF72
:10555000204601225621FCF74BFF2046012258210C
:10556000FCF746FF204601224021FCF741FF204680
:10557000FF220B21FCF73CFFBDE870400220FCF746
:105580007FBF0000054BD3F8882042F47002C3F8B7
:1055900088204FF000629A60704700BF00ED00E085
:1055A00008B50B4B1A6842F400721A601A6842F48C
:1055B00080621A601A6842F480721A60032000F058
:1055C000F3FA0020FDF7B0FAFCF7E4FF002008BD75
:1055D000003C0240034A044B11681B780B441360E3
:1055E000704700BF3820002078000020014B186869
:1055F000704700BF3820002038B50446FFF7F6FF9B
:10560000631C1CBF054B1B78054618BFE418FFF749
:10561000EDFF431BA342FAD338BD00BF7800002042
:1056200038B50446002800F09B80056C25B9FCF7CE
:10563000D1FF656484F83C50236CDB0600F18E805A
:10564000236C23F4885323F0020343F00203236402
:10565000444B5A6822F440325A605A6861680A43DF
:105660005A60236821695A6822F480725A605A6825
:1056700042EA01225A605A68A16822F040725A60D8
:105680005A680A435A609A68E16822F400629A6094
:105690009A680A439A603449A26A8A4252D0996849
:1056A00021F07061996099680A439A609A68E16A8A
:1056B00022F040529A609A680A439A609A6822F0EF
:1056C00002029A609A68217E42EA41029A6094F846
:1056D0002020002A3ED05A68616A42F400625A6073
:1056E0005A6822F460425A605A68013942EA4132EB
:1056F0005A60DA6AE16922F47002DA62DA6A013920
:1057000042EA0152DA629A6822F400729A609A6858
:1057100094F8301042EA41229A609A68616922F452
:1057200080629A609A68002042EA81229A606064EE
:10573000236C23F0030343F001032364002384F864
:105740003C3038BD9A6822F070629A609A6822F004
:105750004052B2E75A6822F40062C9E70120EDE73F
:105760000120EEE7002301400100000F82B000237A
:10577000019390F83C30012B69D0012380F83C3034
:1057800003689A68D2070BD59A68D1071AD4036CBC
:1057900043F010030364436C43F0010343644CE0A3
:1057A0009A682C4942F001029A602B4A1268B2FBB7
:1057B000F1F202EB42020192019A002AE4D0019A2E
:1057C000013AF8E7026C22F4E06222F0010242F4AE
:1057D000807202645A68520541BF026C22F4405242
:1057E00042F480520264026C12F480521CBF426C7C
:1057F00022F006024264002280F83C206FF0220270
:105800001A60164A516811F01F0F15491CD18B42BE
:1058100007D001F580718B420CD1526812F01F0F36
:105820000BD19A6812F0405F07D19A6842F080422B
:105830009A6002E00B498B4202D0002002B0704710
:10584000526812F0100FEBE78B42F6D1E9E7022025
:10585000F4E700BF40420F00740000200023014025
:10586000002001400022014090F83C30012B14D070
:1058700003689A6822F001029A609B68DB0707D4EC
:10588000036C23F4885323F0010343F00103036402
:10589000002380F83C3018467047022070470368A8
:1058A0009A68520570B504460D460BD59B68DE0517
:1058B00008D5036C43F020030364002380F83C30D8
:1058C000012070BDFFF792FE064623681A68910713
:1058D0000CD56FF012021A60226C42F4007222643E
:1058E0009A6812F0405F17D00020EAE7681CEDD0FC
:1058F00065B923681B6813F00203E6D1226C84F8B3
:105900003C3042F0040222640320DAE7FFF76EFE27
:10591000801BA842EDD8D8E7227E002AE4D1DA6ABB
:1059200012F4700F02D09B685A05DDD4236C23F467
:1059300080732364236CDB04D6D4236C43F001030F
:105940002364D1E70368D86C70477047704770478D
:10595000036870B51E685D68B20704462BD5A806BB
:1059600029D5226CD1065EBF226C42F400722264FB
:105970009A6812F0405F17D1227EAAB9DA6A12F44F
:10598000700F02D09A6852050ED45A6822F0200295
:105990005A60236C23F480732364236CD8045EBFA5
:1059A000236C43F0010323642046FFF7CEFF2368F6
:1059B0006FF012021A60710733D52A0631D5236CB5
:1059C000DB065EBF236C43F40053236423689A68AC
:1059D00012F4401F1ED19A6B12F4401F02D09A6835
:1059E000500517D45A68510514D49A6812F0405FD4
:1059F00010D1227E72B95A6822F080025A60236C5C
:105A000023F480532364236CDA055EBF236C43F0D8
:105A100001032364204600F0C5F823686FF00C02F0
:105A20001A60F30710D568060ED523681B68D907DE
:105A30000AD5236C43F4803323642046FFF786FFA6
:105A400023686FF001021A60B2060ED56B010CD507
:105A5000636C43F00203636423686FF020051D60EC
:105A60002046FFF774FF23681D6070BDF7B5002363
:105A7000019390F83C30012B054600F0868001230D
:105A800080F83C3008682B688E68092884B233D9C6
:105A900004EB4402DF681E3A4FF0070C0CFA02FCDC
:105AA00027EA0C07DF60DF6806FA02F23A43DA60A1
:105AB0004968062901EB81022DD8596B053A1F264A
:105AC000964021EA06015963596B04FA02F20A432F
:105AD0005A632F4A93420AD1122837D12D4B5A6864
