:020000040800F2
:1000000000000320390E0008452C0008472C00088A
:10001000492C00084B2C00084D2C00080000000063
:1000200000000000000000000000000041900008F7
:100030004F2C000800000000D19000085F890008E4
:10004000890E0008890E0008890E0008890E000834
:10005000890E0008890E0008890E0008890E000824
:10006000890E0008890E0008890E0008890E000814
:10007000890E0008890E0008890E0008890E000804
:10008000890E0008890E0008512C0008890E00080E
:10009000890E0008890E0008890E0008890E0008E4
:1000A000890E0008890E0008890E0008890E0008D4
:1000B000890E0008890E0008890E0008890E0008C4
:1000C000890E0008890E0008890E0008890E0008B4
:1000D000890E0008890E0008890E0008890E0008A4
:1000E000890E0008890E0008890E0008890E000894
:1000F000890E0008890E0008890E0008890E000884
:10010000890E0008890E0008890E0008890E000873
:10011000890E0008890E00086D2C0008890E000861
:10012000890E0008890E0008890E0008890E000853
:10013000890E0008890E0008890E0008890E000843
:10014000890E0008890E0008890E0008890E000833
:10015000890E0008890E0008890E0008890E000823
:10016000890E0008890E0008890E0008890E000813
:10017000890E0008890E0008890E000800000000A2
:10018000890E0008890E0008890E0008890E0008F3
:10019000890E0008890E0008890E0008890E0008E3
:0C01A000792C0008890E0008852C00084E
:1001B00010B5054C237833B9044B13B10448AFF3A1
:1001C00000800123237010BD800300200000000088
:1001D000D871020808B5034B1BB103490348AFF3BC
:1001E000008008BD0000000084030020D8710208D0
:1001F000034613F8012B002AFBD1181A0138704767
:1002000001F0FF01102A2BDB10F0070F08D010F8C7
:10021000013B013A8B422DD010F0070F42B3F6D1CB
:10022000F0B441EA012141EA014122F007047FF0E4
:1002300000070023F0E80256083C85EA010586EA3B
:10024000010685FA47F5A3FA87F586FA47F6A5FA77
:1002500087F68EB9EED1F0BC01F0FF0102F0070283
:1002600032B110F8013B013A83EA010313B1F8D12E
:100270000020704701387047002D06BF354603380F
:10028000073815F0010F07D1013015F4807F02BF48
:10029000013015F4C03F0130F0BC0138704700BF99
:1002A00070B54FF0FF0C4CF4E06C1CEA11541DBF0C
:1002B0001CEA135594EA0C0F95EA0C0F00F0DEF8D7
:1002C0002C4481EA030621EA4C5123EA4C5350EABC
:1002D000013518BF52EA033541F4801143F480130D
:1002E00038D0A0FB02CE4FF00005E1FB02E506F09E
:1002F0000042E0FB03E54FF00006E1FB03569CF0F3
:10030000000F18BF4EF0010EA4F1FF04B6F5007FF8
:1003100064F5407404D25FEA4E0E6D4146EB06066A
:1003200042EAC62141EA55514FEAC52040EA5E50F3
:100330004FEACE2EB4F1FD0C88BFBCF5E06F1ED89D
:10034000BEF1004F08BF5FEA500E50F1000041EBD4
:10035000045170BD06F0004646EA010140EA020081
:1003600081EA0301B4EB5C04C2BFD4EB0C0541EAA3
:10037000045170BD41F480114FF0000E013C00F3B8
:10038000AB8014F1360FDEBF002001F0004170BDDC
:10039000C4F10004203C35DA0C341BDC04F11404F5
:1003A000C4F1200500FA05F320FA04F001FA05F281
:1003B00040EA020001F0004221F0004110EBD3704E
:1003C00021FA04F642EB06015EEA430E08BF20EA7A
:1003D000D37070BDC4F10C04C4F1200500FA04F31D
:1003E00020FA05F001FA04F240EA020001F00041AF
:1003F00010EBD37041F100015EEA430E08BF20EA22
:10040000D37070BDC4F1200500FA05F24EEA020E69
:1004100020FA04F301FA05F243EA020321FA04F098
:1004200001F0004121FA04F220EA020000EBD3704F
:100430005EEA430E08BF20EAD37070BD94F0000F4F
:100440000FD101F00046400041EB010111F4801F83
:1004500008BF013CF7D041EA060195F0000F18BF34
:10046000704703F00046520043EB030313F4801F70
:1004700008BF013DF7D043EA0603704794EA0C0F2A
:100480000CEA135518BF95EA0C0F0CD050EA410640
:1004900018BF52EA4306D1D181EA030101F00041BD
:1004A0004FF0000070BD50EA410606BF10461946E5
:1004B00052EA430619D094EA0C0F02D150EA0136F1
:1004C00013D195EA0C0F05D152EA03361CBF104632
:1004D00019460AD181EA030101F0004141F0FE41D1
:1004E00041F470014FF0000070BD41F0FE4141F455
:1004F000780170BD81F0004102E000BF83F000434D
:1005000030B54FEA41044FEA430594EA050F08BFAE
:1005100090EA020F1FBF54EA000C55EA020C7FEA72
:10052000645C7FEA655C00F0E2804FEA5454D4EBEF
:100530005555B8BF6D420CDD2C4480EA020281EAB9
:10054000030382EA000083EA010180EA020281EAF1
:100550000303362D88BF30BD11F0004F4FEA013143
:100560004FF4801C4CEA113102D0404261EB410152
:1005700013F0004F4FEA03334CEA133302D05242D8
:1005800063EB430394EA050F00F0A780A4F1010494
:10059000D5F1200E0DDB02FA0EFC22FA05F28018CE
:1005A00041F1000103FA0EF2801843FA05F35941B4
:1005B0000EE0A5F120050EF1200E012A03FA0EFC33
:1005C00028BF4CF0020C43FA05F3C01851EBE3715D
:1005D00001F0004507D54FF0000EDCF1000C7EEB7A
:1005E00000006EEB0101B1F5801F1BD3B1F5001FB8
:1005F0000CD349085FEA30004FEA3C0C04F10104D7
:100600004FEA445212F5800F80F09A80BCF1004FFF
:1006100008BF5FEA500C50F1000041EB045141EA81
:10062000050130BD5FEA4C0C404141EB0101013C4A
:1006300028BFB1F5801FE9D291F0000F04BF014639
:100640000020B1FA81F308BF2033A3F10B03B3F10B
:1006500020020CDA0C3208DD02F1140CC2F10C029B
:1006600001FA0CF021FA02F10CE002F11402D8BFF9
:10067000C2F1200C01FA02F120FA0CFCDCBF41EAC5
:100680000C019040E41AA2BF01EB0451294330BD94
:100690006FEA04041F3C1CDA0C340EDC04F1140471
:1006A000C4F1200220FA04F001FA02F340EA030048
:1006B00021FA04F345EA030130BDC4F10C04C4F18E
:1006C000200220FA02F001FA04F340EA030029466E
:1006D00030BD21FA04F0294630BD94F0000F83F4B8
:1006E000801306BF81F480110134013D4EE77FEA9B
:1006F000645C18BF7FEA655C29D094EA050F08BFE7
:1007000090EA020F05D054EA000C04BF19461046C7
:1007100030BD91EA030F1EBF0021002030BD5FEA0B
:10072000545C05D14000494128BF41F0004130BD33
:1007300014F580043CBF01F5801130BD01F0004587
:1007400045F0FE4141F470014FF0000030BD7FEAFA
:10075000645C1ABF194610467FEA655C1CBF0B46F5
:10076000024650EA013406BF52EA033591EA030F0C
:1007700041F4002130BD00BF90F0000F04BF002104
:10078000704730B54FF4806404F132044FF0000537
:100790004FF0000150E700BF90F0000F04BF0021B0
:1007A000704730B54FF4806404F1320410F0004516
:1007B00048BF40424FF000013EE700BF42004FEA11
:1007C000E2014FEA31014FEA02701FBF12F07F438E
:1007D00093F07F4F81F06051704732F07F4208BF45
:1007E000704793F07F4F04BF41F40021704730B54C
:1007F0004FF4607401F0004521F000411CE700BF98
:1008000050EA010208BF704730B54FF000050AE01A
:1008100050EA010208BF704730B511F0004502D51B
:10082000404261EB41014FF4806404F132045FEA1D
:10083000915C3FF4D8AE4FF003025FEADC0C18BFC6
:1008400003325FEADC0C18BF033202EBDC02C2F1B8
:10085000200300FA03FC20FA02F001FA03FE40EA4A
:100860000E0021FA02F11444BDE600BF4FF0FF3C38
:1008700006E000BF4FF0010C02E000BF4FF0010C9A
:100880004DF804CD4FEA410C7FEA6C5C4FEA430C13
:1008900018BF7FEA6C5C1BD001B050EA410C0CBF62
:1008A00052EA430C91EA030F02BF90EA020F0020C4
:1008B000704710F1000F91EA030F58BF994208BF2B
:1008C00090422CBFD8176FEAE37040F001007047E8
:1008D0004FEA410C7FEA6C5C02D150EA013C07D13F
:1008E0004FEA430C7FEA6C5CD6D152EA033CD3D08A
:1008F0005DF8040B704700BF8446104662468C4684
:100900001946634600E000BF01B5FFF7B7FF0028B6
:1009100048BF10F1000F01BD4DF808EDFFF7F4FFDF
:100920000CBF012000205DF808FB00BF4DF808ED6A
:10093000FFF7EAFF34BF012000205DF808FB00BF8D
:100940004DF808EDFFF7E0FF94BF012000205DF8AF
:1009500008FB00BF4DF808EDFFF7CEFF94BF012064
:1009600000205DF808FB00BF4DF808EDFFF7C4FF5D
:1009700034BF012000205DF808FB00BF4FEA4102B0
:1009800012F5001215D211D56FF47873B3EB6252E1
:1009900012D94FEAC12343F0004343EA505311F008
:1009A000004F23FA02F018BF404270474FF000009A
:1009B000704750EA013005D111F0004008BF6FF0D8
:1009C000004070474FF00000704700BF4FEA4102FF
:1009D000B2F1E04324BFB3F5001CDCF1FE5C0DD99D
:1009E00001F0004C4FEAC0024CEA5070B2F1004FE7
:1009F00040EB830008BF20F00100704711F0804FEA
:100A000021D113F13872BCBF01F00040704741F4AE
:100A100080114FEA5252C2F11802C2F1200C10FAB2
:100A20000CF320FA02F018BF40F001004FEAC12396
:100A30004FEAD32303FA0CFC40EA0C0023FA02F33A
:100A40004FEA4303CCE77FEA625307D150EA013310
:100A50001EBF4FF0FE4040F44000704701F00040E0
:100A600040F0FE4040F40000704700BF7BB972B90F
:100A70000029BEBF00204FF0004106E008BF00285B
:100A80001CBF6FF000414FF0FF3000F0D3B9ADF163
:100A9000080C6DE904CE002909DB002B1ADB00F0FD
:100AA0004DF8DDF804E0DDE9022304B07047404270
:100AB00061EB4101002B1BDB00F040F8DDF804E0A6
:100AC000DDE9022304B0404261EB4101524263EB95
:100AD00043037047524263EB430300F02FF8DDF805
:100AE00004E0DDE9022304B0404261EB41017047BC
:100AF000524263EB430300F021F8DDF804E0DDE946
:100B0000022304B0524263EB4303704753B94AB91E
:100B1000002908BF00281CBF4FF0FF314FF0FF3005
:100B200000F088B9ADF1080C6DE904CE00F006F8CC
:100B3000DDF804E0DDE9022304B070472DE9F04759
:100B4000089D8E4604468846002B4AD18A421746A5
:100B500062D9B2FA82F64EB1C6F1200301FA06F864
:100B600020FA03F3B74043EA0808B4404FEA174EAF
:100B70001FFA87FCB8FBFEF1230C0EFB118843EA39
:100B8000084301FB0CF29A4209D9FB1801F1FF302E
:100B900080F0EA809A4240F2E78002393B449A1A98
:100BA000A3B2B2FBFEF00EFB102243EA024300FBAD
:100BB0000CFC9C4509D9FB1800F1FF3280F0D6806F
:100BC0009C4540F2D3803B44023840EA0140A3EB0D
:100BD0000C0300211DB1F3400022C5E90032BDE83D
:100BE000F0878B4205D90DB1C5E900010021084607
:100BF000F5E7B3FA83F1002946D1734502D3824267
:100C000000F20581841A6EEB030201209046002D4C
:100C1000E5D0C5E90048E2E7002A00F09080B2FA8A
:100C200082F6002E40F0A4808A1A030C4FEA174E79
:100C300080B2BCB20121B2FBFEFC0EFB1C2243EAD7
:100C4000024304FB0CF29A4207D9FB180CF1FF385F
:100C500002D29A4200F2E080C4469B1AB3FBFEF235
:100C60000EFB123340EA034302FB04F49C4207D913
:100C7000FB1802F1FF3002D29C4200F2CA80024609
:100C80001B1B42EA0C40A5E7C1F120068B4022FA6B
:100C900006F71F430EFA01F420FA06F32EFA06FEB9
:100CA0004FEA1749234300FA01F81FFA87FCBEFBFD
:100CB000F9F01C0C09FB10EE44EA0E4400FB0CFE9C
:100CC000A64502FA01F209D93C1900F1FF3A80F079
:100CD0009C80A64540F2998002383C44A4EB0E0467
:100CE0001FFA83FEB4FBF9F309FB13444EEA0444F4
:100CF00003FB0CFCA44508D93C1903F1FF3E80F02E
:100D00008280A4457FD9023B3C4443EA0040A4EBE7
:100D10000C04A0FB02EC64457346E14662D35FD04D
:100D20005DB1B8EB030264EB090404FA06F622FA9B
:100D300001F31E43CC40C5E9006400214FE7B1FB3D
:100D4000F2FC010C41EA0E4180B240EA01423B460E
:100D500038463C46B846BE462026B1FBF7F1A2EB2A
:100D6000080241EA0C4166E7014618E710462CE705
:100D7000C6F120022EFA02F3B740B14020FA02F287
:100D80004FEA174E0A43B3FBFEF8BCB20EFB183312
:100D9000110C41EA034108FB04F9B04089454FEAD0
:100DA000104380B23ED9791808F1FF3C01D2894541
:100DB0001FD8A1EB0901B1FBFEF909FB04F80EFBFA
:100DC000191192B242EA0142424529D2BA1809F1F8
:100DD000FF31C4D24245C2D2A9F102013A44BEE772
:100DE000F0459DD2BEEB02036CEB070C0138E146E7
:100DF00096E7A7EB09094944A8F1020CB1FBFEF9FB
:100E000009FB04F8DBE773467FE7504666E70846D0
:100E1000FDE63B44023A33E7ACF1020C3B441CE7ED
:100E200049469CE7A1EB0901C446B1FBFEF909FB69
:100E300004F8C4E7704700BFDFF834D0002103E0B6
:100E40000C4B5B58435004310B480C4B42189A42F0
:100E5000F6D30B4A02E0002342F8043B094B9A42C6
:100E6000F9D304F0A3FE25F0BBFA01F061F8704756
:100E700000000320906B1208000000206401002095
:100E800080030020203B0120FEE7704708B500F0FA
:100E9000B9FDBDE8084000F03DBD00F0B5BD7047AC
:100EA00010B50421044622F09DFF204610BD00002D
:100EB00038B50C4B0C4C18800C4B822019806368A1
:100EC000984740F6110398420AD1094D23682C60D7
:100ED000822098472B688220DB689847002038BD25
:100EE0000120FCE7A60300204C000020A403002002
:100EF000A80300204FF4A071F020FFF7D9BF000035
:100F0000F7B5394D2B6804461B698220984720802D
:100F100000284ED02B680DF106025B6901A98220E2
:100F20009847324B1B78002B4BD0BDF8062040F67B
:100F300074639A423FD9ADF80630BDF806209B1A7B
:100F40009BB20A2B42D90B22B3FBF2F3284A128838
:100F5000934201D9013A93B2BDF80420254840F6E6
:100F6000B8318A4234D8C2F571620E32016892B249
:100F70000F25B2FBF5F2204D2D88AA4284BF05F162
:100F8000FF35AAB28A4215468EB22AD9921B91B277
:100F90001A4E3768BB42BAB28CBF9A1AD21A92B2B2
:100FA00011440529C4BF056033600368638033685A
:100FB000A38003B0F0BDB32A9CBFB422ADF80620D5
:100FC000BBE7BDF80630A3F5B473B9E70023C3E768
:100FD000C2F56D62083292B20E2A0168C8D80025A7
:100FE0002A46891A89B2D3E7A8030020901C002062
:100FF000A4030020A0030020A60300209C030020DF
:1010000037B568460D461446FFF77AFFBDF8000075
:1010100030B1BDF802302B60BDF8043023600120F0
:1010200003B030BD032821D8DFE800F0020B12190D
:101030000F4B1A68B2FA82F2520904210D4805F0EA
:101040000DBB0B4B5A68B2FA82F252090821F5E740
:10105000074B9A68B2FA82F252091021EEE7044B6C
:10106000DA68B2FA82F252092021E7E7704700BF3E
:10107000AC03002000100240032821D8DFE800F074
:10108000020B12190F4B1A68003A18BF01220421F3
:101090000D4805F0E3BA0B4B5A68003A18BF01221D
:1010A0000821F5E7074B9A68003A18BF0122102182
:1010B000EEE7044BDA68003A18BF01222021E7E787
:1010C000704700BFAC0300200010024003280DD879
:1010D000DFE800F00206080A0421054805F0C3BA5B
:1010E0000821FAE71021F8E72021F6E7704700BF52
:1010F0000010024008B5032811D8DFE800F0020A0A
:101100000C0E0421074805F0A3FA431E584258412B
:1011100008BD0821F6E71021F4E72021F2E70020BE
:10112000F3E700BF0010024070B5084D002401260F
:10113000E0B2FFF7DFFF18B12B68012B18BF2E605C
:101140000134052C05F10405F2D170BDAC0300207B
:10115000012380F8781080F87930704770470020BC
:1011600070470000034B4164003918BF012119701A
:10117000704700BFDF2D0120704700207047836B50
:101180000BB10846184770474FF6FF70704740682C
:1011900003689B69184770477047704770477047EE
:1011A00010B5044600F046FD23680349D3F890309B
:1011B0002046BDE810401847000000D008B503687D
:1011C0000446D3F88430984723682046DB6F98475D
:1011D00000F0ECF8236820465B6F9847292001F067
:1011E00087F900F0E3F8236820465B6F9847F8E73B
:1011F00010B504460AF01CFD23682046D3F8BC3025
:10120000BDE81040184700F0F9BC00F0FDBC00F04C
:101210002FBD00F0CFBC00F03FBD00F047BD00F097
:10122000D3BC09F033BF10B58421044622F0DAFDA7
:10123000204610BD10B590F8341090F878400C4B53
:101240008C421A7809D03AB90A4A0B49148808889E
:1012500010800C8001221A7010BD002AFCD0054AB3
:1012600005491488088810800C800022F3E700BF2D
:10127000D82D0120D42D0120D62D012070B50D468A
:10128000194635B9094B0A4A0A4840F2FF2124F0B1
:10129000A7FDC0E90F52084B003A18BF01221A708F
:1012A0000368BDE87040D3F8903018479072020888
:1012B000C872020816730208DE2D012008B5094B1A
:1012C0001B888B4203D8084B1B88934205D9074BD8
:1012D000074A0848A32124F083FD074B1980074BD8
:1012E0001A8008BDD42D0120D62D01205B73020881
:1012F000BE73020816730208DA2D0120DC2D0120CE
:10130000034690F87A0018B1586803681B681847BC
:1013100070470000012108B50022084607F0A8FB2D
:101320000A4B186028B90A4B0A4A28210A4824F0B7
:1013300057FD00220421012007F039FC074B1860FB
:1013400018B9074B034A2C21F0E708BDC003002061
:10135000017402084A74020879740208BC03002070
:10136000C3740208024B4FF0FF31186807F0CABB84
:10137000C0030020014B186807F0F0BBC003002039
:10138000024B0021186807F0BDBB00BFC00300205E
:10139000FFF7F0BF03480449006800231A4607F02E
:1013A00041BC00BFBC0300200400002013B5084C62
:1013B00000231A4601A9206807F065FC20684FF059
:1013C000FF33002201A907F05EFC02B010BD00BF90
:1013D000BC03002003685B6C18470120704703685A
:1013E0009B6A1847FEE740F2EF307047054B0360F9
:1013F000054B4FF08062C3F88820BFF34F8FBFF3D7
:101400006F8F7047E082020800E100E010B50446EB
:101410004FF45A61FFF7EAFF204622F0E3FC204632
:1014200010BD000082B0002301930E4B1A6B42F4F2
:1014300000021A631A6B02F400020192019A1A69FF
:1014400042F400021A611A6922F400021A61064B82
:10145000064A1A61064A5A61064B4FF080629A604A
:1014600002B07047003802407C1E0020C5160008FC
:10147000E513000800E100E008B50A2809D8DFE814
:1014800000F006100E0808080810101010000220C6
:1014900008BD054B054A0648902124F0A1FC002018
:1014A000F6E70120F4E700BF057502082075020881
:1014B0006B75020838B50C46887FFFF7DDFFA58AFB
:1014C000E28A164B2169586342EA05425A64628BEC
:1014D000D963521B1A642568082D0ED19A611A61CE
:1014E0005862207F0E4A42EA0062DA61E2681A62BC
:1014F0000C4A5961D9601A6038BD0022D8611A615E
:10150000E1680A0A480902F4784200F4FC600243E8
:10151000C1F3C4010A439A63034AECE700B00240F6
:1015200009000100012302000123030008B50B2874
:101530000BD8DFE800F00612100A0A0A0A080808A9
:101540000808022008BD0520FCE7054B054A0648AF
:101550006F2124F045FC0020F4E70120F2E700BFF2
:1015600005750208B37502086B7502082DE9F04194
:1015700091F81D800C464046FFF7D8FFA77F05462F
:101580003846FFF7D3FF06463846FFF775FFA18AB6
:10159000628B444B521A1A649A61228B521A1A6156
:1015A000E28A586342EA01425A6421696268D96357
:1015B000DA602068802828D0227F0FD8202867D0C2
:1015C000402865D004281AD0364B45EA026545F418
:1015D0000035B845DD6161D0334A44E0B0F5807F25
:1015E00004D0B0F5007FEFD1304800E0304840EA49
:1015F0000262DA61E2681A625E62596132E045EACB
:10160000026242F40032DA61F6E7A068021DDA6293
:10161000227F45EA026545F40035DD615E6259616D
:10162000017841B1012921D0224B234A23484FF4AC
:101630008D7124F0D5FBDA69418822F47F420139AB
:1016400022F0100242EA0122DA610121154BDA6927
:1016500042F02002DA61DA699206FCD410229A6024
:101660000029B9D0164A1A60BDE8F081B2F1FF0135
:10167000DA69408822F47F4200F1FF3022F0100244
:1016800042EA002242F0100218BF0121DA61DDE7D0
:1016900045EA0262034B42F40032B4E742F20132FF
:1016A000E1E700BF00B00240012301000900020091
:1016B0000A000200FD750208177602086B75020821
:1016C00001230200024B1B68586803685B691847D6
:1016D000E02D012070B5044625460A4B0C3000264B
:1016E00060602672667245F8203B602229460AF047
:1016F000F5FB04F55A63EE6024359D42FBD120468C
:1017000070BD00BFE0820208034B1A68D207FCD408
:1017100023229A60704700BF00B00240704700006B
:1017200030B50F4C2568ED07FCD423250904A560CE
:1017300041F001010225FF2B65636164E0630AD07B
:101740000849656241EA0363E361074B2262606115
:10175000E060236030BDE561039BA363034BF8E7C2
:1017600000B0024009000100010002000100030076
:1017700030B50E4C2568ED07FCD423251204A56076
:1017800042F001020225FF2B65636264E063E160C1
:1017900008D01B0643F00213E361054B65626061EC
:1017A000236030BD034BE3610123F9E700B0024041
:1017B00001000200020002FF30B50B4C2568ED0766
:1017C000FCD4232512041B06A56043F40033022534
:1017D00042F0010265636264E063E160E361034B30
:1017E00065626061236030BD00B00240010002000C
:1017F000012070471020704700EB0110083070473F
:1018000000EB0110083070470120704740F27C70F7
:10181000704740F27C7303FB01000830704740F2D0
:101820007C7303FB010008307047012070471020D3
:10183000704700EB01100830704700EB01100830D2
:101840007047084601F0A2BE10B5034B0360044682
:1018500009F071F9204610BD9883020810B50446BE
:10186000FFF7F2FF2046182122F0BCFA204610BDF7
:1018700010B5034B0360044609F05DF9204610BD26
:101880006483020810B50446FFF7F2FF204640F2D9
:10189000847122F0A7FA204610BD000010B5034B5A
:1018A0000360044609F047F9204610BD3083020862
:1018B00010B50446FFF7F2FF2046182122F092FAF5
:1018C000204610BD10B5084B0360044600F5F660D5
:1018D000FFF7BAFF04F12C00FFF7CAFF04F1140070
:1018E000FFF7DCFF204610BDCC83020808B5024894
:1018F000FFF7E8FF08BD00BF9C12002010B50446AA
:10190000FFF7E0FF204640F62C1122F06BFA20464C
:1019100010BD00002DE9F34101F028FA054601F061
:1019200029FA00240146234628462246009413F053
:10193000A7F9274B274A1A60204602F05BFC264D88
:10194000264B274A27489A6013F002F92B68BFF309
:101950005B8FDB0735D4284622F046FA88B3224C49
:10196000224B236004F5FA6604F1140004F12C08FC
:1019700004F5F6676060C4F80880E760266109F046
:10198000DBF81B4B6361404609F0D6F8194BE36264
:10199000384609F0D1F8184BC4F8B03704F5F960AF
:1019A00002F00CFD224604F5F961304602F09CFC81
:1019B000304601F0EBFD114824F030FA284622F0C1
:1019C0001FFA0F4802B0BDE8F041FFF7E9BB00BFC6
:1019D000442E0120480400209812002068040020B2
:1019E0004C040020080000209C120020CC83020838
:1019F000308302086483020898830208ED18000807
:101A0000C4030020704700000148FFF7D7BB00BFA8
:101A1000C403002070B5264E264C274D274B23606B
:101A20003046FFF757FE284618F030FA244810F0E9
:101A3000E3FD244B2448DC6000224FF48071C3E9AD
:101A4000121222491A86C3E91A12214983F8582032
:101A5000C3E91E011F49C3F880101F491F480B60CE
:101A6000F021C3E90422C3E90622C3E90822C3E93D
:101A70000A22C3E90E22C3E91022C3E91422C3E9F2
:101A800017225A6683F870205A67C3E901650180FE
:101A90001348018013484FF4A0710180124801805F
:101AA00012490A70012283F83420114A1A6070BD6D
:101AB000F4040020941200206804002080720208C0
:101AC0004C040020C40300200000010101000001BB
:101AD000000450001A001400E02D0120D42D012034
:101AE000DA2D0120D62D0120DC2D0120D82D01205A
:101AF000F48102080148FFF779BC00BFF40400201C
:101B00000020704781807047C18070470181704715
:101B1000418170477047704770477047704710B4F5
:101B2000C4880368121B84885B6D091B12B25DF8C0
:101B3000044B09B218474FF6FF7383814FF0FF3310
:101B400003621368C36110607047002070478B8880
:101B5000838001207047704780F82610704790F806
:101B60002600704710B50022B1F90840B1F90A10FB
:101B7000028042808480C18010BD002202804280A9
:101B80008280C28070470177704780ED080A7047F5
:101B900080F82410704780F82510704701207047A6
:101BA000983070478C30704784307047704770476A
:101BB00070470000034B902283F85A2383F8582380
:101BC000704700BF00E100E0094A0A49D3680A48AB
:101BD000C3F30A03013B9BB20B801169C1F30A01F5
:101BE000013901801364536B43F001035363704761
:101BF00000680140CA1B0020C81B0020014BD3F81D
:101C0000AC00704700680140024B0122C3F8AC10E1
:101C10005A6270470068014010B52C21044622F03A
:101C2000E1F8204610BD10B5BC21044622F0DAF8D8
:101C3000204610BD70B5044609F07DFA23689D6EFC
:101C40000FF04AFA01462046A8472368054AD3F810
:101C50008C502046AC460023BDE87040A2F51631FA
:101C6000604700BF00B004D009F04CBA09F056BA82
:101C700009F012BA09F081BB90F8252012B103686F
:101C80005B691847704790F825201AB190F8242016
:101C900002B1186070470000034B4FF080629A60F9
:101CA0004FF080729A60704700E100E0084B4FF0FF
:101CB0008062C3F88820BFF34F8FBFF36F8F4FF060
:101CC0008072C3F88820BFF34F8FBFF36F8F7047C8
:101CD00000E100E070B50023124E8380124B0360D8
:101CE000336893F8582005460AB1D86C00B9986853
:101CF0000368DB6A98473368B0FA80F4D86C6409EB
:101D000030B10368DB6A9847002808BF44F001043B
:101D10002CB9064B064A07482C2124F061F82846C6
:101D200070BD00BFE02D0120E08302085576020857
:101D3000B3760208EC76020870B5254E3568BFF31D
:101D40005B8F15F0010540D1304622F04DF8002898
:101D50003BD0204C204B256104F13400C4E9003510
:101D6000C4E90255E584A562A58510F02AFF04F1B7
:101D700058000BF069FD194BA3652046184B40F83D
:101D8000843BFFF7A7FF174BC4F884302433C4F813
:101D90008C304FF4C803C4E928350023C4F8AC30B4
:101DA000C4F8B030C4F8B430C4F8B8300E480F4BA3
:101DB000C4F89050C4F89C50C4F8A850C4F89830A7
:101DC00024F02CF8304622F01BF8024870BD00BF0A
:101DD000CC1B0020D01B0020588B02080084020876
:101DE000788402080C8B0208B11B0008EC8A0208F8
:101DF00038B5184C23685BB3174B184A1B6C118815
:101E00008B4216D1164B198805F030FA236893F8E7
:101E10006A200025013283F86A2083F87C50FFF79E
:101E2000B9FA206809F004FF2846BDE83840FFF7FA
:101E3000F9B805F01BFA2468236820461B6A984706
:101E4000012384F87C300020BDE83840FFF714B946
:101E500038BD00BFE02D012000680140CA1B0020F2
:101E6000C81B002007B5064BADF806001B680548E7
:101E700001220DF1060105F0F5FF03B05DF804FB4A
:101E80000C000020181D002008B5642006F0E4FDB9
:101E9000FBE7000030B595B0102200210AA824F01D
:101EA000F6F91422002103A824F0F1F900241E4BB6
:101EB00001941A6C42F080521A641B6C03F0805338
:101EC0000193019B194B02941A6842F440421A6034
:101ED0001B6803F4404302930122029B4FF48033BA
:101EE000CDE9082302254FF480030821CDE90E53E4
:101EF0004FF4B473CDE9101308A80423139312957B
:101F000005F00CFA05F0D0F90F23CDE903354FF4B5
:101F1000A0504FF48053CDE90603052103A8059492
:101F200005F0D8FB15B030BD00380240007000400D
:101F30002DE980489BB003F047FEFFF7ABFF14226A
:101F400000210DA824F0A3F90024C84B00941A6BBB
:101F5000C74842F010021A631A6B02F01002009296
:101F6000009A01941A6B42F020021A631A6B02F075
:101F700020020192019A02941A6B42F080021A63C5
:101F80001A6B02F080020292029A03941A6B42F0DA
:101F900004021A631A6B02F004020392039A049477
:101FA0001A6B42F001021A631A6B02F001020492EA
:101FB000049A05941A6B42F002021A631A6B02F03B
:101FC00002020592059A06941A6B42F040021A63C7
:101FD0001A6B02F040020692069A07941A6B42F0BE
:101FE00008021A631B6B03F00803224607933C2187
:101FF000079B04F033FB9F480122022104F02EFBD3
:1020000022469C48042104F029FB22469A484FF4BA
:10201000405104F023FB01263C23032594480F94F0
:102020000DA9CDE90D36109504F02EFA062391483E
:102030000DA9CDE90D364FF01008CDE90F4404F09D
:1020400023FA8C480F940DA90227CDE90D8504F0E1
:102050001BFA0DA94FF4405387480F94CDE90D3674
:10206000109704F011FA8548854B864D036004F003
:1020700001F9DFF838C2844B2C62C5E900C3284659
:102080004FF48043C5E90434C5E90244C5E9064478
:1020900004F0F2FC4146284604F036FF214628466B
:1020A00004F051FF794DDFF808E2AC624FF482731F
:1020B000C5E900E34FF400781823C5E906832846F4
:1020C0000A23C5E90244C5E90444C5E90844EB62B2
:1020D00005F06CFE8F232246394666488DF8243081
:1020E0008DF8344004F0BAFA32464FF47A7309A9F5
:1020F000284605F0B7FE4FF47A7332460DA92846FC
:1021000006F05CF8324639465A48614D04F0A6FAAA
:102110009DF83430D32B04BF5E4B1E705E4B0126FE
:10212000C5E90036102740230024C5E904734FF4A5
:10213000C073C5E906344FF40063C5E908344FF4B1
:1021400000534FF002094FF0040AAB624FF0030B4B
:1021500007230DA92846CDE90D93CDE90FA34FF034
:102160000808C5E9024ACDE911B9CDF84C9005F04F
:1021700001FD4FF6FF7209A92846CDE90A860894A9
:1021800009960C9405F016FD304603F049FD4FF614
:10219000FF7209A92846CDE90998CDE90B6405F03D
:1021A00009FD4FF6FF7209A92846CDE909B8CDE926
:1021B0000BA405F0FFFC4FF40C730893089B0C93E1
:1021C0004FF6FF7209A92846CDE909A80B9605F03C
:1021D000F1FC40F26A51284605F00AFD34222146FE
:1021E0000DEB020024F053F82C4D2D4B2C61C5E96A
:1021F00000340923C5E905361D23C5E9073B40F234
:102200000D1240F24313C5E9092340F2171140F2C1
:1022100047132846C5E90B13C5E90244AC8685F887
:10222000364004F02BFFFF21F022CDE912144FF0CD
:1022300005084FF480614FF4A073CDE90E24CDE979
:102240001418CDE916420DA922462846CDE91039C9
:10225000144D18930D94ADF864408DF8664004F069
:10226000D8FF114B2B601B68984723E000380240D1
:102270000010024000080240000C0240BC1E00207A
:1022800000300240281E0020A0860100181D0020FA
:102290009C1C0020901C0020400100A0801D0020FC
:1022A000006801408C1C002014000020005C0040ED
:1022B000005001402B68414DDB689847404B284651
:1022C000C5E90034C5E90294C5E90A49C5E90C44E9
:1022D00003F0E0FF3146284604F092F8394D3A48C1
:1022E000DFF8189104614FF4E133C0E900530C2387
:1022F000364DC461C0E90534C0E9024406F01AFA5B
:102300003A4621460DA823F0C2FF314BAC604FF492
:10231000803A2846C5E9003A2C612C7685F82040A1
:10232000EC62C5F82890EC60EE6185F830406E6193
:1023300003F08AFC0D230DA92846CDE90D36254D65
:102340000F9403F0A7FE3A4621460DA823F09FFF05
:10235000214BAC602846C5E9003AC5E90A942C61D6
:102360002C7685F82040EC60EE6185F830406E6197
:1023700003F06AFC0DA92846CDE90D860F9403F001
:1023800089FE1648164B036005F0A8FBFEF77EFD9C
:10239000FEF77BFD06F0F0FA124A1348214606F0DC
:1023A00017FB124B124A18602146124806F010FB28
:1023B000114B186006F0F2FAFEE700BF7C1E002009
:1023C00000B0024000100140D01C00200C1F002073
:1023D00000200140C41E002000210140701D00208B
:1023E00000080650E0840208891E0008981C00209E
:1023F000BC8402089B0E0008941C00200100000F02
:10240000704770477FB5094B8DF817201B68029302
:102410000DF117020123009201930A460146044878
:1024200004F0D2FB07B05DF804FB00BF10000020F1
:10243000281E00207FB500238DF81730084B1B683D
:1024400002930A4601230DF1170100910193014601
:10245000044804F049FC9DF8170007B05DF804FB40
:1024600010000020281E00201FB5084C2468009290
:10247000CDE901340A4601230146054804F034FC45
:10248000003818BF012004B010BD00BF10000020AC
:10249000281E002003F0C4BB10B5064C00222046C5
:1024A000042104F0DBF820460122BDE8104004219D
:1024B00004F0D4B80008024038B50B4D04460122A0
:1024C0000A484FF4005104F0C9F8002204212846BC
:1024D00004F0C4F82046FFF7C5FC28460122BDE8F9
:1024E0003840042104F0BAB800080240000C024051
:1024F00038B50B4D044600220A484FF4005104F051
:10250000ADF800220421284604F0A8F82046FFF781
:10251000A9FC28460122BDE83840042104F09EB8F9
:1025200000080240000C0240F7B5144E144F054657
:102530000C4630460022042104F090F800224FF4AB
:102540000051384604F08AF82846FFF78BFC0D4B03
:102550000D481B68224601A905F030FE38460122CD
:102560004FF40051019C04F079F830460122042117
:1025700004F074F8204603B0F0BD00BF000802402C
:10258000000C02400C000020181D002003F048BB86
:1025900007B5064801A905F0B9FA10B103F03AFBF6
:1025A0000190019803B05DF804FB00BF701D00208E
:1025B00008B5FFF7EDFF0523B0FBF3F303EB83034F
:1025C000C01A0130C0B208BD0268034B9A4201D163
:1025D00003F014BB704700BF0010004070470000BC
:1025E00082B00E4B00220092596C41F48041596434
:1025F000596C01F48041009100990192196C41F0ED
:10260000805119641B6C03F080530193019B0F21CF
:102610006FF0010002B003F0EDBD00BF00380240D2
:1026200010B514228AB0044600210DEB020023F0FD
:102630002EFE2368254A934227D1254B25480024A6
:1026400001945A6C42F480725A645A6C02F480729B
:102650000192019A02941A6B42F004021A631B6BF6
:1026600003F0040302930821029B0323CDE9051321
:1026700005A903F009FF12202246052103F0BAFD47
:10268000122003F0E9FD0AB010BD134A9342FAD1BB
:102690000F4B1248002403945A6C42F400725A649F
:1026A0005A6C02F400720392039A04941A6B42F07B
:1026B00001021A631B6B03F001030493049B2022A5
:1026C0000323CDE9052305A9D3E700BF002001407E
:1026D0000038024000080240002101400000024092
:1026E0000268094B9A4282B00BD100230193074B39
:1026F0001A6B42F480521A631B6B03F480530193EC
:10270000019B02B0704700BF003002400038024019
:1027100007B50F4B02689A4216D10022A3F5F04389
:102720000192196B41F4000119631B6B03F4000360
:10273000019305215A20019B03F05CFD5A2003B050
:102740005DF804EB03F088BD03B05DF804FB00BF47
:1027500000B002402DE9F043044689B01422002164
:1027600003A823F094FD2268244B9A4243D1244CC1
:10277000244800250095236B43F004032363236B57
:1027800003F004030093009B0195236B43F00103C6
:102790002363236B03F001030193019B4FF01209A4
:1027A0004FF400734FF001080327042603A9CDE975
:1027B0000339CDE90587079603F066FE4FF4807371
:1027C0001148079603A9CDE90339CDE9058703F040
:1027D0005BFE0295236C43F400032364236C03F433
:1027E00000030293029B236A43F400032362236ADB
:1027F00023F40003236209B0BDE8F083005C0040CD
:10280000003802400008024000000240F0B599B0D4
:1028100004461422002107A823F039FD30220DEBD5
:102820000200002123F033FD22685E4B9A4240F003
:10283000B78008230C93C0231093042312930CA891
:102840004FF40033159305F01DF808B1FFF7C6FEED
:10285000554B5648002400945A6C42F080625A64EA
:102860005A6C02F080620092009A01941A6B42F056
:1028700020021A631A6B02F020020192019A02945C
:102880001A6B42F001021A631A6B02F00102029203
:10289000029A03941A6B42F002021A631A6B02F056
:1028A00002020392039A04941A6B42F040021A63E4
:1028B0001A6B02F040020492049A05941A6B42F0DB
:1028C00004021A631A6B02F004020592059A069438
:1028D0001A6B42F008021A631B6B03F0080306939D
:1028E00002250E26069B0B964FF4806307A9CDE9BF
:1028F0000735CDE9094503F0C7FD41F658032C48DB
:102900000B9607A9CDE907350927CDE9094503F05D
:10291000BBFD032327480B9707A9CDE90735CDE970
:10292000094503F0B1FD4FF4706322480B9607A9E7
:10293000CDE90735CDE9094503F0A6FD4FF40C6359
:102940001D480B9607A9CDE90735CDE9094503F0E8
:102950009BFDC02319480B9607A9CDE90735CDE9A2
:10296000094503F091FD082315480B9607A9CDE909
:102970000735CDE9094503F087FD4FF4A0530E4814
:102980000B9707A9CDE90735CDE9094503F07CFD93
:1029900058202246052103F02DFC582003F05CFC52
:1029A00019B0F0BD00680140003802400014024038
:1029B00000000240000402400018024000080240EB
:1029C000000C02400268094B9A4282B00BD10023EE
:1029D0000193074B5A6B42F040025A635B6B03F062
:1029E00040030193019B02B0704700BF00080650EE
:1029F0000038024010B5044688B01422002103A814
:102A000023F045FC2268144B9A4223D103F5684316
:102A1000002101915A6C114842F480125A645A6C98
:102A200002F480120192019A02911A6B42F0200284
:102A30001A631B6B03F020030293029B4FF4607236
:102A400002230321CDE903230523CDE9061303A9BE
:102A500003F01AFD08B010BD005001400014024000
:102A600010B5044688B01422002103A823F00FFCFF
:102A70002268144B9A4223D103F59433002101912B
:102A80005A6C114842F010025A645A6C02F010025B
:102A90000192019A02911A6B42F001021A631B6BB8
:102AA00003F001030293029B4FF4C062022303214F
:102AB000CDE903230723CDE9061303A903F0E4FCC2
:102AC00008B010BD00100140000002402DE9F041A7
:102AD00086B0002303932B4B1C68002C4FD14FF082
:102AE0000108C3F80080284B00949A6B274842EAFB
:102AF00008029A639B6B03EA0803009302270326EC
:102B00000C25009B01A94FF63F03CDE90137CDE924
:102B1000046503F0B9FC1E48059501A9CDE90187BC
:102B2000CDE9034603F0B0FC48F23313194805958C
:102B300001A9CDE90137CDE9034603F0A5FC4FF625
:102B400083731548059501A9CDE90137CDE9034601
:102B500003F09AFC4CF203731048059501A9CDE9E6
:102B60000137CDE9034603F08FFC60230C4805953F
:102B700001A9CDE90137CDE9034603F085FC06B094
:102B8000BDE8F081541F00200038024000140240CC
:102B9000000802400018024000100240000C0240F1
:102BA0000004024070B588B000230293204B1A6CD9
:102BB00042F010021A641B6C03F0100302930546E6
:102BC00001A903A8029B04F03FFE069B4BBB04F047
:102BD0001BFE184E184B336040F2E733F360174B7F
:102BE000B0FBF3F3013B7360304600233361B36005
:102BF000B36105F0B3FC044680B9304605F084FBB0
:102C0000044658B9362003F027FB0F2D0DD8224675
:102C10002946362003F0EEFA094B1D60204608B025
:102C200070BD04F0F1FD4000D3E70124F6E700BFDA
:102C300000380240581F00200010004040420F00A2
:102C40007C0000207047FEE7FEE7FEE7FEE77047E6
:102C500008B5044803F090F9BDE80840024803F0C5
:102C60008BB900BF0C1F0020C41E0020014805F0D6
:102C700089BB00BF581F0020014804F06DBA00BF97
:102C8000801D0020014803F031BB00BF7C1E0020E6
:102C90000120704708B523F09DFB162303604FF019
:102CA000FF3008BD08B523F095FB16230360FEE74F
:102CB00070B50D4614460E46731B9C4201DC20463F
:102CC00070BDAFF3008006F8010BF5E770B50D4657
:102CD00014460E46731B9C4201DC204670BD16F85C
:102CE000010BAFF30080F5E74FF0FF3070474FF472
:102CF00000534B6000207047012070470020704750
:102D00000A4A116808B5034609B9094911601068F3
:102D1000694603448B4206D923F05CFB0C23036015
:102D20004FF0FF3008BD1360FCE700BFA01F00207C
:102D3000203B0120704710B50421044621F052F8D1
:102D4000204610BD012908B506D0022908D059B97E
:102D500001F09CFA006808BD01F098FA4068FAE7B3
:102D600001F094FA8068F6E70020F4E70048704725
:102D7000188502080A20704713B5002451B1036872
:102D800001948DF8034001AA9C680DF10303A0474C
:102D900002B010BD0846FBE7C0897047008A704743
:102DA000C088704780887047807A00F07F00704745
:102DB000807AC00970470020704700009FED010A2B
:102DC000704700BF00000000704710B5082104469E
:102DD00021F008F8204610BD7047704700F5987341
:102DE0000868496803C3704770477047416070477F
:102DF00070477047064BC0F84C310023C0F8503183
:102E000000F5A273C0F84801C0F84031704700BF18
:102E1000C13300080123037270477047704738B50B
:102E2000054640680368DB699847044604B938BD25
:102E3000A188AB89C91A236820461B6B09B2984741
:102E4000A469F3E710B4C26841685410034601EB6B
:102E50006200D20748BF0A599B685DF8044B48BF1F
:102E6000D35818470346406830B19A681AB9D868F1
:102E700000F0010070470120704710B50C21044696
:102E800020F0B0FF204610BD10B51021044620F000
:102E9000A9FF204610BD10B51021044620F0A2FF66
:102EA000204610BD10B54FF4AE71044620F09AFFD5
:102EB000204610BD10B50EF00FF90368BDE81040B4
:102EC000DB6B184710B50EF007F90368BDE810403A
:102ED0005B6B184737B50546807A6B7A0130C0B214
:102EE0009842A87205D901232B720023AB7203B05C
:102EF00030BDB5F90C20B5F90E40002110F0ECFA08
:102F0000C30707D500284FF6FF73C8BF012313FA84
:102F100080F000B2AB7AE881041B012BA4B206D189
:102F2000174B1B781BB10EF0D7F80EF0DBF8154AE3
:102F300000231288ADF80230EB891A445B42ADF8E9
:102F40000430114BADF800201B88ADF806300EF0B0
:102F5000C3F8036802AA12E906001B6C9847686868
:102F60000368DB6998470546002DC0D0A9882B6807
:102F7000214428461B6B09B29847AD69F4E700BFAE
:102F8000DE2D0120D42D0120D62D012010B50446C0
:102F9000D0F8400158B10368DB68984738B1D4F8DD
:102FA000400103689B6898470023C4F8403110BD76
:102FB0002DE9F14FD0E9556A0746B06803681B6AEE
:102FC0009847B0F5DE7F05D2444B454AA3214548DA
:102FD00022F006FF706803681B6A98470F2803D821
:102FE000414B3F4AA421F2E7F06803681B6A984707
:102FF0000B2803D83D4B3A4AA521E8E70EF06CF8C0
:10300000DFF8F09004300EF0B4F8D9F8000010B1F9
:103010000368DB689847D9F8000010B103681B68A3
:103020009847DFF8D480D8F8000010B103685B69D6
:103030009847D7F83C0110B103685B689847D8F807
:10304000000010B103681B689847D7F83C0110B125
:1030500003689B689847F068036800215B6A98479B
:103060004FF0000B224BC0F804B0044680F808B0C3
:103070000360B068036859465B6A9847054601F0EB
:1030800075F97068036859465B6A98472946064691
:1030900001F04AF9331DC7F83C61CAF804302B68C7
:1030A000C6F808A02846DB68C9F80040C8F80050F8
:1030B000EE639847336830461B6898472146284698
:1030C00010F004FA236820461B69984723685B695F
:1030D000204601B0BDE8F04F184700BF63770208F3
:1030E000F1770208C57802080C790208AF79020866
:1030F00064860208282E0120242E01202DE9F14F9C
:10310000D0E9556A0746B06803681B6A984740F2E1
:103110007B73984205D8494B494AA321494822F07C
:103120005FFE706803681B6A98470F2803D8464BF8
:10313000434AA421F2E7F06803681B6A98470F2806
:1031400003D8424B3E4AA521E8E70DF0C5FFDFF862
:10315000089104300EF00DF8D9F8000010B10368A2
:10316000DB689847D9F8000010B103681B689847DE
:10317000DFF8E880D8F8000010B103685B69984771
:10318000D7F83C0110B103685B689847D8F8000095
:1031900010B103681B689847D7F83C0110B1036869
:1031A0009B689847F068036800215B6A9847284B42
:1031B00003604FF4A0530381264B1B884FF0000B94
:1031C00080F80AB05B420446C0F804B0A0F80EB024
:1031D0008381B068036859465B6A9847054601F0E9
:1031E00091F97068036859465B6A98472946064614
:1031F00001F034F9331DC7F83C61CAF804302B687C
:10320000C6F808A02846DB68C9F80040C8F8005096
:10321000EE639847336830461B6898472146284636
:1032200010F054F9236820461B69984723685B69AE
:10323000204601B0BDE8F04F184700BF6377020891
:10324000527A0208C57802080C790208AF790208A0
:1032500088860208D42D0120282E0120242E01204A
:103260002DE9F14FD0E9556A0746B06803681B6A3B
:103270009847B0F58E7F05D2484B494AA32149486B
:1032800022F0AEFD706803681B6A98470F2803D8C8
:10329000454B434AA421F2E7F06803681B6A98474C
:1032A0000F2803D8414B3E4AA521E8E70DF014FF53
:1032B000DFF8049104300DF05CFFD9F8000010B184
:1032C0000368DB689847D9F8000010B103681B68F1
:1032D0009847DFF8E880D8F8000010B103685B6910
:1032E0009847D7F83C0110B103685B689847D8F855
:1032F000000010B103681B689847D7F83C0110B173
:1033000003689B689847F068036800215B6A9847E8
:10331000274B03604FF4A0530381264B1B884FF0CB
:10332000000B80F80AB05B420446C0F804B0A0F875
:103330000EB08381B068036859465B6A98470546BA
:1033400001F072F87068036859465B6A984729462D
:10335000064601F047F8331DC7F83C61CAF804304F
:103360002B68C6F808A02846DB68C9F80040C8F8F2
:103370000050EE639847336830461B6898472146F3
:10338000284610F0A3F8236820461B699847236855
:103390005B69204601B0BDE8F04F1847637702082B
:1033A000377B0208C57802080C790208AF79020859
:1033B00088860208D42D0120282E0120242E0120E9
:1033C0002DE9F14FD0E9556A0746B06803681B6ADA
:1033D0009847B0F58E7F05D2444B454AA321454816
:1033E00022F0FEFC706803681B6A98470F2803D818
:1033F000414B3F4AA421F2E7F06803681B6A9847F3
:103400000B2803D83D4B3A4AA521E8E70DF064FEAE
:10341000DFF8F09004300DF0ACFED9F8000010B1E8
:103420000368DB689847D9F8000010B103681B688F
:103430009847DFF8D480D8F8000010B103685B69C2
:103440009847D7F83C0110B103685B689847D8F8F3
:10345000000010B103681B689847D7F83C0110B111
:1034600003689B689847F068036800215B6A984787
:103470004FF0000B224BC0F804B0044680F808B0AF
:103480000360B068036859465B6A9847054600F0D8
:10349000CBFF7068036859465B6A98472946064621
:1034A00000F0A0FF331DC7F83C61CAF804302B6858
:1034B000C6F808A02846DB68C9F80040C8F80050E4
:1034C000EE639847336830461B6898472146284684
:1034D0000FF0FCFF236820461B69984723685B694F
:1034E000204601B0BDE8F04F184700BF63770208DF
:1034F0001C7C0208C57802080C790208AF79020822
:1035000064860208282E0120242E0120044B1B680B
:1035100093F858200AB1D86C00B99868704700BF7A
:10352000E02D0120F8B5174604460E460DF0BEFE0C
:10353000124B1C60124B2360124B0025C4E951351D
:10354000114BC4E953551868036801219B68C4E90D
:103550004F55C4E955769847284600F04BFEFFF7D3
:10356000D5FF18F03CFBFFF7D1FF18F0B3FBFFF7D6
:10357000CDFF18F0BBFB2046F8BD00BF342E012064
:1035800010860208F8850208E02D0120064BC0F8DD
:103590004C310023C0F8503100F5A273C0F8480147
:1035A000C0F84031704700BFC1330008064BC0F877
:1035B0004C310023C0F8503100F5A273C0F8480127
:1035C000C0F84031704700BF61320008064BC0F8B8
:1035D0004C310023C0F8503100F5A273C0F8480107
:1035E000C0F84031704700BFFD300008064BC0F8FE
:1035F0004C310023C0F8503100F5A273C0F84801E7
:10360000C0F84031704700BFB12F000870477047C5
:1036100070477047704730B5036885B06D460181CB
:10362000D3F88430014604462846984795E80700B9
:103630003C3484E8070005B030BD30B5036885B080
:103640006D464181D3F884300146044628469847A8
:1036500095E807003C3484E8070005B030BD00223F
:10366000028042808280C280704780F836107047A6
:1036700070B5036804461B6B1546984723682946B6
:1036800020465B6EBDE87040184700207047806C94
:103690007047704770477047704730B4C2684468DD
:1036A0005510034604EB6200D20748BF62599B687D
:1036B00030BC48BFD35818470346406830B19A68B9
:1036C0001AB9D86800F0010070470120704710B5A2
:1036D0004C21044620F086FB204610BD10B5102179
:1036E000044620F07FFB204610BD10B54FF4D87182
:1036F000044620F077FB204610BD08B5FEF7BCFA63
:1037000008BD0000036870B55E6B124B1B68044671
:103710008DB22BB9104B114A6C21114822F060FB7D
:103720001049828D0988914203D80F4B0B4A6D21B5
:10373000F3E713F812200D4B1B6853F822000368BF
:103740001B6B9847291A3346204609B2BDE87040E2
:10375000184700BF382E0120EE7C0208307D020899
:103760006B7D02083C2E0120B27D0208402E012014
:1037700000F5AC70884208B505D10DF0ADFCBDE890
:103780000840FFF713BF08BD00224FF0FF31C0E92A
:1037900000218260704770B5036804461B6B1546B4
:1037A00098472368294620465B6BBDE87040184760
:1037B00070B504461D46BDF91060FFF7ECFF2368A5
:1037C000294620469B6B9847236831462046DB6B91
:1037D000BDE8704018470000094A02604FF480714C
:1037E00000228184FF21C0E90122C0E90322C0E94F
:1037F0000522C0E9072280F826108262704700BFC8
:10380000208D02084FF4807181840D4901600D49BB
:1038100081624FF6FF7181854FF47F010022416381
:103820004FF0FF31C0E90122C0E90322C0E90522BF
:10383000C0E90722C0E9101202630287C263704721
:10384000908C0208E8850208F8B5194B018F1B8897
:103850008B4206462AD9174B1B682BB9164B174AC1
:1038600017486C2122F0BCFA13F81120154B1B6885
:1038700053F82250144B186800F0F8FC2B680746E8
:103880009B6B284698472B6804469B6C3946284614
:1038900098472B6814FB00F45B6A39462846984722
:1038A000A4B223181BB2A6F84630F8BD0023FAE7ED
:1038B0003C2E0120382E0120EE7C0208307D0208CB
:1038C0006B7D0208402E0120442E01202DE9F04F8F
:1038D00004468DB0264600250FF04CFC624BE56394
:1038E00046F8403B3046FFF777FF04F16C0318467B
:1038F0000293FFF771FF04F1980304F1C40B18461B
:1039000004F5867A0393FFF767FF5846FFF77AFFBF
:103910005046FFF777FF04F5AC78544BC4F80C31F0
:10392000C4F8545140460BF00FF8514BC4E96834C9
:10393000504BC4E96A354FF4A0732A4600932946D8
:103940003046F023FFF734FF271D4FF07F43A36677
:103950003146384607F004F932234FF0FF3900931F
:103960002A4602982946FFF723FF0299C4F894904B
:10397000384607F0F5F84FF4A0732A4603980093F1
:103980002946F023FFF714FF0399C4F8C090384686
:1039900007F0E6F84D2249465846FFF7FCFE04AE14
:1039A0004FF07F43C4F8F430A4F8F850594630463D
:1039B0000AF05CFA96E8070004F5807383E80700D4
:1039C0002D4B0A9303220AA95846ADF82C200AF081
:1039D000F5FC5946384607F0C3F8504694224A2170
:1039E000FFF7D9FED4F80C21A4F840514FF07F43E3
:1039F000C4F83C3151463046D2F88420904796E8CE
:103A0000070004F5A47C1C4B0A938CE807000223F2
:103A10000AA95046ADF82C300AF0D0FC5146384681
:103A200007F09EF84046D2224121FFF7B4FE0AAAD1
:103A300009A9ADF8245040460125ADF828500AF0F8
:103A40001AFD4046A4F89051FFF7FEFE04F5D0732E
:103A50003846C4E96599C4F88031414607F080F8DA
:103A600020460DB0BDE8F08F54870208AC860208EE
:103A70003C87020871370008E8850208406A7047F1
:103A8000806A704770478A880B8810B5D20A4C88C4
:103A9000C1699BB251F8220043EA0443184410BDA7
:103AA00010B50446BAB1107B68B1537BD27A1B02C1
:103AB00003F4E0631A43236A03EB82031A888A4201
:103AC00002D193F9020010BD05D8013880B2043349
:103AD0000028F3D1F7E70020F5E710B52C210446C4
:103AE00020F080F9204610BD30B58BB00446BDF8FB
:103AF00060500895BDF85C5007959DF850500695AC
:103B00009DF84C5005959DF8485004959DF84450FB
:103B100003959DF8405002959DF83C500195BDF8E5
:103B2000385000950FF00AF9064B2360159BE361AE
:103B3000169B2362199B63621A9BA36220460BB0FB
:103B400030BD00BF8887020870477047704730B4A7
:103B5000C26844685510034604EB6200D20748BFB0
:103B600062599B6830BC48BFD35818470346406829
:103B700030B19A681AB9D86800F001007047012086
:103B8000704710B51021044620F02CF9204610BDD6
:103B900010B54FF48E71044620F024F9204610BD74
:103BA000C430884208B505D10DF096FABDE808404A
:103BB000FFF70CBD08BD00002DE9F04F044685B0AD
:103BC000274600250FF0D6FA454BE56347F8403B02
:103BD00004F16C0A3846FFF7FFFD5046FFF7FCFD85
:103BE0004FF480724FF6FF7304F19809A4F8BC20DB
:103BF0003C4AC4F8982004F1C406A4F8BE3084F806
:103C0000C03003A94846C4E92755C4E92955C4E989
:103C10002B55C4E92D55ADF80C300AF05EFD304649
:103C20000AF092FE304BC4E94334304B4FF4A07B92
:103C3000C4E945352A4629463846CDF800B0F02378
:103C4000FFF7B6FD04F104084FF07F43A366394641
:103C5000404606F085FF2A4629465046CDF800B07A
:103C6000F023FFF7A5FD224BC4F89430514640469F
:103C700006F076FF172248461821FFF78CFD09232E
:103C800003A94846ADF80C300AF027FD49464046E6
:103C900006F066FF3046EA224121FFF77CFD03AAC9
:103CA00002A901233046ADF80C30ADF808500AF0F7
:103CB000E2FB0523A4F8FC303046FFF7C5FD4FF0CA
:103CC000FF33C4E9403304F586734046C4F8EC3052
:103CD000314606F045FF204605B0BDE8F08F00BF35
:103CE00008880208888D0208F0870208A13B0008B6
:103CF00011AD2EFF7047704710B54FF4D4710446D4
:103D000020F070F8204610BD074A02600022C0E98A
:103D10000122C0E90322C0E90522C0E907224FF4CD
:103D200080728284704700BFCC8E02082DE9F04F6C
:103D300004468BB0A04600250FF01CFA894BE563C2
:103D400048F8403B26222946404622F0A0FA404649
:103D5000FFF7DAFF844B236404F16C0AFF2384F835
:103D6000663004F198094FF6FF7608A9A56650461B
:103D700004F1C407ADF8206009F0CEFD08A948465B
:103D8000ADF8206009F0C8FD26222946384622F009
:103D90007EFA3846FFF7B8FF744BC4F8EC304FF4A6
:103DA0007F03C4F8F830724BC4F8C43004F5887B44
:103DB0004FF0FF33C4E94135A4F8F060C4F8F45083
:103DC000A4F8FC50C4F80051C4F80C515846FFF751
:103DD0009BFF684EC4F8106104F59E731846C4F842
:103DE00038510393FFF790FF04F5B473C4F83C61B6
:103DF0001846C4F864510293FFF786FF4FF4A0738E
:103E00002A46C4F868614046C4F890512946009398
:103E1000F023FFF7CDFC261D4FF07F434146A366FC
:103E2000304606F09DFE022308A95046ADF820302A
:103E30000AF053FC282340F2171200935A213C2326
:103E40005046FFF7B5FC2946504609F020FD514683
:103E5000304606F085FE062308A94846ADF8203016
:103E60000AF03BFC24230093EF2266214846FFF72B
:103E70009FFC2946484609F00AFD4946304606F0AF
:103E80006FFE2A464A213846FFF785FC4FF0FF3384
:103E9000C4F8F430D4F8C430A4F8F8500DF1100888
:103EA0004046D3F884303946984798E8070004F52F
:103EB000807383E80700304B1B6804F5CA782BB980
:103EC0002E4B2F4A60212F4821F08AFF2E4B1B8852
:103ED0001BB92E4B2A4A6121F5E72D4B294618685C
:103EE00000F0C4F92B4A03460A21404610F022FE96
:103EF0003846C4F80C810AF041FA1C4B089308A913
:103F000004233846ADF824300AF058FA39463046D2
:103F100006F026FE50230093EF22F0232946584650
:103F2000FFF746FC5946304606F01AFED7230398A1
:103F300000931822F0232946FFF73AFC03993046F4
:103F400006F00EFE1823029800932A46F023294615
:103F5000FFF72EFC3046029906F002FE20460BB019
:103F6000BDE8F08F3C880208208D0208E885020831
:103F7000AC8602082C8A0208382E0120EE7C02084A
:103F8000F07D02086B7D02083C2E0120B27D020804
:103F9000442E01203B7E02087047000030B5164DCC
:103FA0002C6814F001048FB0BFF35B8F20D128463A
:103FB0001FF01AFFE0B13F230993104B0893104BF9
:103FC000104911480A940122CDE906430423CDE9A2
:103FD00003320A230093CDE90B44CDE90144059453
:103FE000FFF782FD094821F019FF28461FF008FF5E
:103FF00005480FB030BD00BFA41F002000AD02086F
:1040000010AD02083CAB0208A81F0020993F000831
:104010007047000030B5174D2C6814F001048FB0C4
:10402000BFF35B8F22D128461FF0DEFEF0B13F23A5
:104030000993114B0893114B114912480A94CDE989
:10404000064301220423CDE90332142300931622F0
:104050001823CDE90B44CDE901440594FFF744FD55
:10406000094821F0DBFE28461FF0CAFE05480FB0C4
:1040700030BD00BFD41F002004AD020814AD0208FB
:104080004CAB0208D81F0020114000087047000008
:1040900030B5174D2C6814F001048FB0BFF35B8F5F
:1040A00022D128461FF0A0FEF0B13F230993114B07
:1040B0000893114B114912480A94CDE90643012295
:1040C0000423CDE903322823009309222923CDE9D3
:1040D0000B44CDE901440594FFF706FD094821F0A2
:1040E0009DFE28461FF08CFE05480FB030BD00BF76
:1040F0000420002008AD020818AD020880AC0208B8
:10410000082000208D4000080020704700207047E4
:104110000EB403B503AB002153F8042B01930EF04A
:104120008BF802B05DF804EB03B070470CB407B530
:1041300004AB53F8042B01930EF07EF803B05DF846
:1041400004EB02B070470000436C10B5044673B333
:10415000038F2BB9184B194AC521194821F040FE8D
:10416000C38E00EB43035B8C0BB30FF03AFF238F3E
:10417000012B03D8134B144ACB21EEE7E28E531CDC
:104180009BB2092B194688BFA3F10A0104EB410138
:1041900040F63F10498C814209D10A2B04EB4202C0
:1041A00028BF002304EB4303508C588451842046DD
:1041B000BDE810400FF018BE3E7E0208477E0208A0
:1041C000F27E02083C7F02084A7F02080FF0D3BD4E
:1041D00010B586B002AC84E806001A460AAB059317
:1041E0000193099B00932146089B0CF0F7FA06B057
:1041F00010BD000038B518BB124B13481C6813499A
:10420000B4B1226822440260626822440A60A26853
:1042100014440F4B00221A8000F038F8054600F0D5
:1042200033F80C4B1C600C4B1D600C4B188007E0E6
:104230000B4B03600B4B0B600B4B1C68002CE8D145
:1042400038BD00BF4020002038200020342000204E
:104250003C200020382E0120402E01203C2E012041
:1042600034AD02081CAD02087CAD0208044B1B688B
:1042700053F82100034B1B6803EB4000704700BF5D
:104280003420002038200020062070470048704766
:104290004420002010B5FFF7BDFE044C2060FFF75E
:1042A000F7FE6060FFF77AFEA06010BD442000209A
:1042B00010B5002404600C6014601C6010BD7047D1
:1042C00010B54FF4AE7104461FF08CFD204610BDB2
:1042D00010B50446D0F8580100F074F82046BDE847
:1042E00010400CF0A3BF000010B50446FFF71AF908
:1042F000014B2360204610BD708802080CF0ECBE14
:10430000704704387047704710B5102104461FF0FD
:1043100069FD204610BDA0F10400F5E78368C06880
:10432000196800F039B8000000228260024A026079
:1043300018324260C1607047C488020870470000AC
:1043400010B5034B03600446FFF7A5F9204610BDE6
:10435000EC88020810B50446FFF7F2FF20464FF440
:10436000DE711FF03FFD204610BD000010B5044671
:10437000FFF7ACFA014B2360204610BDEC88020821
:1043800010B50446FFF788F904F5D873C4F8543122
:104390000023A4F8B03110BD10B50B460446064A00
:1043A000062100F5D87010F0C5FB04F58670BDE855
:1043B00010400EF06BB800BF1C8002080022C0E95C
:1043C000002270477047704704387047704710B537
:1043D000102104461FF006FD204610BDA0F1040088
:1043E000F5E7000000228260024A02601832426053
:1043F000C1607047208902087047000010B5034B68
:1044000003600446FFF7A1FB204610BD488902085F
:1044100010B50446FFF7F2FF20464FF48E711FF0EF
:10442000E1FC204610BD000010B50446FFF7C4FBB8
:10443000014B2360204610BD48890208FFF786BB68
:10444000704704387047704710B5102104461FF0BC
:10445000C9FC204610BDA0F10400F5E700228260EF
:10446000024A026018324260C16070477C890208CB
:1044700008B5C368D3F8F02683681A60FFF73EFFDB
:10448000BDE80840FFF7B2B838B5094B03600446F1
:1044900040F2C465B5F5CE7F05D0635960191B683D
:1044A00098472C3DF6E72046FFF724FC204638BD10
:1044B000A489020810B50446FFF7E6FF204640F243
:1044C0007C711FF08FFC204610BD0000002310B54A
:1044D000C0E90133C0E90333C0E90733C0E905335C
:1044E0004FF480738384064B03600B88C384FF23DF
:1044F000044680F828300AF0F0F8204610BD00BFCE
:10450000888D02082DE9F3410446FFF70FFC294B83
:10451000236004F5E47504F5DE684FF6FF7605F5D3
:104520008477284601A92C35ADF80460FFF7CEFF4B
:10453000BD42F6D14545F2D10025C4F8F056C4F885
:10454000085784F8255701A904F5E560ADF8046023
:10455000FFF7BCFF4FF0FF33C4F85837C4F85C379F
:1045600004F26C73002284F85457C4F86057C4F8FE
:10457000645784F868571A6004F5EE631A6084F88B
:104580007457C4F87857234604F11E0283F8A851E3
:1045900083F8A95183F8AA5183F8AB5183F8AC5141
:1045A00083F8AD5106339342F0D1204602B0BDE806
:1045B000F08100BFA48902082DE9F84300F5D47505
:1045C00000264FF064092C464FF00008052714F828
:1045D000013B6BB123785BB1FDF7DAFF4044B0FBE0
:1045E000F9F309FB13001D289CBF14F8013C23704C
:1045F000013FB044EBD10136032E05F10605E2D1AF
:10460000BDE8F88370B500F11E01044603460022A0
:1046100083F8A82183F8A92183F8AA2183F8AB2184
:1046200083F8AC2183F8AD2106338B42F0D104F23C
:10463000A71504F2AD16FDF7BBFF05F8010FB54253
:10464000F9D104F2B316FDF7B3FF05F8010FB54237
:10465000F9D12046BDE87040FFF7AEBF2DE9F04F1D
:1046600087B0B0F940310293B0F942310393064666
:1046700000F2A7190027039AC7EB471313441BB294
:1046800001934FF4847317F0010F03FB076B029B38
:1046900014BF122400241C44A4B2CA464FF00008E0
:1046A0001AF8012F22B3013A0BF5E475042A0DD84C
:1046B000DFE802F003353A3F4400DBF8C821126E10
:1046C0000621ADF81410284605A99047019A21B299
:1046D0002846FFF760F8DBF8C8212021926B2846B6
:1046E0009047DBF8C8212021D26B28469047012251
:1046F00008F101082434B8F1060F8BF8ED21A4B2BB
:104700000BF12C0BCCD10137052F09F10609B2D1E1
:1047100006F59E7007B0BDE8F04F0DF0B7BEDBF8B0
:10472000C8210321126ECCE7DBF8C8210421126EE8
:10473000C7E7DBF8C8210721126EC2E7DBF8C82102
:104740000521126EBDE700F2C51200F2CB1312F87C
:10475000010F10B99A42FAD170470120704738B55D
:10476000044601F057FA04F2A71504F2AD14FDF760
:104770001FFF05F8010FA542F9D138BDC06BFFF747
:1047800077BE000010B5002380F8243780F84D373D
:10479000044600F5E5600DF079FE054905486423FF
:1047A000182203F0F6FF2046BDE81040FFF7E6BFF1
:1047B0001F800208D01C002010B500F5D4710446FB
:1047C000182200F5D77021F048FD2046FFF7C7FFFB
:1047D0002046FFF743FF2046FFF7B5FF20B12046F4
:1047E000BDE81040FFF7CEBF10BD37B5002300F184
:1047F000980480F8BD30054620460DF047FE01F0D4
:1048000009FAFDF7D5FE431E85F81207042B13D8CD
:10481000DFE803F003080A1B1D000623ADF804308F
:1048200001A906E00323F9E70423ADF804300DEBFA
:104830000301204609F051FF0123204685F8BD30D1
:1048400003B0BDE830400DF021BE0723E6E70523A5
:10485000E4E7D0F808370133042B10B50446C0F85C
:10486000083704DDFFF7A8FF0023C4F80837204607
:10487000BDE81040FFF7B9BF38B5D0F8F0360A46AA
:104880000A21044601FB023300F5CA75C0F8F03670
:10489000054A284610F04EF9C4F80C5104F1C40042
:1048A000BDE838400DF0F2BD1C800208034600F55B
:1048B000A561002283F8ED2183F8192283F84522AF
:1048C00083F8712283F89D2283F8C92203F584734B
:1048D0009942EFD11E22002100F5D47021F0D7BCFF
:1048E00030B585B000230446CDE9023300910123A1
:1048F0006946019301F0CEFB204601F04BFA64219A
:10490000204601F0E0FA204601F030FB0546204643
:1049100001F0BEFA284605B030BD002380F8BD3056
:1049200098300DF0B3BD10B50446FFF7F6FF2046F2
:10493000BDE81040FFF7BABF70B5002390B0C0F8D3
:10494000643780F868370D4B01AA03F13806154625
:1049500018685968144603C40833B3422246F7D195
:104960001B7823702846FBF743FC642382B2294658
:10497000034803F00EFF10B070BD00BF398002087D
:10498000D01C0020B0F910379FED2C7A07EE903A3A
:10499000F8EEE77A2DE9F04167EE877A9FED287A05
:1049A000C7EE877A04462DED028B17EE900AFBF7CF
:1049B00005FF41EC180BB0EE480AF0EE680A1FF054
:1049C0008FFA57EC106BB0EE480AF0EE680A1FF051
:1049D00033FA1C4BB4F9728051EC100B0022FBF738
:1049E0005FFCFBF7CBFFB4F9A230B4F97050A8EB31
:1049F000000803EBD373A8EB6308B4F9743003EB3E
:104A0000D373002205EB630530460E4B3946FBF7A6
:104A100047FCFBF7B3FFB4F9A030291803EBD373BD
:104A2000A1EB63010FFA88F8424609B204F198003D
:104A3000FDF775F8BDEC028BBDE8F081D00F494061
:104A4000000034430080464008B501F0E3F8044A12
:104A50001368C31AB3F5967F88BF106008BD00BF06
:104A60007420002007EE901A07EE102AF8EEE77A7D
:104A700000F21473B8EEC77A73B5C3ED007A00F58F
:104A8000E36383ED007A00F21C7383ED000ABDEE50
:104A9000C77A00F5E463C3ED000AB0F9323717EEC8
:104AA000102AFDEEE77A03EBD373A2EB6302B0F9B1
:104AB000303717EE901A03EBD3730446A1EB630172
:104AC000012600F5E56580F8246712B209B2284690
:104AD000FEF761FE84F84D6728460DF0D7FC94F888
:104AE000123784F81337013B042B13D8DFE803F0A7
:104AF00003080A1416000623ADF8043001A906E0E5
:104B00000323F9E70423ADF804300DEB0301284635
:104B100009F0E3FD02B070BD0723EDE70523EBE7E5
:104B20002DE9F843044600232DED048B983080F8DE
:104B300025300DF0ABFCB4F910379FED2E7A07EE5F
:104B4000903AF8EEE77AB0EE089A67EE877A9FED32
:104B50002A7AC7EE877A17EE900AFBF72FFE41EC10
:104B6000180BB0EE480AF0EE680A1FF0B9F957ECDE
:104B7000106BB0EE480AF0EE680A1FF05DF959ECD0
:104B8000108B49464046FBF721FF394608EE900A54
:104B90003046FBF71BFF194BB4F97250002208EEA8
:104BA000100A49464046FBF77BFBFBF7E7FEB4F9EA
:104BB0007430A5EB0008B4F9705003EBD37305EB28
:104BC000630500220D4B68EEC98A28EE098A30463B
:104BD0003946FBF765FBFBF7D1FEF0EE680AB0EE55
:104BE000480ABDEC048B291842462046BDE8F8432C
:104BF000FFF738BFD00F49400000344300804640E3
:104C000090F8242710B500F5E5642AB300F5E362B7
:104C1000D2ED007AB0F93217B0F93037FDEEE77A0D
:104C200001EBD17117EE902AA2EB610200F2147130
:104C3000D1ED007AFDEEE77A03EBD37317EE901A0D
:104C4000A1EB630112B209B22046FCF768FF2046CF
:104C5000BDE810400DF01ABC80F84D27F7E7042995
:104C600004D8052A8CBF002001207047002070471F
:104C70002DE9F04FADF50F7D044689461546FFF747
:104C8000EEFF002800F0AC804FF0060B0BFB01F6A6
:104C9000A319134493F8A8310193002B00F0A080CE
:104CA0001E220021504821F0F2FA4F4BCDF85890C7
:104CB0001E444FF0010C06F805C034954B4D0FCD46
:104CC00004AE0FC695E8030005F1080E86E8030060
:104CD000BEE80F000AAE0FC69EE80300203586E846
:104CE00003000FCD10AE0FC695E803000DF1580874
:104CF00086E803000DF1D00900266346013B70A948
:104D000059F8232058F823A0029252AA029842F898
:104D100026A00AF0010241F8260000250136039280
:104D200004AA52F82510039A5144002A56D010AA1A
:104D3000029852F8252002442046FFF790FFC8B1A0
:104D4000294F0BFB01F007EB000C1CF802E0BEF151
:104D5000000F0FD120441044019F90F8A801B842E1
:104D600008D14FF001000CF8020048F8231049F870
:104D7000232001330135062DD2D1002BBED1022EC6
:104D80002EDD52A870A91F4650F8042B51F804CB11
:104D900005FB024262440133B34282F8A871F3D1A9
:104DA00019462046FFF768FD2046FFF757FC2046CE
:104DB000FFF7C9FC40B10E490E486423182203F0E6
:104DC000E8FC2046FFF7DEFC0B490A48642310226A
:104DD0000DF50F7DBDE8F04F03F0DBBC0AAAA7E795
:104DE0000DF50F7DBDE8F08F50200020F071020816
:104DF00072800208D01C00209880020870B5052936
:104E0000A8BF052121EAE1754319044693F8A8617A
:104E100096B990F8122783F8A821FFF71FFC1349D1
:104E200013486423162203F0B4FC2A463146204678
:104E3000BDE87040FFF71CBF00F2A713002513F870
:104E4000016F46B9631994F8122783F8A821204608
:104E5000FFF704FCE9E70135062DF0D1BDE870400D
:104E60000449034864231B2203F093BCA980020871
:104E7000D01C0020C08002082DE9F04FA3B00446EA
:104E80000D461646FFF7EBFE28B9052AA8BF0526F2
:104E900026EAE67605464FF0060B0BFB0543334446
:104EA00093F8A831002B00F0C680664F9FED666A2C
:104EB0000FCF0DF1180CACE80F0097E8030007F1D5
:104EC000080E8CE80300BEE80F000DF1300CACE8D2
:104ED0000F009EE8030020378CE803000FCF0DF190
:104EE000480CACE80F0097E803008CE803004FF093
:104EF000FF3705F00102002303970DF11808059212
:104F000004F2147904F5E36A58F82310059A294449
:104F1000002A40F08E800CAA52F82320204632440A
:104F20000292FFF79CFE002841D00BFB0140104489
:104F300090F8A80100283AD101F0010EB4F94221FD
:104F400004920029B8BFCEF1000E029AB4F94001D4
:104F5000D9ED006ABEF1010F4FF0240C14BF4FF0E1
:104F6000000E4FF0120E0CFB02007044103007EEE2
:104F7000900A049AC1EB4110F8EEE77A1044103021
:104F800076EEE76A07EE900AB8EEE77ADAED007A95
:104F900077EEC77A67EEA77AE6EEA67AF4EEC67ADF
:104FA000F1EE10FA42BF029F0391B0EE676A01333F
:104FB000062BA9D1039D6A1C3FD07B1C3DD03A46ED
:104FC00029462046FFF74BFEB8B3062303FB0543F3
:104FD0003B4493F8A82182BB94F8132783F8A821B7
:104FE0002046FFF73BFB94F81237184A4021CDE9E1
:104FF000007312A82B4621F0B7F812A8FBF7F8F8B7
:10500000642382B212A9124803F0C3FB012384F87F
:105010005437C4F85857C4F85C77002304F5E560AA
:1050200084F8243784F84D3723B0BDE8F04F0DF0F5
:105030002DBA12AA70E73746BDE731462046FFF782
:10504000DDFEEAE7F0710208286B6E4EDC80020894
:10505000D01C00202DE9F84F90F824972DED048BFB
:105060000446B9F1000F5CD000F2147300F5E36858
:10507000B0F940A1B0F942B193ED008A98ED009AE1
:10508000DFED469A00F2A7170025F3EE008AC5EB84
:10509000451315F0010F03EB0B0214BF122300237D
:1050A00053443946002604E00136062E03F124035A
:1050B0003BD011F8010F0028F6D007EE903AB8EE79
:1050C000E77A07EE902AF8EEE77A37EE287A77EE5D
:1050D000A87A38EE477A79EE677A67EEA77AE7EE34
:1050E000077AF4EEE97AF1EE10FADDD8002384F8BD
:1050F000243784F84D3704F5E5600DF0C7F92849E9
:1051000028486423122203F044FB324629462046F5
:10511000FFF7B2FE4E460135052D08D00637002EAA
:10512000B5D0BDEC048BBDE8F88F0026F3E7002E68
:10513000F7D107EE90BA98ED007AF8EEE77AB4EE80
:10514000E77AF1EE10FAECD804F5E56084F824670C
:1051500084F84D670DF09AF91349124864231C2214
:1051600003F017FB07EE90AAF8EEE77A9FED0F7AAF
:1051700038EE678A3146C8EE077ABDEC048B2046CC
:10518000BDE8F84FFDEEE77A17EE902A052AA8BF92
:10519000052222EAE272FFF76FBE00BF00401C4505
:1051A000FB800208D01C00200D8102080000104284
:1051B00090F8243770B50446A3B300F2147300F2DC
:1051C0001C72D2ED007A93ED007A37EE877A00F503
:1051D000E36083ED007A04F5E461D0ED006A91EDBF
:1051E000006AB5EEC07A76EE866AF1EE10FAC0ED8E
:1051F000006A18D80021F1EE677A1960C2ED007AD2
:105200002046FFF727FF94F824371E4DB3B32046FE
:10521000FFF7F6FC94F8243783B32B6883B900F0CA
:10522000F9FC286070BDDFED186A37EE267ADFEDF5
:10523000176AB4EEE67AF1EE10FAE1DB1449DAE728
:1052400000F0E8FC2B68C01A42F21073984211D9A2
:10525000002604F5E56084F8246784F84D670DF0B6
:1052600015F92E600B490C48BDE8704064231422E8
:1052700003F08FBA94F82437002BD3D100232B608E
:10528000D0E700BF70200020000000420000704303
:105290000000504331810208D01C002000F26C73E2
:1052A000D3ED006A9FED237A00F5EE6393ED006A7B
:1052B00076EEC67A10B5F4EEC77AF1EE10FA04462F
:1052C0002CDD9FED1D7A77EEC77ABDEEE77AF6EE1C
:1052D000005A17EE102A002AB8BF524207EE102AD1
:1052E000B8EEC77AB4EEE57AF1EE10FA5EBF9FED44
:1052F000137AF0EE466AE7EE876A16EE900AC3ED7F
:10530000006AFBF75BFA41EC100B1EF0EBFE51EC70
:10531000100BFBF733FBA4F8100710BD9FED087AC4
:10532000F4EEC77AF1EE10FA44BF9FED037A77EE00
:10533000877ACAE7000034430000B4439A99193EC3
:10534000000034C307EE102A084691B107EE901A08
:10535000B8EEC77AF8EEE77AC7EE876A66EEA67A05
:1053600067EEA67A67EE877AFDEEE77A17EE903A57
:1053700018B2704770B50D2192B004463F48FFF750
:10538000AFFA052106463D48FFF7AAFA94F86837B8
:105390000546B3B901233A4AA4F8660784F868378A
:1053A00040213346A4F86467009002A820F0DCFE98
:1053B00002A8FAF71DFF642382B202A9314803F064
:1053C000E8F9B4F86437F11AB4F866372E4E09B22A
:1053D000ED1A81EAE173A3EBE1732DB29BB2632B6B
:1053E00085EAE573A3EBE5739BB298BF0021632BBD
:1053F00098BF0025B1F5487FA8BF4FF44871B1426E
:105400004FF44872B8BF31462046FFF79BFF9542E4
:105410002946A8BF1146B142B8BF3146A4F80C07CF
:105420002046FFF78FFF0421A4F80E07174801F06C
:105430000FF900280CBF012600261AD194F8255731
:10544000BDB92046FFF76CFB01224FF48051104894
:1054500001F004F9322000F0E3FB0D482A464FF436
:10546000805101F0FBF80B4906486423072203F042
:1054700090F984F8256712B070BD00BF0C1F0020A2
:1054800046810208D01C0020E0FCFFFF000802401B
:10549000000C02406181020810B50446FFF76AFF64
:1054A00000F0B8FBB4F90C1781EAE173A3EBE173E8
:1054B0009BB2C82BB4F90E3706D883EAE372A2EB8D
:1054C000E37292B2C82A37D907EE903AF8EEE70AAB
:1054D00007EE901A0122B8EEE70A84F87427C4F8A0
:1054E0007807F1EE600A1EF04FFDDFED1A7A9FEDAE
:1054F0001A7A20EE270AC0EE077A9FED187AF4EEAA
:10550000C77AF1EE10FA14D49FED157AF4EE477ACB
:10551000F1EE10FAC8BFF0EE477A04F26C73C3EDF7
:10552000007A2046FFF7BAFE2046BDE81040FFF79C
:1055300029BAF0EE477AF0E794F87437002BF0D0F0
:10554000D4F87837C01AC82884BF002384F8743789
:10555000E7E700BF00003443D00F49400000A0C27D
:105560000000A04210B50446FFF796FF2046FFF763
:105570001FFE2046FFF768FA94F8543773B10023F2
:105580002046D4F85C27D4F8581784F85437FFF72E
:105590006FFB2046BDE81040FFF75BB910BD2DE959
:1055A000F7430446FEF7A7FB2046FFF7C5F994F83A
:1055B000C0301BB104F19800FCF75EFB00263546B5
:1055C00004F59E79A7194FF0000887F8ED5107F50B
:1055D000E471484608F1010805F0C2FAB8F1060F77
:1055E00007F12C07F1D106F58476B6F5A56FE9D160
:1055F0002046C4F80857C4F86057A4F81057FFF7BE
:1056000001F82046FFF72AF82046FFF7EEF80021C0
:105610002046C4F8F056FFF72FF904F5E56620465A
:10562000FFF7B0F9032301A93046ADF8043009F0C3
:1056300054F8002211463046FEF7ADF83146201DE1
:1056400084F84D5705F08CFA04F26C720023136055
:1056500004F5EE621360A4F8105784F8745700F054
:10566000D9FAC4F8780703B0BDE8F083F02070479A
:105670004FF4A07070472920FCF73ABF2820FCF7B0
:1056800037BF08B5FCF708FFCA20FCF731FFC3207D
:10569000FCF712FF0820FCF70FFF5020FCF70CFF6F
:1056A000CF20FCF725FF0020FCF706FFC120FCF708
:1056B00003FF3020FCF700FFED20FCF719FF64200A
:1056C000FCF7FAFE0320FCF7F7FE1220FCF7F4FECD
:1056D0008120FCF7F1FEE820FCF70AFF8520FCF7AB
:1056E000EBFE0020FCF7E8FE7820FCF7E5FECB207F
:1056F000FCF7FEFE3920FCF7DFFE2C20FCF7DCFE79
:105700000020FCF7D9FE3420FCF7D6FE0220FCF77F
:10571000D3FEF720FCF7ECFE2020FCF7CDFEEA20BC
:10572000FCF7E6FE0020FCF7C7FE0020FCF7C4FEF5
:10573000B120FCF7DDFE0020FCF7BEFE1B20FCF7CD
:10574000BBFEB620FCF7D4FE0A20FCF7B5FEA22073
:10575000FCF7B2FEC020FCF7CBFE1020FCF7ACFE3D
:10576000C120FCF7C5FE1020FCF7A6FEC520FCF703
:10577000BFFE4520FCF7A0FE1520FCF79DFEC720CC
:10578000FCF7B6FE9020FCF797FE3620FCF7B0FE43
:10579000C820FCF791FEF220FCF7AAFE0020FCF7DF
:1057A0008BFEB020FCF7A4FEC220FCF785FEB620DD
:1057B000FCF79EFE0A20FCF77FFEA720FCF77CFE8C
:1057C0002720FCF779FE0420FCF776FE2A20FCF760
:1057D0008FFE0020FCF770FE0020FCF76DFE00201D
:1057E000FCF76AFEEF20FCF767FE2B20FCF780FE3B
:1057F0000020FCF761FE0020FCF75EFE0120FCF7B4
:105800005BFE3F20FCF758FEF620FCF771FE0120FE
:10581000FCF752FE0020FCF74FFE0620FCF74CFE82
:105820002C20FCF765FEC820FCF7B0FE2620FCF714
:105830005FFE0120FCF740FEE020FCF759FE0F2040
:10584000FCF73AFE2920FCF737FE2420FCF734FE53
:105850000C20FCF731FE0E20FCF72EFE0920FCF791
:105860002BFE4E20FCF728FE7820FCF725FE3C207E
:10587000FCF722FE0920FCF71FFE1320FCF71CFE9C
:105880000520FCF719FE1720FCF716FE1120FCF787
:1058900013FE0020FCF710FEE120FCF729FE00209B
:1058A000FCF70AFE1620FCF707FE1B20FCF704FE9F
:1058B0000420FCF701FE1120FCF7FEFD0720FCF799
:1058C000FBFD3120FCF7F8FD3320FCF7F5FD42200D
:1058D000FCF7F2FD0520FCF7EFFD0C20FCF7ECFDDA
:1058E0000A20FCF7E9FD2820FCF7E6FD2F20FCF755
:1058F000E3FD0F20FCF7E0FD1120FCF7F9FDC820C7
:10590000FCF744FE2920FCF7F3FDBDE808402C20FD
:10591000FCF7EEBD08B5FCF7BFFD0321D320FCF773
:1059200003FE80B208BD10B5C4B202220321204696
:10593000FCF768FD0A20FCF7ADFD2046002203219C
:10594000FCF760FDBDE810400220FCF7A3BD38B5B0
:105950000446E4B2FCF754FD00212046FCF76AFD42
:10596000012105462046FCF765FD40EA052080B28E
:1059700038BD10B5C4B240212046FCF75BFD0306DC
:1059800007D54C212046FCF755FD003818BF0120F3
:1059900010BD01224B212046FCF734FD2046002299
:1059A0004B21FCF72FFD0020F2E773B50423C4B2AE
:1059B0000E461546D7210DEB03022046FCF754FD99
:1059C000019B1BBA1A0DC3F30B23328020462B8098
:1059D00001224B21FCF716FD00224B212046FCF74B
:1059E00011FD02B070BD000010B50A4A137898424C
:1059F00004460DD0517888420AD00BB141B9012339
:105A0000D454FCF7FDFC2046BDE81040FFF78BBFE7
:105A100010BD00BF7820002010B5C4B20921204677
:105A2000FCF708FD40F00102D2B220460921BDE892
:105A30001040FCF7E7BC10B5C4B209212046FCF7C2
:105A4000F9FC092100F0FE022046BDE81040FCF7F9
:105A5000D9BC38B5C4B20D4620460A21FCF7EAFC91
:105A600040EA0502D2B220460A21BDE83840FCF7E0
:105A7000C9BC10B50446FCF7C4FC20461F21FFF743
:105A8000E8FF2046BDE81040FFF7C6BF38B5C4B2F6
:105A90000D4620460A21FCF7CDFC20EA0502D2B2D1
:105AA00020460A21BDE83840FCF7ACBC10B50446DE
:105AB000FFF7C1FF20461F21BDE81040FFF7E6BFFA
:105AC00010B5C0B20C460B21FCF7B4FC204010BD51
:105AD0001F21FFF7F5BF0A46C0B20B21FCF792BCAD
