:020000040800F2
:1000000000000320390E0008452C0008472C00088A
:10001000492C00084B2C00084D2C00080000000063
:10002000000000000000000000000000B190000887
:100030004F2C00080000000041910008D3890008FF
:10004000890E0008890E0008890E0008890E000834
:10005000890E0008890E0008890E0008890E000824
:10006000890E0008890E0008890E0008890E000814
:10007000890E0008890E0008890E0008890E000804
:10008000890E0008890E0008512C0008890E00080E
:10009000890E0008890E0008890E0008890E0008E4
:1000A000890E0008890E0008890E0008890E0008D4
:1000B000890E0008890E0008890E0008890E0008C4
:1000C000890E0008890E0008890E0008890E0008B4
:1000D000890E0008890E0008890E0008890E0008A4
:1000E000890E0008890E0008890E0008890E000894
:1000F000890E0008890E0008890E0008890E000884
:10010000890E0008890E0008890E0008890E000873
:10011000890E0008890E00086D2C0008890E000861
:10012000890E0008890E0008890E0008890E000853
:10013000890E0008890E0008890E0008890E000843
:10014000890E0008890E0008890E0008890E000833
:10015000890E0008890E0008890E0008890E000823
:10016000890E0008890E0008890E0008890E000813
:10017000890E0008890E0008890E000800000000A2
:10018000890E0008890E0008890E0008890E0008F3
:10019000890E0008890E0008890E0008890E0008E3
:0C01A000792C0008890E0008852C00084E
:1001B00010B5054C237833B9044B13B10448AFF3A1
:1001C00000800123237010BD800300200000000088
:1001D0004872020808B5034B1BB103490348AFF34B
:1001E000008008BD0000000084030020487202085F
:1001F000034613F8012B002AFBD1181A0138704767
:1002000001F0FF01102A2BDB10F0070F08D010F8C7
:10021000013B013A8B422DD010F0070F42B3F6D1CB
:10022000F0B441EA012141EA014122F007047FF0E4
:1002300000070023F0E80256083C85EA010586EA3B
:10024000010685FA47F5A3FA87F586FA47F6A5FA77
:1002500087F68EB9EED1F0BC01F0FF0102F0070283
:1002600032B110F8013B013A83EA010313B1F8D12E
:100270000020704701387047002D06BF354603380F
:10028000073815F0010F07D1013015F4807F02BF48
:10029000013015F4C03F0130F0BC0138704700BF99
:1002A00070B54FF0FF0C4CF4E06C1CEA11541DBF0C
:1002B0001CEA135594EA0C0F95EA0C0F00F0DEF8D7
:1002C0002C4481EA030621EA4C5123EA4C5350EABC
:1002D000013518BF52EA033541F4801143F480130D
:1002E00038D0A0FB02CE4FF00005E1FB02E506F09E
:1002F0000042E0FB03E54FF00006E1FB03569CF0F3
:10030000000F18BF4EF0010EA4F1FF04B6F5007FF8
:1003100064F5407404D25FEA4E0E6D4146EB06066A
:1003200042EAC62141EA55514FEAC52040EA5E50F3
:100330004FEACE2EB4F1FD0C88BFBCF5E06F1ED89D
:10034000BEF1004F08BF5FEA500E50F1000041EBD4
:10035000045170BD06F0004646EA010140EA020081
:1003600081EA0301B4EB5C04C2BFD4EB0C0541EAA3
:10037000045170BD41F480114FF0000E013C00F3B8
:10038000AB8014F1360FDEBF002001F0004170BDDC
:10039000C4F10004203C35DA0C341BDC04F11404F5
:1003A000C4F1200500FA05F320FA04F001FA05F281
:1003B00040EA020001F0004221F0004110EBD3704E
:1003C00021FA04F642EB06015EEA430E08BF20EA7A
:1003D000D37070BDC4F10C04C4F1200500FA04F31D
:1003E00020FA05F001FA04F240EA020001F00041AF
:1003F00010EBD37041F100015EEA430E08BF20EA22
:10040000D37070BDC4F1200500FA05F24EEA020E69
:1004100020FA04F301FA05F243EA020321FA04F098
:1004200001F0004121FA04F220EA020000EBD3704F
:100430005EEA430E08BF20EAD37070BD94F0000F4F
:100440000FD101F00046400041EB010111F4801F83
:1004500008BF013CF7D041EA060195F0000F18BF34
:10046000704703F00046520043EB030313F4801F70
:1004700008BF013DF7D043EA0603704794EA0C0F2A
:100480000CEA135518BF95EA0C0F0CD050EA410640
:1004900018BF52EA4306D1D181EA030101F00041BD
:1004A0004FF0000070BD50EA410606BF10461946E5
:1004B00052EA430619D094EA0C0F02D150EA0136F1
:1004C00013D195EA0C0F05D152EA03361CBF104632
:1004D00019460AD181EA030101F0004141F0FE41D1
:1004E00041F470014FF0000070BD41F0FE4141F455
:1004F000780170BD81F0004102E000BF83F000434D
:1005000030B54FEA41044FEA430594EA050F08BFAE
:1005100090EA020F1FBF54EA000C55EA020C7FEA72
:10052000645C7FEA655C00F0E2804FEA5454D4EBEF
:100530005555B8BF6D420CDD2C4480EA020281EAB9
:10054000030382EA000083EA010180EA020281EAF1
:100550000303362D88BF30BD11F0004F4FEA013143
:100560004FF4801C4CEA113102D0404261EB410152
:1005700013F0004F4FEA03334CEA133302D05242D8
:1005800063EB430394EA050F00F0A780A4F1010494
:10059000D5F1200E0DDB02FA0EFC22FA05F28018CE
:1005A00041F1000103FA0EF2801843FA05F35941B4
:1005B0000EE0A5F120050EF1200E012A03FA0EFC33
:1005C00028BF4CF0020C43FA05F3C01851EBE3715D
:1005D00001F0004507D54FF0000EDCF1000C7EEB7A
:1005E00000006EEB0101B1F5801F1BD3B1F5001FB8
:1005F0000CD349085FEA30004FEA3C0C04F10104D7
:100600004FEA445212F5800F80F09A80BCF1004FFF
:1006100008BF5FEA500C50F1000041EB045141EA81
:10062000050130BD5FEA4C0C404141EB0101013C4A
:1006300028BFB1F5801FE9D291F0000F04BF014639
:100640000020B1FA81F308BF2033A3F10B03B3F10B
:1006500020020CDA0C3208DD02F1140CC2F10C029B
:1006600001FA0CF021FA02F10CE002F11402D8BFF9
:10067000C2F1200C01FA02F120FA0CFCDCBF41EAC5
:100680000C019040E41AA2BF01EB0451294330BD94
:100690006FEA04041F3C1CDA0C340EDC04F1140471
:1006A000C4F1200220FA04F001FA02F340EA030048
:1006B00021FA04F345EA030130BDC4F10C04C4F18E
:1006C000200220FA02F001FA04F340EA030029466E
:1006D00030BD21FA04F0294630BD94F0000F83F4B8
:1006E000801306BF81F480110134013D4EE77FEA9B
:1006F000645C18BF7FEA655C29D094EA050F08BFE7
:1007000090EA020F05D054EA000C04BF19461046C7
:1007100030BD91EA030F1EBF0021002030BD5FEA0B
:10072000545C05D14000494128BF41F0004130BD33
:1007300014F580043CBF01F5801130BD01F0004587
:1007400045F0FE4141F470014FF0000030BD7FEAFA
:10075000645C1ABF194610467FEA655C1CBF0B46F5
:10076000024650EA013406BF52EA033591EA030F0C
:1007700041F4002130BD00BF90F0000F04BF002104
:10078000704730B54FF4806404F132044FF0000537
:100790004FF0000150E700BF90F0000F04BF0021B0
:1007A000704730B54FF4806404F1320410F0004516
:1007B00048BF40424FF000013EE700BF42004FEA11
:1007C000E2014FEA31014FEA02701FBF12F07F438E
:1007D00093F07F4F81F06051704732F07F4208BF45
:1007E000704793F07F4F04BF41F40021704730B54C
:1007F0004FF4607401F0004521F000411CE700BF98
:1008000050EA010208BF704730B54FF000050AE01A
:1008100050EA010208BF704730B511F0004502D51B
:10082000404261EB41014FF4806404F132045FEA1D
:10083000915C3FF4D8AE4FF003025FEADC0C18BFC6
:1008400003325FEADC0C18BF033202EBDC02C2F1B8
:10085000200300FA03FC20FA02F001FA03FE40EA4A
:100860000E0021FA02F11444BDE600BF4FF0FF3C38
:1008700006E000BF4FF0010C02E000BF4FF0010C9A
:100880004DF804CD4FEA410C7FEA6C5C4FEA430C13
:1008900018BF7FEA6C5C1BD001B050EA410C0CBF62
:1008A00052EA430C91EA030F02BF90EA020F0020C4
:1008B000704710F1000F91EA030F58BF994208BF2B
:1008C00090422CBFD8176FEAE37040F001007047E8
:1008D0004FEA410C7FEA6C5C02D150EA013C07D13F
:1008E0004FEA430C7FEA6C5CD6D152EA033CD3D08A
:1008F0005DF8040B704700BF8446104662468C4684
:100900001946634600E000BF01B5FFF7B7FF0028B6
:1009100048BF10F1000F01BD4DF808EDFFF7F4FFDF
:100920000CBF012000205DF808FB00BF4DF808ED6A
:10093000FFF7EAFF34BF012000205DF808FB00BF8D
:100940004DF808EDFFF7E0FF94BF012000205DF8AF
:1009500008FB00BF4DF808EDFFF7CEFF94BF012064
:1009600000205DF808FB00BF4DF808EDFFF7C4FF5D
:1009700034BF012000205DF808FB00BF4FEA4102B0
:1009800012F5001215D211D56FF47873B3EB6252E1
:1009900012D94FEAC12343F0004343EA505311F008
:1009A000004F23FA02F018BF404270474FF000009A
:1009B000704750EA013005D111F0004008BF6FF0D8
:1009C000004070474FF00000704700BF4FEA4102FF
:1009D000B2F1E04324BFB3F5001CDCF1FE5C0DD99D
:1009E00001F0004C4FEAC0024CEA5070B2F1004FE7
:1009F00040EB830008BF20F00100704711F0804FEA
:100A000021D113F13872BCBF01F00040704741F4AE
:100A100080114FEA5252C2F11802C2F1200C10FAB2
:100A20000CF320FA02F018BF40F001004FEAC12396
:100A30004FEAD32303FA0CFC40EA0C0023FA02F33A
:100A40004FEA4303CCE77FEA625307D150EA013310
:100A50001EBF4FF0FE4040F44000704701F00040E0
:100A600040F0FE4040F40000704700BF7BB972B90F
:100A70000029BEBF00204FF0004106E008BF00285B
:100A80001CBF6FF000414FF0FF3000F0D3B9ADF163
:100A9000080C6DE904CE002909DB002B1ADB00F0FD
:100AA0004DF8DDF804E0DDE9022304B07047404270
:100AB00061EB4101002B1BDB00F040F8DDF804E0A6
:100AC000DDE9022304B0404261EB4101524263EB95
:100AD00043037047524263EB430300F02FF8DDF805
:100AE00004E0DDE9022304B0404261EB41017047BC
:100AF000524263EB430300F021F8DDF804E0DDE946
:100B0000022304B0524263EB4303704753B94AB91E
:100B1000002908BF00281CBF4FF0FF314FF0FF3005
:100B200000F088B9ADF1080C6DE904CE00F006F8CC
:100B3000DDF804E0DDE9022304B070472DE9F04759
:100B4000089D8E4604468846002B4AD18A421746A5
:100B500062D9B2FA82F64EB1C6F1200301FA06F864
:100B600020FA03F3B74043EA0808B4404FEA174EAF
:100B70001FFA87FCB8FBFEF1230C0EFB118843EA39
:100B8000084301FB0CF29A4209D9FB1801F1FF302E
:100B900080F0EA809A4240F2E78002393B449A1A98
:100BA000A3B2B2FBFEF00EFB102243EA024300FBAD
:100BB0000CFC9C4509D9FB1800F1FF3280F0D6806F
:100BC0009C4540F2D3803B44023840EA0140A3EB0D
:100BD0000C0300211DB1F3400022C5E90032BDE83D
:100BE000F0878B4205D90DB1C5E900010021084607
:100BF000F5E7B3FA83F1002946D1734502D3824267
:100C000000F20581841A6EEB030201209046002D4C
:100C1000E5D0C5E90048E2E7002A00F09080B2FA8A
:100C200082F6002E40F0A4808A1A030C4FEA174E79
:100C300080B2BCB20121B2FBFEFC0EFB1C2243EAD7
:100C4000024304FB0CF29A4207D9FB180CF1FF385F
:100C500002D29A4200F2E080C4469B1AB3FBFEF235
:100C60000EFB123340EA034302FB04F49C4207D913
:100C7000FB1802F1FF3002D29C4200F2CA80024609
:100C80001B1B42EA0C40A5E7C1F120068B4022FA6B
:100C900006F71F430EFA01F420FA06F32EFA06FEB9
:100CA0004FEA1749234300FA01F81FFA87FCBEFBFD
:100CB000F9F01C0C09FB10EE44EA0E4400FB0CFE9C
:100CC000A64502FA01F209D93C1900F1FF3A80F079
:100CD0009C80A64540F2998002383C44A4EB0E0467
:100CE0001FFA83FEB4FBF9F309FB13444EEA0444F4
:100CF00003FB0CFCA44508D93C1903F1FF3E80F02E
:100D00008280A4457FD9023B3C4443EA0040A4EBE7
:100D10000C04A0FB02EC64457346E14662D35FD04D
:100D20005DB1B8EB030264EB090404FA06F622FA9B
:100D300001F31E43CC40C5E9006400214FE7B1FB3D
:100D4000F2FC010C41EA0E4180B240EA01423B460E
:100D500038463C46B846BE462026B1FBF7F1A2EB2A
:100D6000080241EA0C4166E7014618E710462CE705
:100D7000C6F120022EFA02F3B740B14020FA02F287
:100D80004FEA174E0A43B3FBFEF8BCB20EFB183312
:100D9000110C41EA034108FB04F9B04089454FEAD0
:100DA000104380B23ED9791808F1FF3C01D2894541
:100DB0001FD8A1EB0901B1FBFEF909FB04F80EFBFA
:100DC000191192B242EA0142424529D2BA1809F1F8
:100DD000FF31C4D24245C2D2A9F102013A44BEE772
:100DE000F0459DD2BEEB02036CEB070C0138E146E7
:100DF00096E7A7EB09094944A8F1020CB1FBFEF9FB
:100E000009FB04F8DBE773467FE7504666E70846D0
:100E1000FDE63B44023A33E7ACF1020C3B441CE7ED
:100E200049469CE7A1EB0901C446B1FBFEF909FB69
:100E300004F8C4E7704700BFDFF834D0002103E0B6
:100E40000C4B5B58435004310B480C4B42189A42F0
:100E5000F6D30B4A02E0002342F8043B094B9A42C6
:100E6000F9D304F0DDFE25F0F3FA01F061F87047E4
:100E700000000320D86B120800000020640100204D
:100E800080030020203B0120FEE7704708B500F0FA
:100E9000B9FDBDE8084000F03DBD00F0B5BD7047AC
:100EA00010B50421044622F0D5FF204610BD0000F5
:100EB00038B50C4B0C4C18800C4B822019806368A1
:100EC000984740F6110398420AD1094D23682C60D7
:100ED000822098472B688220DB689847002038BD25
:100EE0000120FCE7A60300204C000020A403002002
:100EF000A80300204FF4A071F020FFF7D9BF000035
:100F0000F7B5394D2B6804461B698220984720802D
:100F100000284ED02B680DF106025B6901A98220E2
:100F20009847324B1B78002B4BD0BDF8062040F67B
:100F300074639A423FD9ADF80630BDF806209B1A7B
:100F40009BB20A2B42D90B22B3FBF2F3284A128838
:100F5000934201D9013A93B2BDF80420254840F6E6
:100F6000B8318A4234D8C2F571620E32016892B249
:100F70000F25B2FBF5F2204D2D88AA4284BF05F162
:100F8000FF35AAB28A4215468EB22AD9921B91B277
:100F90001A4E3768BB42BAB28CBF9A1AD21A92B2B2
:100FA00011440529C4BF056033600368638033685A
:100FB000A38003B0F0BDB32A9CBFB422ADF80620D5
:100FC000BBE7BDF80630A3F5B473B9E70023C3E768
:100FD000C2F56D62083292B20E2A0168C8D80025A7
:100FE0002A46891A89B2D3E7A8030020901C002062
:100FF000A4030020A0030020A60300209C030020DF
:1010000037B568460D461446FFF77AFFBDF8000075
:1010100030B1BDF802302B60BDF8043023600120F0
:1010200003B030BD032821D8DFE800F0020B12190D
:101030000F4B1A68B2FA82F2520904210D4805F0EA
:1010400047BB0B4B5A68B2FA82F252090821F5E706
:10105000074B9A68B2FA82F252091021EEE7044B6C
:10106000DA68B2FA82F252092021E7E7704700BF3E
:10107000AC03002000100240032821D8DFE800F074
:10108000020B12190F4B1A68003A18BF01220421F3
:101090000D4805F01DBB0B4B5A68003A18BF0122E2
:1010A0000821F5E7074B9A68003A18BF0122102182
:1010B000EEE7044BDA68003A18BF01222021E7E787
:1010C000704700BFAC0300200010024003280DD879
:1010D000DFE800F00206080A0421054805F0FDBA21
:1010E0000821FAE71021F8E72021F6E7704700BF52
:1010F0000010024008B5032811D8DFE800F0020A0A
:101100000C0E0421074805F0DDFA431E58425841F1
:1011100008BD0821F6E71021F4E72021F2E70020BE
:10112000F3E700BF0010024070B5084D002401260F
:10113000E0B2FFF7DFFF18B12B68012B18BF2E605C
:101140000134052C05F10405F2D170BDAC0300207B
:10115000012380F8781080F87930704770470020BC
:1011600070470000034B4164003918BF012119701A
:10117000704700BFDF2D0120704700207047836B50
:101180000BB10846184770474FF6FF70704740682C
:1011900003689B69184770477047704770477047EE
:1011A00010B5044600F046FD23680349D3F890309B
:1011B0002046BDE810401847000000D008B503687D
:1011C0000446D3F88430984723682046DB6F98475D
:1011D00000F0ECF8236820465B6F9847292001F067
:1011E00087F900F0E3F8236820465B6F9847F8E73B
:1011F00010B504460AF054FD23682046D3F8BC30ED
:10120000BDE81040184700F0F9BC00F0FDBC00F04C
:101210002FBD00F0CFBC00F03FBD00F047BD00F097
:10122000D3BC09F06BBF10B58421044622F012FE36
:10123000204610BD10B590F8341090F878400C4B53
:101240008C421A7809D03AB90A4A0B49148808889E
:1012500010800C8001221A7010BD002AFCD0054AB3
:1012600005491488088810800C800022F3E700BF2D
:10127000D82D0120D42D0120D62D012070B50D468A
:10128000194635B9094B0A4A0A4840F2FF2124F0B1
:10129000DFFDC0E90F52084B003A18BF01221A7057
:1012A0000368BDE87040D3F8903018470073020817
:1012B0003873020886730208DE2D012008B5094B39
:1012C0001B888B4203D8084B1B88934205D9074BD8
:1012D000074A0848A32124F0BBFD074B1980074BA0
:1012E0001A8008BDD42D0120D62D0120CB73020811
:1012F0002E74020886730208DA2D0120DC2D0120ED
:10130000034690F87A0018B1586803681B681847BC
:1013100070470000012108B50022084607F0E2FBF3
:101320000A4B186028B90A4B0A4A28210A4824F0B7
:101330008FFD00220421012007F073FC074B186089
:1013400018B9074B034A2C21F0E708BDC003002061
:1013500071740208BA740208E9740208BC03002020
:1013600033750208024B4FF0FF31186807F004BCD8
:10137000C0030020014B186807F02ABCC0030020FE
:10138000024B0021186807F0F7BB00BFC003002024
:10139000FFF7F0BF03480449006800231A4607F02E
:1013A0007BBC00BFBC0300200400002013B5084C28
:1013B00000231A4601A9206807F09FFC20684FF01F
:1013C000FF33002201A907F098FC02B010BD00BF56
:1013D000BC03002003685B6C18470120704703685A
:1013E0009B6A1847FEE740F2EF307047054B0360F9
:1013F000054B4FF08062C3F88820BFF34F8FBFF3D7
:101400006F8F70472883020800E100E010B50446A2
:101410004FF45A61FFF7EAFF204622F01BFD2046F9
:1014200010BD000082B0002301930E4B1A6B42F4F2
:1014300000021A631A6B02F400020192019A1A69FF
:1014400042F400021A611A6922F400021A61064B82
:10145000064A1A61064A5A61064B4FF080629A604A
:1014600002B07047003802407C1E0020C5160008FC
:10147000E513000800E100E008B50A2809D8DFE814
:1014800000F006100E0808080810101010000220C6
:1014900008BD054B054A0648902124F0D9FC0020E0
:1014A000F6E70120F4E700BF7575020890750208A1
:1014B000DB75020838B50C46887FFFF7DDFFA58A8B
:1014C000E28A164B2169586342EA05425A64628BEC
:1014D000D963521B1A642568082D0ED19A611A61CE
:1014E0005862207F0E4A42EA0062DA61E2681A62BC
:1014F0000C4A5961D9601A6038BD0022D8611A615E
:10150000E1680A0A480902F4784200F4FC600243E8
:10151000C1F3C4010A439A63034AECE700B00240F6
:1015200009000100012302000123030008B50B2874
:101530000BD8DFE800F00612100A0A0A0A080808A9
:101540000808022008BD0520FCE7054B054A0648AF
:101550006F2124F07DFC0020F4E70120F2E700BFBA
:101560007575020823760208DB7502082DE9F04143
:1015700091F81D800C464046FFF7D8FFA77F05462F
:101580003846FFF7D3FF06463846FFF775FFA18AB6
:10159000628B444B521A1A649A61228B521A1A6156
:1015A000E28A586342EA01425A6421696268D96357
:1015B000DA602068802828D0227F0FD8202867D0C2
:1015C000402865D004281AD0364B45EA026545F418
:1015D0000035B845DD6161D0334A44E0B0F5807F25
:1015E00004D0B0F5007FEFD1304800E0304840EA49
:1015F0000262DA61E2681A625E62596132E045EACB
:10160000026242F40032DA61F6E7A068021DDA6293
:10161000227F45EA026545F40035DD615E6259616D
:10162000017841B1012921D0224B234A23484FF4AC
:101630008D7124F00DFCDA69418822F47F42013972
:1016400022F0100242EA0122DA610121154BDA6927
:1016500042F02002DA61DA699206FCD410229A6024
:101660000029B9D0164A1A60BDE8F081B2F1FF0135
:10167000DA69408822F47F4200F1FF3022F0100244
:1016800042EA002242F0100218BF0121DA61DDE7D0
:1016900045EA0262034B42F40032B4E742F20132FF
:1016A000E1E700BF00B00240012301000900020091
:1016B0000A0002006D76020887760208DB750208D0
:1016C00001230200024B1B68586803685B691847D6
:1016D000E02D012070B5044625460A4B0C3000264B
:1016E00060602672667245F8203B602229460AF047
:1016F0002DFC04F55A63EE6024359D42FBD1204653
:1017000070BD00BF28830208034B1A68D207FCD4BF
:1017100023229A60704700BF00B00240704700006B
:1017200030B50F4C2568ED07FCD423250904A560CE
:1017300041F001010225FF2B65636164E0630AD07B
:101740000849656241EA0363E361074B2262606115
:10175000E060236030BDE561039BA363034BF8E7C2
:1017600000B0024009000100010002000100030076
:1017700030B50E4C2568ED07FCD423251204A56076
:1017800042F001020225FF2B65636264E063E160C1
:1017900008D01B0643F00213E361054B65626061EC
:1017A000236030BD034BE3610123F9E700B0024041
:1017B00001000200020002FF30B50B4C2568ED0766
:1017C000FCD4232512041B06A56043F40033022534
:1017D00042F0010265636264E063E160E361034B30
:1017E00065626061236030BD00B00240010002000C
:1017F000012070471020704700EB0110083070473F
:1018000000EB0110083070470120704740F27C70F7
:10181000704740F27C7303FB01000830704740F2D0
:101820007C7303FB010008307047012070471020D3
:10183000704700EB01100830704700EB01100830D2
:101840007047084601F0A2BE10B5034B0360044682
:1018500009F0A9F9204610BDE083020810B504463E
:10186000FFF7F2FF2046182122F0F4FA204610BDBF
:1018700010B5034B0360044609F095F9204610BDEE
:10188000AC83020810B50446FFF7F2FF204640F291
:10189000847122F0DFFA204610BD000010B5034B22
:1018A0000360044609F07FF9204610BD78830208E2
:1018B00010B50446FFF7F2FF2046182122F0CAFABD
:1018C000204610BD10B5084B0360044600F5F660D5
:1018D000FFF7BAFF04F12C00FFF7CAFF04F1140070
:1018E000FFF7DCFF204610BD1484020808B502484B
:1018F000FFF7E8FF08BD00BF9C12002010B50446AA
:10190000FFF7E0FF204640F62C1122F0A3FA204614
:1019100010BD00002DE9F34101F028FA054601F061
:1019200029FA00240146234628462246009413F053
:10193000DFF9274B274A1A60204602F099FC264D12
:10194000264B274A27489A6013F03AF92B68BFF3D1
:101950005B8FDB0735D4284622F07EFA88B3224C11
:10196000224B236004F5FA6604F1140004F12C08FC
:1019700004F5F6676060C4F80880E760266109F046
:1019800013F91B4B6361404609F00EF9194BE362F2
:10199000384609F009F9184BC4F8B03704F5F96076
:1019A00002F054FD224604F5F961304602F0DAFCFB
:1019B000304601F0EBFD114824F068FA284622F089
:1019C00057FA0F4802B0BDE8F041FFF7E9BB00BF8E
:1019D000442E0120480400209812002068040020B2
:1019E0004C040020080000209C12002014840208EF
:1019F00078830208AC830208E0830208ED1800082F
:101A0000C4030020704700000148FFF7D7BB00BFA8
:101A1000C403002070B5264E264C274D274B23606B
:101A20003046FFF757FE284618F068FA244810F0B1
:101A30001BFE244B2448DC6000224FF48071C3E974
:101A4000121222491A86C3E91A12214983F8582032
:101A5000C3E91E011F49C3F880101F491F480B60CE
:101A6000F021C3E90422C3E90622C3E90822C3E93D
:101A70000A22C3E90E22C3E91022C3E91422C3E9F2
:101A800017225A6683F870205A67C3E901650180FE
:101A90001348018013484FF4A0710180124801805F
:101AA00012490A70012283F83420114A1A6070BD6D
:101AB000F40400209412002068040020F072020850
:101AC0004C040020C40300200000010101000001BB
:101AD000000450001A001400E02D0120D42D012034
:101AE000DA2D0120D62D0120DC2D0120D82D01205A
:101AF0003C8202080148FFF779BC00BFF4040020D3
:101B00000020704781807047C18070470181704715
:101B1000418170477047704770477047704710B4F5
:101B2000C4880368121B84885B6D091B12B25DF8C0
:101B3000044B09B218474FF6FF7383814FF0FF3310
:101B400003621368C36110607047002070478B8880
:101B5000838001207047704780F82610704790F806
:101B60002600704710B50022B1F90840B1F90A10FB
:101B7000028042808480C18010BD002202804280A9
:101B80008280C28070470177704780ED080A7047F5
:101B900080F82410704780F82510704701207047A6
:101BA000983070478C30704784307047704770476A
:101BB00070470000034B902283F85A2383F8582380
:101BC000704700BF00E100E0094A0A49D3680A48AB
:101BD000C3F30A03013B9BB20B801169C1F30A01F5
:101BE000013901801364536B43F001035363704761
:101BF00000680140CA1B0020C81B0020014BD3F81D
:101C0000AC00704700680140024B0122C3F8AC10E1
:101C10005A6270470068014010B52C21044622F03A
:101C200019F9204610BD10B5BC21044622F012F966
:101C3000204610BD70B5044609F0B5FA23689D6EC4
:101C40000FF082FA01462046A8472368054AD3F8D8
:101C50008C502046AC460023BDE87040A2F51631FA
:101C6000604700BF00B004D009F084BA09F08EBA12
:101C700009F04ABA09F0B9BB90F8252012B10368FF
:101C80005B691847704790F825201AB190F8242016
:101C900002B1186070470000034B4FF080629A60F9
:101CA0004FF080729A60704700E100E0084B4FF0FF
:101CB0008062C3F88820BFF34F8FBFF36F8F4FF060
:101CC0008072C3F88820BFF34F8FBFF36F8F7047C8
:101CD00000E100E070B50023124E8380124B0360D8
:101CE000336893F8582005460AB1D86C00B9986853
:101CF0000368DB6A98473368B0FA80F4D86C6409EB
:101D000030B10368DB6A9847002808BF44F001043B
:101D10002CB9064B064A07482C2124F099F828468E
:101D200070BD00BFE02D012028840208C57602089E
:101D3000237702085C77020870B5254E3568BFF33B
:101D40005B8F15F0010540D1304622F085F8002860
:101D50003BD0204C204B256104F13400C4E9003510
:101D6000C4E90255E584A562A58510F062FF04F17F
:101D700058000BF0A1FD194BA3652046184B40F805
:101D8000843BFFF7A7FF174BC4F884302433C4F813
:101D90008C304FF4C803C4E928350023C4F8AC30B4
:101DA000C4F8B030C4F8B430C4F8B8300E480F4BA3
:101DB000C4F89050C4F89C50C4F8A850C4F89830A7
:101DC00024F064F8304622F053F8024870BD00BF9A
:101DD000CC1B0020D01B0020A08B020848840208E6
:101DE000C0840208548B0208B11B0008348B02081F
:101DF00038B5184C23685BB3174B184A1B6C118815
:101E00008B4216D1164B198805F06AFA236893F8AD
:101E10006A200025013283F86A2083F87C50FFF79E
:101E2000B9FA206809F03CFF2846BDE83840FFF7C2
:101E3000F9B805F055FA2468236820461B6A9847CC
:101E4000012384F87C300020BDE83840FFF714B946
:101E500038BD00BFE02D012000680140CA1B0020F2
:101E6000C81B002007B5064BADF806001B680548E7
:101E700001220DF1060106F02FF803B05DF804FB16
:101E80000C000020181D002008B5642006F01EFE7E
:101E9000FBE7000030B595B0102200210AA824F01D
:101EA0002EFA1422002103A824F029FA00241E4B44
:101EB00001941A6C42F080521A641B6C03F0805338
:101EC0000193019B194B02941A6842F440421A6034
:101ED0001B6803F4404302930122029B4FF48033BA
:101EE000CDE9082302254FF480030821CDE90E53E4
:101EF0004FF4B473CDE9101308A80423139312957B
:101F000005F046FA05F00AFA0F23CDE903354FF440
:101F1000A0504FF48053CDE90603052103A8059492
:101F200005F012FC15B030BD0038024000700040D2
:101F30002DE980489BB003F081FEFFF7ABFF142230
:101F400000210DA824F0DBF90024C84B00941A6B83
:101F5000C74842F010021A631A6B02F01002009296
:101F6000009A01941A6B42F020021A631A6B02F075
:101F700020020192019A02941A6B42F080021A63C5
:101F80001A6B02F080020292029A03941A6B42F0DA
:101F900004021A631A6B02F004020392039A049477
:101FA0001A6B42F001021A631A6B02F001020492EA
:101FB000049A05941A6B42F002021A631A6B02F03B
:101FC00002020592059A06941A6B42F040021A63C7
:101FD0001A6B02F040020692069A07941A6B42F0BE
:101FE00008021A631B6B03F00803224607933C2187
:101FF000079B04F06DFB9F480122022104F068FB5F
:1020000022469C48042104F063FB22469A484FF480
:10201000405104F05DFB01263C23032594480F94B6
:102020000DA9CDE90D36109504F068FA0623914804
:102030000DA9CDE90D364FF01008CDE90F4404F09D
:102040005DFA8C480F940DA90227CDE90D8504F0A7
:1020500055FA0DA94FF4405387480F94CDE90D363A
:10206000109704F04BFA8548854B864D036004F0C9
:102070003BF9DFF838C2844B2C62C5E900C328461F
:102080004FF48043C5E90434C5E90244C5E9064478
:1020900004F02CFD4146284604F070FF21462846F6
:1020A00004F08BFF794DDFF808E2AC624FF48273E5
:1020B000C5E900E34FF400781823C5E906832846F4
:1020C0000A23C5E90244C5E90444C5E90844EB62B2
:1020D00005F0A6FE8F232246394666488DF8243047
:1020E0008DF8344004F0F4FA32464FF47A7309A9BB
:1020F000284605F0F1FE4FF47A7332460DA92846C2
:1021000006F096F8324639465A48614D04F0E0FA36
:102110009DF83430D32B04BF5E4B1E705E4B0126FE
:10212000C5E90036102740230024C5E904734FF4A5
:10213000C073C5E906344FF40063C5E908344FF4B1
:1021400000534FF002094FF0040AAB624FF0030B4B
:1021500007230DA92846CDE90D93CDE90FA34FF034
:102160000808C5E9024ACDE911B9CDF84C9005F04F
:102170003BFD4FF6FF7209A92846CDE90A8608946F
:1021800009960C9405F050FD304603F083FD4FF6A0
:10219000FF7209A92846CDE90998CDE90B6405F03D
:1021A00043FD4FF6FF7209A92846CDE909B8CDE9EC
:1021B0000BA405F039FD4FF40C730893089B0C93A6
:1021C0004FF6FF7209A92846CDE909A80B9605F03C
:1021D0002BFD40F26A51284605F044FD3422214689
:1021E0000DEB020024F08BF82C4D2D4B2C61C5E932
:1021F00000340923C5E905361D23C5E9073B40F234
:102200000D1240F24313C5E9092340F2171140F2C1
:1022100047132846C5E90B13C5E90244AC8685F887
:10222000364004F065FFFF21F022CDE912144FF093
:1022300005084FF480614FF4A073CDE90E24CDE979
:102240001418CDE916420DA922462846CDE91039C9
:10225000144D18930D94ADF864408DF8664005F068
:1022600012F8114B2B601B68984723E0003802409E
:102270000010024000080240000C0240BC1E00207A
:1022800000300240281E0020A0860100181D0020FA
:102290009C1C0020901C0020400100A0801D0020FC
:1022A000006801408C1C002014000020005C0040ED
:1022B000005001402B68414DDB689847404B284651
:1022C000C5E90034C5E90294C5E90A49C5E90C44E9
:1022D00004F01AF83146284604F0CCF8394D3A4853
:1022E000DFF8189104614FF4E133C0E900530C2387
:1022F000364DC461C0E90534C0E9024406F054FA21
:102300003A4621460DA823F0FAFF314BAC604FF45A
:10231000803A2846C5E9003A2C612C7685F82040A1
:10232000EC62C5F82890EC60EE6185F830406E6193
:1023300003F0C4FC0D230DA92846CDE90D36254D2B
:102340000F9403F0E1FE3A4621460DA823F0D7FF93
:10235000214BAC602846C5E9003AC5E90A942C61D6
:102360002C7685F82040EC60EE6185F830406E6197
:1023700003F0A4FC0DA92846CDE90D860F9403F0C7
:10238000C3FE1648164B036005F0E2FBFEF77EFD28
:10239000FEF77BFD06F02AFB124A1348214606F0A1
:1023A00051FB124B124A18602146124806F04AFBB4
:1023B000114B186006F02CFBFEE700BF7C1E0020CE
:1023C00000B0024000100140D01C00200C1F002073
:1023D00000200140C41E002000210140701D00208B
:1023E0000008065028850208891E0008981C002055
:1023F000048502089B0E0008941C00200100000FB9
:10240000704770477FB5094B8DF817201B68029302
:102410000DF117020123009201930A460146044878
:1024200004F00CFC07B05DF804FB00BF10000020B6
:10243000281E00207FB500238DF81730084B1B683D
:1024400002930A4601230DF1170100910193014601
:10245000044804F083FC9DF8170007B05DF804FB06
:1024600010000020281E00201FB5084C2468009290
:10247000CDE901340A4601230146054804F06EFC0B
:10248000003818BF012004B010BD00BF10000020AC
:10249000281E002003F0FEBB10B5064C002220468B
:1024A000042104F015F920460122BDE81040042162
:1024B00004F00EB90008024038B50B4D0446012265
:1024C0000A484FF4005104F003F900220421284681
:1024D00004F0FEF82046FFF7C5FC28460122BDE8BF
:1024E0003840042104F0F4B800080240000C024017
:1024F00038B50B4D044600220A484FF4005104F051
:10250000E7F800220421284604F0E2F82046FFF70D
:10251000A9FC28460122BDE83840042104F0D8B8BF
:1025200000080240000C0240F7B5144E144F054657
:102530000C4630460022042104F0CAF800224FF471
:102540000051384604F0C4F82846FFF78BFC0D4BC9
:102550000D481B68224601A905F06AFE3846012293
:102560004FF40051019C04F0B3F8304601220421DD
:1025700004F0AEF8204603B0F0BD00BF00080240F2
:10258000000C02400C000020181D002003F082BB4C
:1025900007B5064801A905F0F3FA10B103F074FB82
:1025A0000190019803B05DF804FB00BF701D00208E
:1025B00008B5FFF7EDFF0523B0FBF3F303EB83034F
:1025C000C01A0130C0B208BD0268034B9A4201D163
:1025D00003F04EBB704700BF001000407047000082
:1025E00082B00E4B00220092596C41F48041596434
:1025F000596C01F48041009100990192196C41F0ED
:10260000805119641B6C03F080530193019B0F21CF
:102610006FF0010002B003F027BE00BF0038024097
:1026200010B514228AB0044600210DEB020023F0FD
:1026300066FE2368254A934227D1254B254800246E
:1026400001945A6C42F480725A645A6C02F480729B
:102650000192019A02941A6B42F004021A631B6BF6
:1026600003F0040302930821029B0323CDE9051321
:1026700005A903F043FF12202246052103F0F4FDD3
:10268000122003F023FE0AB010BD134A9342FAD180
:102690000F4B1248002403945A6C42F400725A649F
:1026A0005A6C02F400720392039A04941A6B42F07B
:1026B00001021A631B6B03F001030493049B2022A5
:1026C0000323CDE9052305A9D3E700BF002001407E
:1026D0000038024000080240002101400000024092
:1026E0000268094B9A4282B00BD100230193074B39
:1026F0001A6B42F480521A631B6B03F480530193EC
:10270000019B02B0704700BF003002400038024019
:1027100007B50F4B02689A4216D10022A3F5F04389
:102720000192196B41F4000119631B6B03F4000360
:10273000019305215A20019B03F096FD5A2003B016
:102740005DF804EB03F0C2BD03B05DF804FB00BF0D
:1027500000B002402DE9F043044689B01422002164
:1027600003A823F0CCFD2268244B9A4243D1244C89
:10277000244800250095236B43F004032363236B57
:1027800003F004030093009B0195236B43F00103C6
:102790002363236B03F001030193019B4FF01209A4
:1027A0004FF400734FF001080327042603A9CDE975
:1027B0000339CDE90587079603F0A0FE4FF4807337
:1027C0001148079603A9CDE90339CDE9058703F040
:1027D00095FE0295236C43F400032364236C03F4F9
:1027E00000030293029B236A43F400032362236ADB
:1027F00023F40003236209B0BDE8F083005C0040CD
:10280000003802400008024000000240F0B599B0D4
:1028100004461422002107A823F071FD30220DEB9D
:102820000200002123F06BFD22685E4B9A4240F0CB
:10283000B78008230C93C0231093042312930CA891
:102840004FF40033159305F057F808B1FFF7C6FEB3
:10285000554B5648002400945A6C42F080625A64EA
:102860005A6C02F080620092009A01941A6B42F056
:1028700020021A631A6B02F020020192019A02945C
:102880001A6B42F001021A631A6B02F00102029203
:10289000029A03941A6B42F002021A631A6B02F056
:1028A00002020392039A04941A6B42F040021A63E4
:1028B0001A6B02F040020492049A05941A6B42F0DB
:1028C00004021A631A6B02F004020592059A069438
:1028D0001A6B42F008021A631B6B03F0080306939D
:1028E00002250E26069B0B964FF4806307A9CDE9BF
:1028F0000735CDE9094503F001FE41F658032C48A0
:102900000B9607A9CDE907350927CDE9094503F05D
:10291000F5FD032327480B9707A9CDE90735CDE936
:10292000094503F0EBFD4FF4706322480B9607A9AD
:10293000CDE90735CDE9094503F0E0FD4FF40C631F
:102940001D480B9607A9CDE90735CDE9094503F0E8
:10295000D5FDC02319480B9607A9CDE90735CDE968
:10296000094503F0CBFD082315480B9607A9CDE9CF
:102970000735CDE9094503F0C1FD4FF4A0530E48DA
:102980000B9707A9CDE90735CDE9094503F0B6FD59
:1029900058202246052103F067FC582003F096FCDE
:1029A00019B0F0BD00680140003802400014024038
:1029B00000000240000402400018024000080240EB
:1029C000000C02400268094B9A4282B00BD10023EE
:1029D0000193074B5A6B42F040025A635B6B03F062
:1029E00040030193019B02B0704700BF00080650EE
:1029F0000038024010B5044688B01422002103A814
:102A000023F07DFC2268144B9A4223D103F56843DE
:102A1000002101915A6C114842F480125A645A6C98
:102A200002F480120192019A02911A6B42F0200284
:102A30001A631B6B03F020030293029B4FF4607236
:102A400002230321CDE903230523CDE9061303A9BE
:102A500003F054FD08B010BD0050014000140240C6
:102A600010B5044688B01422002103A823F047FCC7
:102A70002268144B9A4223D103F59433002101912B
:102A80005A6C114842F010025A645A6C02F010025B
:102A90000192019A02911A6B42F001021A631B6BB8
:102AA00003F001030293029B4FF4C062022303214F
:102AB000CDE903230723CDE9061303A903F01EFD87
:102AC00008B010BD00100140000002402DE9F041A7
:102AD00086B0002303932B4B1C68002C4FD14FF082
:102AE0000108C3F80080284B00949A6B274842EAFB
:102AF00008029A639B6B03EA0803009302270326EC
:102B00000C25009B01A94FF63F03CDE90137CDE924
:102B1000046503F0F3FC1E48059501A9CDE9018782
:102B2000CDE9034603F0EAFC48F233131948059552
:102B300001A9CDE90137CDE9034603F0DFFC4FF6EB
:102B400083731548059501A9CDE90137CDE9034601
:102B500003F0D4FC4CF203731048059501A9CDE9AC
:102B60000137CDE9034603F0C9FC60230C48059505
:102B700001A9CDE90137CDE9034603F0BFFC06B05A
:102B8000BDE8F081541F00200038024000140240CC
:102B9000000802400018024000100240000C0240F1
:102BA0000004024070B588B000230293204B1A6CD9
:102BB00042F010021A641B6C03F0100302930546E6
:102BC00001A903A8029B04F079FE069B4BBB04F00D
:102BD00055FE184E184B336040F2E733F360174B45
:102BE000B0FBF3F3013B7360304600233361B36005
:102BF000B36105F0EDFC044680B9304605F0BEFB3C
:102C0000044658B9362003F061FB0F2D0DD822463B
:102C10002946362003F028FB094B1D60204608B0EA
:102C200070BD04F02BFE4000D3E70124F6E700BF9F
:102C300000380240581F00200010004040420F00A2
:102C40007C0000207047FEE7FEE7FEE7FEE77047E6
:102C500008B5044803F0CAF9BDE80840024803F08B
:102C6000C5B900BF0C1F0020C41E0020014805F09C
:102C7000C3BB00BF581F0020014804F0A7BA00BF23
:102C8000801D0020014803F06BBB00BF7C1E0020AC
:102C90000120704708B523F0D5FB162303604FF0E1
:102CA000FF3008BD08B523F0CDFB16230360FEE717
:102CB00070B50D4614460E46731B9C4201DC20463F
:102CC00070BDAFF3008006F8010BF5E770B50D4657
:102CD00014460E46731B9C4201DC204670BD16F85C
:102CE000010BAFF30080F5E74FF0FF3070474FF472
:102CF00000534B6000207047012070470020704750
:102D00000A4A116808B5034609B9094911601068F3
:102D1000694603448B4206D923F094FB0C230360DD
:102D20004FF0FF3008BD1360FCE700BFA01F00207C
:102D3000203B0120704710B50421044621F08AF899
:102D4000204610BD012908B506D0022908D059B97E
:102D500001F0DAFA006808BD01F0D6FA4068FAE737
:102D600001F0D2FA8068F6E70020F4E700487047E7
:102D7000608502080A20704713B5002451B103682A
:102D800001948DF8034001AA9C680DF10303A0474C
:102D900002B010BD0846FBE7C0897047008A704743
:102DA000C088704780887047807A00F07F00704745
:102DB000807AC00970470020704700009FED010A2B
:102DC000704700BF00000000704710B5082104469E
:102DD00021F040F8204610BD7047704700F5987309
:102DE0000868496803C3704770477047416070477F
:102DF00070477047064BC0F84C310023C0F8503183
:102E000000F5A273C0F84801C0F84031704700BF18
:102E1000C13300080123037270477047704738B50B
:102E2000054640680368DB699847044604B938BD25
:102E3000A188AB89C91A236820461B6B09B2984741
:102E4000A469F3E710B4C26841685410034601EB6B
:102E50006200D20748BF0A599B685DF8044B48BF1F
:102E6000D35818470346406830B19A681AB9D868F1
:102E700000F0010070470120704710B50C21044696
:102E800020F0E8FF204610BD10B51021044620F0C8
:102E9000E1FF204610BD10B51021044620F0DAFFF6
:102EA000204610BD10B54FF4AE71044620F0D2FF9D
:102EB000204610BD10B50EF047F90368BDE810407C
:102EC000DB6B184710B50EF03FF90368BDE8104002
:102ED0005B6B184737B50546807A6B7A0130C0B214
:102EE0009842A87205D901232B720023AB7203B05C
:102EF00030BDB5F90C20B5F90E40002110F024FBCF
:102F0000C30707D500284FF6FF73C8BF012313FA84
:102F100080F000B2AB7AE881041B012BA4B206D189
:102F2000174B1B781BB10EF00FF90EF013F9154A71
:102F300000231288ADF80230EB891A445B42ADF8E9
:102F40000430114BADF800201B88ADF806300EF0B0
:102F5000FBF8036802AA12E906001B6C9847686830
:102F60000368DB6998470546002DC0D0A9882B6807
:102F7000214428461B6B09B29847AD69F4E700BFAE
:102F8000DE2D0120D42D0120D62D012010B50446C0
:102F9000D0F8400158B10368DB68984738B1D4F8DD
:102FA000400103689B6898470023C4F8403110BD76
:102FB0002DE9F14FD0E9556A0746B06803681B6AEE
:102FC0009847B0F5EC7F05D2444B454AA3214548CC
:102FD00022F03EFF706803681B6A98470F2803D8E9
:102FE000414B3F4AA421F2E7F06803681B6A984707
:102FF0000B2803D83D4B3A4AA521E8E70EF0A4F888
:10300000DFF8F09004300EF0ECF8D9F8000010B1C1
:103010000368DB689847D9F8000010B103681B68A3
:103020009847DFF8D480D8F8000010B103685B69D6
:103030009847D7F83C0110B103685B689847D8F807
:10304000000010B103681B689847D7F83C0110B125
:1030500003689B689847F068036800215B6A98479B
:103060004FF0000B224BC0F804B0044680F808B0C3
:103070000360B068036859465B6A9847054601F0EB
:10308000B3F97068036859465B6A98472946064653
:1030900001F088F9331DC7F83C61CAF804302B6889
:1030A000C6F808A02846DB68C9F80040C8F80050F8
:1030B000EE639847336830461B6898472146284698
:1030C00010F03CFA236820461B69984723685B6927
:1030D000204601B0BDE8F04F184700BFD377020883
:1030E00061780208357902087C7902081F7A0208A3
:1030F000AC860208282E0120242E01202DE9F14F54
:10310000D0E9556A0746B06803681B6A984740F2E1
:103110007B73984205D8494B494AA321494822F07C
:1031200097FE706803681B6A98470F2803D8464BC0
:10313000434AA421F2E7F06803681B6A98470F2806
:1031400003D8424B3E4AA521E8E70DF0FDFFDFF82A
:10315000089104300EF045F8D9F8000010B103686A
:10316000DB689847D9F8000010B103681B689847DE
:10317000DFF8E880D8F8000010B103685B69984771
:10318000D7F83C0110B103685B689847D8F8000095
:1031900010B103681B689847D7F83C0110B1036869
:1031A0009B689847F068036800215B6A9847284B42
:1031B00003604FF4A0530381264B1B884FF0000B94
:1031C00080F80AB05B420446C0F804B0A0F80EB024
:1031D0008381B068036859465B6A9847054601F0E9
:1031E000D9F97068036859465B6A984729460646CC
:1031F00001F07CF9331DC7F83C61CAF804302B6834
:10320000C6F808A02846DB68C9F80040C8F8005096
:10321000EE639847336830461B6898472146284636
:1032200010F08CF9236820461B69984723685B6976
:10323000204601B0BDE8F04F184700BFD377020821
:10324000C27A0208357902087C7902081F7A0208DE
:10325000D0860208D42D0120282E0120242E012002
:103260002DE9F14FD0E9556A0746B06803681B6A3B
:103270009847B0F58E7F05D2484B494AA32149486B
:1032800022F0E6FD706803681B6A98470F2803D890
:10329000454B434AA421F2E7F06803681B6A98474C
:1032A0000F2803D8414B3E4AA521E8E70DF04CFF1B
:1032B000DFF8049104300DF094FFD9F8000010B14C
:1032C0000368DB689847D9F8000010B103681B68F1
:1032D0009847DFF8E880D8F8000010B103685B6910
:1032E0009847D7F83C0110B103685B689847D8F855
:1032F000000010B103681B689847D7F83C0110B173
:1033000003689B689847F068036800215B6A9847E8
:10331000274B03604FF4A0530381264B1B884FF0CB
:10332000000B80F80AB05B420446C0F804B0A0F875
:103330000EB08381B068036859465B6A98470546BA
:1033400001F0BAF87068036859465B6A98472946E5
:10335000064601F08FF8331DC7F83C61CAF8043007
:103360002B68C6F808A02846DB68C9F80040C8F8F2
:103370000050EE639847336830461B6898472146F3
:10338000284610F0DBF8236820461B69984723681D
:103390005B69204601B0BDE8F04F1847D3770208BB
:1033A000A77B0208357902087C7902081F7A020897
:1033B000D0860208D42D0120282E0120242E0120A1
:1033C0002DE9F14FD0E9556A0746B06803681B6ADA
:1033D0009847B0F58E7F05D2444B454AA321454816
:1033E00022F036FD706803681B6A98470F2803D8DF
:1033F000414B3F4AA421F2E7F06803681B6A9847F3
:103400000B2803D83D4B3A4AA521E8E70DF09CFE76
:10341000DFF8F09004300DF0E4FED9F8000010B1B0
:103420000368DB689847D9F8000010B103681B688F
:103430009847DFF8D480D8F8000010B103685B69C2
:103440009847D7F83C0110B103685B689847D8F8F3
:10345000000010B103681B689847D7F83C0110B111
:1034600003689B689847F068036800215B6A984787
:103470004FF0000B224BC0F804B0044680F808B0AF
:103480000360B068036859465B6A9847054601F0D7
:1034900013F87068036859465B6A984729460646E0
:1034A00000F0E8FF331DC7F83C61CAF804302B6810
:1034B000C6F808A02846DB68C9F80040C8F80050E4
:1034C000EE639847336830461B6898472146284684
:1034D00010F034F8236820461B69984723685B691D
:1034E000204601B0BDE8F04F184700BFD37702086F
:1034F0008C7C0208357902087C7902081F7A020860
:10350000AC860208282E0120242E0120044B1B68C3
:1035100093F858200AB1D86C00B99868704700BF7A
:10352000E02D0120F8B5174604460E460DF0F6FED4
:10353000124B1C60124B2360124B0025C4E951351D
:10354000114BC4E953551868036801219B68C4E90D
:103550004F55C4E955769847284600F089FEFFF795
:10356000D5FF18F074FBFFF7D1FF18F0EBFBFFF766
:10357000CDFF18F0F3FB2046F8BD00BF342E01202C
:103580005886020840860208E02D0120064BC0F84C
:103590004C310023C0F8503100F5A273C0F8480147
:1035A000C0F84031704700BFC1330008064BC0F877
:1035B0004C310023C0F8503100F5A273C0F8480127
:1035C000C0F84031704700BF61320008064BC0F8B8
:1035D0004C310023C0F8503100F5A273C0F8480107
:1035E000C0F84031704700BFFD300008064BC0F8FE
:1035F0004C310023C0F8503100F5A273C0F84801E7
:10360000C0F84031704700BFB12F000870477047C5
:1036100070477047704730B5036885B06D460181CB
:10362000D3F88430014604462846984795E80700B9
:103630003C3484E8070005B030BD30B5036885B080
:103640006D464181D3F884300146044628469847A8
:1036500095E807003C3484E8070005B030BD00223F
:10366000028042808280C280704780F836107047A6
:1036700070B5036804461B6B1546984723682946B6
:1036800020465B6EBDE87040184700207047806C94
:103690007047704770477047704730B4C2684468DD
:1036A0005510034604EB6200D20748BF62599B687D
:1036B00030BC48BFD35818470346406830B19A68B9
:1036C0001AB9D86800F0010070470120704710B5A2
:1036D0004C21044620F0BEFB204610BD10B5102141
:1036E000044620F0B7FB204610BD10B54FF4E27140
:1036F000044620F0AFFB204610BD08B5FEF7BCFA2B
:1037000008BD0000036870B55E6B124B1B68044671
:103710008DB22BB9104B114A6C21114822F098FB45
:103720001049828D0988914203D80F4B0B4A6D21B5
:10373000F3E713F812200D4B1B6853F822000368BF
:103740001B6B9847291A3346204609B2BDE87040E2
:10375000184700BF382E01205E7D0208A07D0208B8
:10376000DB7D02083C2E0120227E0208402E012033
:1037700000F5AC70884208B505D10DF0E5FCBDE858
:103780000840FFF713BF08BD00224FF0FF31C0E92A
:1037900000218260704770B5036804461B6B1546B4
:1037A00098472368294620465B6BBDE87040184760
:1037B00070B504461D46BDF91060FFF7ECFF2368A5
:1037C000294620469B6B9847236831462046DB6B91
:1037D000BDE8704018470000094A02604FF480714C
:1037E00000228184FF21C0E90122C0E90322C0E94F
:1037F0000522C0E9072280F826108262704700BFC8
:10380000688D02084FF4807181840D4901600D4973
:1038100081624FF6FF7181854FF47F010022416381
:103820004FF0FF31C0E90122C0E90322C0E90522BF
:10383000C0E90722C0E9101202630287C263704721
:10384000D88C020830860208F8B5194B018F1B8806
:103850008B4206462AD9174B1B682BB9164B174AC1
:1038600017486C2122F0F4FA13F81120154B1B684D
:1038700053F82250144B186800F036FD2B680746A9
:103880009B6B284698472B6804469B6C3946284614
:1038900098472B6814FB00F45B6A39462846984722
:1038A000A4B223181BB2A6F84630F8BD0023FAE7ED
:1038B0003C2E0120382E01205E7D0208A07D0208EA
:1038C000DB7D0208402E0120442E01202DE9F04F1F
:1038D00004468DB0264600250FF084FC744BE5634A
:1038E00046F8403B04F16C0B3046FFF775FF584635
:1038F000FFF772FF04F1980304F1C40A184603931A
:1039000004F58678FFF768FF5046FFF77BFF4046D7
:10391000FFF778FF674BC4F80C3104F5AC73184619
:10392000C4F8545102930BF047F8634BC4E96D346B
:10393000624BC4E96F354FF4A0732A4630460093BA
:103940002946F023FFF734FF271D4FF07F43314610
:10395000A366384607F03CF9322300932A465846BE
:103960004FF0FF392946FFF723FF59463846C4F880
:10397000949007F02DF94FF4A0732A460398009312
:103980002946F023FFF714FF0399C4F8C090384686
:1039900007F01EF94D2249465046FFF7FCFE04AEE3
:1039A0004FF07F433046C4F8F4305146A4F8F85045
:1039B0000AF094FA96E8070004F5807383E807009C
:1039C000DFF81CB1CDF828B003230AA95046ADF8A2
:1039D0002C300AF02BFD5146384607F0F9F89422B6
:1039E0004A214046FFF7D7FE4FF07F43C4F83C31F1
:1039F000D4F80C31A4F840513046D3F88430414615
:103A0000984796E8070004F5A47383E807002C4B59
:103A10001B6804F5D0762BB92A4B2B4A60212B4822
:103A200022F016FA2A4B1B881BB92A4B264A612121
:103A3000F5E7294B2946186800F056FC274A03464B
:103A40000A21304611F0AEF84046C4F854610AF03D
:103A5000CDFC02230AA94046ADF82C30CDF828B0A1
:103A60000AF0E4FC4146384607F0B2F80298D22248
:103A70004121FFF790FE0AAA09A90298ADF8245047
:103A80000125ADF828500AF02EFD0298A4F89051B7
:103A9000FFF7DAFE04F5DA733846C4E9659902994E
:103AA000C4F8803107F094F820460DB0BDE8F08FDF
:103AB0009C870208F4860208848702087137000890
:103AC000382E01205E7D0208607E0208DB7D020840
:103AD0003C2E0120227E0208442E0120AB7E0208EB
:103AE00030860208406A7047806A704770478A884B
:103AF0000B8810B5D20A4C88C1699BB251F82200DC
:103B000043EA0443184410BD10B50446BAB1107B13
:103B100068B1537BD27A1B0203F4E0631A43236A31
:103B200003EB82031A888A4202D193F9020010BD86
:103B300005D8013880B204330028F3D1F7E700201C
:103B4000F5E710B52C21044620F084F9204610BD7D
:103B500030B58BB00446BDF860500895BDF85C5098
:103B600007959DF8505006959DF84C5005959DF889
:103B7000485004959DF8445003959DF84050029597
:103B80009DF83C500195BDF8385000950FF00EF9A6
:103B9000064B2360159BE361169B2362199B6362AE
:103BA0001A9BA36220460BB030BD00BFD08702082D
:103BB00070477047704730B4C26844685510034678
:103BC00004EB6200D20748BF62599B6830BC48BF13
:103BD000D35818470346406830B19A681AB9D86874
:103BE00000F0010070470120704710B51021044615
:103BF00020F030F9204610BD10B54FF48E71044608
:103C000020F028F9204610BDC430884208B505D1FF
:103C10000DF09AFABDE80840FFF7D8BC08BD0000D7
:103C20002DE9F04F044685B0274600250FF0DAFA5B
:103C3000454BE56347F8403B04F16C0A3846FFF713
:103C4000CBFD5046FFF7C8FD4FF480724FF6FF736F
:103C500004F19809A4F8BC203C4AC4F8982004F167
:103C6000C406A4F8BE3084F8C03003A94846C4E9AD
:103C70002755C4E92955C4E92B55C4E92D55ADF89C
:103C80000C300AF062FD30460AF096FE304BC4E973
:103C90004334304B4FF4A07BC4E945352A462946CE
:103CA0003846CDF800B0F023FFF782FD04F1040898
:103CB0004FF07F43A3663946404606F089FF2A4607
:103CC00029465046CDF800B0F023FFF771FD224B96
:103CD000C4F894305146404606F07AFF1722484611
:103CE0001821FFF758FD092303A94846ADF80C3009
:103CF0000AF02BFD4946404606F06AFF3046EA22AC
:103D00004121FFF748FD03AA02A901233046ADF87F
:103D10000C30ADF808500AF0E6FB0523A4F8FC309F
:103D20003046FFF791FD4FF0FF33C4E9403304F50F
:103D300086734046C4F8EC30314606F049FF204611
:103D400005B0BDE8F08F00BF50880208D08D020892
:103D500038880208093C000811AD2EFF70477047F3
:103D600010B54FF4D471044620F074F8204610BD0D
:103D700008B529B90DF0E8F9BDE80840FFF736BCF1
:103D800008BD0000074A02600022C0E90122C0E924
:103D90000322C0E90522C0E907224FF48072828421
:103DA000704700BF148F02082DE9F04F04468BB016
:103DB000A04600250FF016FA894BE56348F8403B12
:103DC00026222946404622F09AFA4046FFF7DAFFBB
:103DD000844B236404F16C0AFF2384F8663004F1F9
:103DE00098094FF6FF7608A9A566504604F1C40766
:103DF000ADF8206009F0C8FD08A94846ADF820607C
:103E000009F0C2FD26222946384622F078FA3846C3
:103E1000FFF7B8FF744BC4F8EC304FF47F03C4F8DD
:103E2000F830724BC4F8C43004F5887B4FF0FF3390
:103E3000C4E94135A4F8F060C4F8F450A4F8FC508B
:103E4000C4F80051C4F80C515846FFF79BFF684E68
:103E5000C4F8106104F59E731846C4F838510393F2
:103E6000FFF790FF04F5B473C4F83C611846C4F83A
:103E700064510293FFF786FF4FF4A0732A46C4F8FB
:103E800068614046C4F8905129460093F023FFF73B
:103E90008FFC261D4FF07F434146A366304606F057
:103EA00097FE022308A95046ADF820300AF04DFCD9
:103EB000282340F2171200935A213C235046FFF763
:103EC00077FC2946504609F01AFD5146304606F067
:103ED0007FFE062308A94846ADF820300AF035FCDD
:103EE00024230093EF2266214846FFF761FC294610
:103EF000484609F004FD4946304606F069FE2A4668
:103F00004A213846FFF747FC4FF0FF33C4F8F4303E
:103F1000D4F8C430A4F8F8500DF110084046D3F896
:103F200084303946984798E8070004F5807383E8A1
:103F30000700304B1B6804F5CA782BB92E4B2F4A6B
:103F400060212F4821F084FF2E4B1B881BB92E4B7C
:103F50002A4A6121F5E72D4B2946186800F0C4F97B
:103F60002B4A03460A21404610F01CFE3846C4F88E
:103F70000C810AF03BFA1C4B089308A9042338462D
:103F8000ADF824300AF052FA3946304606F020FEE9
:103F900050230093EF22F02329465846FFF708FCF0
:103FA0005946304606F014FED72303980093182292
:103FB000F0232946FFF7FCFB0399304606F008FE84
:103FC0001823029800932A46F0232946FFF7F0FBB6
:103FD0003046029906F0FCFD20460BB0BDE8F08F9C
:103FE00084880208688D020830860208F486020878
:103FF000748A0208382E01205E7D0208607E020865
:10400000DB7D02083C2E0120227E0208442E012086
:10401000AB7E02087047000030B5164D2C6814F0D6
:1040200001048FB0BFF35B8F20D128461FF014FF2F
:10403000E0B13F230993104B0893104B10491148EE
:104040000A940122CDE906430423CDE903320A2371
:104050000093CDE90B44CDE901440594FFF778FDC9
:10406000094821F013FF28461FF002FF05480FB052
:1040700030BD00BFA41F002048AD020858AD0208A3
:1040800084AB0208A81F00201540000870470000FC
:1040900030B5174D2C6814F001048FB0BFF35B8F5F
:1040A00022D128461FF0D8FEF0B13F230993114BCF
:1040B0000893114B114912480A94CDE90643012295
:1040C0000423CDE903321423009316221823CDE9EB
:1040D0000B44CDE901440594FFF73AFD094821F06E
:1040E000D5FE28461FF0C4FE05480FB030BD00BF06
:1040F000D41F00204CAD02085CAD020894AB02084E
:10410000D81F00208D4000087047000030B5174DC3
:104110002C6814F001048FB0BFF35B8F22D12846C6
:104120001FF09AFEF0B13F230993114B0893114BF6
:10413000114912480A94CDE9064301220423CDE92E
:1041400003322823009309222923CDE90B44CDE92A
:1041500001440594FFF7FCFC094821F097FE28462E
:104160001FF086FE05480FB030BD00BF04200020C0
:1041700050AD020860AD0208C8AC0208082000205B
:104180000941000800207047002070470EB403B5B5
:1041900003AB002153F8042B01930EF085F802B015
:1041A0005DF804EB03B070470CB407B504AB53F8EB
:1041B000042B01930EF078F803B05DF804EB02B025
:1041C00070470000436C10B5044673B3038F2BB9DE
:1041D000184B194AC521194821F03AFEC38E00EB4D
:1041E00043035B8C0BB30FF034FF238F012B03D8F9
:1041F000134B144ACB21EEE7E28E531C9BB2092BE2
:10420000194688BFA3F10A0104EB410140F63F10B3
:10421000498C814209D10A2B04EB420228BF0023BA
:1042200004EB4303508C588451842046BDE8104071
:104230000FF012BEAE7E0208B77E0208627F02084F
:10424000AC7F0208BA7F02080FF0CDBD10B586B072
:1042500002AC84E806001A460AAB05930193099B59
:1042600000932146089B0CF0F1FA06B010BD000047
:1042700038B518BB124B13481C681349B4B12268F7
:1042800022440260626822440A60A26814440F4B10
:1042900000221A8000F038F8054600F033F80C4B85
:1042A0001C600C4B1D600C4B188007E00B4B03602F
:1042B0000B4B0B600B4B1C68002CE8D138BD00BFCA
:1042C0004020002038200020342000203C20002006
:1042D000382E0120402E01203C2E01207CAD02080A
:1042E00064AD0208C4AD0208044B1B6853F82100FA
:1042F000034B1B6803EB4000704700BF34200020D5
:1043000038200020062070470048704744200020D5
:1043100010B5FFF7BDFE044C2060FFF7F7FE6060AC
:10432000FFF77AFEA06010BD4420002010B50024E5
:1043300004600C6014601C6010BD704710B54FF431
:10434000AE7104461FF086FD204610BD10B5044630
:10435000D0F8580100F07EF82046BDE810400CF07F
:104360009DBF000010B50446FFF7DCF8014B236049
:10437000204610BDB88802080CF0E6BE704704382D
:104380007047704710B5102104461FF063FD2046AA
:1043900010BDA0F10400F5E78368C068196800F05B
:1043A00043B8000000228260024A02601832426074
:1043B000C16070470C8902087047000010B5034BBC
:1043C00003600446FFF767F9204610BD34890208F0
:1043D00010B50446FFF7F2FF20464FF4EC711FF0D2
:1043E00039FD204610BD000010B50446FFF76EFAF7
:1043F000014B2360204610BD3489020810B50446E5
:10440000FFF74AF904F5E270C4F85401054A0023A5
:104410000A2110F0C7FB04F58670BDE810400EF0CD
:104420006DB800BF8C80020810B50B460446064AE2
:104430000A2100F5E27010F0B5FB04F58670BDE8C6
:1044400010400EF05BB800BF8C8002080022C0E96B
:10445000002270477047704704387047704710B5A6
:10446000102104461FF0F6FC204610BDA0F1040008
:10447000F5E7000000228260024A026018324260C2
:10448000C1607047688902087047000010B5034B8F
:1044900003600446FFF78DFB204610BD908902089B
:1044A00010B50446FFF7F2FF20464FF48E711FF05F
:1044B000D1FC204610BD000010B50446FFF7B0FB4C
:1044C000014B2360204610BD90890208FFF772BBA4
:1044D000704704387047704710B5102104461FF02C
:1044E000B9FC204610BDA0F10400F5E7002282606F
:1044F000024A026018324260C1607047C4890208F3
:1045000008B5C368D3F8F02683681A60FFF734FF54
:10451000BDE80840FFF76AB838B5094B03600446A8
:1045200040F2C465B5F5CE7F05D0635960191B68AC
:1045300098472C3DF6E72046FFF710FC204638BD93
:10454000EC89020810B50446FFF7E6FF204640F26A
:104550007C711FF07FFC204610BD0000002310B5C9
:10456000C0E90133C0E90333C0E90733C0E90533CB
:104570004FF480738384064B03600B88C384FF234E
:10458000044680F828300AF0E0F8204610BD00BF4D
:10459000D08D02082DE9F3410446FFF705FC294BB5
:1045A000236004F5E47504F5DE684FF6FF7605F543
:1045B0008477284601A92C35ADF80460FFF7CEFFBB
:1045C000BD42F6D14545F2D10025C4F8F056C4F8F5
:1045D000085784F8255701A904F5E560ADF8046093
:1045E000FFF7BCFF4FF0FF33C4F85837C4F85C370F
:1045F00004F26C73002284F85457C4F86057C4F86E
:10460000645784F868571A6004F5EE631A6084F8FA
:104610007457C4F87857234604F11E0283F8A85152
:1046200083F8A95183F8AA5183F8AB5183F8AC51B0
:1046300083F8AD5106339342F0D1204602B0BDE875
:10464000F08100BFEC8902082DE9F84300F5D4752C
:1046500000264FF064092C464FF00008052714F897
:10466000013B6BB123785BB1FDF792FF4044B0FB97
:10467000F9F309FB13001D289CBF14F8013C2370BB
:10468000013FB044EBD10136032E05F10605E2D11E
:10469000BDE8F88370B500F11E0104460346002210
:1046A00083F8A82183F8A92183F8AA2183F8AB21F4
:1046B00083F8AC2183F8AD2106338B42F0D104F2AC
:1046C000A71504F2AD16FDF773FF05F8010FB5420B
:1046D000F9D104F2B316FDF76BFF05F8010FB542EF
:1046E000F9D12046BDE87040FFF7AEBF2DE9F04F8D
:1046F00087B0B0F940310293B0F9423103930646D6
:1047000000F2A7190027039AC7EB471313441BB203
:1047100001934FF4847317F0010F03FB076B029BA7
:1047200014BF122400241C44A4B2CA464FF000084F
:104730001AF8012F22B3013A0BF5E475042A0DD8BB
:10474000DFE802F003353A3F4400DBF8C821126E7F
:104750000621ADF81410284605A99047019A21B208
:104760002846FFF718F8DBF8C8212021926B28466D
:104770009047DBF8C8212021D26B284690470122C0
:1047800008F101082434B8F1060F8BF8ED21A4B22A
:104790000BF12C0BCCD10137052F09F10609B2D151
:1047A00006F59E7007B0BDE8F04F0DF0A7BEDBF830
:1047B000C8210321126ECCE7DBF8C8210421126E58
:1047C000C7E7DBF8C8210721126EC2E7DBF8C82172
:1047D0000521126EBDE700F2C51200F2CB1312F8EC
:1047E000010F10B99A42FAD170470120704738B5CD
:1047F000044601F049FA04F2A71504F2AD14FDF7DE
:10480000D7FE05F8010FA542F9D138BDC06BFFF7FF
:1048100077BE000010B5002380F8243780F84D37AC
:10482000044600F5E5600DF069FE0549054864237E
:10483000182203F0E8FF2046BDE81040FFF7E6BF6E
:104840008F800208D01C002010B500F5D4710446FA
:10485000182200F5D77021F038FD2046FFF7C7FF7A
:104860002046FFF743FF2046FFF7B5FF20B1204663
:10487000BDE81040FFF7CEBF10BD37B5002300F1F3
:10488000980480F8BD30054620460DF037FE01F053
:10489000FBF9FDF78DFE431E85F81207042B13D894
:1048A000DFE803F003080A1B1D000623ADF80430FF
:1048B00001A906E00323F9E70423ADF804300DEB6A
:1048C0000301204609F041FF0123204685F8BD3051
:1048D00003B0BDE830400DF011BE0723E6E7052325
:1048E000E4E7D0F808370133042B10B50446C0F8CC
:1048F000083704DDFFF7A8FF0023C4F80837204677
:10490000BDE81040FFF7B9BF38B5D0F8F0360A4619
:104910000A21044601FB023300F5CA75C0F8F036DF
:10492000054A284610F03EF9C4F80C5104F1C400C1
:10493000BDE838400DF0E2BD8C800208034600F56A
:10494000A561002283F8ED2183F8192283F845221E
:1049500083F8712283F89D2283F8C92203F58473BA
:104960009942EFD11E22002100F5D47021F0C7BC7E
:1049700030B585B000230446CDE902330091012310
:104980006946019301F0C0FB204601F03DFA642125
:10499000204601F0D2FA204601F022FB05462046CF
:1049A00001F0B0FA284605B030BD002380F8BD30D4
:1049B00098300DF0A3BD10B50446FFF7F6FF204672
:1049C000BDE81040FFF7BABF70B5002390B0C0F843
:1049D000643780F868370D4B01AA03F13806154695
:1049E00018685968144603C40833B3422246F7D105
:1049F0001B7823702846FBF7FBFB642382B2294611
:104A0000034803F000FF10B070BD00BFA98002088A
:104A1000D01C0020B0F910379FED2C7A07EE903AA9
:104A2000F8EEE77A2DE9F04167EE877A9FED287A74
:104A3000C7EE877A04462DED028B17EE900AFBF73E
:104A4000BDFE41EC180BB0EE480AF0EE680A1FF00C
:104A50007FFA57EC106BB0EE480AF0EE680A1FF0D0
:104A600023FA1C4BB4F9728051EC100B0022FBF7B7
:104A700017FCFBF783FFB4F9A230B4F97050A8EB30
:104A8000000803EBD373A8EB6308B4F9743003EBAD
:104A9000D373002205EB630530460E4B3946FBF716
:104AA000FFFBFBF76BFFB4F9A030291803EBD373BE
:104AB000A1EB63010FFA88F8424609B204F19800AD
:104AC000FDF72DF8BDEC028BBDE8F081D00F494019
:104AD000000034430080464008B501F0D5F8044A90
:104AE0001368C31AB3F5967F88BF106008BD00BF76
:104AF0007420002007EE901A07EE102AF8EEE77AED
:104B000000F21473B8EEC77A73B5C3ED007A00F5FE
:104B1000E36383ED007A00F21C7383ED000ABDEEBF
:104B2000C77A00F5E463C3ED000AB0F9323717EE37
:104B3000102AFDEEE77A03EBD373A2EB6302B0F920
:104B4000303717EE901A03EBD3730446A1EB6301E1
:104B5000012600F5E56580F8246712B209B22846FF
:104B6000FEF719FE84F84D6728460DF0C7FC94F84F
:104B7000123784F81337013B042B13D8DFE803F016
:104B800003080A1416000623ADF8043001A906E054
:104B90000323F9E70423ADF804300DEB03012846A5
:104BA00009F0D3FD02B070BD0723EDE70523EBE765
:104BB0002DE9F843044600232DED048B983080F84E
:104BC00025300DF09BFCB4F910379FED2E7A07EEDF
:104BD000903AF8EEE77AB0EE089A67EE877A9FEDA2
:104BE0002A7AC7EE877A17EE900AFBF7E7FD41ECC9
:104BF000180BB0EE480AF0EE680A1FF0A9F957EC5E
:104C0000106BB0EE480AF0EE680A1FF04DF959EC4F
:104C1000108B49464046FBF7D9FE394608EE900A0C
:104C20003046FBF7D3FE194BB4F97250002208EE60
:104C3000100A49464046FBF733FBFBF79FFEB4F9E9
:104C40007430A5EB0008B4F9705003EBD37305EB97
:104C5000630500220D4B68EEC98A28EE098A3046AA
:104C60003946FBF71DFBFBF789FEF0EE680AB0EE54
:104C7000480ABDEC048B291842462046BDE8F8439B
:104C8000FFF738BFD00F4940000034430080464052
:104C900090F8242710B500F5E5642AB300F5E36227
:104CA000D2ED007AB0F93217B0F93037FDEEE77A7D
:104CB00001EBD17117EE902AA2EB610200F21471A0
:104CC000D1ED007AFDEEE77A03EBD37317EE901A7D
:104CD000A1EB630112B209B22046FCF720FF204687
:104CE000BDE810400DF00ABC80F84D27F7E7042915
:104CF00004D8052A8CBF002001207047002070478F
:104D00002DE9F04FADF50F7D054689461446FFF7B6
:104D1000EEFF002800F09F804FF0060B0BFB01F622
:104D2000AB19134493F8A8310193002B00F0938042
:104D30001E2200214A4821F0E2FA494BCDF8589052
:104D40001E444FF0010C06F804C03494454C0FCCBF
:104D500004AE0FC694E8030004F1080E86E80300D1
:104D6000BEE80F000AAE0FC69EE80300203486E8B6
:104D700003000FCC10AE0FC694E803000DF15808E5
:104D800086E803000DF1D00900266346013B70A9B7
:104D900059F8232058F823A0029252AA029842F808
:104DA00026A00AF0010241F82600002401360392F1
:104DB00004AA52F82410039A5144002A49D010AA98
:104DC000029852F8242002442846FFF790FFC8B109
:104DD000234F0BFB01F007EB000C1CF802E0BEF1C7
:104DE000000F0FD128441044019F90F8A801B84249
:104DF00008D14FF001000CF8020048F8231049F8E0
:104E0000232001330134062CD2D1002BBED1022E37
:104E100021DD52A870A91F4650F8042B51F804CB8D
:104E200004FB025262440133B34282F8A871F3D109
:104E300019462846FFF768FD2846FFF757FC0A4940
:104E40000A48642310220DF50F7DBDE8F04F03F0F2
:104E5000DABC0AAAB4E70DF50F7DBDE8F08F00BFFC
:104E60005020002060720208E2800208D01C00205E
:104E700070B50529A8BF052121EAE175431904464B
:104E800093F8A86196B990F8122783F8A821FFF744
:104E90002DFC134913486423162203F0B4FC2A4660
:104EA00031462046BDE87040FFF72ABF00F2A71345
:104EB000002513F8016F46B9631994F8122783F897
:104EC000A8212046FFF712FCE9E70135062DF0D1B5
:104ED000BDE870400449034864231B2203F093BCDF
:104EE000F3800208D01C00200A8102082DE9F04F4F
:104EF000A3B004460D461646FFF7F9FE28B9052A69
:104F0000A8BF052626EAE67605464FF0060B0BFB02
:104F10000543334493F8A831002B00F0C680664F58
:104F20009FED666A0FCF0DF1180CACE80F0097E803
:104F3000030007F1080E8CE80300BEE80F000DF136
:104F4000300CACE80F009EE8030020378CE803002B
:104F50000FCF0DF1480CACE80F0097E803008CE888
:104F600003004FF0FF3705F00102002303970DF116
:104F70001808059204F2147904F5E36A58F823102E
:104F8000059A2944002A40F08E800CAA52F823206A
:104F9000204632440292FFF7AAFE002841D00BFBC4
:104FA0000140104490F8A80100283AD101F0010E08
:104FB000B4F9422104920029B8BFCEF1000E029A42
:104FC000B4F94001D9ED006ABEF1010F4FF0240C95
:104FD00014BF4FF0000E4FF0120E0CFB0200704495
:104FE000103007EE900A049AC1EB4110F8EEE77A10
:104FF0001044103076EEE76A07EE900AB8EEE77AD2
:10500000DAED007A77EEC77A67EEA77AE6EEA67A4F
:10501000F4EEC67AF1EE10FA42BF029F0391B0EEB1
:10502000676A0133062BA9D1039D6A1C3FD07B1C04
:105030003DD03A4629462046FFF759FEB8B306232D
:1050400003FB05433B4493F8A82182BB94F8132744
:1050500083F8A8212046FFF749FB94F81237184A35
:105060004021CDE9007312A82B4621F0B5F812A813
:10507000FBF7BEF8642382B212A9124803F0C3FB07
:10508000012384F85437C4F85857C4F85C770023D8
:1050900004F5E56084F8243784F84D3723B0BDE883
:1050A000F04F0DF02BBA12AA70E73746BDE7314634
:1050B0002046FFF7DDFEEAE760720208286B6E4EBD
:1050C00026810208D01C00202DE9F84F90F8249783
:1050D0002DED048B0446B9F1000F5CD000F214737F
:1050E00000F5E368B0F940A1B0F942B193ED008A50
:1050F00098ED009ADFED469A00F2A7170025F3EE2F
:10510000008AC5EB451315F0010F03EB0B0214BF2A
:105110001223002353443946002604E00136062EAC
:1051200003F124033BD011F8010F0028F6D007EE5D
:10513000903AB8EEE77A07EE902AF8EEE77A37EE83
:10514000287A77EEA87A38EE477A79EE677A67EEB2
:10515000A77AE7EE077AF4EEE97AF1EE10FADDD8F5
:10516000002384F8243784F84D3704F5E5600DF00A
:10517000C5F9284928486423122203F044FB32462B
:1051800029462046FFF7B2FE4E460135052D08D0D0
:105190000637002EB5D0BDEC048BBDE8F88F002695
:1051A000F3E7002EF7D107EE90BA98ED007AF8EE0B
:1051B000E77AB4EEE77AF1EE10FAECD804F5E560A0
:1051C00084F8246784F84D670DF098F91349124864
:1051D00064231C2203F017FB07EE90AAF8EEE77A8F
:1051E0009FED0F7A38EE678A3146C8EE077ABDEC3C
:1051F000048B2046BDE8F84FFDEEE77A17EE902AC3
:10520000052AA8BF052222EAE272FFF76FBE00BF9F
:1052100000401C4545810208D01C0020578102082F
:105220000000104290F8243770B50446A3B300F292
:10523000147300F21C72D2ED007A93ED007A37EE0F
:10524000877A00F5E36083ED007A04F5E461D0ED40
:10525000006A91ED006AB5EEC07A76EE866AF1EEEC
:1052600010FAC0ED006A18D80021F1EE677A1960D3
:10527000C2ED007A2046FFF727FF94F824371E4D31
:10528000B3B32046FFF704FD94F8243783B32B68AB
:1052900083B900F0F9FC286070BDDFED186A37EEC5
:1052A000267ADFED176AB4EEE67AF1EE10FAE1DB6A
:1052B0001449DAE700F0E8FC2B68C01A42F21073D8
:1052C000984211D9002604F5E56084F8246784F833
:1052D0004D670DF013F92E600B490C48BDE8704086
:1052E0006423142203F08FBA94F82437002BD3D10F
:1052F00000232B60D0E700BF702000200000004298
:1053000000007043000050437B810208D01C002045
:1053100000F26C73D3ED006A9FED237A00F5EE6323
:1053200093ED006A76EEC67A10B5F4EEC77AF1EE28
:1053300010FA04462CDD9FED1D7A77EEC77ABDEE9C
:10534000E77AF6EE005A17EE102A002AB8BF52424A
:1053500007EE102AB8EEC77AB4EEE57AF1EE10FA4D
:105360005EBF9FED137AF0EE466AE7EE876A16EEAF
:10537000900AC3ED006AFBF721FA41EC100B1EF016
:10538000E9FE51EC100BFBF7F9FAA4F8100710BD79
:105390009FED087AF4EEC77AF1EE10FA44BF9FED64
:1053A000037A77EE877ACAE7000034430000B443FB
:1053B0009A99193E000034C307EE102A084691B1AD
:1053C00007EE901AB8EEC77AF8EEE77AC7EE876A6A
:1053D00066EEA67A67EEA67A67EE877AFDEEE77A42
:1053E00017EE903A18B2704770B50D2192B004468E
:1053F0003F48FFF7BDFA052106463D48FFF7B8FADA
:1054000094F868370546B3B901233A4AA4F8660709
:1054100084F8683740213346A4F86467009002A8F6
:1054200020F0DAFE02A8FAF7E3FE642382B202A9B2
:10543000314803F0E8F9B4F86437F11AB4F8663784
:105440002E4E09B2ED1A81EAE173A3EBE1732DB29E
:105450009BB2632B85EAE573A3EBE5739BB298BF20
:105460000021632B98BF0025B1F5487FA8BF4FF4FA
:105470004871B1424FF44872B8BF31462046FFF739
:105480009BFF95422946A8BF1146B142B8BF31469D
:10549000A4F80C072046FFF78FFF0421A4F80E079D
:1054A000174801F00FF900280CBF012600261AD179
:1054B00094F82557BDB92046FFF77AFB01224FF437
:1054C0008051104801F004F9322000F0E3FB0D4850
:1054D0002A464FF4805101F0FBF80B49064864233B
:1054E000072203F090F984F8256712B070BD00BF61
:1054F0000C1F002090810208D01C0020E0FCFFFF60
:1055000000080240000C0240AB81020810B50446BE
:10551000FFF76AFF00F0B8FBB4F90C1781EAE173FA
:10552000A3EBE1739BB2C82BB4F90E3706D883EA1C
:10553000E372A2EBE37292B2C82A37D907EE903A2F
:10554000F8EEE70A07EE901A0122B8EEE70A84F8AF
:105550007427C4F87807F1EE600A1EF04DFDDFED08
:105560001A7A9FED1A7A20EE270AC0EE077A9FED8D
:10557000187AF4EEC77AF1EE10FA14D49FED157A8A
:10558000F4EE477AF1EE10FAC8BFF0EE477A04F273
:105590006C73C3ED007A2046FFF7BAFE2046BDE8E3
:1055A0001040FFF737BAF0EE477AF0E794F8743717
:1055B000002BF0D0D4F87837C01AC82884BF002355
:1055C00084F87437E7E700BF00003443D00F494048
:1055D0000000A0C20000A04210B50446FFF796FFED
:1055E0002046FFF71FFE2046FFF776FA94F854375F
:1055F00073B100232046D4F85C27D4F8581784F8F8
:105600005437FFF77DFB2046BDE81040FFF769B92E
:1056100010BD2DE9F7430446FEF7A1FB2046FFF736
:10562000D3F994F8C0301BB104F19800FCF724FBC7
:105630000026354604F59E79A7194FF0000887F833
:10564000ED5107F5E471484608F1010805F0C0FA8C
:10565000B8F1060F07F12C07F1D106F58476B6F5FF
:10566000A56FE9D12046C4F80857C4F86057A4F8DC
:105670001057FFF70FF82046FFF738F82046FFF7DE
:10568000FCF800212046C4F8F056FFF73DF904F578
:10569000E5662046FFF7BEF9032301A93046ADF8C1
:1056A000043009F052F8002211463046FEF773F834
:1056B0003146201D84F84D5705F08AFA04F26C72C9
:1056C0000023136004F5EE621360A4F8105784F809
:1056D000745700F0D9FAC4F8780703B0BDE8F08336
:1056E000F02070474FF4A07070472920FCF700BFEE
:1056F0002820FCF7FDBE08B5FCF7CEFECA20FCF75B
:10570000F7FEC320FCF7D8FE0820FCF7D5FE50209A
:10571000FCF7D2FECF20FCF7EBFE0020FCF7CCFE1E
:10572000C120FCF7C9FE3020FCF7C6FEED20FCF7D7
:10573000DFFE6420FCF7C0FE0320FCF7BDFE122054
:10574000FCF7BAFE8120FCF7B7FEE820FCF7D0FE9C
:105750008520FCF7B1FE0020FCF7AEFE7820FCF7B8
:10576000ABFECB20FCF7C4FE3920FCF7A5FE2C20B5
:10577000FCF7A2FE0020FCF79FFE3420FCF79CFE05
:105780000220FCF799FEF720FCF7B2FE2020FCF780
:1057900093FEEA20FCF7ACFE0020FCF78DFE002013
:1057A000FCF78AFEB120FCF7A3FE0020FCF784FE84
:1057B0001B20FCF781FEB620FCF79AFE0A20FCF7BE
:1057C0007BFEA220FCF778FEC020FCF791FE1020A3
:1057D000FCF772FEC120FCF78BFE1020FCF76CFE7C
:1057E000C520FCF785FE4520FCF766FE1520FCF77A
:1057F00063FEC720FCF77CFE9020FCF75DFE3620A0
:10580000FCF776FEC820FCF757FEF220FCF770FE8E
:105810000020FCF751FEB020FCF76AFEC220FCF726
:105820004BFEB620FCF764FE0A20FCF745FEA720DD
:10583000FCF742FE2720FCF73FFE0420FCF73CFE6D
:105840002A20FCF755FE0020FCF736FE0020FCF76E
:1058500033FE0020FCF730FEEF20FCF72DFE2B205E
:10586000FCF746FE0020FCF727FE0020FCF724FE94
:105870000120FCF721FE3F20FCF71EFEF620FCF77E
:1058800037FE0120FCF718FE0020FCF715FE06206D
:10589000FCF712FE2C20FCF72BFEC820FCF776FE4E
:1058A0002620FCF725FE0120FCF706FEE020FCF791
:1058B0001FFE0F20FCF700FE2920FCF7FDFD242031
:1058C000FCF7FAFD0C20FCF7F7FD0E20FCF7F4FDC9
:1058D0000920FCF7F1FD4E20FCF7EEFD7820FCF7E7
:1058E000EBFD3C20FCF7E8FD0920FCF7E5FD13206B
:1058F000FCF7E2FD0520FCF7DFFD1720FCF7DCFDDF
:105900001120FCF7D9FD0020FCF7D6FDE120FCF7C3
:10591000EFFD0020FCF7D0FD1620FCF7CDFD1B208D
:10592000FCF7CAFD0420FCF7C7FD1120FCF7C4FDFD
:105930000720FCF7C1FD3120FCF7BEFD3320FCF74A
:10594000BBFD4220FCF7B8FD0520FCF7B5FD0C209F
:10595000FCF7B2FD0A20FCF7AFFD2820FCF7ACFDF8
:105960002F20FCF7A9FD0F20FCF7A6FD1120FCF766
:10597000BFFDC820FCF70AFE2920FCF7B9FDBDE8F1
:1059800008402C20FCF7B4BD08B5FCF785FD0321C9
:10599000D320FCF7C9FD80B208BD10B5C4B2022205
:1059A00003212046FCF72EFD0A20FCF773FD20465C
:1059B00000220321FCF726FDBDE810400220FCF781
:1059C00069BD38B50446E4B2FCF71AFD0021204653
:1059D000FCF730FD012105462046FCF72BFD40EA8F
:1059E000052080B238BD10B5C4B240212046FCF776
:1059F00021FD030607D54C212046FCF71BFD00388E
:105A000018BF012010BD01224B212046FCF7FAFCF3
:105A1000204600224B21FCF7F5FC0020F2E773B58D
:105A20000423C4B20E461546D7210DEB03022046CF
:105A3000FCF71AFD019B1BBA1A0DC3F30B2332802E
:105A400020462B8001224B21FCF7DCFC00224B215D
:105A50002046FCF7D7FC02B070BD000010B50A4A22
:105A60001378984204460DD0517888420AD00BB181
:105A700041B90123D454FCF7C3FC2046BDE81040D3
:105A8000FFF78BBF10BD00BF7820002010B5C4B257
:105A900009212046FCF7CEFC40F00102D2B220469C
:105AA0000921BDE81040FCF7ADBC10B5C4B2092116
:105AB0002046FCF7BFFC092100F0FE022046BDE8AD
:105AC0001040FCF79FBC38B5C4B20D4620460A21F1
:105AD000FCF7B0FC40EA0502D2B220460A21BDE83C
