:020000040800F2
:1000000000000320390E0008C92B0008CB2B000884
:10001000CD2B0008CF2B0008D12B000800000000DA
:10002000000000000000000000000000818F0008B8
:10003000D32B000800000000119000089B880008E6
:10004000890E0008890E0008890E0008890E000834
:10005000890E0008890E0008890E0008890E000824
:10006000890E0008890E0008890E0008890E000814
:10007000890E0008890E0008890E0008890E000804
:10008000890E0008890E0008D52B0008890E00088B
:10009000890E0008890E0008890E0008890E0008E4
:1000A000890E0008890E0008890E0008890E0008D4
:1000B000890E0008890E0008890E0008890E0008C4
:1000C000890E0008890E0008890E0008890E0008B4
:1000D000890E0008890E0008890E0008890E0008A4
:1000E000890E0008890E0008890E0008890E000894
:1000F000890E0008890E0008890E0008890E000884
:10010000890E0008890E0008890E0008890E000873
:10011000890E0008890E0008F12B0008890E0008DE
:10012000890E0008890E0008890E0008890E000853
:10013000890E0008890E0008890E0008890E000843
:10014000890E0008890E0008890E0008890E000833
:10015000890E0008890E0008890E0008890E000823
:10016000890E0008890E0008890E0008890E000813
:10017000890E0008890E0008890E000800000000A2
:10018000890E0008890E0008890E0008890E0008F3
:10019000890E0008890E0008890E0008890E0008E3
:0C01A000FD2B0008890E0008092C000847
:1001B00010B5054C237833B9044B13B10448AFF3A1
:1001C00000800123237010BD800300200000000088
:1001D0001871020808B5034B1BB103490348AFF37C
:1001E000008008BD00000000840300201871020890
:1001F000034613F8012B002AFBD1181A0138704767
:1002000001F0FF01102A2BDB10F0070F08D010F8C7
:10021000013B013A8B422DD010F0070F42B3F6D1CB
:10022000F0B441EA012141EA014122F007047FF0E4
:1002300000070023F0E80256083C85EA010586EA3B
:10024000010685FA47F5A3FA87F586FA47F6A5FA77
:1002500087F68EB9EED1F0BC01F0FF0102F0070283
:1002600032B110F8013B013A83EA010313B1F8D12E
:100270000020704701387047002D06BF354603380F
:10028000073815F0010F07D1013015F4807F02BF48
:10029000013015F4C03F0130F0BC0138704700BF99
:1002A00070B54FF0FF0C4CF4E06C1CEA11541DBF0C
:1002B0001CEA135594EA0C0F95EA0C0F00F0DEF8D7
:1002C0002C4481EA030621EA4C5123EA4C5350EABC
:1002D000013518BF52EA033541F4801143F480130D
:1002E00038D0A0FB02CE4FF00005E1FB02E506F09E
:1002F0000042E0FB03E54FF00006E1FB03569CF0F3
:10030000000F18BF4EF0010EA4F1FF04B6F5007FF8
:1003100064F5407404D25FEA4E0E6D4146EB06066A
:1003200042EAC62141EA55514FEAC52040EA5E50F3
:100330004FEACE2EB4F1FD0C88BFBCF5E06F1ED89D
:10034000BEF1004F08BF5FEA500E50F1000041EBD4
:10035000045170BD06F0004646EA010140EA020081
:1003600081EA0301B4EB5C04C2BFD4EB0C0541EAA3
:10037000045170BD41F480114FF0000E013C00F3B8
:10038000AB8014F1360FDEBF002001F0004170BDDC
:10039000C4F10004203C35DA0C341BDC04F11404F5
:1003A000C4F1200500FA05F320FA04F001FA05F281
:1003B00040EA020001F0004221F0004110EBD3704E
:1003C00021FA04F642EB06015EEA430E08BF20EA7A
:1003D000D37070BDC4F10C04C4F1200500FA04F31D
:1003E00020FA05F001FA04F240EA020001F00041AF
:1003F00010EBD37041F100015EEA430E08BF20EA22
:10040000D37070BDC4F1200500FA05F24EEA020E69
:1004100020FA04F301FA05F243EA020321FA04F098
:1004200001F0004121FA04F220EA020000EBD3704F
:100430005EEA430E08BF20EAD37070BD94F0000F4F
:100440000FD101F00046400041EB010111F4801F83
:1004500008BF013CF7D041EA060195F0000F18BF34
:10046000704703F00046520043EB030313F4801F70
:1004700008BF013DF7D043EA0603704794EA0C0F2A
:100480000CEA135518BF95EA0C0F0CD050EA410640
:1004900018BF52EA4306D1D181EA030101F00041BD
:1004A0004FF0000070BD50EA410606BF10461946E5
:1004B00052EA430619D094EA0C0F02D150EA0136F1
:1004C00013D195EA0C0F05D152EA03361CBF104632
:1004D00019460AD181EA030101F0004141F0FE41D1
:1004E00041F470014FF0000070BD41F0FE4141F455
:1004F000780170BD81F0004102E000BF83F000434D
:1005000030B54FEA41044FEA430594EA050F08BFAE
:1005100090EA020F1FBF54EA000C55EA020C7FEA72
:10052000645C7FEA655C00F0E2804FEA5454D4EBEF
:100530005555B8BF6D420CDD2C4480EA020281EAB9
:10054000030382EA000083EA010180EA020281EAF1
:100550000303362D88BF30BD11F0004F4FEA013143
:100560004FF4801C4CEA113102D0404261EB410152
:1005700013F0004F4FEA03334CEA133302D05242D8
:1005800063EB430394EA050F00F0A780A4F1010494
:10059000D5F1200E0DDB02FA0EFC22FA05F28018CE
:1005A00041F1000103FA0EF2801843FA05F35941B4
:1005B0000EE0A5F120050EF1200E012A03FA0EFC33
:1005C00028BF4CF0020C43FA05F3C01851EBE3715D
:1005D00001F0004507D54FF0000EDCF1000C7EEB7A
:1005E00000006EEB0101B1F5801F1BD3B1F5001FB8
:1005F0000CD349085FEA30004FEA3C0C04F10104D7
:100600004FEA445212F5800F80F09A80BCF1004FFF
:1006100008BF5FEA500C50F1000041EB045141EA81
:10062000050130BD5FEA4C0C404141EB0101013C4A
:1006300028BFB1F5801FE9D291F0000F04BF014639
:100640000020B1FA81F308BF2033A3F10B03B3F10B
:1006500020020CDA0C3208DD02F1140CC2F10C029B
:1006600001FA0CF021FA02F10CE002F11402D8BFF9
:10067000C2F1200C01FA02F120FA0CFCDCBF41EAC5
:100680000C019040E41AA2BF01EB0451294330BD94
:100690006FEA04041F3C1CDA0C340EDC04F1140471
:1006A000C4F1200220FA04F001FA02F340EA030048
:1006B00021FA04F345EA030130BDC4F10C04C4F18E
:1006C000200220FA02F001FA04F340EA030029466E
:1006D00030BD21FA04F0294630BD94F0000F83F4B8
:1006E000801306BF81F480110134013D4EE77FEA9B
:1006F000645C18BF7FEA655C29D094EA050F08BFE7
:1007000090EA020F05D054EA000C04BF19461046C7
:1007100030BD91EA030F1EBF0021002030BD5FEA0B
:10072000545C05D14000494128BF41F0004130BD33
:1007300014F580043CBF01F5801130BD01F0004587
:1007400045F0FE4141F470014FF0000030BD7FEAFA
:10075000645C1ABF194610467FEA655C1CBF0B46F5
:10076000024650EA013406BF52EA033591EA030F0C
:1007700041F4002130BD00BF90F0000F04BF002104
:10078000704730B54FF4806404F132044FF0000537
:100790004FF0000150E700BF90F0000F04BF0021B0
:1007A000704730B54FF4806404F1320410F0004516
:1007B00048BF40424FF000013EE700BF42004FEA11
:1007C000E2014FEA31014FEA02701FBF12F07F438E
:1007D00093F07F4F81F06051704732F07F4208BF45
:1007E000704793F07F4F04BF41F40021704730B54C
:1007F0004FF4607401F0004521F000411CE700BF98
:1008000050EA010208BF704730B54FF000050AE01A
:1008100050EA010208BF704730B511F0004502D51B
:10082000404261EB41014FF4806404F132045FEA1D
:10083000915C3FF4D8AE4FF003025FEADC0C18BFC6
:1008400003325FEADC0C18BF033202EBDC02C2F1B8
:10085000200300FA03FC20FA02F001FA03FE40EA4A
:100860000E0021FA02F11444BDE600BF4FF0FF3C38
:1008700006E000BF4FF0010C02E000BF4FF0010C9A
:100880004DF804CD4FEA410C7FEA6C5C4FEA430C13
:1008900018BF7FEA6C5C1BD001B050EA410C0CBF62
:1008A00052EA430C91EA030F02BF90EA020F0020C4
:1008B000704710F1000F91EA030F58BF994208BF2B
:1008C00090422CBFD8176FEAE37040F001007047E8
:1008D0004FEA410C7FEA6C5C02D150EA013C07D13F
:1008E0004FEA430C7FEA6C5CD6D152EA033CD3D08A
:1008F0005DF8040B704700BF8446104662468C4684
:100900001946634600E000BF01B5FFF7B7FF0028B6
:1009100048BF10F1000F01BD4DF808EDFFF7F4FFDF
:100920000CBF012000205DF808FB00BF4DF808ED6A
:10093000FFF7EAFF34BF012000205DF808FB00BF8D
:100940004DF808EDFFF7E0FF94BF012000205DF8AF
:1009500008FB00BF4DF808EDFFF7CEFF94BF012064
:1009600000205DF808FB00BF4DF808EDFFF7C4FF5D
:1009700034BF012000205DF808FB00BF4FEA4102B0
:1009800012F5001215D211D56FF47873B3EB6252E1
:1009900012D94FEAC12343F0004343EA505311F008
:1009A000004F23FA02F018BF404270474FF000009A
:1009B000704750EA013005D111F0004008BF6FF0D8
:1009C000004070474FF00000704700BF4FEA4102FF
:1009D000B2F1E04324BFB3F5001CDCF1FE5C0DD99D
:1009E00001F0004C4FEAC0024CEA5070B2F1004FE7
:1009F00040EB830008BF20F00100704711F0804FEA
:100A000021D113F13872BCBF01F00040704741F4AE
:100A100080114FEA5252C2F11802C2F1200C10FAB2
:100A20000CF320FA02F018BF40F001004FEAC12396
:100A30004FEAD32303FA0CFC40EA0C0023FA02F33A
:100A40004FEA4303CCE77FEA625307D150EA013310
:100A50001EBF4FF0FE4040F44000704701F00040E0
:100A600040F0FE4040F40000704700BF7BB972B90F
:100A70000029BEBF00204FF0004106E008BF00285B
:100A80001CBF6FF000414FF0FF3000F0D3B9ADF163
:100A9000080C6DE904CE002909DB002B1ADB00F0FD
:100AA0004DF8DDF804E0DDE9022304B07047404270
:100AB00061EB4101002B1BDB00F040F8DDF804E0A6
:100AC000DDE9022304B0404261EB4101524263EB95
:100AD00043037047524263EB430300F02FF8DDF805
:100AE00004E0DDE9022304B0404261EB41017047BC
:100AF000524263EB430300F021F8DDF804E0DDE946
:100B0000022304B0524263EB4303704753B94AB91E
:100B1000002908BF00281CBF4FF0FF314FF0FF3005
:100B200000F088B9ADF1080C6DE904CE00F006F8CC
:100B3000DDF804E0DDE9022304B070472DE9F04759
:100B4000089D8E4604468846002B4AD18A421746A5
:100B500062D9B2FA82F64EB1C6F1200301FA06F864
:100B600020FA03F3B74043EA0808B4404FEA174EAF
:100B70001FFA87FCB8FBFEF1230C0EFB118843EA39
:100B8000084301FB0CF29A4209D9FB1801F1FF302E
:100B900080F0EA809A4240F2E78002393B449A1A98
:100BA000A3B2B2FBFEF00EFB102243EA024300FBAD
:100BB0000CFC9C4509D9FB1800F1FF3280F0D6806F
:100BC0009C4540F2D3803B44023840EA0140A3EB0D
:100BD0000C0300211DB1F3400022C5E90032BDE83D
:100BE000F0878B4205D90DB1C5E900010021084607
:100BF000F5E7B3FA83F1002946D1734502D3824267
:100C000000F20581841A6EEB030201209046002D4C
:100C1000E5D0C5E90048E2E7002A00F09080B2FA8A
:100C200082F6002E40F0A4808A1A030C4FEA174E79
:100C300080B2BCB20121B2FBFEFC0EFB1C2243EAD7
:100C4000024304FB0CF29A4207D9FB180CF1FF385F
:100C500002D29A4200F2E080C4469B1AB3FBFEF235
:100C60000EFB123340EA034302FB04F49C4207D913
:100C7000FB1802F1FF3002D29C4200F2CA80024609
:100C80001B1B42EA0C40A5E7C1F120068B4022FA6B
:100C900006F71F430EFA01F420FA06F32EFA06FEB9
:100CA0004FEA1749234300FA01F81FFA87FCBEFBFD
:100CB000F9F01C0C09FB10EE44EA0E4400FB0CFE9C
:100CC000A64502FA01F209D93C1900F1FF3A80F079
:100CD0009C80A64540F2998002383C44A4EB0E0467
:100CE0001FFA83FEB4FBF9F309FB13444EEA0444F4
:100CF00003FB0CFCA44508D93C1903F1FF3E80F02E
:100D00008280A4457FD9023B3C4443EA0040A4EBE7
:100D10000C04A0FB02EC64457346E14662D35FD04D
:100D20005DB1B8EB030264EB090404FA06F622FA9B
:100D300001F31E43CC40C5E9006400214FE7B1FB3D
:100D4000F2FC010C41EA0E4180B240EA01423B460E
:100D500038463C46B846BE462026B1FBF7F1A2EB2A
:100D6000080241EA0C4166E7014618E710462CE705
:100D7000C6F120022EFA02F3B740B14020FA02F287
:100D80004FEA174E0A43B3FBFEF8BCB20EFB183312
:100D9000110C41EA034108FB04F9B04089454FEAD0
:100DA000104380B23ED9791808F1FF3C01D2894541
:100DB0001FD8A1EB0901B1FBFEF909FB04F80EFBFA
:100DC000191192B242EA0142424529D2BA1809F1F8
:100DD000FF31C4D24245C2D2A9F102013A44BEE772
:100DE000F0459DD2BEEB02036CEB070C0138E146E7
:100DF00096E7A7EB09094944A8F1020CB1FBFEF9FB
:100E000009FB04F8DBE773467FE7504666E70846D0
:100E1000FDE63B44023A33E7ACF1020C3B441CE7ED
:100E200049469CE7A1EB0901C446B1FBFEF909FB69
:100E300004F8C4E7704700BFDFF834D0002103E0B6
:100E40000C4B5B58435004310B480C4B42189A42F0
:100E5000F6D30B4A02E0002342F8043B094B9A42C6
:100E6000F9D304F08DFE25F05BFA01F061F87047CC
:100E700000000320B06A1208000000206401002076
:100E800080030020103B0120FEE7704708B500F00A
:100E9000B9FDBDE8084000F03DBD00F0B5BD7047AC
:100EA00010B50421044622F03DFF204610BD00008D
:100EB00038B50C4B0C4C18800C4B822019806368A1
:100EC000984740F6110398420AD1094D23682C60D7
:100ED000822098472B688220DB689847002038BD25
:100EE0000120FCE7A60300204C000020A403002002
:100EF000A80300204FF4A071F020FFF7D9BF000035
:100F0000F7B5394D2B6804461B698220984720802D
:100F100000284ED02B680DF106025B6901A98220E2
:100F20009847324B1B78002B4BD0BDF8062040F67B
:100F300074639A423FD9ADF80630BDF806209B1A7B
:100F40009BB20A2B42D90B22B3FBF2F3284A128838
:100F5000934201D9013A93B2BDF80420254840F6E6
:100F6000B8318A4234D8C2F571620E32016892B249
:100F70000F25B2FBF5F2204D2D88AA4284BF05F162
:100F8000FF35AAB28A4215468EB22AD9921B91B277
:100F90001A4E3768BB42BAB28CBF9A1AD21A92B2B2
:100FA00011440529C4BF056033600368638033685A
:100FB000A38003B0F0BDB32A9CBFB422ADF80620D5
:100FC000BBE7BDF80630A3F5B473B9E70023C3E768
:100FD000C2F56D62083292B20E2A0168C8D80025A7
:100FE0002A46891A89B2D3E7A8030020901C002062
:100FF000A4030020A0030020A60300209C030020DF
:1010000037B568460D461446FFF77AFFBDF8000075
:1010100030B1BDF802302B60BDF8043023600120F0
:1010200003B030BD032821D8DFE800F0020B12190D
:101030000F4B1A68B2FA82F2520904210D4805F0EA
:10104000F7BA0B4B5A68B2FA82F252090821F5E757
:10105000074B9A68B2FA82F252091021EEE7044B6C
:10106000DA68B2FA82F252092021E7E7704700BF3E
:10107000AC03002000100240032821D8DFE800F074
:10108000020B12190F4B1A68003A18BF01220421F3
:101090000D4805F0CDBA0B4B5A68003A18BF012233
:1010A0000821F5E7074B9A68003A18BF0122102182
:1010B000EEE7044BDA68003A18BF01222021E7E787
:1010C000704700BFAC0300200010024003280DD879
:1010D000DFE800F00206080A0421054805F0ADBA71
:1010E0000821FAE71021F8E72021F6E7704700BF52
:1010F0000010024008B5032811D8DFE800F0020A0A
:101100000C0E0421074805F08DFA431E5842584141
:1011100008BD0821F6E71021F4E72021F2E70020BE
:10112000F3E700BF0010024070B5084D002401260F
:10113000E0B2FFF7DFFF18B12B68012B18BF2E605C
:101140000134052C05F10405F2D170BDAC0300207B
:10115000012380F8781080F87930704770470020BC
:1011600070470000034B4164003918BF012119701A
:10117000704700BFCF2D0120704700207047836B60
:101180000BB10846184770474FF6FF70704740682C
:1011900003689B69184770477047704770477047EE
:1011A00010B5044600F046FD23680349D3F890309B
:1011B0002046BDE810401847000000D008B503687D
:1011C0000446D3F88430984723682046DB6F98475D
:1011D00000F0ECF8236820465B6F9847292001F067
:1011E0007DF900F0E3F8236820465B6F9847F8E745
:1011F00010B504460AF0BCFC23682046D3F8BC3086
:10120000BDE81040184700F0F9BC00F0FDBC00F04C
:101210002FBD00F0CFBC00F03FBD00F047BD00F097
:10122000D3BC09F0D3BE10B58421044622F07AFD68
:10123000204610BD10B590F8341090F878400C4B53
:101240008C421A7809D03AB90A4A0B49148808889E
:1012500010800C8001221A7010BD002AFCD0054AB3
:1012600005491488088810800C800022F3E700BF2D
:10127000C82D0120C42D0120C62D012070B50D46BA
:10128000194635B9094B0A4A0A4840F2FF2124F0B1
:1012900047FDC0E90F52084B003A18BF01221A70EF
:1012A0000368BDE87040D3F890301847D071020849
:1012B0000872020856720208CE2D012008B5094BAB
:1012C0001B888B4203D8084B1B88934205D9074BD8
:1012D000074A0848A32124F023FD074B1980074B38
:1012E0001A8008BDC42D0120C62D01209B72020862
:1012F000FE72020856720208CA2D0120CC2D012070
:10130000034690F87A0018B1586803681B681847BC
:1013100070470000012108B50022084607F046FB8F
:101320000A4B186028B90A4B0A4A28210A4824F0B7
:10133000F7FC00220421012007F0D7FB074B1860BF
:1013400018B9074B034A2C21F0E708BDC003002061
:10135000417302088A730208B9730208BC030020B3
:1013600003740208024B4FF0FF31186807F068BBA6
:10137000C0030020014B186807F08EBBC00300209B
:10138000024B0021186807F05BBB00BFC0030020C0
:10139000FFF7F0BF03480449006800231A4607F02E
:1013A000DFBB00BFBC0300200400002013B5084CC5
:1013B00000231A4601A9206807F003FC20684FF0BB
:1013C000FF33002201A907F0FCFB02B010BD00BFF3
:1013D000BC03002003685B6C18470120704703685A
:1013E0009B6A1847FEE740F2EF307047054B0360F9
:1013F000054B4FF08062C3F88820BFF34F8FBFF3D7
:101400006F8F7047F881020800E100E010B50446D4
:101410004FF45A61FFF7EAFF204622F083FC204692
:1014200010BD000082B0002301930E4B1A6B42F4F2
:1014300000021A631A6B02F400020192019A1A69FF
:1014400042F400021A611A6922F400021A61064B82
:10145000064A1A61064A5A61064B4FF080629A604A
:1014600002B07047003802406C1E0020C51600080C
:10147000E513000800E100E008B50A2809D8DFE814
:1014800000F006100E0808080810101010000220C6
:1014900008BD054B054A0648902124F041FC002078
:1014A000F6E70120F4E700BF457402086074020803
:1014B000AB74020838B50C46887FFFF7DDFFA58ABC
:1014C000E28A164B2169586342EA05425A64628BEC
:1014D000D963521B1A642568082D0ED19A611A61CE
:1014E0005862207F0E4A42EA0062DA61E2681A62BC
:1014F0000C4A5961D9601A6038BD0022D8611A615E
:10150000E1680A0A480902F4784200F4FC600243E8
:10151000C1F3C4010A439A63034AECE700B00240F6
:1015200009000100012302000123030008B50B2874
:101530000BD8DFE800F00612100A0A0A0A080808A9
:101540000808022008BD0520FCE7054B054A0648AF
:101550006F2124F0E5FB0020F4E70120F2E700BF53
:1015600045740208F3740208AB7402082DE9F041D7
:1015700091F81D800C464046FFF7D8FFA77F05462F
:101580003846FFF7D3FF06463846FFF775FFA18AB6
:10159000628B444B521A1A649A61228B521A1A6156
:1015A000E28A586342EA01425A6421696268D96357
:1015B000DA602068802828D0227F0FD8202867D0C2
:1015C000402865D004281AD0364B45EA026545F418
:1015D0000035B845DD6161D0334A44E0B0F5807F25
:1015E00004D0B0F5007FEFD1304800E0304840EA49
:1015F0000262DA61E2681A625E62596132E045EACB
:10160000026242F40032DA61F6E7A068021DDA6293
:10161000227F45EA026545F40035DD615E6259616D
:10162000017841B1012921D0224B234A23484FF4AC
:101630008D7124F075FBDA69418822F47F4201390B
:1016400022F0100242EA0122DA610121154BDA6927
:1016500042F02002DA61DA699206FCD410229A6024
:101660000029B9D0164A1A60BDE8F081B2F1FF0135
:10167000DA69408822F47F4200F1FF3022F0100244
:1016800042EA002242F0100218BF0121DA61DDE7D0
:1016900045EA0262034B42F40032B4E742F20132FF
:1016A000E1E700BF00B00240012301000900020091
:1016B0000A0002003D75020857750208AB74020863
:1016C00001230200024B1B68586803685B691847D6
:1016D000D02D012070B5044625460A4B0C3000265B
:1016E00060602672667245F8203B602229460AF047
:1016F00095FB04F55A63EE6024359D42FBD12046EC
:1017000070BD00BFF8810208034B1A68D207FCD4F1
:1017100023229A60704700BF00B00240704700006B
:1017200030B50F4C2568ED07FCD423250904A560CE
:1017300041F001010225FF2B65636164E0630AD07B
:101740000849656241EA0363E361074B2262606115
:10175000E060236030BDE561039BA363034BF8E7C2
:1017600000B0024009000100010002000100030076
:1017700030B50E4C2568ED07FCD423251204A56076
:1017800042F001020225FF2B65636264E063E160C1
:1017900008D01B0643F00213E361054B65626061EC
:1017A000236030BD034BE3610123F9E700B0024041
:1017B00001000200020002FF30B50B4C2568ED0766
:1017C000FCD4232512041B06A56043F40033022534
:1017D00042F0010265636264E063E160E361034B30
:1017E00065626061236030BD00B00240010002000C
:1017F000012070471020704700EB0110083070473F
:1018000000EB0110083070470120704740F27C70F7
:10181000704740F27C7303FB01000830704740F2D0
:101820007C7303FB010008307047012070471020D3
:10183000704700EB01100830704700EB01100830D2
:101840007047084601F064BE10B5034B03600446C0
:1018500009F011F9204610BDB082020810B5044607
:10186000FFF7F2FF2046182122F05CFA204610BD57
:1018700010B5034B0360044609F0FDF8204610BD87
:101880007C82020810B50446FFF7F2FF204640F2C2
:10189000847122F047FA204610BD000010B5034BBA
:1018A0000360044609F0E7F8204610BD48820208AC
:1018B00010B50446FFF7F2FF2046182122F032FA55
:1018C000204610BD10B5084B0360044600F5F660D5
:1018D000FFF7BAFF04F12C00FFF7CAFF04F1140070
:1018E000FFF7DCFF204610BDE482020808B502487D
:1018F000FFF7E8FF08BD00BF9C12002010B50446AA
:10190000FFF7E0FF204640F62C1122F00BFA2046AC
:1019100010BD00002DE9F34101F0EAF9054601F0A0
:10192000EBF900240146234628462246009413F092
:1019300047F9274B274A1A60204602F027FC264D1C
:10194000264B274A27489A6013F0A2F82B68BFF36A
:101950005B8FDB0735D4284622F0E6F988B3224CAA
:10196000224B236004F5FA6604F1140004F12C08FC
:1019700004F5F6676060C4F80880E760266109F046
:101980007BF81B4B6361404609F076F8194BE36224
:10199000384609F071F8184BC4F8B03704F5F9600F
:1019A00002F0D8FC224604F5F961304602F068FCEA
:1019B000304601F0ADFD114824F0D0F9284622F060
:1019C000BFF90F4802B0BDE8F041FFF7E9BB00BF27
:1019D000342E0120480400209812002068040020C2
:1019E0004C040020080000209C120020E482020821
:1019F000488202087C820208B0820208ED180008C2
:101A0000C4030020704700000148FFF7D7BB00BFA8
:101A1000C403002070B5264E264C274D274B23606B
:101A20003046FFF757FE284618F0D0F9244810F04A
:101A300083FD244B2448DC6000224FF48071C3E90D
:101A4000121222491A86C3E91A12214983F8582032
:101A5000C3E91E011F49C3F880101F491F480B60CE
:101A6000F021C3E90422C3E90622C3E90822C3E93D
:101A70000A22C3E90E22C3E91022C3E91422C3E9F2
:101A800017225A6683F870205A67C3E901650180FE
:101A90001348018013484FF4A0710180124801805F
:101AA00012490A70012283F83420114A1A6070BD6D
:101AB000F40400209412002068040020C071020881
:101AC0004C040020C40300200000010101000001BB
:101AD000000450001A001400D02D0120C42D012054
:101AE000CA2D0120C62D0120CC2D0120C82D01209A
:101AF0000C8102080148FFF779BC00BFF404002004
:101B00000020704781807047C18070470181704715
:101B1000418170477047704770477047704710B4F5
:101B2000C4880368121B84885B6D091B12B25DF8C0
:101B3000044B09B218474FF6FF7383814FF0FF3310
:101B400003621368C36110607047002070478B8880
:101B5000838001207047704780F82610704790F806
:101B60002600704710B50022B1F90840B1F90A10FB
:101B7000028042808480C18010BD002202804280A9
:101B80008280C28070470177704780ED080A7047F5
:101B900080F82410704780F82510704701207047A6
:101BA000983070478C30704784307047704770476A
:101BB00070470000034B902283F85A2383F8582380
:101BC000704700BF00E100E0094A0A49D3680A48AB
:101BD000C3F30A03013B9BB20B801169C1F30A01F5
:101BE000013901801364536B43F001035363704761
:101BF00000680140CA1B0020C81B0020014BD3F81D
:101C0000AC00704700680140024B0122C3F8AC10E1
:101C10005A6270470068014010B52C21044622F03A
:101C200081F8204610BD10B5BC21044622F07AF898
:101C3000204610BD70B5044609F01DFA23689D6E5C
:101C40000FF0EAF901462046A8472368054AD3F871
:101C50008C502046AC460023BDE87040A2F51631FA
:101C6000604700BF00B004D009F0ECB909F0F6B944
:101C700009F0B2B909F021BB90F8252012B1036830
:101C80005B691847704790F825201AB190F8242016
:101C900002B1186070470000034B4FF080629A60F9
:101CA0004FF080729A60704700E100E0084B4FF0FF
:101CB0008062C3F88820BFF34F8FBFF36F8F4FF060
:101CC0008072C3F88820BFF34F8FBFF36F8F7047C8
:101CD00000E100E070B50023124E8380124B0360D8
:101CE000336893F8582005460AB1D86C00B9986853
:101CF0000368DB6A98473368B0FA80F4D86C6409EB
:101D000030B10368DB6A9847002808BF44F001043B
:101D10002CB9064B064A07482C2124F001F8284626
:101D200070BD00BFD02D0120F88202089575020811
:101D3000F37502082C76020870B5254E3568BFF39E
:101D40005B8F15F0010540D1304621F0EDFF0028F2
:101D50003BD0204C204B256104F13400C4E9003510
:101D6000C4E90255E584A562A58510F0CAFE04F118
:101D700058000BF009FD194BA3652046184B40F89D
:101D8000843BFFF7A7FF174BC4F884302433C4F813
:101D90008C304FF4C803C4E928350023C4F8AC30B4
:101DA000C4F8B030C4F8B430C4F8B8300E480F4BA3
:101DB000C4F89050C4F89C50C4F8A850C4F89830A7
:101DC00023F0CCFF304621F0BBFF024870BD00BFBE
:101DD000CC1B0020D01B0020788A02081883020840
:101DE000908302082C8A0208B11B00080C8A0208A2
:101DF00038B5184C23685BB3174B184A1B6C118815
:101E00008B4216D1164B198805F01AFA236893F8FD
:101E10006A200025013283F86A2083F87C50FFF79E
:101E2000B9FA206809F0A4FE2846BDE83840FFF75B
:101E3000F9B805F005FA2468236820461B6A98471C
:101E4000012384F87C300020BDE83840FFF714B946
:101E500038BD00BFD02D012000680140CA1B002002
:101E6000C81B002007B5064BADF806001B680548E7
:101E700001220DF1060105F093FF03B05DF804FBAC
:101E80000C000020181D002008B5642006F082FD1B
:101E9000FBE7000030B595B0102200210AA824F01D
:101EA00096F91422002103A824F091F900241E4B76
:101EB00001941A6C42F080521A641B6C03F0805338
:101EC0000193019B194B02941A6842F440421A6034
:101ED0001B6803F4404302930122029B4FF48033BA
:101EE000CDE9082302254FF480030821CDE90E53E4
:101EF0004FF4B473CDE9101308A80423139312957B
:101F000005F0F6F905F0BAF90F23CDE903354FF4E2
:101F1000A0504FF48053CDE90603052103A8059492
:101F200005F0C2FB15B030BD003802400070004023
:101F30002DE980489BB003F031FEFFF7ABFF142280
:101F400000210DA824F043F90024C84B00941A6B1B
:101F5000C74842F010021A631A6B02F01002009296
:101F6000009A01941A6B42F020021A631A6B02F075
:101F700020020192019A02941A6B42F080021A63C5
:101F80001A6B02F080020292029A03941A6B42F0DA
:101F900004021A631A6B02F004020392039A049477
:101FA0001A6B42F001021A631A6B02F001020492EA
:101FB000049A05941A6B42F002021A631A6B02F03B
:101FC00002020592059A06941A6B42F040021A63C7
:101FD0001A6B02F040020692069A07941A6B42F0BE
:101FE00008021A631B6B03F00803224607933C2187
:101FF000079B04F01DFB9F480122022104F018FBFF
:1020000022469C48042104F013FB22469A484FF4D0
:10201000405104F00DFB01263C23032594480F9406
:102020000DA9CDE90D36109504F018FA0623914854
:102030000DA9CDE90D364FF01008CDE90F4404F09D
:102040000DFA8C480F940DA90227CDE90D8504F0F7
:1020500005FA0DA94FF4405387480F94CDE90D368A
:10206000109704F0FBF98548854B864D036004F01A
:10207000EBF8DFF838C2844B2C62C5E900C3284670
:102080004FF48043C5E90434C5E90244C5E9064478
:1020900004F0DCFC4146284604F020FF2146284697
:1020A00004F03BFF794DDFF808E2AC624FF4827335
:1020B000C5E900E34FF400781823C5E906832846F4
:1020C0000A23C5E90244C5E90444C5E90844EB62B2
:1020D00005F00AFE8F232246394666488DF82430E3
:1020E0008DF8344004F0A4FA32464FF47A7309A90B
:1020F000284605F055FE4FF47A7332460DA928465E
:1021000005F0FAFF324639465A48614D04F090FA1C
:102110009DF83430D32B04BF5E4B1E705E4B0126FE
:10212000C5E90036102740230024C5E904734FF4A5
:10213000C073C5E906344FF40063C5E908344FF4B1
:1021400000534FF002094FF0040AAB624FF0030B4B
:1021500007230DA92846CDE90D93CDE90FA34FF034
:102160000808C5E9024ACDE911B9CDF84C9005F04F
:102170009FFC4FF6FF7209A92846CDE90A8608940C
:1021800009960C9405F0B4FC304603F033FD4FF68D
:10219000FF7209A92846CDE90998CDE90B6405F03D
:1021A000A7FC4FF6FF7209A92846CDE909B8CDE989
:1021B0000BA405F09DFC4FF40C730893089B0C9343
:1021C0004FF6FF7209A92846CDE909A80B9605F03C
:1021D0008FFC40F26A51284605F0A8FC34222146C3
:1021E0000DEB020023F0F3FF2C4D2D4B2C61C5E9C4
:1021F00000340923C5E905361D23C5E9073B40F234
:102200000D1240F24313C5E9092340F2171140F2C1
:1022100047132846C5E90B13C5E90244AC8685F887
:10222000364004F015FFFF21F022CDE912144FF0E3
:1022300005084FF480614FF4A073CDE90E24CDE979
:102240001418CDE916420DA922462846CDE91039C9
:10225000144D18930D94ADF864408DF8664004F069
:10226000C2FF114B2B601B68984723E000380240E7
:102270000010024000080240000C0240AC1E00208A
:1022800000300240181E0020A0860100181D00200A
:102290009C1C0020901C0020400100A0701D00200C
:1022A000006801408C1C002014000020005C0040ED
:1022B000005001402B683E4DDB6898473D4B284657
:1022C000C5E90034C5E90294C5E90A49C5E90C44E9
:1022D00003F0CAFF3146284604F07CF8364D3748F3
:1022E000DFF8049104614FF4E133C0E900530C239B
:1022F000334DC461C0E90534C0E9024406F0B8F9C1
:102300003A4621460DA823F062FF2E4BAC604FF4F5
:10231000803A2846C5E9003A2C612C7685F82040A1
:10232000EC62C5F82890EC60EE6185F830406E6193
:1023300003F074FC0D230DA92846CDE90D36224D7E
:102340000F9403F091FE3A4621460DA823F03FFF7B
:102350001E4BAC602846C5E9003AC5E90A942C61D9
:102360002C7685F82040EC60EE6185F830406E6197
:1023700003F054FC0DA92846CDE90D860F9403F017
:1023800073FEFEF783FDFEF780FD06F093FA104A18
:102390001048214606F0BAFA0F4B104A1860214641
:1023A0000F4806F0B3FA0F4B186006F095FAFEE7F7
:1023B0006C1E002000B0024000100140D01C002024
:1023C000FC1E002000200140B41E0020002101401E
:1023D000F8830208891E0008981C0020D483020894
:1023E0009B0E0008941C00200100000F70477047EE
:1023F0007FB5094B8DF817201B6802930DF117026A
:102400000123009201930A460146044804F0C6FBEA
:1024100007B05DF804FB00BF10000020181E00206C
:102420007FB500238DF81730084B1B6802930A46CE
:1024300001230DF11701009101930146044804F0B6
:102440003DFC9DF8170007B05DF804FB100000206C
:10245000181E00201FB5084C24680092CDE90134F5
:102460000A4601230146054804F028FC003818BF3D
:10247000012004B010BD00BF10000020181E002075
:1024800003F0B8BB10B5064C00222046042104F02E
:10249000CFF820460122BDE81040042104F0C8B85E
:1024A0000008024038B50B4D044601220A484FF49B
:1024B000005104F0BDF800220421284604F0B8F8C9
:1024C0002046FFF7CFFC28460122BDE83840042112
:1024D00004F0AEB800080240000C024038B50B4DC5
:1024E000044600220A484FF4005104F0A1F80022EB
:1024F0000421284604F09CF82046FFF7B3FC284648
:102500000122BDE83840042104F092B800080240DE
:10251000000C0240F7B5144E144F05460C463046E9
:102520000022042104F084F800224FF400513846C0
:1025300004F07EF82846FFF795FC0D4B0D481B680C
:10254000224601A905F0D8FD384601224FF400517A
:10255000019C04F06DF830460122042104F068F873
:10256000204603B0F0BD00BF00080240000C02404E
:102570000C000020181D002003F03CBB0268034B38
:102580009A4201D103F024BB704700BF0010004005
:102590007047000082B00E4B00220092596C41F44B
:1025A00080415964596C01F4804100910099019275
:1025B000196C41F0805119641B6C03F08053019336
:1025C000019B0F216FF0010002B003F0FDBD00BFC1
:1025D0000038024010B514228AB0044600210DEBE9
:1025E000020023F0F4FD2368254A934227D1254BAE
:1025F0002548002401945A6C42F480725A645A6C43
:1026000002F480720192019A02941A6B42F0040261
:102610001A631B6B03F0040302930821029B03233C
:10262000CDE9051305A903F019FF12202246052163
:1026300003F0CAFD122003F0F9FD0AB010BD134AE1
:102640009342FAD10F4B1248002403945A6C42F47F
:1026500000725A645A6C02F400720392039A049452
:102660001A6B42F001021A631B6B03F0010304931F
:10267000049B20220323CDE9052305A9D3E700BF4E
:1026800000200140003802400008024000210140C3
:10269000000002400268094B9A4282B00BD100232D
:1026A0000193074B1A6B42F480521A631B6B03F4BD
:1026B00080530193019B02B0704700BF003002407D
:1026C0000038024007B50F4B02689A4216D100222B
:1026D000A3F5F0430192196B41F4000119631B6BE0
:1026E00003F40003019305215A20019B03F06CFDC4
:1026F0005A2003B05DF804EB03F098BD03B05DF819
:1027000004FB00BF00B002402DE9F043044689B04D
:102710001422002103A823F05AFD2268244B9A4278
:1027200043D1244C244800250095236B43F0040337
:102730002363236B03F004030093009B0195236B39
:1027400043F001032363236B03F001030193019B17
:102750004FF012094FF400734FF0010803270426CD
:1027600003A9CDE90339CDE90587079603F076FE85
:102770004FF480731148079603A9CDE90339CDE9D9
:10278000058703F06BFE0295236C43F4000323647A
:10279000236C03F400030293029B236A43F40003B7
:1027A0002362236A23F40003236209B0BDE8F083A7
:1027B000005C004000380240000802400000024077
:1027C000F0B599B004461422002107A823F0FFFCBD
:1027D00030220DEB0200002123F0F9FC22685E4B51
:1027E0009A4240F0B78008230C93C023109304232F
:1027F00012930CA84FF40033159305F02DF808B18F
:10280000FFF7C6FE554B5648002400945A6C42F020
:1028100080625A645A6C02F080620092009A0194BD
:102820001A6B42F020021A631A6B02F02002019226
:10283000019A02941A6B42F001021A631A6B02F0B9
:1028400001020292029A03941A6B42F002021A6386
:102850001A6B02F002020392039A04941A6B42F07C
:1028600040021A631A6B02F040020492049A059423
:102870001A6B42F004021A631A6B02F0040205920A
:10288000059A06941A6B42F008021A631B6B03F058
:102890000803069302250E26069B0B964FF48063D1
:1028A00007A9CDE90735CDE9094503F0D7FD41F684
:1028B00058032C480B9607A9CDE907350927CDE920
:1028C000094503F0CBFD032327480B9707A9CDE962
:1028D0000735CDE9094503F0C1FD4FF47063224887
:1028E0000B9607A9CDE90735CDE9094503F0B6FDFB
:1028F0004FF40C631D480B9607A9CDE90735CDE9C8
:10290000094503F0ABFDC02319480B9607A9CDE993
:102910000735CDE9094503F0A1FD082315480B96BD
:1029200007A9CDE90735CDE9094503F097FD4FF437
:10293000A0530E480B9707A9CDE90735CDE9094506
:1029400003F08CFD58202246052103F03DFC582061
:1029500003F06CFC19B0F0BD006801400038024083
:10296000001402400000024000040240001802402F
:1029700000080240000C024010B5044688B0142242
:10298000002103A823F023FC2268144B9A4223D190
:1029900003F56843002101915A6C114842F48012FA
:1029A0005A645A6C02F480120192019A02911A6BD5
:1029B00042F020021A631B6B03F020030293029B78
:1029C0004FF4607202230321CDE903230523CDE9EF
:1029D000061303A903F042FD08B010BD00500140EA
:1029E0000014024010B5044688B01422002103A848
:1029F00023F0EDFB2268144B9A4223D103F5943364
:102A0000002101915A6C114842F010025A645A6C2C
:102A100002F010020192019A02911A6B42F0010237
:102A20001A631B6B03F001030293029B4FF4C06215
:102A300002230321CDE903230723CDE9061303A9CC
:102A400003F00CFD08B010BD001001400000024072
:102A50002DE9F04186B0002303932B4B1C68002C1A
:102A60004FD14FF00108C3F80080284B00949A6BB7
:102A7000274842EA08029A639B6B03EA0803009323
:102A8000022703260C25009B01A94FF63F03CDE941
:102A90000137CDE9046503F0E1FC1E48059501A965
:102AA000CDE90187CDE9034603F0D8FC48F23313A2
:102AB0001948059501A9CDE90137CDE9034603F091
:102AC000CDFC4FF683731548059501A9CDE9013773
:102AD000CDE9034603F0C2FC4CF2037310480595A0
:102AE00001A9CDE90137CDE9034603F0B7FC602326
:102AF0000C48059501A9CDE90137CDE9034603F05E
:102B0000ADFC06B0BDE8F081441F00200038024053
:102B10000014024000080240001802400010024069
:102B2000000C02400004024070B588B000230293FC
:102B3000204B1A6C42F010021A641B6C03F0100355
:102B40000293054601A903A8029B04F067FE069BB9
:102B50004BBB04F043FE184E184B336040F2E73392
:102B6000F360174BB0FBF3F3013B73603046002377
:102B70003361B360B36105F08FFC044680B9304621
:102B800005F060FB044658B9362003F04FFB0F2DCB
:102B90000DD822462946362003F016FB094B1D604E
:102BA000204608B070BD04F019FE4000D3E70124B0
:102BB000F6E700BF00380240481F00200010004028
:102BC00040420F007C0000207047FEE7FEE7FEE772
:102BD000FEE7704708B5044803F0B8F9BDE80840BF
:102BE000024803F0B3B900BFFC1E0020B41E002051
:102BF000014805F065BB00BF481F0020014804F0F4
:102C000095BA00BF701D0020014803F059BB00BFFA
:102C10006C1E00200120704708B523F07BFB1623B3
:102C200003604FF0FF3008BD08B523F073FB162397
:102C30000360FEE770B50D4614460E46731B9C42BA
:102C400001DC204670BDAFF3008006F8010BF5E70C
:102C500070B50D4614460E46731B9C4201DC20469F
:102C600070BD16F8010BAFF30080F5E74FF0FF30B1
:102C700070474FF400534B600020704701207047AD
:102C8000002070470A4A116808B5034609B9094986
:102C900011601068694603448B4206D923F03AFB61
:102CA0000C2303604FF0FF3008BD1360FCE700BF4A
:102CB000901F0020103B0120704710B504210446EE
:102CC00021F030F8204610BD012908B506D00229B0
:102CD00008D059B901F0A6FA006808BD01F0A2FABF
:102CE0004068FAE701F09EFA8068F6E70020F4E712
:102CF00000487047308402080A20704713B500244A
:102D000051B1036801948DF8034001AA9C680DF14C
:102D10000303A04702B010BD0846FBE7C089704717
:102D2000008A7047C088704780887047807A00F0BA
:102D30007F007047807AC00970470020704700000C
:102D40009FED010A704700BF00000000704710B5FA
:102D50000821044620F0E6FF204610BD704770476A
:102D600000F598730868496803C370477047704757
:102D70004160704770477047064BC0F84C310023E4
:102D8000C0F8503100F5A273C0F84801C0F84031D6
:102D9000704700BF45330008012303727047704736
:102DA000704738B5054640680368DB6998470446B4
:102DB00004B938BDA188AB89C91A236820461B6BAA
:102DC00009B29847A469F3E710B4C2684168541087
:102DD000034601EB6200D20748BF0A599B685DF8C1
:102DE000044B48BFD35818470346406830B19A682F
:102DF0001AB9D86800F0010070470120704710B57B
:102E00000C21044620F08EFF204610BD10B5102185
:102E1000044620F087FF204610BD10B5102104465F
:102E200020F080FF204610BD10B54FF4AE7104466F
:102E300020F078FF204610BD10B50EF0EDF80368C5
:102E4000BDE81040DB6B184710B50EF0E5F80368DD
:102E5000BDE810405B6B184737B50546807A6B7A42
:102E60000130C0B29842A87205D901232B72002309
:102E7000AB7203B030BDB5F90C20B5F90E4000219E
:102E800010F0CAFAC30707D500284FF6FF73C8BF72
:102E9000012313FA80F000B2AB7AE881041B012B06
:102EA000A4B206D1174B1B781BB10EF0B5F80EF08B
:102EB000B9F8154A00231288ADF80230EB891A449C
:102EC0005B42ADF80430114BADF800201B88ADF823
:102ED00006300EF0A1F8036802AA12E906001B6C86
:102EE000984768680368DB6998470546002DC0D09D
:102EF000A9882B68214428461B6B09B29847AD6905
:102F0000F4E700BFCE2D0120C42D0120C62D0120E5
:102F100010B50446D0F8400158B10368DB68984703
:102F200038B1D4F8400103689B6898470023C4F87F
:102F3000403110BD2DE9F14FD0E9556A0746B06820
:102F400003681B6A9847B0F5DE7F05D2444B454ABB
:102F5000A321454822F0E4FE706803681B6A984785
:102F60000F2803D8414B3F4AA421F2E7F0680368D9
:102F70001B6A98470B2803D83D4B3A4AA521E8E73E
:102F80000EF04AF8DFF8F09004300EF092F8D9F81D
:102F9000000010B10368DB689847D9F8000010B151
:102FA00003681B689847DFF8D480D8F8000010B198
:102FB00003685B699847D7F83C0110B103685B6808
:102FC0009847D8F8000010B103681B689847D7F8F5
:102FD0003C0110B103689B689847F06803680021C2
:102FE0005B6A98474FF0000B224BC0F804B00446D0
:102FF00080F808B00360B068036859465B6A984778
:10300000054601F07FF97068036859465B6A984786
:103010002946064601F054F9331DC7F83C61CAF849
:1030200004302B68C6F808A02846DB68C9F80040C1
:10303000C8F80050EE639847336830461B689847DD
:103040002146284610F0E2F9236820461B6998477C
:1030500023685B69204601B0BDE8F04F184700BF08
:10306000A376020831770208057802084C78020836
:10307000EF7802087C850208182E0120142E01200A
:103080002DE9F14FD0E9556A0746B06803681B6A1D
:10309000984740F27B73984205D8494B494AA3218F
:1030A000494822F03DFE706803681B6A98470F2864
:1030B00003D8464B434AA421F2E7F06803681B6A31
:1030C00098470F2803D8424B3E4AA521E8E70DF068
:1030D000A3FFDFF8089104300DF0EBFFD9F80000F2
:1030E00010B10368DB689847D9F8000010B1036895
:1030F0001B689847DFF8E880D8F8000010B1036833
:103100005B699847D7F83C0110B103685B68984742
:10311000D8F8000010B103681B689847D7F83C0145
:1031200010B103689B689847F068036800215B6AE8
:103130009847284B03604FF4A0530381264B1B880C
:103140004FF0000B80F80AB05B420446C0F804B0B0
:10315000A0F80EB08381B068036859465B6A98474F
:10316000054601F09BF97068036859465B6A984709
:103170002946064601F03EF9331DC7F83C61CAF8FE
:1031800004302B68C6F808A02846DB68C9F8004060
:10319000C8F80050EE639847336830461B6898477C
:1031A0002146284610F032F9236820461B699847CB
:1031B00023685B69204601B0BDE8F04F184700BFA7
:1031C000A376020892790208057802084C78020872
:1031D000EF780208A0850208C42D0120182E0120D6
:1031E000142E01202DE9F14FD0E9556A0746B06849
:1031F00003681B6A9847B0F58E7F05D2484B494A51
:10320000A321494822F08CFD706803681B6A984727
:103210000F2803D8454B434AA421F2E7F06803681E
:103220001B6A98470F2803D8414B3E4AA521E8E77F
:103230000DF0F2FEDFF8049104300DF03AFFD9F8FA
:10324000000010B10368DB689847D9F8000010B19E
:1032500003681B689847DFF8E880D8F8000010B1D1
:1032600003685B699847D7F83C0110B103685B6855
:103270009847D8F8000010B103681B689847D7F842
:103280003C0110B103689B689847F068036800210F
:103290005B6A9847274B03604FF4A0530381264B8A
:1032A0001B884FF0000B80F80AB05B420446C0F860
:1032B00004B0A0F80EB08381B068036859465B6A19
:1032C0009847054601F07CF87068036859465B6AC8
:1032D00098472946064601F051F8331DC7F83C616E
:1032E000CAF804302B68C6F808A02846DB68C9F87D
:1032F0000040C8F80050EE639847336830461B68BA
:1033000098472146284610F081F8236820461B691B
:10331000984723685B69204601B0BDE8F04F184725
:10332000A3760208777A0208057802084C7802082A
:10333000EF780208A0850208C42D0120182E012074
:10334000142E01202DE9F14FD0E9556A0746B068E7
:1033500003681B6A9847B0F58E7F05D2444B454AF7
:10336000A321454822F0DCFC706803681B6A98477B
:103370000F2803D8414B3F4AA421F2E7F0680368C5
:103380001B6A98470B2803D83D4B3A4AA521E8E72A
:103390000DF042FEDFF8F09004300DF08AFED9F80F
:1033A000000010B10368DB689847D9F8000010B13D
:1033B00003681B689847DFF8D480D8F8000010B184
:1033C00003685B699847D7F83C0110B103685B68F4
:1033D0009847D8F8000010B103681B689847D7F8E1
:1033E0003C0110B103689B689847F06803680021AE
:1033F0005B6A98474FF0000B224BC0F804B00446BC
:1034000080F808B00360B068036859465B6A984763
:10341000054600F0D5FF7068036859465B6A984717
:103420002946064600F0AAFF331DC7F83C61CAF8DA
:1034300004302B68C6F808A02846DB68C9F80040AD
:10344000C8F80050EE639847336830461B689847C9
:10345000214628460FF0DAFF236820461B6998476B
:1034600023685B69204601B0BDE8F04F184700BFF4
:10347000A37602085C7B0208057802084C780208F3
:10348000EF7802087C850208182E0120142E0120F6
:10349000044B1B6893F858200AB1D86C00B998689F
:1034A000704700BFD02D0120F8B5174604460E46E0
:1034B0000DF09CFE124B1C60124B2360124B00253A
:1034C000C4E95135114BC4E953551868036801210B
:1034D0009B68C4E94F55C4E955769847284600F0E3
:1034E00055FEFFF7D5FF18F01AFBFFF7D1FF18F0D4
:1034F00091FBFFF7CDFF18F099FB2046F8BD00BF08
:10350000242E01202885020810850208D02D0120D4
:10351000064BC0F84C310023C0F8503100F5A273BF
:10352000C0F84801C0F84031704700BF453300087B
:10353000064BC0F84C310023C0F8503100F5A2739F
:10354000C0F84801C0F84031704700BFE5310008BD
:10355000064BC0F84C310023C0F8503100F5A2737F
:10356000C0F84801C0F84031704700BF8130000802
:10357000064BC0F84C310023C0F8503100F5A2735F
:10358000C0F84801C0F84031704700BF352F00082F
:103590007047704770477047704730B5036885B013
:1035A0006D460181D3F88430014604462846984789
:1035B00095E807003C3484E8070005B030BD30B51D
:1035C000036885B06D464181D3F8843001460446D6
:1035D0002846984795E807003C3484E8070005B082
:1035E00030BD0022028042808280C280704780F815
:1035F0003610704770B5036804461B6B1546984734
:103600002368294620465B6EBDE8704018470020BD
:103610007047806C7047704770477047704730B490
:10362000C26844685510034604EB6200D20748BFE5
:1036300062599B6830BC48BFD3581847034640685E
:1036400030B19A681AB9D86800F0010070470120BB
:10365000704710B54C21044620F064FB204610BD95
:1036600010B51021044620F05DFB204610BD10B5BA
:103670004FF4D871044620F055FB204610BD08B524
:10368000FEF7FAFA08BD0000036870B55E6B124BD6
:103690001B6804468DB22BB9104B114A6C2111489E
:1036A00022F03EFB1049828D0988914203D80F4BCE
:1036B0000B4A6D21F3E713F812200D4B1B6853F8EA
:1036C000220003681B6B9847291A3346204609B22B
:1036D000BDE87040184700BF282E01202E7C02084C
:1036E000707C0208AB7C02082C2E0120F27C0208C0
:1036F000302E012000F5AC70884208B505D10DF0E0
:103700008BFCBDE80840FFF713BF08BD00224FF057
:10371000FF31C0E900218260704770B5036804463C
:103720001B6B154698472368294620465B6BBDE80E
:103730007040184770B504461D46BDF91060FFF78C
:10374000ECFF2368294620469B6B98472368314647
:103750002046DB6BBDE8704018470000094A026054
:103760004FF4807100228184FF21C0E90122C0E969
:103770000322C0E90522C0E9072280F826108262F0
:10378000704700BF408C02084FF4807181840D495E
:1037900001600D4981624FF6FF7181854FF47F0111
:1037A000002241634FF0FF31C0E90122C0E903224A
:1037B000C0E90522C0E90722C0E9101202630287AE
:1037C000C2637047B08B020800850208F8B5194B38
:1037D000018F1B888B4206462AD9174B1B682BB9D1
:1037E000164B174A17486C2122F09AFA13F8112049
:1037F000154B1B6853F82250144B186800F002FD5B
:103800002B6807469B6B284698472B6804469B6CA1
:103810003946284698472B6814FB00F45B6A394602
:1038200028469847A4B223181BB2A6F84630F8BD24
:103830000023FAE72C2E0120282E01202E7C0208DE
:10384000707C0208AB7C0208302E0120342E01204F
:103850002DE9F04F04468DB0264600250FF02AFCD6
:10386000624BE56346F8403B3046FFF777FF04F1D3
:103870006C0318460293FFF771FF04F1980304F1FB
:10388000C40B184604F5867A0393FFF767FF584682
:10389000FFF77AFF5046FFF777FF04F5AC78544BFB
:1038A000C4F80C31C4F8545140460AF0EDFF514BB6
:1038B000C4E96834504BC4E96A354FF4A0732A4612
:1038C000009329463046F023FFF734FF271D4FF0C1
:1038D0007F43A3663146384607F0E2F832234FF0C3
:1038E000FF3900932A4602982946FFF723FF0299E1
:1038F000C4F89490384607F0D3F84FF4A0732A46E2
:10390000039800932946F023FFF714FF0399C4F8A6
:10391000C090384607F0C4F84D2249465846FFF794
:10392000FCFE04AE4FF07F43C4F8F430A4F8F85026
:10393000594630460AF03AFA96E8070004F58073D3
:1039400083E807002D4B0A9303220AA95846ADF8D5
:103950002C200AF0D3FC5946384607F0A1F850460F
:1039600094224A21FFF7D9FED4F80C21A4F8405143
:103970004FF07F43C4F83C3151463046D2F88420A2
:10398000904796E8070004F5A47C1C4B0A938CE84A
:10399000070002230AA95046ADF82C300AF0AEFC0D
:1039A0005146384607F07CF84046D2224121FFF7C5
:1039B000B4FE0AAA09A9ADF8245040460125ADF885
:1039C00028500AF0F8FC4046A4F89051FFF7FEFE9C
:1039D00004F5D0733846C4E96599C4F8803141468E
:1039E00007F05EF820460DB0BDE8F08F6C86020847
:1039F000C485020854860208F536000800850208CE
:103A0000406A7047806A704770478A880B8810B593
:103A1000D20A4C88C1699BB251F8220043EA0443A0
:103A2000184410BD10B50446BAB1107B68B1537B81
:103A3000D27A1B0203F4E0631A43236A03EB820386
:103A40001A888A4202D193F9020010BD05D80138C4
:103A500080B204330028F3D1F7E70020F5E710B572
:103A60002C21044620F05EF9204610BD30B58BB005
:103A70000446BDF860500895BDF85C5007959DF868
:103A8000505006959DF84C5005959DF8485004956A
:103A90009DF8445003959DF8405002959DF83C5088
:103AA0000195BDF8385000950FF0E8F8064B2360FB
:103AB000159BE361169B2362199B63621A9BA362A9
:103AC00020460BB030BD00BFA0860208704770478B
:103AD000704730B4C26844685510034604EB620076
:103AE000D20748BF62599B6830BC48BFD3581847BB
:103AF0000346406830B19A681AB9D86800F00100EE
:103B000070470120704710B51021044620F00AF9D3
:103B1000204610BD10B54FF48E71044620F002F916
:103B2000204610BDC430884208B505D10DF074FAA6
:103B3000BDE80840FFF70CBD08BD00002DE9F04FBF
:103B4000044685B0274600250FF0B4FA454BE563DF
:103B500047F8403B04F16C0A3846FFF7FFFD50463A
:103B6000FFF7FCFD4FF480724FF6FF7304F19809E4
:103B7000A4F8BC203C4AC4F8982004F1C406A4F878
:103B8000BE3084F8C03003A94846C4E92755C4E9CB
:103B90002955C4E92B55C4E92D55ADF80C300AF070
:103BA0003CFD30460AF070FE304BC4E94334304BE4
:103BB0004FF4A07BC4E945352A4629463846CDF85E
:103BC00000B0F023FFF7B6FD04F104084FF07F4387
:103BD000A3663946404606F063FF2A46294650460A
:103BE000CDF800B0F023FFF7A5FD224BC4F89430C8
:103BF0005146404606F054FF172248461821FFF769
:103C00008CFD092303A94846ADF80C300AF005FDE8
:103C10004946404606F044FF3046EA224121FFF77C
:103C20007CFD03AA02A901233046ADF80C30ADF8A3
:103C300008500AF0C0FB0523A4F8FC303046FFF71B
:103C4000C5FD4FF0FF33C4E9403304F586734046A9
:103C5000C4F8EC30314606F023FF204605B0BDE83D
:103C6000F08F00BF20870208A88C0208088702088E
:103C7000253B000811AD2EFF70470368DB6A18472B
:103C800010B54FF4D471044620F04CF8204610BD16
:103C900008B50DF0C1F9BDE80840FFF769BC0000A8
:103CA000074A02600022C0E90122C0E90322C0E9FC
:103CB0000522C0E907224FF480728284704700BF5A
:103CC000EC8D02082DE9F04F04468BB0A04600258C
:103CD0000FF0F0F9894BE56348F8403B262229466E
:103CE000404622F074FA4046FFF7DAFF844B236423
:103CF00004F16C0AFF2384F8663004F198094FF64A
:103D0000FF7608A9A566504604F1C407ADF8206007
:103D100009F0A2FD08A94846ADF8206009F09CFD15
:103D200026222946384622F052FA3846FFF7B8FFD5
:103D3000744BC4F8EC304FF47F03C4F8F830724B86
:103D4000C4F8C43004F5887B4FF0FF33C4E9413533
:103D5000A4F8F060C4F8F450A4F8FC50C4F8005182
:103D6000C4F80C515846FFF79BFF684EC4F8106129
:103D700004F59E731846C4F838510393FFF790FF7B
:103D800004F5B473C4F83C611846C4F86451029356
:103D9000FFF786FF4FF4A0732A46C4F868614046D7
:103DA000C4F8905129460093F023FFF7C3FC261D69
:103DB0004FF07F434146A366304606F071FE022372
:103DC00008A95046ADF820300AF027FC282340F21D
:103DD000171200935A213C235046FFF7ABFC2946AB
:103DE000504609F0F4FC5146304606F059FE0623D1
:103DF00008A94846ADF820300AF00FFC24230093B0
:103E0000EF2266214846FFF795FC2946484609F00F
:103E1000DEFC4946304606F043FE2A464A21384633
:103E2000FFF77BFC4FF0FF33C4F8F430D4F8C43014
:103E3000A4F8F8500DF110084046D3F88430394604
:103E4000984798E8070004F5807383E80700304B33
:103E50001B6804F5CA782BB92E4B2F4A60212F48D6
:103E600021F05EFF2E4B1B881BB92E4B2A4A612185
:103E7000F5E72D4B2946186800F0C4F92B4A034694
:103E80000A21404610F0F6FD3846C4F80C810AF0CD
:103E900015FA1C4B089308A904233846ADF82430C2
:103EA0000AF02CFA3946304606F0FAFD502300930A
:103EB000EF22F02329465846FFF73CFC594630468E
:103EC00006F0EEFDD723039800931822F02329462D
:103ED000FFF730FC0399304606F0E2FD1823029804
:103EE00000932A46F0232946FFF724FC3046029926
:103EF00006F0D6FD20460BB0BDE8F08F54870208CF
:103F0000408C020800850208C48502084C8902081A
:103F1000282E01202E7C0208307D0208AB7C02088E
:103F20002C2E0120F27C0208342E01207B7D020819
:103F30007047000030B5164D2C6814F001048FB0A6
:103F4000BFF35B8F20D128461FF0EEFEE0B13F2388
:103F50000993104B0893104B104911480A94012201
:103F6000CDE906430423CDE903320A230093CDE9CA
:103F70000B44CDE901440594FFF778FD094821F091
:103F8000EDFE28461FF0DCFE05480FB030BD00BF37
:103F9000941F002020AC020830AC02085CAA020882
:103FA000981F0020313F00087047000030B5174DC2
:103FB0002C6814F001048FB0BFF35B8F22D1284628
:103FC0001FF0B2FEF0B13F230993114B0893114B40
:103FD000114912480A94CDE9064301220423CDE990
:103FE00003321423009316221823CDE90B44CDE9A4
:103FF00001440594FFF73AFD094821F0AFFE284639
:104000001FF09EFE05480FB030BD00BFC41F00204A
:1040100024AC020834AC02086CAA0208C81F0020B5
:10402000A93F00087047000030B5174D2C6814F008
:1040300001048FB0BFF35B8F22D128461FF074FEBE
:10404000F0B13F230993114B0893114B11491248CA
:104050000A94CDE9064301220423CDE90332282343
:10406000009309222923CDE90B44CDE901440594AD
:10407000FFF7FCFC094821F071FE28461FF060FEA6
:1040800005480FB030BD00BFF41F002028AC020867
:1040900038AC0208A0AB0208F81F00202540000839
:1040A00000207047002070470EB403B503AB002119
:1040B00053F8042B01930EF05FF802B05DF804EBA7
:1040C00003B070470CB407B504AB53F8042B01934D
:1040D0000EF052F803B05DF804EB02B07047000038
:1040E000436C10B5044673B3038F2BB9184B194AB0
:1040F000C521194821F014FEC38E00EB43035B8CED
:104100000BB30FF00EFF238F012B03D8134B144A70
:10411000CB21EEE7E28E531C9BB2092B194688BFD8
:10412000A3F10A0104EB410140F63F10498C8142A2
:1041300009D10A2B04EB420228BF002304EB4303FE
:10414000508C588451842046BDE810400FF0ECBDDF
:104150007E7D0208877D0208327E02087C7E02088E
:104160008A7E02080FF0A7BD10B586B002AC84E8C5
:1041700006001A460AAB05930193099B009321465A
:10418000089B0CF0CBFA06B010BD000038B518BB88
:10419000124B13481C681349B4B1226822440260D0
:1041A000626822440A60A26814440F4B00221A80FD
:1041B00000F038F8054600F033F80C4B1C600C4B4F
:1041C0001D600C4B188007E00B4B03600B4B0B6022
:1041D0000B4B1C68002CE8D138BD00BF30200020FC
:1041E00028200020242000202C200020282E012020
:1041F000302E01202C2E012054AC02083CAC0208C9
:104200009CAC0208044B1B6853F82100034B1B684D
:1042100003EB4000704700BF24200020282000202E
:1042200006207047004870473420002010B5FFF783
:10423000BDFE044C2060FFF7F7FE6060FFF77AFEDA
:10424000A06010BD3420002010B5002404600C6074
:1042500014601C6010BD704710B54FF4AE71044679
:104260001FF060FD204610BD10B50446D0F858017F
:1042700000F074F82046BDE810400CF077BF000055
:1042800010B50446FFF710F9014B2360204610BD1E
:104290008C8702080CF0C0BE704704387047704726
:1042A00010B5102104461FF03DFD204610BDA0F1C1
:1042B0000400F5E78368C068196800F039B80000A9
:1042C00000228260024A026018324260C160704778
:1042D000E08702087047000010B5034B03600446F6
:1042E000FFF79BF9204610BD0888020810B5044668
:1042F000FFF7F2FF20464FF4DE711FF013FD20465A
:1043000010BD000010B50446FFF7A2FA014B236070
:10431000204610BD0888020810B50446FFF77EF954
:1043200004F5D873C4F854310023A4F8B03110BD9B
:1043300010B50B460446064A062100F5D87010F069
:1043400099FB04F58670BDE810400EF03FB800BF41
:104350005C7F02080022C0E9002270477047704766
:1043600004387047704710B5102104461FF0DAFC7E
:10437000204610BDA0F10400F5E700000022826095
:10438000024A026018324260C16070473C880208ED
:104390007047000010B5034B03600446FFF797FB1E
:1043A000204610BD6488020810B50446FFF7F2FFEE
:1043B00020464FF48E711FF0B5FC204610BD000062
:1043C00010B50446FFF7BAFB014B2360204610BD31
:1043D00064880208FFF77CBB704704387047704759
:1043E00010B5102104461FF09DFC204610BDA0F121
:1043F0000400F5E700228260024A0260183242603F
:10440000C16070479888020808B5C368D3F8F026E1
:1044100083681A60FFF73EFFBDE80840FFF7A8B8C1
:1044200038B5094B0360044640F2C465B5F5CE7F4C
:1044300005D0635960191B6898472C3DF6E7204664
:10444000FFF71AFC204638BDC088020810B50446A4
:10445000FFF7E6FF204640F27C711FF063FC204628
:1044600010BD0000002310B5C0E90133C0E90333DB
:10447000C0E90733C0E905334FF480738384064BEA
:1044800003600B88C384FF23044680F828300AF0B9
:10449000C4F8204610BD00BFA88C02082DE9F341E6
:1044A0000446FFF70FFC294B236004F5E47504F57F
:1044B000DE684FF6FF7605F58477284601A92C358E
:1044C000ADF80460FFF7CEFFBD42F6D14545F2D10D
:1044D0000025C4F8F056C4F8085784F8255701A9F8
:1044E00004F5E560ADF80460FFF7BCFF4FF0FF3363
:1044F000C4F85837C4F85C3704F26C73002284F8AF
:104500005457C4F86057C4F8645784F868571A6061
:1045100004F5EE631A6084F87457C4F8785723469C
:1045200004F11E0283F8A85183F8A95183F8AA5117
:1045300083F8AB5183F8AC5183F8AD510633934205
:10454000F0D1204602B0BDE8F08100BFC08802086B
:104550002DE9F84300F5D47500264FF064092C4688
:104560004FF00008052714F8013B6BB123785BB1CD
:1045700001F03AFB4044B0FBF9F309FB13001328A8
:104580009CBF14F8013C2370013FB044EBD10136CD
:10459000032E05F10605E2D1BDE8F88370B500F100
:1045A0001E0104460346002283F8A82183F8A921AE
:1045B00083F8AA2183F8AB2183F8AC2183F8AD21DD
:1045C00006338B42F0D101F00FFB04F2A71504F281
:1045D000AD1102460526B2FBF6F303EB8303D31AB3
:1045E000013305F8013FA94202F10702F3D100F1BE
:1045F0000D0205253730B2FBF5F303EB8303D31A25
:1046000007320133824201F8013FF4D12046BDE870
:104610007040FFF79DBF2DE9F04F87B0B0F94031F2
:104620000293B0F942310393064600F2A71900271E
:10463000039AC7EB471313441BB201934FF48473DF
:1046400017F0010F03FB076B029B14BF1224002419
:104650001C44A4B2CA464FF000081AF8012F22B336
:10466000013A0BF5E475042A0DD8DFE802F00335B2
:104670003A3F4400DBF8C821126E0621ADF8141051
:10468000284605A99047019A21B22846FFF745F828
:10469000DBF8C8212021926B28469047DBF8C8211F
:1046A0002021D26B28469047012208F101082434CA
:1046B000B8F1060F8BF8ED21A4B20BF12C0BCCD185
:1046C0000137052F09F10609B2D106F59E7007B032
:1046D000BDE8F04F0DF07ABEDBF8C8210321126E61
:1046E000CCE7DBF8C8210421126EC7E7DBF8C8214C
:1046F0000721126EC2E7DBF8C8210521126EBDE763
:1047000010B5044601F070FA04F2A712052104F274
:10471000AD14B0FBF1F303EB8303C31A013302F8CA
:10472000013FA24200F11700F3D110BD00F2BF1209
:1047300000F2C51312F8010F10B99A42FAD170476E
:1047400001207047C06BFFF75FBE000010B500236B
:1047500080F8243780F84D37044600F5E5600DF009
:1047600035FE054905486423182203F0B0FF2046B2
:10477000BDE81040FFF7E6BF5F7F0208D01C0020B5
:1047800010B500F5D4710446182200F5D77021F059
:1047900004FD2046FFF7B4FF2046FFF73CFFD4F8A6
:1047A00060370133052BC4F8603703DC2046FFF780
:1047B000BDFF20B12046BDE81040FFF7C7BF10BDC8
:1047C00037B5002300F1980480F8BD300546204637
:1047D0000DF0FCFD01F008FA0522B0FBF2F303EB4B
:1047E0008303C31A0133DBB285F81237023B032B74
:1047F00003D8DFE803F007091A1C0623ADF80430DC
:1048000001A906E00323F9E70423ADF804300DEB1A
:104810000301204609F001FF0123204685F8BD3041
:1048200003B0BDE830400DF0D1BD0723E6E7ADF899
:104830000420E5E7D0F808370133042B10B504460F
:10484000C0F8083704DDFFF79BFF0023C4F80837E2
:104850002046BDE81040FFF7B3BF000038B5D0F8E0
:10486000F0360A460A21044601FB023300F5CA75F8
:10487000C0F8F036054A284610F0FCF8C4F80C5190
:1048800004F1C400BDE838400DF0A0BD5C7F020813
:10489000034600F5A561002283F8ED2183F8192273
:1048A00083F8452283F8712283F89D2283F8C92278
:1048B00003F584739942EFD11E22002100F5D470D4
:1048C00021F085BC30B585B000230446CDE9023324
:1048D000009101236946019301F0C6FB204601F0D7
:1048E00043FA6421204601F0D8FA204601F028FB63
:1048F0000546204601F0B6FA284605B030BD002333
:1049000080F8BD3098300DF061BD10B50446FFF75A
:10491000F6FF2046BDE81040FFF7BABF70B5002390
:1049200090B0C0F8643780F868370D4B01AA03F1E6
:104930003806154618685968144603C40833B3424C
:104940002246F7D11B7823702846FBF751FC6423DD
:1049500082B22946034803F0BAFE10B070BD00BF12
:10496000797F0208D01C0020B0F910379FED2C7A17
:1049700007EE903AF8EEE77A2DE9F04167EE877A94
:104980009FED287AC7EE877A04462DED028B17EE4D
:10499000900AFBF713FF41EC180BB0EE480AF0EE5B
:1049A000680A1FF03DFA57EC106BB0EE480AF0EEC3
:1049B000680A1FF0E1F91C4BB4F9728051EC100B3E
:1049C0000022FBF76DFCFBF7D9FFB4F9A230B4F974
:1049D0007050A8EB000803EBD373A8EB6308B4F99D
:1049E000743003EBD373002205EB630530460E4BA6
:1049F0003946FBF755FCFBF7C1FFB4F9A030291885
:104A000003EBD373A1EB63010FFA88F8424609B2B6
:104A100004F19800FDF783F8BDEC028BBDE8F0814E
:104A2000D00F4940000034430080464008B501F0F3
:104A3000DBF8044A1368C31AB3F5967F88BF106089
:104A400008BD00BF6420002007EE901A07EE102A70
:104A5000F8EEE77A00F21473B8EEC77A73B5C3EDD7
:104A6000007A00F5E36383ED007A00F21C7383EDB6
:104A7000000ABDEEC77A00F5E463C3ED000AB0F9A1
:104A8000323717EE102AFDEEE77A03EBD373A2EB71
:104A90006302B0F9303717EE901A03EBD373044674
:104AA000A1EB6301012600F5E56580F8246712B2E9
:104AB00009B22846FEF731FE84F84D6728460DF00E
:104AC00085FC94F8123784F81337013B042B13D874
:104AD000DFE803F003080A1416000623ADF80430DB
:104AE00001A906E00323F9E70423ADF804300DEB38
:104AF0000301284609F091FD02B070BD0723EDE7E0
:104B00000523EBE72DE9F843044600232DED048B44
:104B1000983080F825300DF059FCB4F910379FED2E
:104B20002E7A07EE903AF8EEE77AB0EE089A67EE42
:104B3000877A9FED2A7AC7EE877A17EE900AFBF7FD
:104B40003DFE41EC180BB0EE480AF0EE680A1FF08B
:104B500067F957EC106BB0EE480AF0EE680A1FF0E8
:104B60000BF959EC108B49464046FBF72FFF3946AD
:104B700008EE900A3046FBF729FF194BB4F9725042
:104B8000002208EE100A49464046FBF789FBFBF776
:104B9000F5FEB4F97430A5EB0008B4F9705003EBDE
:104BA000D37305EB630500220D4B68EEC98A28EE2E
:104BB000098A30463946FBF773FBFBF7DFFEF0EE60
:104BC000680AB0EE480ABDEC048B2918424620461C
:104BD000BDE8F843FFF738BFD00F49400000344329
:104BE0000080464090F8242710B500F5E5642AB30C
:104BF00000F5E362D2ED007AB0F93217B0F9303740
:104C0000FDEEE77A01EBD17117EE902AA2EB61027B
:104C100000F21471D1ED007AFDEEE77A03EBD37365
:104C200017EE901AA1EB630112B209B22046FCF70D
:104C300076FF2046BDE810400DF0C8BB80F84D2738
:104C4000F7E7042904D8052A8CBF0020012070470B
:104C5000002070472DE9F04FADF50F7D04468946E1
:104C60001546FFF7EEFF002800F0A6804FF0060B78
:104C70000BFB01F6A319134493F8A8310193002B01
:104C800000F09A801E2200214D4821F0A0FA4C4BE2
:104C9000CDF858901E444FF0010C06F805C034952D
:104CA000484D0FCD04AE0FC695E8030005F1080E80
:104CB00086E80300BEE80F000AAE0FC69EE80300B8
:104CC000203586E803000FCD10AE0FC695E803002F
:104CD0000DF1580886E803000DF1D009002663465F
:104CE000013B70A959F8232058F823A0029252AA38
:104CF000029842F826A00AF0010241F82600002599
:104D00000136039204AA52F82510039A5144002A4E
:104D100050D010AA029852F8252002442046FFF7EE
:104D200090FFC8B1264F0BFB01F007EB000C1CF8FD
:104D300002E0BEF1000F0FD120441044019F90F813
:104D4000A801B84208D14FF001000CF8020048F861
:104D5000231049F8232001330135062DD2D1002B31
:104D6000BED1022E28DD52A870A91F4650F8042B90
:104D700051F804CB05FB024262440133B34282F88E
:104D8000A871F3D119462046FFF768FD2046FFF7CA
:104D900042FC2046FFF7CAFC10B12046FFF7D6FCC4
:104DA00009490A48642310220DF50F7DBDE8F04F34
:104DB00003F08DBC0AAAADE70DF50F7DBDE8F08FBD
:104DC0004020002030710208B27F0208D01C002071
:104DD00070B50529A8BF052121EAE17543190446EC
:104DE00093F8A86196B990F8122783F8A821FFF7E5
:104DF00012FC134913486423162203F068FC2A4668
:104E000031462046BDE87040FFF724BF00F2A713EB
:104E1000002513F8016F46B9631994F8122783F837
:104E2000A8212046FFF7F7FBE9E70135062DF0D171
:104E3000BDE870400449034864231B2203F047BCCB
:104E4000C37F0208D01C0020DA7F02082DE9F04F52
:104E5000A3B004460D461646FFF7F3FE28B9052A0F
:104E6000A8BF052626EAE67605464FF0060B0BFBA3
:104E70000543334493F8A831002B00F0C680664FF9
:104E80009FED666A0FCF0DF1180CACE80F0097E8A4
:104E9000030007F1080E8CE80300BEE80F000DF1D7
:104EA000300CACE80F009EE8030020378CE80300CC
:104EB0000FCF0DF1480CACE80F0097E803008CE829
:104EC00003004FF0FF3705F00102002303970DF1B7
:104ED0001808059204F2147904F5E36A58F82310CF
:104EE000059A2944002A40F08E800CAA52F823200B
:104EF000204632440292FFF7A4FE002841D00BFB6B
:104F00000140104490F8A80100283AD101F0010EA8
:104F1000B4F9422104920029B8BFCEF1000E029AE2
:104F2000B4F94001D9ED006ABEF1010F4FF0240C35
:104F300014BF4FF0000E4FF0120E0CFB0200704435
:104F4000103007EE900A049AC1EB4110F8EEE77AB0
:104F50001044103076EEE76A07EE900AB8EEE77A72
:104F6000DAED007A77EEC77A67EEA77AE6EEA67AF0
:104F7000F4EEC67AF1EE10FA42BF029F0391B0EE52
:104F8000676A0133062BA9D1039D6A1C3FD07B1CA5
:104F90003DD03A4629462046FFF753FEB8B30623D4
:104FA00003FB05433B4493F8A82182BB94F81327E5
:104FB00083F8A8212046FFF72EFB94F81237184AF1
:104FC0004021CDE9007312A82B4621F06DF812A8FC
:104FD000FBF70EF9642382B212A9124803F077FBA3
:104FE000012384F85437C4F85857C4F85C77002379
:104FF00004F5E56084F8243784F84D3723B0BDE824
:10500000F04F0DF0E3B912AA70E73746BDE731461D
:105010002046FFF7DDFEEAE730710208286B6E4E8E
:10502000F67F0208D01C00202DE9F84F90F8249755
:105030002DED048B0446B9F1000F5CD000F214731F
:1050400000F5E368B0F940A1B0F942B193ED008AF0
:1050500098ED009ADFED469A00F2A7170025F3EECF
:10506000008AC5EB451315F0010F03EB0B0214BFCB
:105070001223002353443946002604E00136062E4D
:1050800003F124033BD011F8010F0028F6D007EEFE
:10509000903AB8EEE77A07EE902AF8EEE77A37EE24
:1050A000287A77EEA87A38EE477A79EE677A67EE53
:1050B000A77AE7EE077AF4EEE97AF1EE10FADDD896
:1050C000002384F8243784F84D3704F5E5600DF0AB
:1050D0007DF9284928486423122203F0F8FA324661
:1050E00029462046FFF7B2FE4E460135052D08D071
:1050F0000637002EB5D0BDEC048BBDE8F88F002636
:10510000F3E7002EF7D107EE90BA98ED007AF8EEAB
:10511000E77AB4EEE77AF1EE10FAECD804F5E56040
:1051200084F8246784F84D670DF050F9134912484C
:1051300064231C2203F0CBFA07EE90AAF8EEE77A7C
:105140009FED0F7A38EE678A3146C8EE077ABDECDC
:10515000048B2046BDE8F84FFDEEE77A17EE902A63
:10516000052AA8BF052222EAE272FFF76FBE00BF40
:1051700000401C4515800208D01C00202780020832
:105180000000104290F8243770B50446A3B300F233
:10519000147300F21C72D2ED007A93ED007A37EEB0
:1051A000877A00F5E36083ED007A04F5E461D0EDE1
:1051B000006A91ED006AB5EEC07A76EE866AF1EE8D
:1051C00010FAC0ED006A18D80021F1EE677A196074
:1051D000C2ED007A2046FFF727FF94F824371E4DD2
:1051E000B3B32046FFF7FEFC94F8243783B32B6853
:1051F00083B900F0F9FC286070BDDFED186A37EE66
:10520000267ADFED176AB4EEE67AF1EE10FAE1DB0A
:105210001449DAE700F0E8FC2B68C01A42F2107378
:10522000984211D9002604F5E56084F8246784F8D3
:105230004D670DF0CBF82E600B490C48BDE870406F
:105240006423142203F043BA94F82437002BD3D1FB
:1052500000232B60D0E700BF602000200000004248
:1052600000007043000050434B800208D01C002017
:1052700000F26C73D3ED006A9FED237A00F5EE63C4
:1052800093ED006A76EEC67A10B5F4EEC77AF1EEC9
:1052900010FA04462CDD9FED1D7A77EEC77ABDEE3D
:1052A000E77AF6EE005A17EE102A002AB8BF5242EB
:1052B00007EE102AB8EEC77AB4EEE57AF1EE10FAEE
:1052C0005EBF9FED137AF0EE466AE7EE876A16EE50
:1052D000900AC3ED006AFBF771FA41EC100B1EF067
:1052E000A1FE51EC100BFBF749FBA4F8100710BD11
:1052F0009FED087AF4EEC77AF1EE10FA44BF9FED05
:10530000037A77EE877ACAE7000034430000B4439B
:105310009A99193E000034C307EE102A084691B14D
:1053200007EE901AB8EEC77AF8EEE77AC7EE876A0A
:1053300066EEA67A67EEA67A67EE877AFDEEE77AE2
:1053400017EE903A18B2704770B50D2192B004462E
:105350003F48FFF7B7FA052106463D48FFF7B2FA86
:1053600094F868370546B3B901233A4AA4F86607AA
:1053700084F8683740213346A4F86467009002A897
:1053800020F092FE02A8FAF733FF642382B202A94A
:10539000314803F09CF9B4F86437F11AB4F8663771
:1053A0002E4E09B2ED1A81EAE173A3EBE1732DB23F
:1053B0009BB2632B85EAE573A3EBE5739BB298BFC1
:1053C0000021632B98BF0025B1F5487FA8BF4FF49B
:1053D0004871B1424FF44872B8BF31462046FFF7DA
:1053E0009BFF95422946A8BF1146B142B8BF31463E
:1053F000A4F80C072046FFF78FFF0421A4F80E073E
:10540000174801F00FF900280CBF012600261AD119
:1054100094F82557BDB92046FFF774FB01224FF4DD
:105420008051104801F004F9322000F0E3FB0D48F0
:105430002A464FF4805101F0FBF80B4906486423DB
:10544000072203F044F984F8256712B070BD00BF4D
:10545000FC1E002060800208D01C0020E0FCFFFF42
:1054600000080240000C02407B80020810B5044690
:10547000FFF76AFF00F0B8FBB4F90C1781EAE1739B
:10548000A3EBE1739BB2C82BB4F90E3706D883EABD
:10549000E372A2EBE37292B2C82A37D907EE903AD0
:1054A000F8EEE70A07EE901A0122B8EEE70A84F850
:1054B0007427C4F87807F1EE600A1EF005FDDFEDF1
:1054C0001A7A9FED1A7A20EE270AC0EE077A9FED2E
:1054D000187AF4EEC77AF1EE10FA14D49FED157A2B
:1054E000F4EE477AF1EE10FAC8BFF0EE477A04F214
:1054F0006C73C3ED007A2046FFF7BAFE2046BDE884
:105500001040FFF731BAF0EE477AF0E794F87437BD
:10551000002BF0D0D4F87837C01AC82884BF0023F5
:1055200084F87437E7E700BF00003443D00F4940E8
:105530000000A0C20000A04210B50446FFF796FF8D
:105540002046FFF71FFE2046FFF770FA94F8543705
:1055500073B100232046D4F85C27D4F8581784F898
:105560005437FFF777FB2046BDE81040FFF762B9DC
:1055700010BD2DE9F7430446FEF77FFB2046FFF7F9
:10558000CDF994F8C0301BB104F19800FCF774FB1E
:105590000026354604F59E79A7194FF0000887F8D4
:1055A000ED5107F5E471484608F1010805F078FA75
:1055B000B8F1060F07F12C07F1D106F58476B6F5A0
:1055C000A56FE9D12046C4F80857C4F86057A4F87D
:1055D0001057FEF7E3FF2046FFF71DF82046FFF7C0
:1055E000EFF800212046C4F8F056FFF737F904F52C
:1055F000E5662046FFF7B8F9032301A93046ADF868
:10560000043009F00AF8002211463046FEF785F80A
:105610003146201D84F84D5705F042FA04F26C72B1
:105620000023136004F5EE621360A4F8105784F8A9
:10563000745700F0D9FAC4F8780703B0BDE8F083D6
:10564000F02070474FF4A07070472920FCF746BF48
:105650002820FCF743BF08B5FCF714FFCA20FCF76D
:105660003DFFC320FCF71EFF0820FCF71BFF502066
:10567000FCF718FFCF20FCF731FF0020FCF712FFEA
:10568000C120FCF70FFF3020FCF70CFFED20FCF7EA
:1056900025FF6420FCF706FF0320FCF703FF122020
:1056A000FCF700FF8120FCF7FDFEE820FCF716FF69
:1056B0008520FCF7F7FE0020FCF7F4FE7820FCF7CD
:1056C000F1FECB20FCF70AFF3920FCF7EBFE2C2083
:1056D000FCF7E8FE0020FCF7E5FE3420FCF7E2FED4
:1056E0000220FCF7DFFEF720FCF7F8FE2020FCF795
:1056F000D9FEEA20FCF7F2FE0020FCF7D3FE0020E2
:10570000FCF7D0FEB120FCF7E9FE0020FCF7CAFE52
:105710001B20FCF7C7FEB620FCF7E0FE0A20FCF7D2
:10572000C1FEA220FCF7BEFEC020FCF7D7FE102071
:10573000FCF7B8FEC120FCF7D1FE1020FCF7B2FE4A
:10574000C520FCF7CBFE4520FCF7ACFE1520FCF78E
:10575000A9FEC720FCF7C2FE9020FCF7A3FE36206E
:10576000FCF7BCFEC820FCF79DFEF220FCF7B6FE5D
:105770000020FCF797FEB020FCF7B0FEC220FCF73B
:1057800091FEB620FCF7AAFE0A20FCF78BFEA720AC
:10579000FCF788FE2720FCF785FE0420FCF782FE3C
:1057A0002A20FCF79BFE0020FCF77CFE0020FCF783
:1057B00079FE0020FCF776FEEF20FCF773FE2B202D
:1057C000FCF78CFE0020FCF76DFE0020FCF76AFE63
:1057D0000120FCF767FE3F20FCF764FEF620FCF793
:1057E0007DFE0120FCF75EFE0020FCF75BFE06203C
:1057F000FCF758FE2C20FCF771FEC820FCF7BCFE1D
:105800002620FCF76BFE0120FCF74CFEE020FCF7A5
:1058100065FE0F20FCF746FE2920FCF743FE2420FE
:10582000FCF740FE0C20FCF73DFE0E20FCF73AFE94
:105830000920FCF737FE4E20FCF734FE7820FCF7F9
:1058400031FE3C20FCF72EFE0920FCF72BFE132036
:10585000FCF728FE0520FCF725FE1720FCF722FEAA
:105860001120FCF71FFE0020FCF71CFEE120FCF7D6
:1058700035FE0020FCF716FE1620FCF713FE1B2059
:10588000FCF710FE0420FCF70DFE1120FCF70AFEC9
:105890000720FCF707FE3120FCF704FE3320FCF75D
:1058A00001FE4220FCF7FEFD0520FCF7FBFD0C206D
:1058B000FCF7F8FD0A20FCF7F5FD2820FCF7F2FDC7
:1058C0002F20FCF7EFFD0F20FCF7ECFD1120FCF77B
:1058D00005FEC820FCF750FE2920FCF7FFFDBDE8BF
:1058E00008402C20FCF7FABD08B5FCF7CBFD0321DE
:1058F000D320FCF70FFE80B208BD10B5C4B202225F
:1059000003212046FCF774FD0A20FCF7B9FD204670
:1059100000220321FCF76CFDBDE810400220FCF7DB
:10592000AFBD38B50446E4B2FCF760FD0021204667
:10593000FCF776FD012105462046FCF771FD40EAA3
:10594000052080B238BD10B5C4B240212046FCF716
:1059500067FD030607D54C212046FCF761FD0038A2
:1059600018BF012010BD01224B212046FCF740FD4D
:10597000204600224B21FCF73BFD0020F2E773B5E7
:105980000423C4B20E461546D7210DEB0302204670
:10599000FCF760FD019B1BBA1A0DC3F30B23328089
:1059A00020462B8001224B21FCF722FD00224B21B7
:1059B0002046FCF71DFD02B070BD000010B50A4A7C
:1059C0001378984204460DD0517888420AD00BB122
:1059D00041B90123D454FCF709FD2046BDE810402D
:1059E000FFF78BBF10BD00BF6820002010B5C4B208
:1059F00009212046FCF714FD40F00102D2B22046F6
:105A00000921BDE81040FCF7F3BC10B5C4B2092170
:105A10002046FCF705FD092100F0FE022046BDE806
:105A20001040FCF7E5BC38B5C4B20D4620460A214B
:105A3000FCF7F6FC40EA0502D2B220460A21BDE896
:105A40003840FCF7D5BC10B50446FCF7D0FC204626
:105A50001F21FFF7E8FF2046BDE81040FFF7C6BF53
:105A600038B5C4B20D4620460A21FCF7D9FC20EA1D
:105A70000502D2B220460A21BDE83840FCF7B8BC86
:105A800010B50446FFF7C1FF20461F21BDE81040B6
:105A9000FFF7E6BF10B5C0B20C460B21FCF7C0FC07
:105AA000204010BD1F21FFF7F5BF0A46C0B20B21F1
:105AB000FCF79EBC1F21FFF7F8BF38B5C4B20D46F6
:105AC00020461721FCF7ACFC20EA0502D2B22046A2
:105AD0001721BDE83840FCF78BBC70B5C4B2064650
