:020000040800F2
:10000000000003205D060008F5210008F721000824
:10001000F9210008FB210008FD2100080000000074
:10002000000000000000000000000000B1680008AF
:10003000FF2100080000000041690008D5610008A8
:10004000AD060008AD060008AD060008AD060008C4
:10005000AD060008AD060008AD060008AD060008B4
:10006000AD060008AD060008AD060008AD060008A4
:10007000AD060008AD060008AD060008AD06000894
:10008000AD060008AD060008AD060008AD06000884
:10009000AD060008AD060008AD060008AD06000874
:1000A000AD060008AD060008AD060008AD06000864
:1000B000AD060008AD060008AD060008AD06000854
:1000C000AD060008AD060008AD060008AD06000844
:1000D000AD060008AD060008AD060008AD06000834
:1000E000AD060008AD060008AD060008AD06000824
:1000F000AD060008AD060008AD060008AD06000814
:10010000AD060008AD060008AD060008AD06000803
:10011000AD060008AD06000801220008AD06000883
:10012000AD060008AD060008AD060008AD060008E3
:10013000AD060008AD060008AD060008AD060008D3
:10014000AD060008AD060008AD060008AD060008C3
:10015000AD060008AD060008AD060008AD060008B3
:10016000AD060008AD060008AD060008AD060008A3
:10017000AD060008AD060008AD060008000000004E
:10018000AD060008AD060008AD060008AD06000883
:10019000AD060008AD060008AD060008AD06000873
:0C01A0000D220008AD060008192200081E
:1001B00010B5054C237833B9044B13B10448AFF3A1
:1001C00000800123237010BD800300200000000088
:1001D000DC2F020808B5034B1BB103490348AFF3FA
:1001E000008008BD0000000084030020DC2F02080E
:1001F00001F0FF01102A2BDB10F0070F08D010F8D8
:10020000013B013A8B422DD010F0070F42B3F6D1DB
:10021000F0B441EA012141EA014122F007047FF0F4
:1002200000070023F0E80256083C85EA010586EA4B
:10023000010685FA47F5A3FA87F586FA47F6A5FA87
:1002400087F68EB9EED1F0BC01F0FF0102F0070293
:1002500032B110F8013B013A83EA010313B1F8D13E
:100260000020704701387047002D06BF354603381F
:10027000073815F0010F07D1013015F4807F02BF58
:10028000013015F4C03F0130F0BC0138704700BFA9
:100290007BB972B90029BEBF00204FF0004106E0D3
:1002A00008BF00281CBF6FF000414FF0FF3000F086
:1002B000D3B9ADF1080C6DE904CE002909DB002BA0
:1002C0001ADB00F04DF8DDF804E0DDE9022304B0AC
:1002D0007047404261EB4101002B1BDB00F040F80E
:1002E000DDF804E0DDE9022304B0404261EB4101A6
:1002F000524263EB43037047524263EB430300F007
:100300002FF8DDF804E0DDE9022304B0404261EBA0
:1003100041017047524263EB430300F021F8DDF8DE
:1003200004E0DDE9022304B0524263EB430370476B
:1003300053B94AB9002908BF00281CBF4FF0FF314C
:100340004FF0FF3000F088B9ADF1080C6DE904CE34
:1003500000F006F8DDF804E0DDE9022304B07047A0
:100360002DE9F047089D8E4604468846002B4AD169
:100370008A42174662D9B2FA82F64EB1C6F120031C
:1003800001FA06F820FA03F3B74043EA0808B4403C
:100390004FEA174E1FFA87FCB8FBFEF1230C0EFB49
:1003A000118843EA084301FB0CF29A4209D9FB1871
:1003B00001F1FF3080F0EA809A4240F2E780023992
:1003C0003B449A1AA3B2B2FBFEF00EFB102243EAA2
:1003D000024300FB0CFC9C4509D9FB1800F1FF32DD
:1003E00080F0D6809C4540F2D3803B44023840EAFE
:1003F0000140A3EB0C0300211DB1F3400022C5E92D
:100400000032BDE8F0878B4205D90DB1C5E9000186
:1004100000210846F5E7B3FA83F1002946D1734578
:1004200002D3824200F20581841A6EEB030201209E
:100430009046002DE5D0C5E90048E2E7002A00F02B
:100440009080B2FA82F6002E40F0A4808A1A030C43
:100450004FEA174E80B2BCB20121B2FBFEFC0EFB8C
:100460001C2243EA024304FB0CF29A4207D9FB1810
:100470000CF1FF3802D29A4200F2E080C4469B1A87
:10048000B3FBFEF20EFB123340EA034302FB04F41B
:100490009C4207D9FB1802F1FF3002D29C4200F2C5
:1004A000CA8002461B1B42EA0C40A5E7C1F12006A8
:1004B0008B4022FA06F71F430EFA01F420FA06F3E6
:1004C0002EFA06FE4FEA1749234300FA01F81FFAF5
:1004D00087FCBEFBF9F01C0C09FB10EE44EA0E444D
:1004E00000FB0CFEA64502FA01F209D93C1900F105
:1004F000FF3A80F09C80A64540F2998002383C4447
:10050000A4EB0E041FFA83FEB4FBF9F309FB1344BA
:100510004EEA044403FB0CFCA44508D93C1903F142
:10052000FF3E80F08280A4457FD9023B3C4443EAF1
:100530000040A4EB0C04A0FB02EC64457346E146CA
:1005400062D35FD05DB1B8EB030264EB090404FA37
:1005500006F622FA01F31E43CC40C5E900640021EF
:100560004FE7B1FBF2FC010C41EA0E4180B240EAD8
:1005700001423B4638463C46B846BE462026B1FBC3
:10058000F7F1A2EB080241EA0C4166E7014618E7E1
:1005900010462CE7C6F120022EFA02F3B740B14014
:1005A00020FA02F24FEA174E0A43B3FBFEF8BCB240
:1005B0000EFB1833110C41EA034108FB04F9B0406B
:1005C00089454FEA104380B23ED9791808F1FF3CC3
:1005D00001D289451FD8A1EB0901B1FBFEF909FB46
:1005E00004F80EFB191192B242EA0142424529D2A7
:1005F000BA1809F1FF31C4D24245C2D2A9F10201B1
:100600003A44BEE7F0459DD2BEEB02036CEB070C0B
:100610000138E14696E7A7EB09094944A8F1020C25
:10062000B1FBFEF909FB04F8DBE773467FE75046B0
:1006300066E70846FDE63B44023A33E7ACF1020CBC
:100640003B441CE749469CE7A1EB0901C446B1FBCA
:10065000FEF909FB04F8C4E7704700BFDFF834D0A7
:10066000002103E00C4B5B58435004310B480C4B0A
:1006700042189A42F6D30B4A02E0002342F8043BA8
:10068000094B9A42F9D303F027FB21F039FF01F01F
:1006900061F87047000003201824120800000020B1
:1006A00064010020800300209C390120FEE7704790
:1006B00008B500F0B9FDBDE8084000F03DBD00F010
:1006C000B5BD704710B50421044620F02DFD20462D
:1006D00010BD000038B50C4B0C4C18800C4B822020
:1006E00019806368984740F6110398420AD1094D72
:1006F00023682C60822098472B688220DB6898470B
:10070000002038BD0120FCE7A60300204C0000209B
:10071000A4030020A80300204FF4A071F020FFF7ED
:10072000D9BF0000F7B5394D2B6804461B698220FC
:100730009847208000284ED02B680DF106025B6997
:1007400001A982209847324B1B78002B4BD0BDF873
:10075000062040F674639A423FD9ADF80630BDF8E2
:1007600006209B1A9BB20A2B42D90B22B3FBF2F351
:10077000284A1288934201D9013A93B2BDF8042065
:10078000254840F6B8318A4234D8C2F571620E323B
:10079000016892B20F25B2FBF5F2204D2D88AA42D6
:1007A00084BF05F1FF35AAB28A4215468EB22AD916
:1007B000921B91B21A4E3768BB42BAB28CBF9A1ADA
:1007C000D21A92B211440529C4BF05603360036890
:1007D00063803368A38003B0F0BDB32A9CBFB4220A
:1007E000ADF80620BBE7BDF80630A3F5B473B9E752
:1007F0000023C3E7C2F56D62083292B20E2A016887
:10080000C8D800252A46891A89B2D3E7A803002050
:100810001C1C0020A4030020A0030020A60300202D
:100820009C03002037B568460D461446FFF77AFF53
:10083000BDF8000030B1BDF802302B60BDF80430C7
:100840002360012003B030BD032821D8DFE800F089
:10085000020B12190F4B1A68B2FA82F252090421E4
:100860000D4803F0CDBC0B4B5A68B2FA82F2520924
:100870000821F5E7074B9A68B2FA82F25209102173
:10088000EEE7044BDA68B2FA82F252092021E7E778
:10089000704700BFAC03002000100240032821D89D
:1008A000DFE800F0020B12190F4B1A68003A18BF6C
:1008B000012204210D4803F0A3BC0B4B5A68003AF7
:1008C00018BF01220821F5E7074B9A68003A18BFC4
:1008D00001221021EEE7044BDA68003A18BF01222A
:1008E0002021E7E7704700BFAC0300200010024062
:1008F00003280DD8DFE800F00206080A04210548A5
:1009000003F083BC0821FAE71021F8E72021F6E77D
:10091000704700BF0010024008B5032811D8DFE877
:1009200000F0020A0C0E0421074803F063FC431E8A
:100930005842584108BD0821F6E71021F4E720216C
:10094000F2E70020F3E700BF0010024070B5084D49
:1009500000240126E0B2FFF7DFFF18B12B68012B5E
:1009600018BF2E600134052C05F10405F2D170BDCD
:10097000AC030020012380F8781080F879307047AC
:100980007047002070470000034B4164003918BFD6
:1009900001211970704700BF5B2C012070470020B7
:1009A0007047836B0BB10846184770474FF6FF70CE
:1009B0007047406803689B691847704770477047E5
:1009C0007047704710B5044600F046FD23680349A0
:1009D000D3F890302046BDE810401847000000D002
:1009E00008B503680446D3F8843098472368204646
:1009F000DB6F984700F0ECF8236820465B6F984760
:100A0000292001F017F900F0E3F8236820465B6F16
:100A10009847F8E710B5044608F042FD23682046E1
:100A2000D3F8BC30BDE81040184700F0F9BC00F026
:100A3000FDBC00F02FBD00F0CFBC00F03FBD00F0CA
:100A400047BD00F0D3BC07F059BF10B58421044660
:100A500020F06AFB204610BD10B590F8341090F8D5
:100A600078400C4B8C421A7809D03AB90A4A0B49A3
:100A70001488088810800C8001221A7010BD002A8A
:100A8000FCD0054A05491488088810800C80002293
:100A9000F3E700BF542C0120502C0120522C0120E0
:100AA00070B50D46194635B9094B0A4A0A4840F255
:100AB000FF2121F075FAC0E90F52084B003A18BF28
:100AC00001221A700368BDE87040D3F890301847CF
:100AD0004C30020884300208D23002085A2C01201F
:100AE00008B5094B1B888B4203D8084B1B889342DF
:100AF00005D9074B074A0848A32121F051FA074BB3
:100B00001980074B1A8008BD502C0120522C01205F
:100B1000173102087A310208D2300208562C01201F
:100B2000582C0120034690F87A0018B158680368E1
:100B30001B68184770470000012108B500220846CD
:100B400005F0D2FB0A4B186028B90A4B0A4A282143
:100B50000A4821F025FA00220421012005F063FC57
:100B6000074B186018B9074B034A2C21F0E708BD62
:100B7000C0030020BD3102080632020835320208E7
:100B8000BC0300207F320208024B4FF0FF3118688F
:100B900005F0F4BBC0030020014B186805F01ABC37
:100BA000C0030020024B0021186805F0E7BB00BF1E
:100BB000C0030020FFF7F0BF03480449006800238A
:100BC0001A4605F06BBC00BFBC03002004000020E7
:100BD00013B5084C00231A4601A9206805F08FFCC4
:100BE00020684FF0FF33002201A905F088FC02B015
:100BF00010BD00BFBC03002003685B6C18470120D8
:100C0000704703689B6A1847FEE740F2EF30704771
:100C1000054B0360054B4FF08062C3F88820BFF39B
:100C20004F8FBFF36F8F7047983D020800E100E0DF
:100C300010B504464FF45A61FFF7EAFF204620F052
:100C400073FA204610BD000082B0002301930E4BC2
:100C50001A6B42F400021A631A6B02F4000201924A
:100C6000019A1A6942F400021A611A6922F4000218
:100C70001A61064B064A1A61064A5A61064B4FF042
:100C800080629A6002B0704700380240B01D0020B8
:100C9000E90E0008090C000800E100E008B50A2888
:100CA00009D8DFE800F006100E0808080810101038
:100CB0001000022008BD054B054A0648902121F08E
:100CC0006FF90020F6E70120F4E700BFC132020807
:100CD000DC3202082733020838B50C46887FFFF75C
:100CE000DDFFA58AE28A164B2169586342EA054274
:100CF0005A64628BD963521B1A642568082D0ED181
:100D00009A611A615862207F0E4A42EA0062DA61F3
:100D1000E2681A620C4A5961D9601A6038BD002233
:100D2000D8611A61E1680A0A480902F4784200F4BD
:100D3000FC600243C1F3C4010A439A63034AECE72F
:100D400000B002400900010001230200012303005A
:100D500008B50B280BD8DFE800F00612100A0A0AC3
:100D60000A0808080808022008BD0520FCE7054B12
:100D7000054A06486F2121F013F90020F4E701200D
:100D8000F2E700BFC13202086F33020827330208BE
:100D90002DE9F04191F81D800C464046FFF7D8FF41
:100DA000A77F05463846FFF7D3FF06463846FFF7CC
:100DB00075FFA18A628B444B521A1A649A61228B86
:100DC000521A1A61E28A586342EA01425A6421695E
:100DD0006268D963DA602068802828D0227F0FD823
:100DE000202867D0402865D004281AD0364B45EA21
:100DF000026545F40035B845DD6161D0334A44E011
:100E0000B0F5807F04D0B0F5007FEFD1304800E02E
:100E1000304840EA0262DA61E2681A625E62596151
:100E200032E045EA026242F40032DA61F6E7A06895
:100E3000021DDA62227F45EA026545F40035DD6174
:100E40005E625961017841B1012921D0224B234AC8
:100E500023484FF48D7121F0A3F8DA69418822F418
:100E60007F42013922F0100242EA0122DA610121B7
:100E7000154BDA6942F02002DA61DA699206FCD495
:100E800010229A600029B9D0164A1A60BDE8F08194
:100E9000B2F1FF01DA69408822F47F4200F1FF30AD
:100EA00022F0100242EA002242F0100218BF012193
:100EB000DA61DDE745EA0262034B42F40032B4E74F
:100EC00042F20132E1E700BF00B00240012301001D
:100ED000090002000A000200B9330208D3330208F5
:100EE0002733020801230200024B1B68586803687D
:100EF0005B6918475C2C012070B5044625460A4BF7
:100F00000C30002660602672667245F8203B602235
:100F1000294608F01BFC04F55A63EE6024359D4217
:100F2000FBD1204670BD00BF983D0208034B1A68F4
:100F3000D207FCD423229A60704700BF00B0024061
:100F40007047000030B50F4C2568ED07FCD4232511
:100F50000904A56041F001010225FF2B656361646E
:100F6000E0630AD00849656241EA0363E361074B25
:100F700022626061E060236030BDE561039BA36392
:100F8000034BF8E700B00240090001000100020035
:100F90000100030030B50E4C2568ED07FCD4232575
:100FA0001204A56042F001020225FF2B6563626412
:100FB000E063E16008D01B0643F00213E361054BD8
:100FC00065626061236030BD034BE3610123F9E793
:100FD00000B0024001000200020002FF30B50B4CDD
:100FE0002568ED07FCD4232512041B06A56043F4F5
:100FF0000033022542F0010265636264E063E16050
:10100000E361034B65626061236030BD00B0024064
:1010100001000200012070471020704700EB011012
:101020000830704700EB011008307047012070470E
:1010300040F20C70704740F20C7303FB0100083063
:10104000704740F20C7303FB010008307047012029
:1010500070471020704700EB01100830704700EB1C
:10106000011008307047084601F004BC10B5034B6E
:101070000360044607F097F9204610BD503E020871
:1010800010B50446FFF7F2FF2046182120F04CF877
:10109000204610BD10B5034B0360044607F083F9EA
:1010A000204610BD1C3E020810B50446FFF7F2FFB3
:1010B000204640F2147120F037F8204610BD0000A1
:1010C00010B5034B0360044607F06DF9204610BDD0
:1010D000E83D020810B50446FFF7F2FF204618214C
:1010E00020F022F8204610BD10B5084B03600446DE
:1010F00000F5E860FFF7BAFF04F12C00FFF7CAFF24
:1011000004F11400FFF7DCFF204610BD843E020806
:1011100008B50248FFF7E8FF08BD00BF9C12002099
:1011200010B50446FFF7E0FF204640F6B8011FF077
:10113000FBFF204610BD00002DE9F34101F0E0F86F
:10114000054601F0E1F800240146234628462246E0
:10115000009410F037FF274B274A1A60204602F010
:1011600069F8264D264B274A27489A6010F092FED0
:101170002B68BFF35B8FDB0735D428461FF0D6FF03
:1011800088B3224C224B236004F25C7604F11400F5
:1011900004F12C0804F5E8676060C4F80880E76093
:1011A000266107F001F91B4B6361404607F0FCF82C
:1011B000194BE362384607F0F7F8184BC4F840378C
:1011C00004F5EB6002F0BAF8224604F5EB61304614
:1011D00002F0AAF8304601F04DFB114820F0FEFE67
:1011E00028461FF0AFFF0F4802B0BDE8F041FFF7FF
:1011F000E9BB00BFC02C0120480400209812002049
:10120000680400204C040020080000209C120020EC
:10121000843E0208E83D02081C3E0208503E0208D7
:1012200011110008C4030020704700000148FFF7B7
:10123000D7BB00BFC403002070B5264E264C274DF7
:10124000274B23603046FFF757FE284615F0C0FFB6
:1012500024480EF08BFB244B2448DC6000224FF422
:101260008071C3E9121222491A86C3E91A12214970
:1012700083F85820C3E91E011F49C3F880101F4995
:101280001F480B60F021C3E90422C3E90622C3E929
:101290000822C3E90A22C3E90E22C3E91022C3E9E6
:1012A0001422C3E917225A6683F870205A67C3E9EB
:1012B000016501801348018013484FF4A07101803B
:1012C0001248018012490A70012283F83420114A21
:1012D0001A6070BDF40400209412002068040020FD
:1012E0003C3002084C040020C4030020000001012F
:1012F00001000001000450001A0014005C2C0120C1
:10130000502C0120562C0120522C0120582C012059
:10131000542C0120AC3C02080148FFF779BC00BF07
:10132000F40400200020704781807047C18070471E
:10133000018170474181704770477047704770471F
:10134000704710B4C4880368121B84885B6D091B46
:1013500012B25DF8044B09B218474FF6FF73838150
:101360004FF0FF3303621368C361106070470020C1
:1013700070478B88838001207047704780F8261063
:10138000704790F82600704710B50022B1F9084068
:10139000B1F90A10028042808480C18010BD002211
:1013A000028042808280C28070470177704780ED62
:1013B000080A704780F82410704780F8251070479D
:1013C00001207047983070478C30704784307047E8
:1013D0007047704770470000034B902283F85A23F0
:1013E00083F85823704700BF00E100E0094A0A492A
:1013F000D3680A48C3F30A03013B9BB20B8011690F
:10140000C1F30A01013901801364536B43F00103F6
:101410005363704700680140561B0020541B002096
:10142000014BD3F8AC00704700680140024B012229
:10143000C3F8AC105A6270470068014010B52C2107
:1014400004461FF071FE204610BD10B5BC210446B5
:101450001FF06AFE204610BD70B5044607F0A3FADF
:1014600023689D6E0CF0F2FF01462046A8472368D2
:10147000054AD3F88C502046AC460023BDE87040A6
:10148000A2F51631604700BF00B004D007F072BA71
:1014900007F07CBA07F038BA07F0A7BB90F8252010
:1014A00012B103685B691847704790F825201AB19C
:1014B00090F8242002B1186070470000034B4FF0F1
:1014C00080629A604FF080729A60704700E100E09D
:1014D000084B4FF08062C3F88820BFF34F8FBFF3F3
:1014E0006F8F4FF08072C3F88820BFF34F8FBFF328
:1014F0006F8F704700E100E070B50023124E8380CB
:10150000124B0360336893F8582005460AB1D86C33
:1015100000B998680368DB6A98473368B0FA80F4CA
:10152000D86C640930B10368DB6A9847002808BFAB
:1015300044F001042CB9064B064A07482C2120F040
:101540002FFD284670BD00BF5C2C0120983E02088C
:10155000113402086F340208A834020870B5254E11
:101560003568BFF35B8F15F0010540D130461FF0A1
:10157000DDFD00283BD0204C204B256104F13400D8
:10158000C4E90035C4E90255E584A562A5850EF0DD
:10159000D2FC04F1580009F08FFD194BA3652046D9
:1015A000184B40F8843BFFF7A7FF174BC4F8843073
:1015B0002433C4F88C304FF4C803C4E92835002321
:1015C000C4F8AC30C4F8B030C4F8B430C4F8B830A3
:1015D0000E480F4BC4F89050C4F89C50C4F8A85063
:1015E000C4F8983020F0FAFC30461FF0ABFD0248FA
:1015F00070BD00BF581B00205C1B0020684502081E
:10160000B83E0208303F02081C450208D513000806
:10161000FC44020838B5184C23685BB3174B184AD2
:101620001B6C11888B4216D1164B198803F0F0FB06
:10163000236893F86A200025013283F86A2083F832
:101640007C50FFF7B9FA206807F02AFF2846BDE86A
:101650003840FFF7F9B803F0DBFB24682368204625
:101660001B6A9847012384F87C300020BDE838408D
:10167000FFF714B938BD00BF5C2C012000680140A1
:10168000561B0020541B002007B5064BADF8060082
:101690001B68054801220DF1060104F059F903B059
:1016A0005DF804FB0C0000205C1C002008B56420E1
:1016B00004F00EFEFBE7000030B595B010220021CB
:1016C0000AA820F074FE1422002103A820F06FFE67
:1016D00000241E4B01941A6C42F080521A641B6C59
:1016E00003F080530193019B194B02941A6842F452
:1016F00040421A601B6803F4404302930122029B9C
:101700004FF48033CDE9082302254FF480030821EC
:10171000CDE90E534FF4B473CDE9101308A8042398
:101720001393129503F0CCFB03F090FB0F23CDE94C
:1017300003354FF4A0504FF48053CDE90603052143
:1017400003A8059403F098FD15B030BD00380240A1
:101750000070004080B59AB002F0CCFAFFF7ACFF01
:10176000142200210DA820F022FE0024C74B009473
:101770001A6BC748C74DDFF8588342F010021A634E
:101780001A6B02F010020092009A01941A6B42F058
:1017900020021A631A6B02F020020192019A02944D
:1017A0001A6B42F080021A631A6B02F080020292F6
:1017B000029A03941A6B42F004021A631A6B02F045
:1017C00004020392039A04941A6B42F001021A6312
:1017D0001A6B02F001020492049A05941A6B42F00B
:1017E00002021A631A6B02F002020592059A06942D
:1017F0001A6B42F040021A631A6B02F04002069222
:10180000069A07941A6B42F008021A631B6B03F0E6
:101810000803224607933C21079B02F0F1FC9E48F7
:101820000122022102F0ECFC22469B48042102F036
:10183000E7FC224699484FF4405102F0E1FC0126B2
:101840003C23CDE90D3692480F9403230DA90227BE
:10185000109302F0EBFB90480DA9CDE90D76CDE990
:101860000F4402F0E3FB04238B480DA9CDE90D36AC
:10187000CDE90F4702F0DAFB0DA94FF4405387483A
:10188000CDE90D36CDE90F4702F0D0FB8448854BFA
:10189000036002F0C1FADFF83CE2834B2C62C5E939
:1018A00000E328464FF48043C5E90434C5E9024407
:1018B000C5E9064402F0B2FE1021284603F0F6F80E
:1018C00021462846794D03F010F94FF48273C5E99B
:1018D00000834FF400791823C5E9069328460A23AC
:1018E000C5E90244C5E90444C5E90844AC62EB62B9
:1018F00003F0D2FF8F232246394667488DF8243003
:101900008DF8344002F07CFC32464FF47A7309A91A
:10191000284604F01DF84FF47A7332460DA9284684
:1019200004F0C2F9324639465B48614D02F068FC6A
:101930009DF83430D32B04BF5E4B1E705E4B0126E6
:10194000C5E90036102240230024C5E904234FF4E2
:10195000C073C5E906344FF40063C5E908344FF499
:10196000005302274FF00409AB624FF0030A07232C
:101970000DA92846CDE90D73CDE90F934FF0080866
:10198000C5E90249CDE911A7139703F069FE4FF6A7
:10199000FF7209A92846CDE90A86089409960C9495
:1019A00003F07EFE304602F0D1F94FF6FF7209A92E
:1019B0002846CDE90978CDE90B6403F071FE4FF6B6
:1019C000FF7209A92846CDE909A8CDE90B9403F0D7
:1019D00067FE4FF40C730893089B0C934FF6FF724D
:1019E00009A92846CDE909980B9603F059FE40F263
:1019F0006A51284603F072FE34220DEB02002146A4
:101A000020F0D5FC2D4D2E4B2C61C5E90034092367
:101A1000C5E905361D23C5E9073A40F20D1140F22C
:101A20004313C5E9091340F2171040F24713C5E903
:101A30000B032846C5E90244AC8685F8364003F01E
:101A4000EFF8FF214FF4806CF022CDE9121405214C
:101A5000CDE914C14FF4A0730DA9CDE90E24CDE951
:101A6000164228462246174D1893CDE910370D949B
:101A7000ADF864408DF8664003F09DF9124B2B6081
:101A80001B6898472B68114DDB6825E00038024041
:101A9000001002405C1D002000080240000C0240C3
:101AA000F01D002000300240A08601005C1C0020D8
:101AB000281C00201C1C0020400100A0B41C002099
:101AC00000680140181C002014000020B01D0020F8
:101AD00000500140005C00409847134B2846C5E980
:101AE0000034C5E90274C5E90A47C5E90C4402F0AF
:101AF000A3F93146284602F055FAFEF7D9FDFEF764
:101B0000D6FD04F075FB094A0948214604F09CFB08
:101B1000084B094A18602146084804F095FB084B19
:101B2000186004F077FBFEE700B00240983F02081F
:101B3000AD160008241C0020743F0208BF060008F0
:101B4000201C0020704770477FB5094B8DF8172087
:101B50001B6802930DF117020123009201930A46BC
:101B60000146044802F002FE07B05DF804FB00BF26
:101B7000100000205C1D00207FB500238DF8173079
:101B8000084B1B6802930A4601230DF117010091CF
:101B900001930146044802F079FE9DF8170007B052
:101BA0005DF804FB100000205C1D00201FB5084CF0
:101BB00024680092CDE901340A4601230146054814
:101BC00002F064FE003818BF012004B010BD00BF51
:101BD000100000205C1D002002F0B8B810B5064CC3
:101BE00000222046042102F00BFB20460122BDE822
:101BF0001040042102F004BB0008024038B50B4D30
:101C0000044601220A484FF4005102F0F9FA00227A
:101C10000421284602F0F4FA2046FFF735FD284655
:101C20000122BDE83840042102F0EABA000802406F
:101C3000000C024038B50B4D044600220A484FF410
:101C4000005102F0DDFA00220421284602F0D8FA01
:101C50002046FFF719FD28460122BDE8384004213F
:101C600002F0CEBA00080240000C0240F7B5144E54
:101C7000144F05460C4630460022042102F0C0FAFB
:101C800000224FF40051384602F0BAFA2846FFF716
:101C9000FBFC0D4B0D481B68224601A904F004F81B
:101CA000384601224FF40051019C02F0A9FA304657
:101CB0000122042102F0A4FA204603B0F0BD00BFC7
:101CC00000080240000C02400C0000205C1C0020B8
:101CD00002F03CB80268034B9A4201D102F024B8EA
:101CE000704700BF001000407047000082B00E4BEC
:101CF00000220092596C41F480415964596C01F4FE
:101D00008041009100990192196C41F08051196451
:101D10001B6C03F080530193019B0F216FF00100B6
:101D200002B002F039B800BF003802400268094B27
:101D30009A4282B00BD100230193074B1A6B42F4F5
:101D400080521A631B6B03F480530193019B02B012
:101D5000704700BF003002400038024007B50F4B0B
:101D600002689A4216D10022A3F5F0430192196B42
:101D700041F4000119631B6B03F400030193052177
:101D80005A20019B02F008F85A2003B05DF804EBDA
:101D900002F034B803B05DF804FB00BF00B00240AD
:101DA0002DE9F043044689B01422002103A820F055
:101DB000FEFA2268244B9A4243D1244C2448002541
:101DC0000095236B43F004032363236B03F00403A8
:101DD0000093009B0195236B43F001032363236B66
:101DE00003F001030193019B4FF012094FF40073BC
:101DF0004FF001080327042603A9CDE90339CDE9F3
:101E00000587079602F012F94FF480731148079680
:101E100003A9CDE90339CDE9058702F007F9029559
:101E2000236C43F400032364236C03F40003029344
:101E3000029B236A43F400032362236A23F4000312
:101E4000236209B0BDE8F083005C00400038024026
:101E50000008024000000240F0B599B00446142288
:101E6000002107A820F0A3FA30220DEB0200002188
:101E700020F09DFA22685E4B9A4240F0B78008231A
:101E80000C93C0231093042312930CA84FF4003337
:101E9000159303F0B9FA08B1FFF726FF554B5648E2
:101EA000002400945A6C42F080625A645A6C02F02A
:101EB00080620092009A01941A6B42F020021A6329
:101EC0001A6B02F020020192019A02941A6B42F0FE
:101ED00001021A631A6B02F001020292029A039441
:101EE0001A6B42F002021A631A6B02F002020392AA
:101EF000039A04941A6B42F040021A631A6B02F0C0
:101F000040020492049A05941A6B42F004021A6388
:101F10001A6B02F004020592059A06941A6B42F0BD
:101F200008021A631B6B03F00803069302250E26B2
:101F3000069B0B964FF4806307A9CDE90735CDE9E1
:101F4000094502F073F841F658032C480B9607A98F
:101F5000CDE907350927CDE9094502F067F80323E4
:101F600027480B9707A9CDE90735CDE9094502F0C8
:101F70005DF84FF4706322480B9607A9CDE9073549
:101F8000CDE9094502F052F84FF40C631D480B9659
:101F900007A9CDE90735CDE9094502F047F8C02387
:101FA00019480B9607A9CDE90735CDE9094502F097
:101FB0003DF8082315480B9607A9CDE90735CDE96B
:101FC000094502F033F84FF4A0530E480B9707A9C8
:101FD000CDE90735CDE9094502F028F85820224619
:101FE000052101F0D9FE582001F008FF19B0F0BD1D
:101FF0000068014000380240001402400000024026
:10200000000402400018024000080240000C024098
:1020100010B5044688B01422002103A820F0C7F9A7
:102020002268144B9A4223D103F5684300210191A1
:102030005A6C114842F480125A645A6C02F48012AD
:102040000192019A02911A6B42F020021A631B6BF3
:1020500003F020030293029B4FF4607202230321DA
:10206000CDE903230523CDE9061303A901F0DEFF23
:1020700008B010BD00500140001402402DE9F041AD
:1020800086B0002303932B4B1C68002C4FD14FF0DC
:102090000108C3F80080284B00949A6B274842EA55
:1020A00008029A639B6B03EA080300930227032646
:1020B0000C25009B01A94FF63F03CDE90137CDE97F
:1020C000046501F0B3FF1E48059501A9CDE901871C
:1020D000CDE9034601F0AAFF48F2331319480595EC
:1020E00001A9CDE90137CDE9034601F09FFF4FF685
:1020F00083731548059501A9CDE90137CDE903465C
:1021000001F094FF4CF203731048059501A9CDE945
:102110000137CDE9034601F089FF60230C4805959E
:1021200001A9CDE90137CDE9034601F07FFF06B0F3
:10213000BDE8F081F81D0020003802400014024084
:10214000000802400018024000100240000C02404B
:102150000004024070B588B000230293204B1A6C33
:1021600042F010021A641B6C03F010030293054640
:1021700001A903A8029B03F029F9069B4BBB03F0BE
:1021800015F9184E184B336040F2E733F360174BE4
:10219000B0FBF3F3013B7360304600233361B3605F
:1021A000B36103F051FF044680B9304603F022FECC
:1021B000044658B9362001F021FE0F2D0DD82246D5
:1021C0002946362001F0E8FD094B1D60204608B085
:1021D00070BD03F0EBF84000D3E70124F6E700BF41
:1021E00000380240FC1D00200010004040420F005B
:1021F0007C0000207047FEE7FEE7FEE7FEE7704741
:10220000014803F035BE00BFFC1D0020014802F06C
:1022100075BD00BFB41C0020014801F039BE00BFED
:10222000B01D00200120704708B520F063F9162387
:1022300003604FF0FF3008BD08B520F05BF91623AE
:102240000360FEE770B50D4614460E46731B9C42B4
:1022500001DC204670BDAFF3008006F8010BF5E706
:1022600070B50D4614460E46731B9C4201DC204699
:1022700070BD16F8010BAFF30080F5E74FF0FF30AB
:1022800070474FF400534B600020704701207047A7
:10229000002070470A4A116808B5034609B9094980
:1022A00011601068694603448B4206D920F022F978
:1022B0000C2303604FF0FF3008BD1360FCE700BF44
:1022C000441E0020A0390120704710B504210446A7
:1022D0001EF02AFF204610BD012908B506D00229AC
:1022E00008D059B900F0F2FF006808BD00F0EEFF19
:1022F0004068FAE700F0EAFF8068F6E70020F4E7BC
:1023000000487047D03F02080A20704713B50024E8
:1023100051B1036801948DF8034001AA9C680DF146
:102320000303A04702B010BD0846FBE7C089704711
:10233000008A7047C088704780887047807A00F0B4
:102340007F007047807AC009704700207047000006
:102350009FED010A704700BF00000000704710B5F4
:10236000082104461EF0E0FE204610BD704770476D
:1023700000F598730868496803C370477047704751
:102380004160704770477047064BC0F84C310023DE
:10239000C0F8503100F5A273C0F84801C0F84031D0
:1023A000704700BFA92600080123037270477047D9
:1023B000704738B5054640680368DB6998470446AE
:1023C00004B938BDA188AB89C91A236820461B6BA4
:1023D00009B29847A469F3E710B4C2684168541081
:1023E000034601EB6200D20748BF0A599B685DF8BB
:1023F000044B48BFD35818470346406830B19A6829
:102400001AB9D86800F0010070470120704710B574
:102410000C2104461EF088FE204610BD10B5102188
:1024200004461EF081FE204610BD10B51021044662
:102430001EF07AFE204610BD10B54FF4AE71044672
:102440001EF072FE204610BD10B50BF0FFFF0368B2
:10245000BDE81040DB6B184710B50BF0F7FF0368C1
:10246000BDE810405B6B184737B50546807A6B7A3C
:102470000130C0B29842A87205D901232B72002303
:10248000AB7203B030BDB5F90C20B5F90E40002198
:102490000EF0DCF9C30707D500284FF6FF73C8BF5D
:1024A000012313FA80F000B2AB7AE881041B012B00
:1024B000A4B206D1174B1B781BB10BF0C7FF0BF072
:1024C000CBFF154A00231288ADF80230EB891A447D
:1024D0005B42ADF80430114BADF800201B88ADF81D
:1024E00006300BF0B3FF036802AA12E906001B6C6A
:1024F000984768680368DB6998470546002DC0D097
:10250000A9882B68214428461B6B09B29847AD69FE
:10251000F4E700BF5A2C0120502C0120522C01203E
:1025200010B50446D0F8400158B10368DB689847FD
:1025300038B1D4F8400103689B6898470023C4F879
:10254000403110BD2DE9F14FD0E9556A0746B0681A
:1025500003681B6A984740F20B73984205D8494BB1
:10256000494AA32149481FF01BFD706803681B6A94
:1025700098470F2803D8464B434AA421F2E7F06856
:1025800003681B6A98470F2803D8424B3E4AA5218F
:10259000E8E70BF05BFFDFF8089104300BF0A3FFD6
:1025A000D9F8000010B10368DB689847D9F800003B
:1025B00010B103681B689847DFF8E880D8F800007E
:1025C00010B103685B699847D7F83C0110B1036804
:1025D0005B689847D8F8000010B103681B689847FB
:1025E000D7F83C0110B103689B689847F06803680E
:1025F00000215B6A9847284B03604FF4A053038186
:10260000264B1B884FF0000B80F80AB05B42044653
:10261000C0F804B0A0F80EB08381B06803685946D2
:102620005B6A9847054600F003FF706803685946E7
:102630005B6A98472946064600F0CEFE331DC7F870
:102640003C61C9F80040C8F80050CAF800302B6857
:10265000C6F808A02846DB68EE6398473368304622
:102660001B689847214628460EF0EAF82368204662
:102670001B69984723685B69204601B0BDE8F04FAD
:10268000184700BF1F350208AD3502089236020810
:10269000D93602087C37020840410208502C01203C
:1026A000A42C0120A02C01202DE9F14FD0E9556A7E
:1026B0000746B06803681B6A9847B0F58E7F05D25D
:1026C000444B454AA32145481FF06AFC70680368E3
:1026D0001B6A98470F2803D8414B3F4AA421F2E7D1
:1026E000F06803681B6A98470B2803D83D4B3A4AA9
:1026F000A521E8E70BF0AAFEDFF8F09004300BF01C
:10270000F2FED9F8000010B10368DB689847D9F8E9
:10271000000010B103681B689847DFF8D480D8F830
:10272000000010B103685B699847D7F83C0110B10D
:1027300003685B689847D8F8000010B103681B680D
:102740009847D7F83C0110B103689B689847F06838
:10275000036800215B6A98474FF0000B224BC0F8DA
:1027600004B0044680F808B00360B06803685946B6
:102770005B6A9847054600F015FE70680368594685
:102780005B6A98472946064600F0EAFD331DC7F804
:102790003C61C9F80040C8F80050CAF800302B6806
:1027A000C6F808A02846DB68EE63984733683046D1
:1027B0001B689847214628460EF042F823682046B9
:1027C0001B69984723685B69204601B0BDE8F04F5C
:1027D000184700BF1F3502081F380208923602084A
:1027E000D93602087C3702081C410208A42C0120BB
:1027F000A02C0120044B1B6893F858200AB1D86C18
:1028000000B99868704700BF5C2C0120F8B51746E6
:1028100004460E460BF004FF124B1C60124B236063
:10282000124B0025C4E95135114BC4E953551868C2
:10283000036801219B68C4E94F55C4E95576984760
:10284000284600F0F7FCFFF7D5FF16F06AFBFFF70C
:10285000D1FF16F0E1FBFFF7CDFF16F0E9FB2046B4
:10286000F8BD00BFB02C0120C8400208B0400208EB
:102870005C2C0120064BC0F84C310023C0F85031CD
:1028800000F5A273C0F84801C0F84031704700BF9E
:10289000A9260008064BC0F84C310023C0F850317F
:1028A00000F5A273C0F84801C0F84031704700BF7E
:1028B00045250008406A7047806A704770478A88DB
:1028C0000B8810B5D20A4C88C1699BB251F822001E
:1028D00043EA0443184410BD10B50446BAB1107B56
:1028E00068B1537BD27A1B0203F4E0631A43236A74
:1028F00003EB82031A888A4202D193F9020010BDC9
:1029000005D8013880B204330028F3D1F7E700205E
:10291000F5E710B52C2104461EF006FC204610BD3C
:1029200030B58BB00446BDF860500895BDF85C50DA
:1029300007959DF8505006959DF84C5005959DF8CB
:10294000485004959DF8445003959DF840500295D9
:102950009DF83C500195BDF8385000950DF0A8FB4E
:10296000064B2360159BE361169B2362199B6362F0
:102970001A9BA36220460BB030BD00BF6441020821
:10298000704770477047704770477047704770478F
:1029900030B4C26844685510034604EB6200D207A5
:1029A00048BF62599B6830BC48BFD358184703469C
:1029B000406830B19A681AB9D86800F001007047D1
:1029C0000120704710B5102104461EF0ADFB2046D3
:1029D00010BD10B54FF48E7104461EF0A5FB2046C5
:1029E00010BDC430884208B505D10BF02FFDBDE8FD
:1029F0000840FFF74FBF08BD70B5036804461B6B66
:102A0000154698472368294620465B6BBDE8704011
:102A1000184770B504461D46BDF91060FFF7ECFF7E
:102A20002368294620469B6B9847236831462046F9
:102A3000DB6BBDE870401847094A02604FF48071B3
:102A400000228184FF21C0E90122C0E90322C0E9FC
:102A50000522C0E9072280F826108262704700BF75
:102A6000A0460208F8B5194B018F1B888B42064619
:102A70002AD9174B1B682BB9164B174A17486C21DC
:102A80001FF08EFA13F81120154B1B6853F82250D3
:102A9000144B186800F00AFC2B6807469B6B28460D
:102AA00098472B6804469B6C3946284698472B6804
:102AB00014FB00F45B6A394628469847A4B22318F1
:102AC0001BB2A6F84630F8BD0023FAE7B82C012067
:102AD000B42C0120F1380208333902086E3902089B
:102AE000BC2C0120C02C01202DE9F04F044685B0FC
:102AF000274600250DF0F8FC454BE56347F8403BC1
:102B000004F16C0A3846FFF797FF5046FFF794FF31
:102B10004FF480724FF6FF7304F19809A4F8BC20BB
:102B20003C4AC4F8982004F1C406A4F8BE3084F8E6
:102B3000C03003A94846C4E92755C4E92955C4E96A
:102B40002B55C4E92D55ADF80C3008F080FF304608
:102B500009F0B4F8304BC4E94334304B4FF4A07B58
:102B6000C4E945352A4629463846CDF800B0F02359
:102B7000FFF74FFF04F104084FF07F43A366394687
:102B8000404605F025FC2A4629465046CDF800B0BF
:102B9000F023FFF73EFF224BC4F8943051464046E5
:102BA00005F016FC172248461821FFF725FF0923D8
:102BB00003A94846ADF80C3008F049FF49464046A5
:102BC00005F006FC3046EA224121FFF715FF03AA73
:102BD00002A901233046ADF80C30ADF8085008F0DA
:102BE00004FE0523A4F8FC303046FFF73BFF4FF00E
:102BF000FF33C4E9403304F586734046C4F8EC3033
:102C0000314605F0E5FB204605B0BDE8F08F00BF7A
:102C1000E441020808470208CC410208E329000801
:102C200011AD2EFF30B5036885B06D460181D3F834
:102C30008430014604462846984795E807003C340E
:102C400084E8070005B030BD30B5036885B06D4637
:102C50004181D3F88430014604462846984795E8D8
:102C600007003C3484E8070005B030BD0022028034
:102C700042808280C280704780F83610704770B5FD
:102C8000036804461B6B154698472368294620466F
:102C90005B6EBDE87040184700207047806C70473D
:102CA00070477047704710B54C2104461EF03CFA3F
:102CB000204610BD10B54FF4D47104461EF034FA0E
:102CC000204610BD08B5FEF7E9FB08BD036870B5E6
:102CD0005E6B124B1B6804468DB22BB9104B114A28
:102CE0006C2111481FF05CF91049828D09889142CE
:102CF00003D80F4B0B4A6D21F3E713F812200D4B4D
:102D00001B6853F8220003681B6B9847291A334647
:102D1000204609B2BDE87040184700BFB42C01201E
:102D2000F1380208333902086E390208B82C012044
:102D3000B5390208BC2C012000224FF0FF31C0E958
:102D40000021826070470000074A02600022C0E94B
:102D50000122C0E90322C0E90522C0E907224FF49D
:102D600080728284704700BF4C4802082DE9F04F02
:102D700004468BB0A04600250DF0B6FB894BE563F9
:102D800048F8403B2622294640461FF010FB4046AB
:102D9000FFF7DAFF844B236404F16C0AFF2384F805
:102DA000663004F198094FF6FF7608A9A5665046EB
:102DB00004F1C407ADF8206008F0E6F908A9484618
:102DC000ADF8206008F0E0F92622294638461FF0C9
:102DD000EEFA3846FFF7B8FF744BC4F8EC304FF406
:102DE0007F03C4F8F830724BC4F8C43004F5887B14
:102DF0004FF0FF33C4E94135A4F8F060C4F8F45053
:102E0000A4F8FC50C4F80051C4F80C515846FFF720
:102E10009BFF684EC4F8106104F59E731846C4F811
:102E200038510393FFF790FF04F5B473C4F83C6185
:102E30001846C4F864510293FFF786FF4FF4A0735D
:102E40002A46C4F868614046C4F890512946009368
:102E5000F023FFF7DEFD261D4FF07F434146A366BA
:102E6000304605F0B5FA022308A95046ADF82030E7
:102E700008F0EDFD282340F2171200935A213C235D
:102E80005046FFF7C6FD2946504608F038F951462E
:102E9000304605F09DFA062308A94846ADF82030D3
:102EA00008F0D5FD24230093EF2266214846FFF762
:102EB000B0FD2946484608F022F94946304605F05B
:102EC00087FA2A464A213846FFF796FD4FF0FF332E
:102ED000C4F8F430D4F8C430A4F8F8500DF1100858
:102EE0004046D3F884303946984798E8070004F5FF
:102EF000807383E80700304B1B6804F5CA782BB950
:102F00002E4B2F4A60212F481FF04AF82E4B1B886A
:102F10001BB92E4B2A4A6121F5E72D4B294618682B
:102F200000F0C4F92B4A03460A2140460EF0A4FFE4
:102F30003846C4F80C8108F0DBFB1C4B089308A949
:102F400004233846ADF8243008F0F2FB3946304609
:102F500005F03EFA50230093EF22F023294658460D
:102F6000FFF757FD5946304605F032FAD72303984C
:102F700000931822F0232946FFF74BFD03993046B2
:102F800005F026FA1823029800932A46F0232946D2
:102F9000FFF73FFD3046029905F01AFA20460BB0C4
:102FA000BDE8F08FA8420208A0460208A04002082F
:102FB000184202083C440208B42C0120F1380208EF
:102FC000F33902086E390208B82C0120B53902081D
:102FD000C02C01203E3A02087047000030B5164D63
:102FE0002C6814F001048FB0BFF35B8F20D128460A
:102FF0001EF09CF8E0B13F230993104B0893104B4F
:10300000104911480A940122CDE906430423CDE971
:1030100003320A230093CDE90B44CDE90144059422
:10302000FFF77EFC09481EF0D9FF28461EF08AF8FB
:1030300005480FB030BD00BF481E00207065020873
:1030400080650208806302084C1E0020D92F00080A
:103050007047000030B5174D2C6814F001048FB094
:10306000BFF35B8F22D128461EF060F8F0B13F23FA
:103070000993114B0893114B114912480A94CDE959
:10308000064301220423CDE90332142300931922BD
:103090001823CDE90B44CDE901440594FFF740FC2A
:1030A00009481EF09BFF28461EF04CF805480FB05B
:1030B00030BD00BF781E00207465020884650208D8
:1030C000906302087C1E0020513000087047000009
:1030D00030B5174D2C6814F001048FB0BFF35B8F2F
:1030E00022D128461EF022F8F0B13F230993114B5C
:1030F0000893114B114912480A94CDE90643012265
:103100000423CDE903322823009309222923CDE9A2
:103110000B44CDE901440594FFF702FC09481EF079
:103120005DFF28461EF00EF805480FB030BD00BF09
:10313000A81E00207865020888650208F06402086D
:10314000AC1E0020CD3000080020704700207047E2
:103150000EB403B503AB002153F8042B01930CF01C
:1031600025FA02B05DF804EB03B070470CB407B564
:1031700004AB53F8042B01930CF018FA03B05DF87C
:1031800004EB02B070470000436C10B5044673B303
:10319000038F2BB9184B194AC52119481EF000FF9F
:1031A000C38E00EB43035B8C0BB30EF0BCF8238F94
:1031B000012B03D8134B144ACB21EEE7E28E531CAC
:1031C0009BB2092B194688BFA3F10A0104EB410108
:1031D00040F63F10498C814209D10A2B04EB420290
:1031E00028BF002304EB4303508C588451842046AD
:1031F000BDE810400DF09ABF413A02084A3A020871
:10320000F53A02083F3B02084D3B02080DF055BF5E
:1032100010B586B002AC84E806001A460AAB0593E6
:103220000193099B00932146089B0AF091FC06B08C
:1032300010BD000038B518BB124B13481C68134969
:10324000B4B1226822440260626822440A60A26823
:1032500014440F4B00221A8000F038F8054600F0A5
:1032600033F80C4B1C600C4B1D600C4B188007E0B6
:103270000B4B03600B4B0B600B4B1C68002CE8D115
:1032800038BD00BFE41E0020DC1E0020D81E002038
:10329000E01E0020B42C0120BC2C0120B82C012001
:1032A000A46502088C65020804660208044B1B68CA
:1032B00053F82100034B1B6803EB4000704700BF2D
:1032C000D81E0020DC1E00200620704700487047F2
:1032D000E81E002010B5FFF7BDFE044C2060FFF78C
:1032E000F7FE6060FFF77AFEA06010BDE81E0020C8
:1032F00010B5002404600C6014601C6010BD7047A1
:1033000010B54FF4AE7104461DF00EFF204610BDFF
:1033100010B50446D0F8580100F013F82046BDE877
:1033200010400BF03DB9000010B50446FFF76EFAEF
:10333000014B2360204610BDDC42020800220260DF
:1033400070477047704704387047704710B51021B8
:1033500004461DF0E9FE204610BDA0F10400F5E78B
:1033600000228260024A026018324260C1607047E7
:10337000304302087047000010B5034B0360044659
:10338000FFF704FB204610BD5843020810B5044661
:10339000FFF7F2FF20464FF48E711DF0C5FE204668
:1033A00010BD000010B50446FFF79EFB014B2360E3
:1033B000204610BD58430208FFF7E9BA70470438A9
:1033C0007047704710B5102104461DF0ADFE204631
:1033D00010BDA0F10400F5E700228260024A0260FD
:1033E00018324260C16070478C43020838B5094BFF
:1033F0000360044640F2C465B5F5CE7F05D063593D
:1034000060191B6898472C3DF6E72046FFF749FCFA
:10341000204638BDB443020810B50446FFF7E6FF66
:10342000204640F20C711DF07FFE204610BD0000CA
:103430002DE9F3470646DFF89CA0FFF797FC244BE5
:10344000336006F5E47406F5DE694FF6FF77002574
:1034500004F584780123A580E58025816581A58117
:10346000E58125826582E5612584658484F82450A0
:1034700084F82530C4F800A0E78484F82870C4E9F3
:103480000555204601A92C34ADF8047008F0DFFA88
:103490004445DFD14C45DBD1C6F8F056C6F8085795
:1034A000334606F11E01002283F8A82183F8A921E2
:1034B00083F8AA2183F8AB2183F8AC2183F8AD21EE
:1034C00006338B42F0D1304602B0BDE8F08700BF32
:1034D000B4430208084702082DE9F84300F5D47503
:1034E00000264FF064092C464FF00008052714F819
:1034F000013B6BB123785BB100F022FC4044B0FB90
:10350000F9F309FB13001D289CBF14F8013C23703C
:10351000013FB044EBD10136032E05F10605E2D19F
:10352000BDE8F883F8B500F11E0104460346002209
:1035300083F8A82183F8A92183F8AA2183F8AB2175
:1035400083F8AC2183F8AD2106338B42F0D100F033
:10355000F7FB04F2A71100F127074FF0050C0D4609
:10356000024600F12A06B2FBFCF303EB8303D31AF5
:1035700007320133B24205F8013FF4D10D30B842B1
:1035800001F10601EBD12046BDE8F840FFF7A4BFEA
:103590002DE9F04F87B0B0F940310293B0F94231D4
:1035A0000393074600F2A71A4FF00008039AC8EBEE
:1035B000481313441BB201934FF4847318F0010FA6
:1035C00003FB0875029B14BF122400241C44A4B200
:1035D000D3464FF000091BF8013F5BB3013BD5F820
:1035E000C82105F5E476042B0BD8DFE803F0033C93
:1035F0003F424500136E0622ADF8142005A930465F
:103600009847D5F8C83121B21B6B30469847D5F89A
:10361000C83101995B6B30469847D5F8C8312021F5
:103620009B6B30469847D5F8C8312021DB6B30467C
:103630009847012309F101092434B9F1060F85F8EF
:10364000ED31A4B205F12C05C5D108F10108B8F19E
:10365000050F0AF1060AA9D107F59E7007B0BDE86B
:10366000F04F0CF0CDB8136E0322C5E7136E0422A1
:10367000C2E7136E0722BFE7136E0522BCE713B53E
:10368000044600F05DFB0522B0FBF2F303EB83037D
:10369000C31A0133DBB2023B9834032B03D8DFE8B3
:1036A00003F0070917190623ADF8043001A906E055
:1036B0000323F9E70423ADF804300DEB03012046A2
:1036C00008F0C5F9204602B0BDE810400CF098B8EB
:1036D0000723E9E7ADF80420E8E7000038B5044621
:1036E00000F5CA75D0F8F036064A28460A210EF0D1
:1036F000C3FBC4F80C5104F1C400BDE838400CF021
:103700007FB800BF1F3C0208034600F5A5610022F8
:1037100083F8ED2183F8192283F8452283F871227A
:1037200083F89D2283F8C92203F584739942EFD16F
:103730001E22002100F5D4701EF039BEFFF7E4BF51
:103740002DE9F8430446FFF7ADFA0025A84604F535
:103750009E796619002786F8ED8106F5E4714846E2
:10376000013704F035FE062F06F12C06F3D105F5DE
:103770008475B5F5A56FECD12046C4F80887FFF72E
:10378000D1FE2046FFF704FF2046FFF778FF2046D2
:10379000BDE8F843FFF7A2BFF02070474FF4A070D8
:1037A00070472920FEF746BA2820FEF743BA08B52D
:1037B000FEF714FACA20FEF73DFAC320FEF71EFA00
:1037C0000820FEF71BFA5020FEF718FACF20FEF76C
:1037D00031FA0020FEF712FAC120FEF70FFA30206E
:1037E000FEF70CFAED20FEF725FA6420FEF706FA44
:1037F0000320FEF703FA1220FEF700FA8120FEF7FD
:10380000FDF9E820FEF716FA8520FEF7F7F900200B
:10381000FEF7F4F97820FEF7F1F9CB20FEF70AFA6B
:103820003920FEF7EBF92C20FEF7E8F90020FEF72F
:10383000E5F93420FEF7E2F90220FEF7DFF9F72080
:10384000FEF7F8F92020FEF7D9F9EA20FEF7F2F9A1
:103850000020FEF7D3F90020FEF7D0F9B120FEF7E3
:10386000E9F90020FEF7CAF91B20FEF7C7F9B620D8
:10387000FEF7E0F90A20FEF7C1F9A220FEF7BEF933
:10388000C020FEF7D7F91020FEF7B8F9C120FEF7E7
:10389000D1F91020FEF7B2F9C520FEF7CBF945208B
:1038A000FEF7ACF91520FEF7A9F9C720FEF7C2F91B
:1038B0009020FEF7A3F93620FEF7BCF9C820FEF7EA
:1038C0009DF9F220FEF7B6F90020FEF797F9B02037
:1038D000FEF7B0F9C220FEF791F9B620FEF7AAF97B
:1038E0000A20FEF78BF9A720FEF788F92720FEF7BC
:1038F00085F90420FEF782F92A20FEF79BF90020C3
:10390000FEF77CF90020FEF779F90020FEF776F942
:10391000EF20FEF773F92B20FEF78CF90020FEF75D
:103920006DF90020FEF76AF90120FEF767F93F20E4
:10393000FEF764F9F620FEF77DF90120FEF75EF947
:103940000020FEF75BF90620FEF758F92C20FEF761
:1039500071F9C820FEF7BCF92620FEF76BF90120AB
:10396000FEF74CF9E020FEF765F90F20FEF746F967
:103970002920FEF743F92420FEF740F90C20FEF73A
:103980003DF90E20FEF73AF90920FEF737F94E20EF
:10399000FEF734F97820FEF731F93C20FEF72EF9D6
:1039A0000920FEF72BF91320FEF728F90520FEF772
:1039B00025F91720FEF722F91120FEF71FF9002044
:1039C000FEF71CF9E120FEF735F90020FEF716F9A5
:1039D0001620FEF713F91B20FEF710F90420FEF75E
:1039E0000DF91120FEF70AF90720FEF707F931203B
:1039F000FEF704F93320FEF701F94220FEF7FEF846
:103A00000520FEF7FBF80C20FEF7F8F80A20FEF779
:103A1000F5F82820FEF7F2F82F20FEF7EFF80F2038
:103A2000FEF7ECF81120FEF705F9C820FEF750F973
:103A30002920FEF7FFF8BDE808402C20FEF7FAB871
:103A400008B5FEF7CBF80321D320FEF70FF980B2BB
:103A500008BD10B5C4B2022203212046FEF774F857
:103A60000A20FEF7B9F8204600220321FEF76CF881
:103A7000BDE810400220FEF7AFB838B50446E4B206
:103A8000FEF760F800212046FEF776F80121054692
:103A90002046FEF771F840EA052080B238BD10B527
:103AA000C4B240212046FEF767F8030607D54C2133
:103AB0002046FEF761F8003818BF012010BD012232
:103AC0004B212046FEF740F8204600224B21FEF70E
:103AD0003BF80020F2E773B50423C4B20E46154646
:103AE000D7210DEB03022046FEF760F8019B1BBABD
:103AF0001A0DC3F30B23328020462B8001224B2169
:103B0000FEF722F800224B212046FEF71DF802B0F6
:103B100070BD000010B50A4A1378984204460DD0D3
:103B2000517888420AD00BB141B90123D454FEF731
:103B300009F82046BDE81040FFF78BBF10BD00BF5D
:103B4000F41E002010B5C4B209212046FEF714F877
:103B500040F00102D2B220460921BDE81040FDF735
:103B6000F3BF10B5C4B209212046FEF705F80921BC
:103B700000F0FE022046BDE81040FDF7E5BF38B575
:103B8000C4B20D4620460A21FDF7F6FF40EA0502C1
:103B9000D2B220460A21BDE83840FDF7D5BF10B5A6
:103BA0000446FDF7D0FF20461F21FFF7E8FF20461F
:103BB000BDE81040FFF7C6BF38B5C4B20D46204679
:103BC0000A21FDF7D9FF20EA0502D2B220460A21D8
:103BD000BDE83840FDF7B8BF10B50446FFF7C1FF98
:103BE00020461F21BDE81040FFF7E6BF10B5C0B268
:103BF0000C460B21FDF7C0FF204010BD1F21FFF731
:103C0000F5BF0A46C0B20B21FDF79EBF1F21FFF78B
:103C1000F8BF38B5C4B20D4620461721FDF7ACFFFA
:103C200020EA0502D2B220461721BDE83840FDF750
:103C30008BBF70B5C4B2064604212046FDF79CFF39
:103C4000042100F0FB0205462046FDF77DFF3046CB
:103C5000F021FFF7DEFF05F0F80220460421FDF712
:103C600073FF492220212046FDF76EFF0220FDF759
:103C7000B3FF204601222121FDF766FF20469A224C
:103C80004121FDF761FF204601224A21FDF75CFF3B
:103C9000204601224B21FDF757FF204600224B21F1
:103CA000FDF752FF204601225621FDF74DFF204629
:103CB00001225821FDF748FF204601224021FDF74F
:103CC00043FF2046FF220B21FDF73EFFBDE8704079
:103CD0000220FDF781BF0000054BD3F8882042F495
:103CE0007002C3F888204FF000629A60704700BFEE
:103CF00000ED00E008B50B4B1A6842F400721A6040
:103D00001A6842F480621A601A6842F480721A607B
:103D1000032000F02FF80020FEF71CFAFDF7E6FF65
:103D2000002008BD003C0240034A044B11681B7888
:103D30000B441360704700BFF81E0020780000207D
:103D4000014B1868704700BFF81E002038B50446C4
:103D5000FFF7F6FF631C1CBF054B1B78054618BF19
:103D6000E418FFF7EDFF431BA342FAD338BD00BFB1
:103D7000780000200749CA6822F4E06203021204B6
:103D800003F4E063120C134343F0BF6343F40033C6
:103D9000CB60704700ED00E0164B30B5DC68C4F333
:103DA0000224C4F10703251D042B28BF0423062D7C
:103DB0004FF0FF358CBF033C002405FA03F321EAE2
:103DC0000303A54022EA0502A340002843EA0203B8
:103DD000ACBF00F16040084A4FEA0313B8BF00F0DF
:103DE0000F00DBB2AABF00F56140135480F8003326
:103DF00030BD00BF00ED00E014ED00E0002807DB5F
:103E0000044A4109012300F01F00834042F8213099
:103E1000704700BF00E100E010B5044650B143799F
:103E200003F0FF0213B90271FDF780FF01236371F4
:103E3000002010BD0120FCE710B5044620B390F827
:103E4000393003F0FF021BB980F83820FDF786FFF8
:103E5000022384F83930236861681A6822F44032FA
:103E60000A431A605A6BA16822F007020A435A6398
:103E70001A6CE1686FF30D020A431A6400200123F3
:103E8000E06384F8393010BD0120FCE770477047CB
:103E9000036870B55E681D68F207044614D5E9052D
:103EA00012D51A6822F480721A60C26B42F00102C5
:103EB000C26301229A60042380F83930002380F81D
:103EC0003830436903B19847B20616D5AB0414D510
:103ED00023681A6822F400521A6020229A60E36B69
:103EE00043F00203E363042384F83930002384F8A9
:103EF000383063690BB120469847300716D529053D
:103F000014D523681A6822F400621A6008229A60A5
:103F1000E36B43F00403E363042384F839300023A4
:103F200084F8383063690BB12046984772070BD587
:103F30006B0509D523681A6822F480621A6004228E
:103F40009A602046FFF7A2FFB00714D5A90512D545
:103F500023681A6822F400721A6002229A60E36BE6
:103F6000E363012384F83930002384F8383023696F
:103F70000BB120469847F20613D5EB0411D5236800
:103F80001A6822F480521A6010229A60E36BE3638D
:103F9000012384F83930002384F838302046FFF7B5
:103FA00076FF70BDF0B590F83820012A03464FF037
:103FB00002002BD0012283F8382083F8390003EB6C
:103FC0000112D2E90740556A174F44EA0040093C04
:103FD000012C9CBF05F07F4210434FEA01161A687E
:103FE00088BF40EA056091B9516A39400143516286
:103FF000012C9969916103D8596A21F07F4191623E
:104000000122002083F8392083F83800F0BDD169FF
:1040100039400143D1619919012C896911619CBF13
:1040200025F07F451562EBE7F0FFFC002DE9F74F27
:10403000DFF8BC916C4A00230D6801249C4004EA1F
:104040000506AC4340F0B7804D68032705F0030434
:104050004FEA430807FA08FC671E012F6FEA0C0CB1
:1040600034D8876807EA0C0ECF6807FA08F747EAE2
:104070000E078760476827EA060EC5F300179F40C2
:1040800047EA0E074760C76807EA0C0E8F6807FA11
:1040900008F747EA0E07022CC76019D14FEAD30A86
:1040A00000EB8A0A03F0070BDAF820704FEA8B0B5B
:1040B0004FF00F0E0EFA0BFE27EA0E0E0F6907FAED
:1040C0000BF747EA0E07CAF8207001E0032CDAD19B
:1040D000076804FA08F407EA0C073C4315F4403F6C
:1040E000046068D000240194D9F8444044F480442A
:1040F000C9F84440D9F8444023F0030707F180474A
:1041000004F4804407F59C37019403F0030C019CF0
:10411000D7F808E04FEA8C0C0F2404FA0CF42EEACE
:10412000040E324CA0424DD004F58064A0424BD026
:1041300004F58064A04249D004F58064A04247D0D1
:1041400004F58064A04245D004F58064A04243D0C9
:1041500004F58064A04241D004F58064A0423FD0C1
:1041600004F58064A0423DD004F58064A04214BFF1
:104170000A24092404FA0CF444EA0E04BC6094688E
:10418000F74315F4801F0CBF3C4034439460D4685F
:1041900015F4001F0CBF3C403443D460546815F440
:1041A000003F0CBF3C40344354601468ED0354BFDF
:1041B0003C40344314600133102B7FF43DAF03B017
:1041C000BDE8F08F0024D5E70124D3E70224D1E72E
:1041D0000324CFE70424CDE70524CBE70624C9E771
:1041E0000724C7E70824C5E7003C0140000002405F
:1041F000003802400369194214BF012000207047B3
:104200000AB1816170470904FBE7436901EA0302CF
:1042100021EA030141EA02418161704701684B696B
:1042200013F480634FF0000210D06FF480634B6191
:104230002023026380F83D3080F83E20036C80F834
:104240003C2043F004030364012070471846704784
:104250002DE9F84606460F4691461D464FEA114A9B
:104260003368BAF1010F0CBF5C699C6927EA04044A
:10427000A4B2B4FA84F46409A14501D0002025E079
:104280006A1CEED0FFF75CFD089BC01AA84201D85B
:10429000002DE5D13368BAF1010F0CBF5B699B6952
:1042A00027EA03039BB2B3FA83F35B099945D7D19D
:1042B00000232022336386F83D2086F83E30326C9E
:1042C00086F83C3042F0200232640120BDE8F886D6
:1042D0002DE9F04104460F46164698462568686960
:1042E00027EA000080B2C0B16B695A0517D52B6868
:1042F00043F400732B606FF480636B612022002312
:10430000236384F83D2084F83E30236C43F004039B
:104310002364002384F83C300120BDE8F081731C45
:10432000DDD0FFF70DFDA0EB0800B04201D8002E54
:10433000D4D123685A6927EA020292B2002ACDD06A
:1043400000232022236384F83D2084F83E30236C30
:104350001343DDE770B504460D46164623685B69D6
:104360001B0601D500201EE02046FFF757FFC8B905
:104370006A1CF3D0FFF7E4FC801BA84201D8002D93
:10438000ECD123685B6913F08003E7D1202223631B
:1043900084F83D2084F83E30226C84F83C3042F0B2
:1043A00020022264012070BD2DE9F0431546026809
:1043B00085B0DDE90C789946136843F48073136087
:1043C0000E463B46CDF8008000224FF00111044616
:1043D000FFF73EFF236838B11B68DB0502D54FF4B9
:1043E00000732364032620E006F0FE061E611A49CE
:1043F00043463A462046FFF76BFFA8B9236803906F
:104400005A6903929B690393424639462046039BAF
:10441000FFF7A0FF064660B1236C042B01BF2268A2
:10442000136843F4007313600126304605B0BDE8FD
:10443000F083B9F1010F236802D1EDB21D61F4E7F9
:104440002A0A1A61394642462046FFF783FF0028B0
:10445000E2D12368F1E700BF020001002DE9FF4728
:104460009A46036815461A6842F480621A601A6810
:10447000DDE90C7842F480721A600E463B46CDF8B6
:10448000008000224FF001110446FFF7E1FE23688F
:1044900038B11B68DB0544BF4FF40073236403206D
:1044A00021E05FFA86F906F0FE061E612B494346BD
:1044B0003A462046FFF70CFFA0B9236803905A69DB
:1044C00003929B690393424639462046039BFFF7BC
:1044D00041FF58B1236C042B01BF2268136843F4D9
:1044E00000731360012004B0BDE8F087BAF1010F3A
:1044F00023681AD1EDB242461D6139462046FFF7C6
:1045000029FF02460028E5D121680B6843F4807337
:104510000B602046CDF800803B464FF00111FFF7BD
:1045200097FE226860B11368B4E72A0A1A61394617
:1045300042462046FFF70EFF0028CBD12368D9E77B
:1045400049F001031361054943463A462046FFF707
:10455000BFFE003818BF0120C5E700BF0200010000
:1045600070B504460D46164623685B695B0701D5A6
:1045700000201EE02046FFF751FEC8B96A1CF3D0A8
:10458000FFF7DEFB801BA84201D8002DECD1236889
:104590005B6913F00403E7D12022236384F83D20F4
:1045A00084F83E30226C84F83C3042F020022264D1
:1045B000012070BD70B504460D46164621684B6952
:1045C00013F0400301D0002011E04A69D2060FD554
:1045D0006FF010024A612022236384F83D2084F8A2
:1045E0003E30236C2364002384F83C30012070BDEE
:1045F000FFF7A6FB801BA84201D8002DDED123685F
:104600005B6913F04003D9D12022236384F83D2055
:1046100084F83E30236C1343E4E7000070B5044691
:1046200008B9012070BD90F83D3003F0FF021BB9BE
:1046300080F83C20FDF7B4FB242384F83D30236848
:104640001A6822F001021A601A6842F400421A60E5
:104650001A6822F400421A6000F0A8FE3F4B656819
:104660009D4294BF3E4B3F4B98428CBF0023012399
:10467000002BD6D12268394E51683B4BB0FBF3F387
:1046800021F03F011943B542516088BF4FF496763F
:10469000116A88BF734321F03F0184BF4FF47A76DB
:1046A000B3FBF6F301330B431362D169431E2B486E
:1046B00021F44F41854221F0FF0132D86D0040F6D0
:1046C000FC70B3FBF5F30133034242D0C3F30B0399
:1046D0001943D161D4E907301168034321F0C001C7
:1046E0000B4313609168D4E9030321F403410343AE
:1046F00021F0FF010B439360D4E90530D1680343F7
:1047000021F0FF010B43D360136843F001031360F2
:1047100000202023206484F83D30206384F83E008C
:1047200080E7A06850B905EB4505B3FBF5F301330D
:10473000C3F30B037BB143F40043C9E7192068437B
:10474000B3FBF0F30133C3F30B0323B143F4404352
:10475000BEE70423BCE70123BAE700BFA08601003F
:104760007F841E00FF083D0040420F002DE9F74303
:10477000044699460C9E0F469046FFF7E1FA94F8DE
:104780003D30202B054603D0022003B0BDE8F08366
:1047900000903C49192301222046FFF759FD0028CB
:1047A000F2D194F83C30012BEED02068012384F83C
:1047B0003C300368D9075EBF036843F00103036020
:1047C000036823F400630360212384F83D30402311
:1047D00084F83E30002323640A9B6362BDF82C30CA
:1047E0006385638D2385284BE3624246CDE90065EE
:1047F0004B4639462046FFF7D7FD00282AD0012036
:10480000C3E7FFF7A7FD40B1236C042B01BF22686B
:10481000136843F400731360F1E7636A27681A466C
:1048200012F8011B39616262628D218D013A92B2E8
:1048300062857A69481E80B2520720850AD548B140
:104840005A783A6102336362638D013B02399BB24D
:1048500021856385238D2A4631462046002BD0D101
:10486000FFF77EFE0028CFD12268136843F400735F
:104870001360202384F83D3084F83C0084F83E0027
:1048800083E700BF020010000000FFFF2DE9F043A6
:10489000044687B09946109F0D469046FFF750FAA0
:1048A00094F83D30202B064604D00225284607B058
:1048B000BDE8F08300907A49192301222046FFF7D2
:1048C000C7FC0028F1D194F83C30012BEDD02068D2
:1048D000012384F83C300368DB075EBF036843F0C4
:1048E00001030360036823F400630360222384F858
:1048F0003D30402384F83E30002323640E9B6362E6
:10490000BDF83C306385638D2385664BE3622946A1
:10491000CDE900764B4642462046FFF79FFD05460F
:1049200008B10125C2E7228D2368B2B902905A6905
:1049300002929A690292029A1A6842F400721A600C
:10494000DFF86481238D002B2CD1202284F83D20B8
:1049500084F83C3084F83E30A8E7012A0AD11A686E
:1049600022F480621A6003905A6903929A69039252
:10497000039AE1E7022A0ED11A6822F480621A60D3
:104980001A6842F400621A6004905A6904929B69A2
:104990000493049BD4E705905A6905929B6905939B
:1049A000059BCDE7032B56D8012B15D1324639464E
:1049B0002046FFF7FFFD0028B3D123681A69636A18
:1049C0001A70636A01336362238D013B2385638D13
:1049D000013B9BB26385B5E7022B00963B464FF047
:1049E00000024146204619D1FFF732FC002898D139
:1049F00023681A6842F400721A601A69636A1A70AE
:104A0000626A531C6362238D013B2385638D013BE6
:104A10009BB2638523681B695370D2E7FFF718FCCC
:104A2000024600287FF47DAF2368196821F4806175
:104A300019601969636A1970636A01336362238DAF
:104A4000013B2385638D013B9BB263854146009604
:104A50003B462046C8E7324639462046FFF7AAFDC6
:104A600000287FF45EAF23681A69636A1A70628D4A
:104A7000616A013A92B24B1C628522686362238D9F
:104A80005069013B9BB2400723857FF55BAF032B49
:104A900002BF136823F48063136013694B7090E7BF
:104AA000020010000000FFFF0400010010B590F8A4
:104AB0003D30202BDCB216D1242380F83D30036832
:104AC0001A6822F001021A605A6A22F010025A6231
:104AD0005A6A114359621A6842F001021A6080F85A
:104AE0003D40002010BD0220FCE730B590F83D307D
:104AF000202BDCB216D10268242380F83D301368E5
:104B000023F001031360556A4FF6F0732B400B43FB
:104B10009BB25362136843F00103136080F83D4079
:104B2000002030BD0220FCE70068D1F800C0D201AF
:104B3000843283182DE9F043C6685D684C68D1F86B
:104B4000189005F470455D60C5680CF10107C5F368
:104B50000B45C6F30B4626443D4445EA06455D60D9
:104B6000C668CD68C6F30A062E449D6805F47045F4
:104B70009D60C7688D68C7F30A0701353D4445EA63
:104B800006459D601D690E6925F007051D614FF002
:104B9000000E1E6191F832709D6991F83180C3F862
:104BA00018E091F8305045EA096545EA082545EADC
:104BB00007459D615D6925F0FF055D614D695D619A
:104BC000DD6925F4E06525F00705DD61D1E90757CA
:104BD0003D43DD619D6A4D6AC3F828E0072E9D6262
:104BE0009CBF0E4DAE5DDD6A05F0E025DD6288BF3D
:104BF00001268D6AC96AA4EB0C047443754303341F
:104C000044EA0544DC621C6B6FF30A041C631963FD
:104C1000835843F001038350BDE8F083F843020852
:104C200038B50446002863D090F8A13003F0FF02A5
:104C30001BB980F8A020FDF70FF9022384F8A130FA
:104C400023689A6922F070429A61D4E901200243F4
:104C5000E06899690243206902430A439A619A68AD
:104C6000244960690A409A609A6842EA0042A06951
:104C700002439A60DA68E0690A40DA60DA6842EA78
:104C80000042206A0243DA601A69606A0A401A61C7
:104C90001A6942EA0042A06A02431A615A690A404C
:104CA0005A615A69E16A42EA0142216B0A435A6138
:104CB000DA6A94F8350094F8361002F07F42DA622E
:104CC000DD6A94F834202A4342EA002242EA014293
:104CD000DA625A6B42F006025A639A6942F00102A4
:104CE0009A6100200123C4F8A40084F8A13038BDE3
:104CF0000120FCE700F800F070477047036870B5CA
:104D00009E6B5D6B7207044614D5690712D55A6B0A
:104D100022F004025A630422DA63D0F8A43043F08C
:104D20000103C0F8A430002380F8A12080F8A0304F
:104D3000FFF7E2FFB20716D5AB0714D523685A6B0D
:104D400022F002025A630222DA63D4F8A430134339
:104D5000C4F8A430042384F8A130002384F8A030E0
:104D60002046FFF7C9FFF00710D5E9070ED52368E5
:104D70005A6B22F001025A630122DA63002384F89D
:104D8000A12084F8A0302046FCF744FC320711D55E
:104D90002B070FD523685A6B22F008025A630822AA
:104DA000DA63012384F8A130002384F8A030204680
:104DB000FFF7A3FF70BD2DE9F04190F8A030012B63
:104DC00006460F4694464FF002001FD04FF00108F0
:104DD00086F8A08086F8A10034240D4604FB026406
:104DE0000FCD38340FC40FCD0FC40FCD0FC42B68B7
:104DF0002360304662463946FFF796FE336800204E
:104E0000C3F8248086F8A18086F8A000BDE8F08170
:104E100090F8A020012A03464FF0020012D01A6831
:104E200083F8A100506B20F0010050630648016434
:104E3000516B41F0010151630020012283F8A12050
:104E400083F8A000704700BF0068014037B5002319
:104E50000193184B184D1A6C42F080521A641B6C67
:104E600003F080530193019B144B01221A64FEF757
:104E700067FF04466B68DA030BD5104B0E4D012219
:104E80005A64FEF75DFF04466B689B030AD5002059
:104E900006E0FEF755FF001BB0F57A7FEAD9032044
:104EA00003B030BDFEF74CFF001BB0F57A7FEBD9A5
:104EB000F5E700BF003802400070004000000E42DD
:104EC0002DE9F341044640B30368DE0710D423689C
:104ED0009D075BD42368190700F19D8023685A075A
:104EE00000F1BD80A369002B40F0248100202CE05C
:104EF0008D4B9A6802F00C02042A07D09A6802F0DF
:104F00000C02082A0BD15B68590208D5864B1B6836
:104F10009A03DCD56368002BD9D1012015E06368C2
:104F2000814DB3F5803F13D12B6843F480332B6060
:104F3000FEF706FF7C4E054633689B03C7D4FEF799
:104F4000FFFE401B6428F7D9032002B0BDE8F081C2
:104F5000B3F5A02F04D12B6843F480232B60E3E743
:104F60002A6822F480322A602A6822F480222A6089
:104F7000002BDDD1FEF7E4FE06462B689F03A6D585
:104F8000FEF7DEFE801B6428F7D9DDE7664B9A68E2
:104F900012F00C0F07D09A6802F00C02082A11D107
:104FA0005B685D020ED4604A1368990702D5E36816
:104FB000012BB2D11368216923F0F80343EAC1033E
:104FC000136087E7E268594BB2B101221A60FEF71D
:104FD000B7FE554D06462B689B0707D52B682269FF
:104FE00023F0F80343EAC2032B6073E7FEF7A8FE41
:104FF000801B0228EFD9A7E71A60FEF7A1FE4A4EF0
:10500000054633689F077FF565AFFEF799FE401BA5
:105010000228F6D998E76269444B82B10122C3F8AD
:10502000802EFEF78DFE404E0546736F9B073FF5C1
:1050300055AFFEF785FE401B0228F6D984E7C3F87A
:10504000802EFEF77DFE384E0546736F9F077FF575
:1050500045AFFEF775FE401B0228F6D974E7324BC8
:105060001A6C12F0805228D101921A6C42F08052D0
:105070001A641B6C03F080530193019B01272C4D94
:105080002B68D8051BD5A368274D012B27D12B6F83
:1050900043F001032B67FEF753FE234E054641F212
:1050A0008838336F9A0739D5002F3FF41BAF1E4A5B
:1050B000136C23F08053136414E70027DFE72B6899
:1050C00043F480732B60FEF73BFE06462B68D90540
:1050D000D9D4FEF735FE801B0228F7D934E7052B1B
:1050E00004D12B6F43F004032B67D0E72A6F22F023
:1050F00001022A672A6F22F004022A67002BCAD114
:10510000FEF71EFE41F2883806462B6F9B07CBD573
:10511000FEF716FE801B4045F7D915E7FEF710FE97
:10512000401B4045BDD90FE7003802400000474210
:1051300000700040374DAA6802F00C02082A3ED0E9
:10514000022B354B4FF000021A662BD1FEF7F8FD0B
:1051500006462B6899011FD4D4E907321343626ACB
:1051600043EA8213E26A43EA0263A26A5208013AFE
:1051700043EA02436B60284B264D01221A66FEF774
:10518000DFFD04462B689A013FF5B0AEFEF7D8FD6F
:10519000001B0228F6D9D7E6FEF7D2FD801B0228B5
:1051A000D7D9D1E6FEF7CCFD04462B689B017FF5ED
:1051B0009DAEFEF7C5FD001B0228F6D9C4E6012B03
:1051C0003FF4ABAE6B68E26903F4800191427FF477
:1051D000A4AE216A03F03F028A427FF49EAE616A68
:1051E00047F6C0721A40B2EB811F7FF496AEA26AF6
:1051F000520803F44031013AB1EB024F7FF48DAE17
:10520000E26A03F07063B3EB026F14BF0120002069
:105210009BE600BF0038024000004742134908B532
:105220008B6803F00C03042B1CD0082B1CD14A689C
:105230004B68496813F4800314BF0D480D48C1F34F
:10524000881118BF002302F03F02A1FB0001FBF709
:105250006FF8064B5B68C3F3014301335B00B0FB9F
:10526000F3F008BD0248FCE70248FAE700380240C4
:1052700000127A000024F4002DE9F0410D460446A6
:1052800010B90120BDE8F081434B1A6802F00F020B
:105290008A4228D321688F072DD4C80740D43E4BBB
:1052A0001A6802F00F02AA4265D8226851076BD42F
:1052B000130707D5394A2169936823F4604343EA09
:1052C000C1039360FFF7AAFF344B354A9B68C3F3D1
:1052D0000313D35CD840334B1860334B1868FCF78A
:1052E00039FF0020CEE7CAB21A701B6803F00F0323
:1052F0008B42C6D1CEE7294B11F0040F1EBF9A682E
:1053000042F4E0529A600E0742BF9A6842F460424B
:105310009A609A68A06822F0F00202439A60BCE7A3
:1053200062681E4B012A1CD11B6813F4003FA8D0F1
:105330001A4EB36823F003031343B360FEF700FD76
:1053400041F288380746B368626803F00C03B3EB98
:10535000820FA4D0FEF7F4FCC01B4045F3D9032014
:1053600090E7911E01291B6802D813F0007FDEE749
:1053700013F0020FDBE7EAB21A701B6803F00F03A9
:10538000AB427FF47EAF90E70449E0688B6823F47A
:10539000E05303438B608BE7003C0240003802403F
:1053A000E8430208740000207C000020044B054AFA
:1053B0009B68C3F38223D35C034A1068D8407047CC
:1053C00000380240E0430208740000200F2303600D
:1053D0000B4B9A6802F0030242609A6802F0F002F6
:1053E00082609A6802F4E052C2609B68DB0803F4B2
:1053F000E0530361034B1B6803F00F030B6070471E
:1054000000380240003C0240036813F0430FF7B538
:10541000044640F08880236813F00C0F45D08C4B75
:105420008C4D00221A67FEF78BFC06462B6899000C
:1054300000F1CB8021684A0715D5D4E90403D5F8DB
:1054400088201B0602F0E04243EA80131343C5F8AC
:105450008830D5F88C30226A23F4F853013A43EAB5
:105460000223C5F88C300B0714D57A4AA369D2F809
:10547000881020691B0701F0706143EA80130B4319
:10548000C2F88830D2F88C30616A23F440330B4381
:10549000C2F88C306E4B6F4E01221A67FEF750FC3B
:1054A000054633689F0040F197802368980634D5FD
:1054B00000230193674B684D1A6C42F080521A64C6
:1054C0001B6C03F080530193019B2B6843F48073A2
:1054D0002B60FEF735FC06462B68D80540F183802B
:1054E0005C4DA26A2B6F13F4407340F08380A36A73
:1054F00003F44072B2F5407F564A40F09E809168B6
:1055000023F0704021F4F81120F4407001439160C1
:10551000116FC3F30B030B4313672368DB0600F122
:10552000908000204FE04A4B4A4E00229A66FEF7D8
:1055300007FC054633681F013FD42168C80741BFF7
:10554000D4E901231B0743EA8213C6F884308A0793
:1055500015D5404AE368D2F8840065681B0600F060
:10556000E04043EA85130343C2F88430D2F88C004C
:10557000E36920F01F00013B0343C2F88C304B0667
:105580000AD5E36862681B0643EA8213A26843EA0D
:105590000273304AC2F884302D4B2E4E01229A6697
:1055A000FEF7CEFB054633681F013FF534AFFEF72B
:1055B000C7FB401B0228F6D904E0FEF7C1FB401BE5
:1055C0000228B7D9032003B0F0BDFEF7B9FB801B5A
:1055D00002287FF62BAFF5E7FEF7B2FB401B02284F
:1055E0007FF65FAFEEE7FEF7ABFB801B02287FF68E
:1055F00073AFE7E702F4407293423FF478AF2B6F4A
:10560000134A0121C2F8401E23F440730021C2F85E
:10561000401E2B672B6FD9077FF569AFFEF790FB14
:1056200041F2883706462B6F9A073FF560AFFEF7C9
:1056300087FB801BB842F6D9C4E7916821F4F811C2
:1056400065E7064B94F82C20C3F8E02169E700BF1A
:1056500000004742003802400070004000104742FE
:1056600038B50D460446C8B190F82C3003F0FF025F
:105670001BB980F82D20FCF701FD022384F82C30A3
:10568000211D206800F00EFD62682068294600F0A8
:105690003FFD012384F82C30002038BD0120FCE7B9
:1056A00070B590F82C30022B05460E46D8B212D0B9
:1056B00000F0FB04012C0FD1022385F82C30286860
:1056C00000F05CFD3368022B06BF052385F82C3003
:1056D00085F82C40002070BD0120FCE738B590F81B
:1056E0002C30022B0446D8B20DD094F82C30012B6C
:1056F000DDB209D10223206884F82C3000F062FD6D
:1057000084F82C50002038BD0120FCE72DE9F34738
:105710001F46894690460446FEF712FB0A9D3D440B
:105720002D1AFEF70DFB264B1E68C6F3CB366E43D3
:10573000824601962268936839EA03030CBF01236D
:105740000023434501D100202EE07B1CF3D0FEF75F
:10575000F7FAA0EB0A00A84229D323685A6822F07E
:10576000E0025A606268B2F5827F0AD1A268B2F59F
:10577000004F02D0B2F5806F03D11A6822F04002C8
:105780001A60A26AB2F5005F07D11A6822F40052CB
:105790001A601A6842F400521A60012384F85130EA
:1057A000002384F85030032002B0BDE8F087019A4E
:1057B000019B002A03F1FF33019308BF1546B9E7A7
:1057C00074000020F0B585B00B4600920E461746D7
:1057D000022101220446FFF799FF054628B1636DB7
:1057E00043F020036365032515E0124B1868124B44
:1057F000B0FBF3F04FF47A73584363680390B3F54A
:10580000827F0BD1009733462A4680212046FFF73E
:105810007DFF0028E3D1284605B0F0BD039B002B97
:10582000F9D0039B013B039323689B681B06F5D4C7
:10583000F1E700BF7400002000366E0137B50B465B
:105840004168B1F5827F044608D000920121002210
:10585000FFF75CFFD0B9002003B030BD8168B1F51F
:10586000004F02D0B1F5806F07D125682868B1F5E7
:10587000806F20F04000286004D000928021002238
:105880002046E5E7009201210022F9E7636D43F02D
:10589000200363650320DFE710B50446002855D0D8
:1058A000436A002B4ED14268B2F5827F00D0C361BB
:1058B0000023A36294F8513003F0FF0223B984F867
:1058C00050202046FCF7A4FB2168A068A2690223AF
:1058D00084F851300B6823F040030B60636800F4D8
:1058E000044003F482730343E06800F40060034360
:1058F000206900F002000343606900F001000343E7
:1059000002F400700343E06900F038000343206AAA
:1059100000F080000343A06A00F4005003430B60D2
:10592000636A120C03F0100302F004021A434A6087
:10593000CB6923F40063CB6100200123606584F808
:10594000513010BD0023C0E90433B1E70120F8E76E
:105950002DE9F74304461F460D469046FEF7F0F941
:1059600094F85130012B8146D8B240F09F80002D31
:1059700074D0B8F1000F71D094F85030012B00F0C2
:105980009580032384F8513000236365C4E9103304
:10599000A4F83680A363A387E387A368266884F806
:1059A0005000B3F5004F2563A4F8348007D1336865
:1059B00023F040033360336843F48043336033683B
:1059C000E2685B065EBF336843F040033360B2F5C4
:1059D000006F636845D113B1B8F1010F07D135F8F5
:1059E000023BF3602563E38E013B9BB2E386E38ECB
:1059F0009BB2D3B94A4639462046FFF7E3FE00285A
:105A000051D1A36833B901932368DA6801929B6886
:105A10000193019B012384F85130606D0023C01A6B
:105A200084F8503018BF012018E022689368980766
:105A300005D5236B33F8021BD1602363D3E7FEF750
:105A40007FF9A0EB0900B842D1D3791CCFD0012354
:105A500084F85130002384F85030032003B0BDE8AF
:105A6000F08313B1B8F1010F08D12B783373236B96
:105A700001332363E38E013B9BB2E386E38E9BB24B
:105A8000002BB7D023689A68920703D5226B12784F
:105A90001A73ECE7FEF754F9A0EB0900B842EDD316
:105AA0007B1CEBD0D3E720236365AAE70220D5E770
:105AB0002DE9F74304460D4691461E46DDF8288041
:105AC000FEF73EF994F851306268012B0746D9B2CF
:105AD0000AD0B2F5827F40F0E580A368002B40F049
